:020000040800F2
:20000000005000207D1C0008CD1A0008D11A0008D51A0008D91A0008DD1A000800000000FC
:20002000000000000000000000000000E11A0008E51A000800000000E91A0008ED1A00089C
:20004000C51C0008C51C0008C51C0008C51C0008C51C0008C51C0008C51C0008C51C000858
:20006000C51C0008C51C0008C51C0008F11A0008C51C0008FD1A0008C51C0008C51C0008D8
:20008000C51C0008C51C0008C51C0008C51C0008091B0008C51C0008C51C0008C51C0008D5
:2000A000C51C0008C51C0008C51C0008C51C0008C51C0008C51C0008C51C0008C51C0008F8
:2000C000C51C0008C51C0008C51C0008C51C0008C51C0008C51C0008C51C0008151B000889
:2000E000C51C0008C51C0008C51C0008000000000000000000000000000000000000000045
:2001000000000000000000005FF808F110B5054C237833B9044B13B10448AFF3008001234D
:20012000237010BDC0010020000000000070000808B5034B1BB103490348AFF3008008BDB1
:2001400000000000C401002000700008034613F8012B002AFBD1181A013870474FF0FF0C60
:200160001CEAD0521EBF1CEAD15392EA0C0F93EA0C0F6FD01A4480EA010C400218BF5FEAAB
:2001800041211ED04FF0006343EA501043EA5111A0FB01310CF00040B1F5000F3EBF49004D
:2001A00041EAD3715B0040EA010062F17F02FD2A1DD8B3F1004F40EBC25008BF20F0010052
:2001C000704790F0000F0CF0004C08BF49024CEA502040EA51207F3AC2BFD2F1FF0340EA15
:2001E000C250704740F400004FF00003013A5DDC12F1190FDCBF00F000407047C2F10002EA
:20020000410021FA02F1C2F1200200FA02FC5FEA310040F1000053EA4C0308BF20EADC706E
:20022000704792F0000F00F0004C02BF400010F4000F013AF9D040EA0C0093F0000F01F069
:20024000004C02BF490011F4000F013BF9D041EA0C018FE70CEAD15392EA0C0F18BF93EA7C
:200260000C0F0AD030F0004C18BF31F0004CD8D180EA010000F00040704790F0000F17BF79
:2002800090F0004F084691F0000F91F0004F14D092EA0C0F01D142020FD193EA0C0F03D104
:2002A0004B0218BF084608D180EA010000F0004040F0FE4040F40000704740F0FE4040F45D
:2002C0004000704780F0004002E000BF81F0004142001FBF5FEA410392EA030F7FEA226CF2
:2002E0007FEA236C6AD04FEA1262D2EB1363C1BFD218414048404140B8BF5B42192B88BF59
:20030000704710F0004F40F4000020F07F4018BF404211F0004F41F4000121F07F4118BF4D
:20032000494292EA030F3FD0A2F1010241FA03FC10EB0C00C3F1200301FA03F100F00043C5
:2003400002D5494260EB4000B0F5000F13D3B0F1807F06D340084FEA310102F10102FE2ACC
:2003600051D2B1F1004F40EBC25008BF20F0010040EA03007047490040EB0000013A28BFDA
:20038000B0F5000FEDD2B0FA80FCACF1080CB2EB0C0200FA0CF0AABF00EBC250524218431D
:2003A000BCBFD0401843704792F0000F81F4000106BF80F400000132013BB5E74FEA4103D8
:2003C0007FEA226C18BF7FEA236C21D092EA030F04D092F0000F08BF0846704790EA010F1D
:2003E0001CBF0020704712F07F4F04D1400028BF40F00040704712F100723CBF00F50000F3
:20040000704700F0004343F0FE4040F4000070477FEA226216BF08467FEA2363014642020C
:2004200006BF5FEA412390EA010F40F4800070474FF0000304E000BF10F0004348BF4042A4
:200440005FEA000C08BF704743F0964301464FF000001CE050EA010208BF70474FF000033E
:200460000AE000BF50EA010208BF704711F0004302D5404261EB41015FEA010C02BF84460C
:200480000146002043F0B64308BFA3F18053A3F50003BCFA8CF2083AA3EBC25310DB01FA01
:2004A00002FC634400FA02FCC2F12002BCF1004F20FA02F243EB020008BF20F00100704701
:2004C00002F1200201FA02FCC2F1200250EA4C0021FA02F243EB020008BF20EADC707047A0
:2004E0004FF0FF3C06E000BF4FF0010C02E000BF4FF0010C4DF804CD4FEA40024FEA410396
:200500007FEA226C18BF7FEA236C11D001B052EA530C18BF90EA010F58BFB2EB030088BF89
:20052000C81738BF6FEAE17018BF40F0010070477FEA226C02D15FEA402C05D17FEA236C2F
:20054000E4D15FEA412CE1D05DF8040B704700BF844608466146FFE70FB5FFF7C9FF002856
:2005600048BF10F1000F0FBD4DF808EDFFF7F4FF0CBF012000205DF808FB00BF4DF808ED18
:20058000FFF7EAFF34BF012000205DF808FB00BF4DF808EDFFF7E0FF94BF012000205DF839
:2005A00008FB00BF4DF808EDFFF7D2FF94BF012000205DF808FB00BF4DF808EDFFF7C8FFD6
:2005C00034BF012000205DF808FB00BF70B5002301244FF480324FF4003602254FF48011FA
:2005E00094B00AA8CDE90F33CDE90633CDE90833CDE902330D930593019304930A940E949F
:200600000B9212920C961195139103F093F908B172B6FEE703460F264FF48062214605A8B1
:20062000CDE9065309930596089203F0B1FB08B172B6FEE712214FF480424FF4800301A8CE
:20064000CDE90323019103F063FC08B172B6FEE714B070BD002480B58AB001F059FBFFF755
:20066000B5FF0A2001F078FBCDE90644CDE90844954D2246AB694FF2200143F02003AB6114
:20068000AB69924803F020030193019BAB69012643F00403AB61AB69022703F004030293D9
:2006A000029BAB694FF0050843F00803AB61AB6903F008030393039B02F0E8F94FF2200376
:2006C000824806A9CDE906360894099702F0CEF84FF400437E4806A90693CDE9074602F032
:2006E000C5F8182379480DEB03010693CDE9074602F0BCF86B69224633436B616B6921464A
:2007000033400B200093009B01F0AAFD0B2001F0DFFD224621460D2001F0A2FD0D2001F0D3
:20072000D7FD4FF480724FF400236A4D6A492846CDE90644C5E9001408942C732C75AA60CA
:20074000EB61C5F8108001F0DBFC08B172B6FEE7034606A92846CDE90636089301F04CFB47
:2007600008B172B6FEE7284606A9CDE9066701F043FB08B172B6FEE70326284606A9CDE982
:20078000067601F039FB08B172B6FEE70424284606A9CDE9066401F02FFB08B172B6FEE7AC
:2007A000284606A9CDE9064801F026FB034608B172B6FEE74FF4E1340C2248484849C0E9A7
:2007C0000143C0E90333C0E906330160426103F049FE044608B172B6FEE705F0A5FD2F20E0
:2007E00040F2F31280233F4D3F49C5E901042846CDE90644CDE90844C5E9044404942960D1
:20080000EA60AB61059403F023FD08B172B6FEE74FF48053284606A9069303F025FC0346E7
:2008200008B172B6FEE7284604A9CDE9043303F03DFD08B172B6FEE7002363200921802285
:200840002A4CCDE90633CDE90833CDE90433A3602361274BE160C4E900302046A26103F0E2
:20086000F7FC08B172B6FEE74FF48053204606A9069303F0F9FB034608B172B6FEE72026BF
:20088000204604A9CDE9046303F010FD054608B172B6FEE74FF4F07216490E4801F07CFB55
:2008A000204603F0B5FB00F0BBF800F017FD00F0A9FD2A463146054802F0E8F80E4C20680A
:2008C00001F0BCF9FBE700BF00100240000C014000080140E81000200024014058100020E4
:2008E000004800405C110020002C0140A010002000040040DC010020640F0020144B026809
:200900009A4200D0704710B50122124C2021124802F0BCF80021114800F01CF900F0F4FA90
:2009200000F0BCF900F064FA00F096FA206800F09BFA206800F0DCFC00F028FA00F0F4F9F8
:20094000BDE8104000222021034802F09FB800BF00240140640F0020000C0140DC010020AA
:20096000144B02689A4200D0704710B50122124C2021124802F08AF8F021114800F0EAF8BA
:2009800000F0C2FA00F08AF900F032FA00F064FA206800F069FA206800F0AAFC00F0F6F9F6
:2009A00000F0C2F9BDE8104000222021034802F06DB800BF00240140640F0020000C0140CE
:2009C000DC01002072B6FEE710B44FF4137401220649074B04FB00101B6880F8342203F167
:2009E0001402C0E98E3210BC704700BF34060020640F00204FF4137310B5074C002203FB48
:200A00000044B4F81E12D4F8200202F03FF8034B1B68C4F8243210BD34060020640F002002
:200A20002DE9F84F00264FF07E59444CDFF81C81DFF81CA1A71E00254FF400722946204611
:200A400004F8025CC4F8065205F074FEA4F80052A4F80252A4F80452C4F80E52A4F81252D5
:200A6000C4F81652C4F82652C4F82A52C4F84292C4F8468276B3012E4BD0022E53D00722E3
:200A80004FF4004387F80029C7F804A9A7F802390122B4F81C12D4F81E0201F0F7FF032EE1
:200AA000C4F8225284F83252C4F83652C4F83A52A4F83E5229D1224B224A197C587C224BA5
:200AC00041EA0021C3E90055157015819D605181BDE8F88F0E224FF48053C7F820A287F86D
:200AE0001C22A7F81E320122B4F81C12D4F81E0201F0CCFF0023C4F8223284F83232C4F855
:200B00003632C4F83A32A4F83E32013604F5137491E70D224FF40053C7F86CA487F868246B
:200B2000A7F86A34DFE709224FF48043C7F8B8A687F8B426A7F8B636D5E700BF36060020A9
:200B4000800F0020740F0020680F002000001643000C01402DE9F04F00260B46DFF834C16E
:200B60000246B14660464FF4937A85B00533DFF828810091019300270099019CB3B25918FB
:200B800089B22344CDE902993C4632F811509BB20EE003998D426ED80134302C15D032F8C9
:200BA00013502F2C03F1050308BFA0F840529BB2BD42EED90021039704AF07EB8101013460
:200BC00041F8085C302C029FE9D13149039B01EB4601CD883B44C3F34F0305FB03F540F66C
:200BE000FF73ED089D4228BF1D46042EADB24BD0B0F802320AFB06310CEB41014D80013367
:200C00009BB2B0F806E2FF2B94BFA0F80232A0F80292BEF1FF0F30D9B0F8043201339BB25D
:200C2000FF2BA0F8043201D9A0F804920024B0F804320AFB06FB03EB0E07BFB2D9B2594410
:200C40000CEB4101013349889BB29F420C44F5D104EB84035B00B3FBFEF3B8F80010C0F82A
:200C60000832A94201D2A8F80050013608F1020800F513707FE701219EE70EF1010E1FFAA6
:200C80008EFEA0F806E2D1E705B0BDE8F08F00BF800F0020340600201C06002000221F4824
:200CA000F0B5034615464FF493764FF07E5E1C49DFF870C00F681978012905D00132042AB0
:200CC00003F51373F7D1F0BDB3F8061259B1B3F80212E9B9FF2106FB021100EB41014988C1
:200CE00001EB81014900D3F808428C420DD9D3F82C1281B1791A0E29E0D91D70C3F844E248
:200D0000C3F848C2C3F82C52D8E7C3F82C52D5E7013989B2DFE7C3F82C72CFE7340600207D
:200D2000640F002000001643002270B51546134E134BC6E9002203F5136493F8342252B93A
:200D400003F51373A342F8D108220C490D4804F0C3FE284670BD02220B4911F8010F28B1D9
:200D60000132082AF9D1052DEAD9EDE7013593F81C12EDB2052DB154E2D9E5E72C060020DD
:200D800034060020C81100202D060020F0B40026134A144B1568DFF854C003F5136193F8C8
:200DA000342222B1D3F83C220AB1AA4205D903F513738B42F3D1F0BC70470222C3E98E6626
:200DC00093F81C72084883F8346210F8014FBC4203D00132082AF8D1E9E70CF80260E6E73F
:200DE000640F0020340600202D0600202C0600202DE9F0474FF00009144C154FDFF854A03D
:200E000004F51368D4F8486239463046FFF75EFA49460546FFF7D0FB70B128465146FFF7EE
:200E20009DF901463046FFF751FA09490546FFF7A5FB38B9C4F8485204F513744445E1D1E9
:200E4000BDE8F087C4F84872F6E700BF340600200000164380C2F53C024A136801331360D0
:200E6000704700BF640F0020F8B5002705460C4C04F51366D4F82432EA1A0BB1132A04D885
:200E800004F51374B442F5D1F8BD0122B4F81E12D4F8200201F0FAFDC4F82472F0E700BFA4
:200EA0003406002003464FF4137030B5124C134A00FB0340D0F80852A2FB0104A2FB050283
:200EC000D208E40802EB8200A5EB400504EB840095B0A1EB4001CDE90225CDE90041084A5D
:200EE000402104A805F02EFC0A2382B204A9054803F0EAFA15B030BD34060020CDCCCCCC57
:200F000018700008581000202DE9F04FCA4F83B03C78012C07D0022C00F0D280002C7CD078
:200F200003B0BDE8F08FC54D95F804E0BEF1000F00F070812046AC462C464FF413714FF4E4
:200F40009379BF4E05EB0E0814F8013B01FB0362B2F814A29346BAF1000F05D1B2F80CA2A8
:200F6000A2F81402C2F810A2BBF80622002A00F03481BBF802A20AF1FF32BAF1000F00F07E
:200F80002E8192B209FB032206EB4202B2F802A001FB0363D3F81022B3F814B252440BF152
:200FA000010B4445C3F81022A3F814B2CCD1A54B7A681B689B1A032BB2D94FF000094FF463
:200FC00013784846A96895F805A01CF8013B08FB0363B3F814B2BBF1000F10D0D3F81022F3
:200FE000D3F8304204FB02F2B2FBFBF28A42C3F8182204D911464FF001095FFA80FA0130E5
:201000007045E2DBB9F1000F02D0A96085F805A002233B7003B0BDE8F08FDFF8248221461D
:20102000464642464FF49375B2F806326BB1B2F80202431E002841D09BB205FB013306EB99
:2010400043035B889C4238BF1C460131042902F51372E9D14FF000094FF4937BC4EBC40A85
:201060004FEAEA03764D01932B78EBB9B5F80632002B62D0B5F80222531E002A67D09BB27A
:201080000BFB093306EB4303B3F802A05046A5F80CA2FFF7D1F9D5F84812FFF78DFA18B17C
:2010A000019B9A4500F3E18009F10109B9F1040F05F51375D8D103B0BDE8F08FFF23BCE7D9
:2010C00000235E4D7B726B7915F80380B8F1000F3FD12A79012A55D92B462A4401E09A4281
:2010E00050D013F8014B032CF9D1554EAB68D6F8FC2803EB4303B2EB930F44D301237B723D
:201100004FF413754046FFF75FFC2046FFF75CFC4046FFF76FFC05FB086305FB0465D3F8F3
:2011200018124046FFF7BEFE2046FFF763FC2046D5F81812FFF7B6FE34E009F10109B9F1C9
:20114000040FA5F80C3205F513758DD1B3E7FF2396E7B8F1030F44D12A79012A12D92B468E
:201160002A4401E093420DD013F8014B002CF9D1334EAB68D6F8182203EB4303B2EB930F12
:2011800001D3BBE72E4E4046FFF71EFC4046FFF731FC4FF4137303FB08634046D3F8181271
:2011A000FFF780FE012400222649254B086803F51361C3E98A021C7003F513739942F8D1D3
:2011C0000A233A70C6F83032C6F87C34C6F8C836C6F8143903B0BDE8F08F9246D8E6FF2255
:2011E000D0E6B8F1010F1DD12A79012ACAD92B462A4401E09A42C5D013F8014B022CF9D1A1
:201200000F4EAB68D6F8B02603EB4303B2EB930FB9D373E70B4B7A681B689B1A032B3FF68E
:20122000F7AE7DE6B8F1020F4BD12A79012AA9D92B462A440AE000BF740F0020680F0020BE
:2012400034060020640F00209A429BD013F8014B012CF9D11E4EAB68D6F8642403EB430303
:20126000B2EB930F8FD37C724AE74FF4137301224FF0000A142103FB0966164B164D1B6890
:201280003A707B60C6F83012204685F805A0C5F808A0FFF7CDF84FF07F51FEF75FFF534626
:2012A0002946524601F8013B0133042BC8F81022A8F81422C8F8480208F51378F2D12B71D6
:2012C0002EE6B8F1030F024E3FF663AF5BE700BF34060020640F0020680F00200022034BB3
:2012E000C3E90022C3E90222704700BF1C06002070B584B0064600F0BBFC20B9104DEB68C3
:20130000F31A632B01D804B070BD0446E9882889AA886B88CDE90210CDE9003280212B88E3
:20132000084A094805F00EFA0A2382B20649074803F0CAF8C5E900442C81EE6004B070BD8B
:201340001C060020447000089C05002058100020F0B596204FF00C1E4FF0081C4FF0961634
:201360000D4C0E4F208327600D4F2546224646210023C4E90466C4F808E0C4F80CC06760CA
:2013800004F1190001E012F8011F0B4482429BB2F9D16B83F0BD00BF800F0020464E4F43DB
:2013A000010008001349144B0A689A421BD18B88012B18D10A46002330B410484C8B12F877
:2013C000011B0B4482429BB2F9D19C420ED1094D0B4C0FCD0FC4012395E8070084E8070093
:2013E000184630BC7047002318467047002330BC1846704700FC0108464E4F431AFC010846
:20140000800F002010B5FFF7CDFF50B1064A074B148A07495C810122BDE81040054803F0D0
:20142000AFB8FFF795FFF1E7800F0020740F0020A00F00205810002000232DE9F041224A64
:2014400086B0551C02F11A0012F8011F0B4482429BB2F9D16B83EFF3108672B601F00AF902
:20146000044628B186F31088002006B0BDE8F081342001221549164BC86001A902A8CDE9E4
:2014800001440592049301F08FF9D0B9114C124F04F11C08214639440023022054F8042F58
:2014A000491B01F031F960B94445F3D101F0F6F862B686F31088B0FA80F0400906B0BDE881
:2014C000F08101F0EBF8CDE77F0F00200020024000FC01087C0F002004FC0108084B02688D
:2014E0009A4200D0704710B5064C207800F03EFB2146BDE810400122034803F041B800BF3C
:2015000000480040A00F002058100020704700BF10B50446FEF71AFE2146BDE8104082B2CA
:201520006423014802F0D0BF5810002000B58BB003460091064A202102A805F003F9642355
:2015400082B202A9034802F0BFFF0BB05DF804FB7C70000858100020F0B5BB4B0D461A7896
:2015600001469FB00AB901221A703F2D2C4628BF3F240EA8224605F0CFF800211EAB234412
:2015800003F8401C6DB1013C1EAB234413F8402CA4B20D2A01D00A2A05D103F8401C002C07
:2015A000F1D11FB0F0BDA94B0E9A9A4227D0BDF838303F2B30D03D210EA805F0F7F80446B5
:2015C000002858D000230EA804F8013BFEF7BEFD052874D003280DD19DF83830742B09D10A
:2015E0009DF83930682B05D19DF83A003038042840F2A1809648FFF78BFF1FB0F0BD9DF85F
:201600003C30002BD3D1FFF717FF002800F0B1809048FFF77DFFC4E78F48FFF779FF8F4829
:20162000FFF776FF8E48FFF773FF8E48FFF770FF8D48FFF76DFF8D48FFF76AFF8C48FFF791
:2016400067FF8C48FFF764FF8B48FFF761FF8B48FFF75EFF8A48FFF75BFF8A48FFF758FF67
:201660008948FFF755FF8948FFF752FF8848FFF74FFF1FB0F0BD3F210EA805F097F80028E5
:201680007BD004700EA8FEF761FD052879D00328B0D19DF83830742BACD19DF83930682BB6
:2016A000A8D19DF83A30A3F13002042AA2D8794A283B32F813107848FFF738FF71E77749CC
:2016C00004220EA805F07FF80146002892D19DF83C70303F042F8DD823782246202B04F165
:2016E0000104F9D0092BF7D02D2B00F0A5802B2B00F0E4804FF0000C002B00F0958000256A
:201700002E460BE001EB810405EB8503002E6BD000EB440112F8013F002B75D0A3F130006A
:20172000C4B2092CEED92E2B7FF464AF002E7FF461AF0126EEE723782146202B04F1010464
:20174000F9D0092BF7D0002B51D0002207E0B2F5803FBFF44FAF11F8013F002B48D002EBE0
:20176000820203EB4202303B092BA2F13002EED940E74B48FFF7CCFE13E74A48FFF7C8FEC6
:201780000FE7042245490EA805F01DF800287FF431AF9DF83C40303C042C3FF62BAF3D4A21
:2017A000414B02EB4402D28802ADA3FB0213D90801EB8101A2EB410292B2DB08002A40F00E
:2017C000848028461021394A04F0BCFF23462021374A009506A804F0B5FF642382B206A9B4
:2017E000344802F071FEDCE600EB430592E71A46284B92B200F1080123F8112000287FF4A6
:2018000007AF2D4B5A8103E705EB85056B000929D4BFC91803F10901BCF1000F00D0494235
:20182000B1F5204F3FF6E6AE1A4B0A4803EB4707F980FFF76DFEB4E65378002BEFD0224646
:201840004FF0010C5BE700BF9C0F002073617665F872000874700008A0700008C070000813
:20186000E0700008EC7000082C7100086871000894710008C0710008F071000818720008E5
:20188000287200085872000888720008C0720008DC700008800F00202C730008F072000884
:2018A0008470000830730008CDCCCCCC147300082073000858100020740F00205378002B05
:2018C000B2D022464FF0000C19E7009228461021014A04F037FF79E7187300080E4B82B0AF
:2018E0009A690E4942F001029A619A6902F001020092009ADA6942F08052DA61DB6903F081
:2019000080530193019B4B6823F0E06343F000734B6002B0704700BF0010024000000140AF
:20192000F0B500240268224B87B09A42CDE90244CDE9044401D007B0F0BD05461F20032612
:2019400003F56C439A6902A942F400729A619A694FF4807702F400720092009A9A6942F089
:2019600004029A619B69029003F0040311480193019B039600F07AFF80204FF48061202245
:201980004FF400530C4EF0600C48C6E9014430603046C6E905123761F36100F0BFFC18B98B
:2019A0002E62756207B0F0BDFFF70CF8F8E700BF0024014000080140181100200800024083
:2019C000104A036882B0934210D00F4A934201D002B070470D4BDA6942F00202DA61DB69A3
:2019E00003F002030193019B02B07047074B9A6942F400629A619B6903F400630093009BE2
:201A000002B07047002C0140000400400010024070B500240268294B86B09A42CDE9024425
:201A2000CDE9044401D006B070BD4FF4806105460220032603F5E433DA6942F48022DA61D5
:201A4000DA6902F480220092009A9A6942F008029A619B69029103F00803019302A90390DE
:201A60001748019B059600F001FF4FF40063144802A90293CDE9034400F0F8FE80214FF4D7
:201A80008053104E104A3046C6E90144C6E90444F160B4613260F36100F040FC58B90022AF
:201AA00004212720EE63756200F0DAFB272000F00FFC06B070BDFEF785FFF0E700480040D0
:201AC000000C01401410002030000240FEE700BFFEE700BFFEE700BFFEE700BFFEE700BFCF
:201AE000704700BF704700BF704700BF00F022B9014800F0FFBC00BF18110020014800F084
:201B0000F9BC00BF14100020014801F041B800BF8C160020014802F0CBBD00BF581000204F
:201B20000D49034610B50D4A0D4C0868121B20B10344934207D80B6010BD0A4C20460344ED
:201B400093420C60F7D904F0BDFD0C2203464FF0FF301A6010BD00BFA40F00200050002098
:201B60000004000078190020704700BF70B52F4C84B094F848308DF8070013B9012384F86A
:201B8000483000F0E3F800239DF807106064082984F8493022D07F2920D00A2907D00D297F
:201BA00005D0B4F840003E2832D904B070BD0023B4F84010635439BB00251D4A64231168BC
:201BC0000222080CADF80C108DF80E0003A91948A4F8405002F078FC04B070BDB4F84010FD
:201BE0000029E2D0144A01391568A4F84010642303222E0C03A90F48ADF80C508DF80E602C
:201C000002F062FC04B070BD0848FFF7A5FCD3E72154451C642301220DF107010548A4F883
:201C2000405002F051FC04B070BD00BFA80F0020DC700008581000206C73000838B50B4C57
:201C4000B4F8401031B194F849501DB9636CC31A312B00D838BD01232046655484F849309E
:201C6000FFF77AFCA4F8405038BD00BFA80F0020014B93F848007047A80F0020FFF774FF2B
:201C80000B480C490C4A002302E0D458C4500433C4188C42F9D3094A094C002301E0136035
:201CA0000432A242FBD304F013FDFEF7D3FC704700000020BC0100200C740008C001002057
:201CC00074190020FEE7000038B54FF47A730D4A054611780C4AB3FBF1F31268B2FBF3F038
:201CE00000F004FB08B90F2D01D9012038BD0446024629464FF0FF3000F0B2FA034B204649
:201D00001D6038BD040000200000002008000020074A08B51368032043F01003136000F090
:201D20008DFA0F20FFF7D0FFFFF7D8FD002008BD00200240034A044B11681B780B441360AC
:201D4000704700BFA411002004000020014B1868704700BFA411002038B50446FFF7F6FFDB
:201D6000631C054602D0044B1B781C44FFF7EEFF401BA042FAD338BD04000020436A9A6ACE
:201D800012F0500F0FD19A6A196842F4007210B59A628A6802F46022B2F5602F06D0184640
:201DA000FEF7DEFD10BD1B6A1B6B18471A7B002AF5D19A6A22F480729A629A6AD204EED4F3
:201DC0009A6A42F001029A62E9E700BF08B5406AFEF794FD08BD00BF704700BF406A08B5F1
:201DE000836A43F040038362C36A43F00403C362FFF7F2FF08BD00BF0246002070B492F88E
:201E0000243083B0012B01905BD0012382F824304B681F26062B14682DD90C2B03EB83030B
:201E200044D8256B0868233B9E4025EA060500FA03F32B43236309282BD9072600EB4003BC
:201E40008D681E3BE1689E409D4021EA0603A0F110012B430129E36026D82A4B9C4234D04A
:201E60000120936A43F020039362002382F8243003B070BC704703EB83030868656B053B7E
:201E80009E4025EA060500FA03F32B4309286363D3D8072500EB40008968236985408140F0
:201EA00023EA0500084320610020DEE7E56A0868413B9E4025EA060500FA03F32B43E36289
:201EC000B9E7022003B070BC7047A3681B02EBD4A368102843F40003A360E5D10A4B0B49E4
:201EE0001B68A1FB03139B0C03EB83035B000193019B002BD8D0019B013B0193019B002B01
:201F0000F9D1D1E7002401400000002083DE1B43002330B5026883B001939368D90727D4EC
:201F20001B4B04461B681B489168A0FB030341F001019B0C91600193019B2BB1019B013BC2
:201F40000193019B002BF9D1FFF700FF236805469B68DA070CD4FFF7F9FE431B022B2368CA
:201F600003D99A6812F0010205D09B68DB07F2D5002003B030BD0120A36A84F8242043F01C
:201F80001003A362E36A0343E36203B030BD00BF0000002083DE1B43F8B50446404D006827
:201FA0000F46A84216465CD03E4B984259D094F82430012B62D00123204684F82430FFF740
:201FC000A7FF0546002854D1A06A2168354B20F4706020F0010040F480709942A06250D09A
:201FE000A36A23F48013A3624B685A0505D5A36A23F4405343F48053A362A36A6FF0020203
:020000040800F2
:2020000013F4805318BFE36A206A18BF23F00603E3620023DFF894C084F82430224B4C31F8
:20202000C0E90AC3DFF888C03346C0F830C041F84C2C51F8446C3A4646F4807641F8446CA7
:2020400000F0A4F9236828469A6802F46022B2F5602F9A680CBF42F4A00242F480129A60E3
:20206000F8BD0F4B5B6813F4702FA0D001252846F8BD002384F824302846F8BD0225284684
:20208000F8BDA3F580635A6812F4702FA8D0A26A42F48012A2625B685B05AED5A7E700BF66
:2020A0000024014000280140CD1D00087D1D0008DD1D000838B503689A68D40701D4002092
:2020C00038BD9A68044622F001029A60FFF73EFE054623689B68D907F1D5FFF737FE431B76
:2020E000022B2368F6D99A68D207F3D50120A36A43F01003A362E36A0343E36238BD00BFB1
:20210000002869D0F8B5836A0446002B4CD02046FFF7D0FFA36A13F010033FD100283DD19F
:20212000A26AE569616822F488522943A568267B22F0020242F00202B5F5807FA26241EA4E
:202140004601227D36D0012D0CBF4FF4807C4FF0000C012A4CD02268364E576827F4694731
:2021600047EA0C07576097683E400E439660012D2ED0D56A304E25F470052B43D36293688B
:202180001E40B1422AD00120A36A23F0120343F01003A362E36A0343E362F8BDA36A012098
:2021A00043F01003A362F8BDC36280F82430FFF7B7FBACE7012A1AD022681E4B556825F415
:2021C000694545F48075556095682B400B4393602369013B1B05CCE7012070470023E362EA
:2021E000A36A23F0030343F00103A362F8BDAC46CEB1A26A42F02002A262E26A42F0010272
:20220000E26222680B4E5768B5F5807F27F4694747EA0C075760976806EA070646EA010636
:202220009660A4D1D4E7A269571E4CEA473747F4006CE6E7FDF7E1FFFE0E1FFF4FF6FF018D
:20224000064A0302D06803F4E0630840034343F0BF6343F40033D360704700BF00ED00E0F4
:20226000194B30B4DB68C3F30223C3F10705042D03F1040428BF0425062C19D94FF0FF3465
:20228000033B9C4022EA04024FF0FF34AC4021EA04019940002841EA02010CDB090100F193
:2022A0006040C9B200F5614080F8001330BC704700221346E8E7054B00F00F000901C9B221
:2022C0000344197630BC704700ED00E0FCEC00E0002807DB012300F01F01034A8B40400951
:2022E00042F82030704700BF00E100E00138B0F1807F0DD230B4F02500220721054B064C80
:20230000586084F82350104630BC9A60196070470120704710E000E000ED00E068B30346D1
:202320000221F0B4D0E90126002401253243DE68006832431E6983F8211011493243114EB3
:2023400001445F69A6FB01619E693A4332430668DF690909890026F47F563A4326F030066B
:20236000196409493243D96302609C6383F8204083F821502046F0BC70470120704700BF55
:20238000F8FFFDBFCDCCCCCC00000240F0B4044690F82000012839D0012594F8210084F800
:2023A0002050A842C6B205D0002384F820300220F0BC704702270020256884F82170A0631C
:2023C000276C2868BE4020F00100E76B286060687E606B60E36A10280BBFAA60A960E960D5
:2023E000EA6053B12B6843F00E032B602B68002043F001032B60F0BC70472B6823F00403A8
:202400002B602B6843F00A032B60EFE70220F0BC704700BF90F821200346022A06D0042180
:202420000022816380F820200120704770B4012600251A682846116821F00E011160146820
:20244000196C24F001041460DA6B06FA01F1516083F8216083F8205070BC704738B590F843
:2024600021200346022A03D0042201209A6338BD02681D481168824221F00E011160116884
:2024800021F00101116022D018498A421DD014318A4220D014318A4220D014318A4220D0A9
:2024A00014318A420CBF4FF480124FF08072012000240F4D596B6A6083F8210083F8204094
:2024C00039B118468847204638BD1022EFE70122EDE7084638BD4FF48072E8E74FF480522F
:2024E000E5E74FF48032E2E7080002401C00024000000240042270B4D0E90F6134680368EE
:202500008A4022421D681FD06A071DD51A68910603D41A6822F004021A603F4A93425CD028
:202520001432934261D01432934268D0143293426BD0143293425DD0143293420CBF4FF435
:2025400080034FF0806349E002228A40224222D0AA0720D51A68910606D401211A6822F01A
:202560000A021A6080F821102B4A93422BD01432934242D01432934244D01432934236D06A
:202580001432934244D0143293420CBF4FF400134FF0007318E008228A4022421BD02A07B2
:2025A00019D5012200251C6802FA01F124F00E041C60036B7160826380F8205080F821200C
:2025C0004BB170BC184702230021144C826A636080F820103AB970BC704704230F49C26AF6
:2025E0004B60002AF7D070BC10474023F6E74FF40053E9E74FF48023F0E72023E4E74FF408
:202600008063EBE74FF40073DEE74FF48043E5E74FF40033D8E700BF080002400000024038
:20262000124BDB6813F0100305D010231049CA6942F00202CA610D4AD268500706D50C49D7
:2026400043F00403CA6942F00102CA61074AD169C90708D50648C16941F00401C161D1696B
:2026600021F00101D161014AD360704700200240A8110020064B186910F0800006D005492F
:20268000054A59605A601869C0F3C010704700BF0020024023016745AB89EFCD034A00206F
:2026A000136943F080031361704700BF0020024070B50446FFF74AFB124D064601E0621CE8
:2026C00017D1EB68DB07FAD4EB68980644BF2023EB600C4BDA68D10607D4DA69D20704D44E
:2026E000D86810F0040000D170BDFFF799FF012070BD24B1FFF72AFB801BA042E1D9032072
:2027000070BD00BF002002402DE9F84F244F3C7E012C42D01D46012306464CF250308B4640
:2027200090463B76FFF7C4FF98BB012E03D0022E0CBF022604264FF0000ADFF868900BEBA9
:2027400046060023CAF12002FB6105FA02F228FA0AF0AAF12001104325FA01F1D9F81020A1
:20276000084342F0010284B2C9F810204CF25030ABF80040FFF79CFFD9F810200BF1020B76
:2027800022F001020AF1100AC9F8102008B9B345D7D100233B76BDE8F88F0220BDE8F88F6F
:2027A000A8110020002002402DE9F8432D4E337E012B54D00123337603688146022B31D0E4
:2027C0004CF250308846FFF773FF80BB4FF0FF33C8F80030D9E9025305EB83239D4226D2E5
:2027E0000746214C07E005F58065D9E9023203EB8223AB421CD9F76123694CF2503043F019
:20280000020323616561236943F040032361FFF74FFF236923F0020323610028E3D0C8F8DC
:20282000005005E04CF25030FFF742FF20B1012000233376BDE8F8830B4CF06123694CF21E
:20284000503043F004032361236943F040032361FFF72EFF236923F004032361E8E7022076
:20286000BDE8F883A8110020002002402DE9F04F0C6885B0002C00F0A1800026DFF8FCC108
:202880003346794FDFF8F881DFF8F8E1009004E0013334FA03F200F0918001229A4032EA12
:2028A000040002EA0405F3D14C68122C00F28980122C0CD8DFE804F08EC3C00A0B0B0B0B4A
:2028C0000B0B0B0B0B0B0B0B0BBDBA000026FF2D00F28780DDF800904FEA830A0F24D9F8A4
:2028E000002004FA0AFB22EA0B0206FA0AFA42EA0A02C9F80020D1F8049019F0805F00F04A
:202900009380DCF818A023F003024AF0010ACCF818A0DCF818A002F180420AF0010ACDF834
:202920000CA002F5803203F0030ADDF80CB04FEA8A0AD2F808B004FA0AF42BEA04000190BC
:20294000009C4A48844216D000F58060844200F081804748009C844273D04648009C8442ED
:202960000CBF4FF0030B4FF0040B01980BFA0AFA40EA0A000190019819F4801F9060BA6833
:2029800014BF2A43AA43BA60FA6819F4001F14BF2A43AA43FA607A6819F4003F14BF2A436D
:2029A000AA437A6019F4803F3A683AD015433D600C68013334FA03F27FF46FAF05B0BDE82D
:2029C000F08F444506D014D9744503D02A4884427FF47DAF8C68E4B9FF2D4FF004067FF64E
:2029E00079AF009A4FEA830AAAF1200A02F1040974E7DFF894904C45ECD009F570294C45BF
:202A0000E8D0A9F580194C457FF461AF8C68002CE2D00098012C4FF008060CBF02614261FE
:202A200055E722EA05053D600C6831E7CE680C364DE7CE6804364AE7CE68083647E7CE68F6
:202A400045E74FF0020B01980BFA0AFA40EA0A00019090E74FF0010B01980BFA0AFA40EA09
:202A60000A00019087E700BF000401400008014000100140001401400000321000100240C6
:202A800000002210000031100000121002B9090401617047F8B500285DD090F89132044629
:202AA00003F0FF02002B51D003220023254684F891226371206801F071FF55F8040B95E85E
:202AC0000E0001F059FF28B10223012584F891322846F8BD0146206801F06AFF0146002881
:202AE000F2D126790EB3234622464FF0010C11740131CFB2BE42C2E9080082F811C0D0741C
:202B000042F8280FF3D800210A4683F850110131C8B28642C3E9582283F8512183F85321B6
:202B2000C3F8682103F12803EFD895E80E00206801F040FF05460028C6D10123607320689F
:202B400084F8913202F0B0FE2846F8BD80F8902203F094FCA8E701252846F8BD38B590F879
:202B60009032012B11D004460125006884F8905201F00AFF2946204603F0A2FD206802F075
:202B800091FE002084F8900238BD022038BD00BF2DE9F04F044685B0006802F087FE10F4F6
:202BA000004527D1460500F1C581410416D4820400F13D82C30400F1D48207057FD48205FD
:202BC00000F17A83C30512D52268B2F8443023F480731B041B0CA2F8443008E02268B2F836
:202BE000443023F480431B041B0CA2F8443005B0BDE8F08F2068B0F844301904F7D5DFF8F6
:202C0000A89ADFF8A8BADFF8A8AA10E011F0100100F0EA80018811F400658BB240F00A81C9
:202C20001A0400F1A581B0F844301F04DFD5B0F84450A9B215F00F05E8D030F825304FEA4E
:202C4000850819049EB200F183803206EBD530F8253008EB05019BB203EA090343F4004358
:202C600004EBC10220F82530D37CC900012B00F0038116F48077B0F8503040F0E681167C2B
:202C80009BB2023303EBC60300EB4303B3F80064936AC6F30906B34240F2D5819B1B9362CE
:202CA000002B00F00A81556AD36A10313344354421445562D36202F033F92068B3E7216827
:202CC000ADF102030D460E461A460DF10E0036F8047B22F8027F9042F9D1B1F8402092B20D
:202CE00042F00102A1F84020B1F8402022F001021204120CA1F84020B1F844205605FBD523
:202D0000B1F8442022F480621204120CA1F8442033F8022F984225F8042BF9D1B1F8403018
:202D200020469BB243F00803A1F84030B1F8443023F400631B041B0CA1F84430B1F8403096
:202D40009BB243F00403A1F8403003F0E7FB4EE740F68F7330F8252008EB0501134043F0B5
:202D6000800320F8253004EBC10191F85C31002B40F0AC80B0F8503091F850219BB206336D
:202D800003EBC20300EB4303B3F80034C3F3090313BB1F4608EB050104EBC103D3F86C0197
:202DA000D3F864213844C3F86C01D3F868013A44C900C3F8642120B1D3F86031BB4240F208
:202DC000B48108EB050304EBC303204693F8501103F07AFB206838E7B1F85621D1F864114F
:202DE0001F4602F083FDD5E703889BB203EA090343F400430380B0F85030227C9BB203EB71
:202E0000C20300EB4300B0F80434626AC3F309031A44E3622046626203F060FB637B4BB35A
:202E2000A36A3BBB627B206842F08002A0F84C206373F8E6B0F8503094F850219BB203EB5E
:202E4000C20300EB4303B3F80C34B4F85621C3F30903C4F86C3104F5267102F047FD40F657
:202E60008F732268204611880B4043F08003138003F024FB2068D6E600216B1C03EB8303C1
:202E800044F83310137FC3B116F04006537C40F0C581002B40F0F182B0F85010137C00F2C5
:202EA0000C408AB21B0110441A5AC2F309021A521A5A92B242F400421A52454404EBC5059C
:202EC0002046297C03F00AFB2068ACE691F85331022B00F0AD8191F8502130F8223023F4F2
:202EE000E04323F070031B041B0C43F4004343F0C00320F8223091F8502130F8223013F48E
:202F0000804FB0F850309BB200F01781023303EBC20300EB4303B3F80034C3F30903002B00
:202F20003FF437AFB1F85821D1F864111F4602F0DDFC2FE722682046B2F8443023F48063CA
:202F40001B041B0CA2F8443003F0D6FA94F89032012B3FF44CAE012329462068657384F844
:202F6000903202F099FC84F8905205B0BDE8F08F40F68F730288134043F080030380B0F8DB
:202F8000503094F850219BB203EBC20300EB4303B3F80C34C3F30903C4F86C3193B1D4F86D
:202FA000641179B1B4F8562102F0A0FCD4F86431D4F86C21204613442946C4F8643103F097
:202FC00083FA206803889AB21B053FF52CAE02F44052B2F5405F3FF426AEB0F8503000F2F8
:202FE0000C429BB2D15AD4F86051C1F309013E2DD15240F26E81D15A6E09EF0608BF06F1CC
:20300000FF3689B241EA862141EA0B0189B2D152038823F4804323F070031B041B0C83F431
:20302000405343F4004343F080030380FBE52268B2F8443023F400531B041B0CA2F8443004
:2030400005B0BDE8F08F976237E716F04007117C9BB200F0A480023303EBC10300EB43032D
:20306000B3F80034976AC3F309039F4240F23A81FF1A9762002F00F0378177040DD530F872
:20308000216026F4E04626F070063604360C46F4404646F0800620F8216008EB050704EB64
:2030A000C70797F83410012940F0A680796A19447962D66A1E44D6623A6B3E6AB242C0F009
:2030C000B782921B3A63B3B208EB050204EBC202577C002F40F09F82B0F850C0177C1FFAA4
:2030E0008CFC00F204423F01624432F807C03E2ECCF3090C22F807C040F2AD824FEA561C0C
:20310000F606D65B08BF0CF1FF3CB6B246EA8C2646EA0B06B6B2D65308EB050204EBC202BA
:20312000128B02F0C9FB206866E001F5A8712068214401F0F5FE206887E5063303EBC203AE
:2031400000EB4303B3F80034C3F30903002B3FF420AEB1F85A21D1F864111F4602F0C6FBF7
:2031600018E622682046B2F8403023F004031B041B0CA2F84030B2F8403023F008031B0486
:203180001B0CA2F8403003F0D9F92268B2F8443023F480531B041B0CA2F8443027E506330E
:2031A00003EBC10300EB4303B3F80034D2F828C0C3F309039C45C0F02281ACEB030797620B
:2031C000002F00F01D8177040DD430F8216026F4E04626F070063604360C46F4404646F0EF
:2031E000800620F8216008EB050704EBC70797F83410012900F0C480454404EBC5052A7CDB
:2032000030F822309BB203EA0A0383F0300343F4004343F0800320F8223004E5002B40F069
:203220003981B0F85010137C00F204408AB239E6B0F8503016F4804C91F850219BB200F077
:203240003681023303EBC20300EB4303B3F80034D1F868C1C3F309039C451F46C0F09781FD
:20326000ACEB030CC1F868C1BCF1000F00F09381720613D508EB050204EBC20292F850110E
:2032800030F8212022F4E04222F070021204120C42F4004242F0C00220F82120002B3FF4B2
:2032A00078AD08EB050104EBC101B1F85821D1F8641102F01BFB6DE522682046B2F8443077
:2032C00023F400731B041B0CA2F8443003F010F98DE4002D40F02481D15A89B241F40041C5
:2032E000D15295E60023936208EB050304EBC3035B7C002B40F01F81B0F8503000F2044236
:203300009BB209011A44535AC3F309035352535A9BB243F40043535208EB050304EBC3031B
:203320005A7C002A40F06981B0F85020197C92B200F20C4309011344CA5AC2F30902CA52E0
:20334000CA5A92B242F40042CA5208EB050704EBC7072046397C03F0C1F873044DD53A7C9F
:20336000206830F8223023F4E04323F070031B041B0C43F4404343F0800320F822303BE749
:20338000796A19447962D66A1E44D6623A6B3E6AB242C0F02C81921B3A63B3B208EB0502F1
:2033A00004EBC202577C002F40F01481B0F850C0177C1FFA8CFC00F20C423F01624432F857
:2033C00007C03E2ECCF3090C22F807C040F235814FEA561CF606D65B08BF0CF1FF3CB6B2DE
:2033E00046EA8C2646EA0B06B6B2D65308EB050204EBC202528B02F05FFA2068FCE69762E1
:2034000008EB050304EBC3035B7C002B40F0A080B0F8503000F204429BB209011A44535AE8
:20342000C3F309035352535A9BB243F40043535208EB050304EBC3035A7C002A40F0BC80F0
:20344000B0F85020197C92B200F20C4309011344CA5AC2F30902CA52CA5A92B242F40042F9
:20346000CA5208EB050704EBC7072046397C03F035F873047FF573AFBFE7012B7FF41DAD1D
:20348000B0F85030127C99B200F20C4312010B44D65212E5012B7FF410ADB0F85030127C57
:2034A0009EB200F2044312013344D15205E5063303EBC20300EB4303B3F80034D1F868E1DE
:2034C000C3F309039E451F464ED3AEEB030EC1F868E1BEF1000F49D0710613D408EB0502E6
:2034E00004EBC20292F8501130F8212022F4E04222F070021204120C42F4004242F0C00269
:2035000020F82120002B3FF444AC08EB050104EBC101B1F85A21D1F8641102F0E7F939E409
:20352000D15A6E08ED0748BF013689B241EA862189B2D1526CE5012B7FF407AF0027B0F8D8
:20354000502000F2044392B2090113445F52E3E6012B86D10027B0F8502000F2044392B264
:20356000090113445F5263E7C1F868C130F8221021F4804121F070010904090C81F4005173
:2035800041F4004141F0800120F82210A4E74FF0000CC1F868C130F8221021F4804121F0C0
:2035A00070010904090C81F4005141F4004141F0800120F822105BE6012A7FF452AF00213F
:2035C000B0F850701A7CBFB200F20C4312013B44D15246E7012F7FF409AFB0F85070167C04
:2035E000BFB200F20C4236013A44B352FEE6002A38D11E4687F83420D0E6012A7FF4A5AE6B
:203600000021B0F850201B7C97B200F20C421B013A44D15299E6012F7FF47EADB0F85070DF
:20362000167CBFB200F2044236013A44935373E552B91E4687F8342046E5D6B9D65BB6B2C7
:2036400046F40046D653D1E60023164687F834303B6393B238E5CEB9D65BB6B246F4004608
:20366000D65359E5002316463B6387F8343093B294E64FEA560CF607D65B48BF0CF1010C4A
:20368000B6B246EA8C26B6B2D653AFE64FEA560CF607D65B48BF0CF1010CB6B246EA8C2696
:2036A000B6B2D65338E500BF0F8FFFFF0080FFFFBF8FFFFF90F89022012A0CD0012210B50E
:2036C0000446417380F89022006802F0E5F8002084F8900210BD0220704700BF70B5054688
:2036E000080621D4002601F0070404EB8400C00000F5A8712844294480F85161022BCB70F9
:2037000008BF00230C7008BF0B710A6195F89032012B15D00123286885F8903201F05EF9FA
:20372000002085F8900270BD012601F0070404EB8400C00000F11001284429444674DDE77E
:20374000022070BD0B0610B504461AD4002001F0070303EB8302D20002F5A87121442244D1
:2037600082F851010B7094F89032012B19D00123206884F8903201F0DDFA002084F89002BF
:2037800010BD012001F0070303EB8302D20002F110012144224450740B7094F89032012B73
:2037A000E5D1022010BD00BF70B5002601F0070505EB850100EBC104C4E95923006884F82A
:2037C000505104F5A871C4F86C6184F8516101F0A7FB304670BD00BFF8B501F0070505EBF0
:2037E000850100EBC1040127002621460068C4E9092323632574103184F834706774E662FA
:2038000001F08EFB3046F8BD38B5037901F00705AB422FD30B0604461AD4002001EB8101D7
:20382000C900631883F85101012301F5A872A1180D708B7094F890229A4219D0206884F80B
:20384000903201F0A9FFBDB1002084F8900238BD012205EB8503DB0003F1100103445A74EC
:20386000012301440D708B7094F890229A42E5D1022038BD012038BD206804F5267102F060
:2038800019F8E1E738B5027901F00F039A4233D30B0604461CD40020002501F0070303EB89
:2038A0008302D20002F5A8712144224482F851010B708D7094F89032012B1BD00123206881
:2038C00084F8903201F090FF84F89052284638BD0120002501F0070303EB8302D20002F1F0
:2038E00010012144224450740B708D7094F89032012BE3D1022038BD012038BD11F0800FC5
:203900000BD001F0070101EB810100EBC10010305AB90273C3800020704701EB810100EB7E
:20392000C10000F5A870002AF3D001228360027300207047002800F0C3812DE9F04103686C
:203940000446DD0782B035D5A6494A6802F00C02042A00F0EF804A6802F00C02082A00F0FB
:20396000E5806368B3F5803F10D0002B00F00D81B3F5A02F00F08F819A4B1A6822F4803281
:203980001A601A6822F480221A6004E0954A136843F480331360FEF7D9F9924E054605E087
:2039A000FEF7D4F9401B642800F2EB8033689A03F6D523689F0728D58A4A516811F00C0F27
:2039C00000F08E80516801F00C01082900F084802369002B00F025810122834B814E1A6086
:2039E000FEF7B4F9054605E0FEF7B0F9401B022800F2C78033689807F6D53368626923F01B
:203A0000F80343EAC203336023681A071FD45D0741D5744BDA69D0007DD50025734B1A6884
:203A2000D10540F19D80E368012B00F00B81002B00F0C580052B6B4B1A6A00F0398122F0E9
:203A400001021A621A6A22F004021A62FFE0A369002B50D00122664B624E1A60FEF776F937
:203A6000054605E0FEF772F9401B022800F28980736A9B07F6D55F4B5F4A1B68A2FB032353
:203A80005B0A019300BF019B5A1E0192002BF9D123685D07BDD4E069D0B1524D6A6802F025
:203AA0000C02082A00F0E68002284FF00001534A00F008811160FEF749F92C46054604E0A7
:203AC000FEF744F9401B02285BD823689B01F7D4002002B0BDE8F0815268D6033FF578AF34
:203AE000404A126895072FD52269012A2CD0012002B0BDE8F0813E4A3A4E1360FEF726F9F0
:203B0000054604E0FEF722F9401B022839D8736A9F07F7D4BCE7DA69012542F08052DA6137
:203B2000DB6903F080530093009B77E74A68D0037FF517AF2B4A126891037FF53BAF626885
:203B4000002A7FF437AFD2E7264960690A6822F0F80242EAC0020A601A077FF558AF76E722
:203B60001A681F4642F480721A60FEF7EFF806463B68DA053FF557AFFEF7E8F8801B6428DC
:203B8000F6D9032002B0BDE8F08103F1804303F504331A681E4622F480321A601A6822F4C5
:203BA00080221A60FEF7D2F8054604E0FEF7CEF8401B6428E5D833689B03F7D4F9E603F1C5
:203BC000804303F504331A6A1F4622F001021A621A6A41F2883822F004021A62FEF7B6F8CB
:203BE000064612E00010024000004242007000408004424200000020D34D62106000424263
:203C0000FEF7A4F8801B4045BBD83B6A9807F7D4002D3FF440AF444AD36923F08053D3611E
:203C200039E7424A404E1360FEF790F8054604E0FEF78CF8401B0228A3D833689907F7D4AC
:203C40002368E2E6384A136A43F001031362FEF77DF841F288380646334F04E0FEF776F8F4
:203C6000801B40458DD83B6A9B07F7D5002D3FF412AFD0E701283FF42CAF6B68226A03F447
:203C8000803191427FF433AF606A03F47013181A18BF01201DE703F18043A3F53C331A6899
:203CA00042F480221A601A6842F480321A6072E642F004021A621A6A42F001021A62C6E7E0
:203CC000012070471160FEF741F8064605E0FEF73DF8801B02283FF654AF2B689901F6D41E
:203CE000236AB3F5803F05D16A68A16822F400320A436A6001200C4D616A6A680B4322F445
:203D000074120B4913436B600860FEF71FF82C46054605E0FEF71AF8401B02283FF631AFF1
:203D200023689A01F6D5D3E600100240000042426000424210494A6802F00C03042B14D000
:203D4000082B10D10D48C2F38343D203C35C0ED50B484A6800FB03F00A49C2F34043CB5C03
:203D6000B0FBF3F070470848704705487047074800FB03F0704700BF001002407073000803
:203D80000024F4008073000800127A0000093D00002800F08C80494A2DE9F041136804467B
:203DA00003F007038B420D460CD2136823F007030B431360136803F007038B4202D0012077
:203DC000BDE8F0812368980714D5590704D53C494A6842F4E0624A601A0704D538494A68FB
:203DE00042F460524A603649A0684A6822F0F00202434A60DF0720D56268314B012A1B6836
:203E000057D0022A50D09907D9D52D4E41F28838736823F0030313437360FDF797FF07467F
:203E200004E0FDF793FFC01B404545D87368626803F00C03B3EB820FF3D1204A136803F029
:203E40000703AB4209D9136823F007032B431360136803F00703AB42B1D123685A0706D562
:203E60001749E0684A6822F4E06202434A601B0707D5134A2169536823F4605343EAC10346
:203E80005360FFF757FF0E4B0E4A5B680E49C3F30313D35C0D4A20FA03F308681360FDF71F
:203EA00013FF0020BDE8F0819801AED487E7012070479E03A9D482E7032081E700200240E5
:203EC00000100240547300080800002000000020044B05495B68054AC3F30223CB5C106850
:203EE000D8407047001002406473000800000020044B05495B68054AC3F3C223CB5C1068B9
:203F0000D84070470010024064730008000000202DE9F0410446006882B0C3072AD5394B09
:203F2000DA69D7003DD5384B00251A68D60546D5344E336A13F440730FD0616801F440720D
:203F40009A420BD001270020336A304A23F44071176010603162D90745D46168294A136A57
:203F600023F440730B4313621DB1D36923F08053D3612068830706D52249A3684A6822F465
:203F800040421A434A6010F0100007D000201D4AE168536823F480030B43536002B0BDE834
:203FA000F081DA69012542F08052DA61DB6903F080530193019B144B1A68D605B8D41A68E4
:203FC0001F4642F480721A60FDF7C0FE06463B68D805ADD4FDF7BAFE831B642BF7D903200F
:203FE00002B0BDE8F081FDF7B1FE41F28838074604E0FDF7ABFEC01B4045F0D8336A9A072F
:020000040800F2
:20400000F7D5AAE700100240007000404004424290F83D30012B1FD10222036880F83D2004
:20402000DA680F4942F001028B42DA6009D0B3F1804F06D00B4A934203D002F580629342DD
:2040400004D19A6802F00702062A07D01A68002042F001021A6070470120704700207047D0
:20406000002C01400004004090F83C30012B75D0024602230120F0B4146882F83C0082F84C
:204080003D30A5680B6825F47F4525F07705602BA56065D024D8402B7CD04BD9502B17D1C6
:2040A000256A4868CF6825F00A0101430020266A26F001062662A36923F0F00343EA071378
:2040C000A3612162A36823F0700343F05703A3600121002382F83D1082F83C30F0BC7047E3
:2040E000B3F5805F38D0B3F5005F10D1D1E90153C868A1682B4343EA002321F47F410B4321
:20410000A360A368002043F48043A360E0E7702BDED1D1E90153C868A1682B4343EA00235E
:2041200021F47F410B43A360A368002043F07703A360CDE7202B02D00AD9302BC8D1A168CD
:20414000002021F070010B4343F00703A360BFE733F01001BCD1F2E70020B9E70220704756
:20416000236A206A4E6820F01000CD682062A16923F0A00321F4704143EA061341EA05316E
:20418000A1612362A368002023F0700343F06703A3609DE7256A266A486826F00106CF68A0
:2041A0002662A36925F00A0123F0F003014343EA0713A3612162A368002023F0700343F04F
:2041C0004703A36084E700BF204A30B49042036827D0B0F1804F1BD0A2F59432904217D075
:2041E00002F58062904213D04D698C680A6823F080032B430360C462826201234361036970
:20420000DB0703D5036923F00103036130BC70474A6823F070031343CA6823F4407313437A
:20422000E2E74A6823F070031343CA6823F4407313434A6923F08003134303608B68C362BB
:204240000B6883620B690363D7E700BF002C014050B310B590F83D30044603F0FF02F3B1A3
:204260000223214684F83D3051F8040BFFF7ACFF012384F8463084F83E3084F83F3084F869
:20428000403084F8413084F8423084F8433084F8443084F8453084F83D30002010BD80F8B5
:2042A0003C20FDF78DFBDBE70120704790F83C30012B26D00222036830B480F83D205A686C
:2042C0000C68114D22F070022243AB429C685A6009D0B3F1804F06D00C4A934203D002F561
:2042E0008062934204D14A6824F0800414439C600023012280F83C3080F83D2030BC18464C
:2043000070470220704700BF002C014000040040026802F10C0353E8003F23F4907302F1AA
:204320000C0C4CE800310029F3D102F1140353E8003F23F0010302F1140C4CE800310029D7
:20434000F3D1036B012B05D02022002380F842200363704702F10C0353E8003F23F010032C
:2043600002F10C0C4CE800310029F3D1ECE700BF38B504460368C0681969A26821F4405152
:2043800001431961D968D4E9045021F4B0512A4321F00C0102430A43DA605A69A069134978
:2043A00022F4407202438B425A611BD0FFF790FD0346626803EB8303920003EB8303B3FBBF
:2043C000F2F364220A482468A0FB0351490902FB11331B013233A0FB0323090101EB531374
:2043E000A36038BDFFF784FD0346E2E7003801401F85EB512DE9F0411D4607460E469046C2
:20440000036882B001E0681C07D11C6836EA0402F9D1002002B0BDE8F081FDF797FCA0EB54
:20442000080085421BD3D5B13B68DA685107ECD5802EEAD0402EE8D01A681207E5D5002434
:2044400001941A68384601925B680193019BFFF75FFF0823012087F840407B64DAE70320DF
:20446000D8E700BF68B338B590F84130044603F0FF020BB32423226884F84130D368204662
:2044800023F40053D360FFF773FF2025002223681046196921F490411961596921F02A01EF
:2044A0005961D96841F40051D960626484F8415084F84250626338BD80F84020FDF7A8FA39
:2044C000D8E70120704700BF2DE9F843044690F84100202836D10E4609B1154612B901207E
:2044E000BDE8F8831F464FF000082123C4F8448084F84130FDF72AFCA3688146B3F5805FCC
:20450000A584E58421D0E38C9BB25BB923E0236816F8012B5A60E58C013DADB2E584E18CE2
:2045200089B2C1B13B464A4680212046FFF762FFE0B9002EEBD138F8023B2268C3F3080324
:204540005360E8E70220BDE8F8832369002BDAD1B0461E46D7E73B464A4640212046FFF74F
:2045600049FF202340B984F84130B9E7202384F841300320BDE8F883032084F84130AFE711
:2045800090F84230202B1FD101B10AB90120704730B400232225046903638162C285828547
:2045A0004364036880F842501CB1DA6842F48072DA605A69002030BC42F001025A61DA686D
:2045C00042F02002DA60704702207047704700BF08B50023406AC385C384FCF797FF08BDE0
:2045E000704700BF8368B3F5805F45D0826A002B39D003685B6803F07F031370836A013357
:204600008362C38D013B9BB2C385002B32D110B52024026882B0D16821F02001D160D168EC
:2046200021F48071D160516921F00101516180F842404363016B012929D1036302F10C032C
:2046400053E8003F23F0100302F10C0444E800310029F3D11368DB0623D4818DFFF7C0FF57
:20466000002002B010BD0369002BC2D103685B681370C3E70020704703696BB90268836A58
:204680005268C2F3080223F8022B8362B9E7FCF725FF002002B010BD0368826A5B68137081
:2046A000ACE701911368019353680193019BD4E770B5036804461A681D4612F00F0FD96800
:2046C00082B05E696FD1930602D58E0600F1B280236B012B0BD0160602D5080600F1B480BF
:2046E000520602D54B0600F1CD8002B070BDD606F1D5C806EFD5002301932B6801936B6838
:204700000193019B6B695B0640F1EC80E06B03685B689BB2002BE8D0A28D9A42E5D981693B
:20472000E385202936D005F10C0353E8003F23F4807305F10C0141E80032002AF3D105F1F7
:20474000140353E8003F23F0010305F1140141E80032002AF3D105F1140353E8003F23F0C3
:20476000400305F1140141E80032002AF3D1202384F84230226305F10C0353E8003F23F05A
:20478000100305F10C0141E80032002AF3D1FDF741FEA28D02236363E38D2046D21A91B268
:2047A000FFF71EFFA1E706F0010601F4907030438ED0D00705D5CD0503D5606C40F0010043
:2047C0006064500731D54EB1606C950740F00200606403D5606C40F004006064150707D5C7
:2047E00001F02000304303D0606C40F008006064606C00283FF479AF900609D58A0607D56B
:2048000094F84220222A03D12046FFF7EBFE23685B69656C03F0400305F008051D43204627
:204820003BD1FCF773FE65645FE79007D6D5002ED4D0CFE790F84230222B7FF456AF02B0BE
:20484000BDE87040FFF7CEBE94F84130212B7FF44CAFA368B3F5805F7FD0236A5A1C226262
:204860001B786B60E38C013B9BB2E384002B7FF43CAFEB6823F08003EB60EB6843F04003F5
:20488000EB6032E72022EB68204623F04003EB6084F84120FFF79AFE27E7FFF739FD2568E6
:2048A0006B695B061AD505F1140353E8003F23F0400305F1140141E80032002AF3D1E06B58
:2048C00060B12C4B4363FDF7C9FD00283FF40DAFE06B436B02B0BDE8704018472046FCF721
:2048E00015FE02E7E28DE38D92B29BB2002B3FF4FCAEA18D8A1A91B200293FF4F6AE05F139
:204900000C0353E8003F23F4907305F10C0040E80032002AF3D105F1140353E8003F23F010
:20492000010305F1140040E80032002AF3D1202384F84230226305F10C0353E8003F23F0D9
:20494000100305F10C0040E80032002AF3D1022320466363FFF744FEC7E62369002B7FF49A
:204960007CAF236A33F8022BC2F308026A60236278E700BFD145000884B004A800E90E0006
:20498000002004B0704700BF03464FF43F420020A3F84400A3F84020704700BF44F2FF0219
:2049A0000346B0F8401000200A40A3F8402070470020704730B404460125002084B00DF11D
:2049C000100C0CE90E00A4F84050A4F84000A4F84400A4F8500004B030BC70470346F0B4A0
:2049E0000C78C87833F8242022F4EC4222F070021204120C032800F29981DFE800F0474310
:204A0000040242F4C062002048F280052A4323F824200C78C64E33F8242092B2324022436B
:204A20002A4323F824200A7B9ABB4A78002A00F0EE800A78CC88B3F8505003EB02126408F7
:204A400002F580626400ADB254530C7833F8245003EB84026F0600F13581F0BCCB78012B45
:204A6000138823F4E04323F040034FEA03434FEA134318BF83F0200343F4004343F0800360
:204A800013807047002042F48062BDE742F40072BAE7CA780C78022A33F8242000F02081B5
:204AA00022F4E24222F070021204120C154323F824500A780C89B3F8505003EB021264084D
:204AC00002F580626400ADB254530A784C89B3F8505003EB0212640802F581626400ADB2E6
:204AE00054534A78002A44D10C7833F8242003EB8405520410D533F8242022F4E04222F0B0
:204B000070021204120C42F4404242F0800223F824200D7803EB85052A8857060ED52A8883
:204B200022F4E04222F070021204120C42F4004242F0C0022A800D7803EB850548F28004B4
:204B40002A8822F4804222F070021204120C82F4405222432A80097833F8212022F4E042D7
:204B600022F040021204120C224323F82120F0BC70470D7833F8252003EB8504560410D5DE
:204B800033F8252022F4E04222F070021204120C42F4404242F0800223F825200C7803EB77
:204BA0008404228852060ED5228822F4E04222F070021204120C42F4004242F0C0022280E0
:204BC0000C7803EB8404CA78012A228822F4E04222F040024FEA02424FEA124218BF82F0E5
:204BE000200242F4004242F0800222800978F0BC33F8212022F4804222F070021204120C9C
:204C000042F4004242F0800223F8212070470A78CC88B3F8505003EB0212640802F58162EC
:204C20006400ADB254530A78B3F8504003EB021202F20C42A4B2155B0E69C5F309053E2E9A
:204C400015532ED8002E66D1155B6FEA45456FEA5545ADB215530C7833F8242055040ED545
:204C600033F8242022F4E04222F070021204120C42F4404242F0800223F824200C78002C5A
:204C800037D1F0BC1A8822F4804222F070021204120C82F4405242F4004242F080021A8060
:204CA0007047F506155B4FEA561708BF07F1FF37ADB245EA87256FEA45456FEA5545ADB2C8
:204CC0001553C8E733F8242092B2164046F4004646F0C00623F824600A7803EB8202BCE603
:204CE00092B2164046F4014646F0800623F82460DFE633F8242022F4804222F07002120498
:204D0000120C82F4005242F4004242F0800223F82420F0BC7047155B7708F60748BF013794
:204D2000ADB245EA8725ADB2155394E701206BE68F8FFFFF0B7B10B4D3B94B780C78002B21
:204D400000F0BE8030F8243000EB84025B0600F1D480138823F4E04323F040031B041B0C21
:204D600043F4004343F08003002010BC138070474B780C78002B51D130F8243000EB84024C
:204D80005B0410D530F8243023F4E04323F070031B041B0C43F4404343F0800320F8243071
:204DA0000A7800EB820213885C060ED5138823F4E04323F070031B041B0C43F4004343F0D4
:204DC000C00313800A7800EB820248F28004138823F4E04323F070031B041B0C43F40043B3
:204DE00043F0C00313800A7830F8223023F4804323F070031B041B0C234320F822300A7836
:204E000030F8223023F4E04323F040031B041B0C234320F8223010BC0020704730F8243053
:204E200000EB84025B0410D530F8243023F4E04323F070031B041B0C43F4404343F08003CB
:204E400020F824300A7800EB820213885B060ED5138823F4E04323F070031B041B0C43F43E
:204E6000004343F0C00313800A7800EB820248F28004138823F4E04323F070031B041B0C16
:204E800043F4404343F0800313800A7830F8223023F4E04323F040031B041B0C234320F8BF
:204EA00022300A7830F8223023F4804323F070031B041B0C234320F8223010BC002070478B
:204EC00030F8243000EB84025B0410D530F8243023F4E04323F070031B041B0C43F4404365
:204EE00043F0800320F824300A7800EB8202138823F4804323F0700330E730F8243023F4FA
:204F0000E04323F070031B041B0C43F4004343F0C00320F824300A7800EB820219E700BF16
:204F20002DE9F0414A780346012A7BD0087B002844D0C878022800F0FE80012840F0E88051
:204F400088690C69A04294BF0025051B8D6188BF2046002A40F0EB80B3F850200C7803F27D
:204F6000044592B22A442401A55A3E28C5F30905A55200F26082002840F03A83A55A6FEAAE
:204F800045456FEA5545ADB2A5524A78002A40F0C280B3F850000A7884B203F20C401201D9
:204FA0002044845AC4F309048452845AA4B244F4004484520A7803EB820222E08A690C6931
:204FC0000E78A24284BF101B2246B3F8504003F20C45A4B225443601745B3E2A8861C4F343
:204FE0000900705300F28A80002A40F00681725B6FEA42426FEA524292B272530A7803EBF8
:2050000082021388002023F4804323F070031B041B0C83F4405343F4004343F080031380DE
:20502000BDE8F0810C698A69087BA24228BF2246A8BB96B2C888013603F58064760897B267
:2050400004EB40044A690DD0023204EB860612F8015C12F8020C023240EA052024F8040BB1
:20506000A642F4D1B3F85020087894B203F204422244000187520978002033F8212022F404
:20508000E04222F040021204120C82F0300242F4004242F0800223F82120BDE8F081C878E4
:2050A000022800F0B88008780C6A33F82050A41A15F0400F0C62B3F8505000F04881ADB22A
:2050C00003F20C442C44000195B2255248896E1C03F5806476084A6904EB4004CBD00232F2
:2050E00004EB860612F8015C12F8020C023240EA052024F8040BB442F4D1BCE75009D20679
:20510000725B08BF00F1FF3092B242EA80226FE70120BDE8F081012A09D1B3F850600D7857
:2051200003F20C44B6B282B2A0192C0122520A7803EB820265E7002A3CD1B3F85020087822
:2051400003F2044492B222440001845A0D69C4F309043E2D845240F24F816E09B446845ABD
:2051600015F01F0708BF06F1FF3CA4B244EA8C246FEA44446FEA5444A4B284524A78002AED
:2051800040F08081B3F850400878A2B203F20C4414440001025BC2F30902025307B9013EC0
:2051A000025B92B242EA86226FEA42426FEA524292B20253CA69002AB9D044F24004087837
:2051C00033F8205003EB800204EA0506AC4302D0002E7FF416AF33F8202022F4E04222F0EF
:2051E00070021204120C42F4004242F0C00223F820200A7803EB820203E75008D707725B61
:2052000048BF013092B242EA802292B272530A7803EB8202F5E6086A844280F0B9800E7805
:20522000801A33F8265025F4E04525F070052D042D0C45F4014545F0800523F826500D78B2
:20524000086233F8256016F0400F4E7800F02881002E40F0EF81B3F850C003F20C471FFA96
:205260008CFC2E016744BD5B3E2AC5F30905BD5340F22C82D506BD5B4FEA521C08BF0CF138
:20528000FF3CADB245EA8C256FEA45456FEA5545ADB2BD5396B24D89013603F5806C760898
:2052A0000CEB450C4D690DD00CEB860EAE1C16F8018C16F8027C023647EA08272CF8047B5C
:2052C000F445F4D184422CBF0024841A154438BF10464A784D610C62002A40F0D281B3F881
:2052E00050200C7803F2044692B232442401A65A3E28C6F30906A65240F2DE81C606A65A19
:205300004FEA501708BF07F1FF37B6B246EA87266FEA46466FEA5646B6B2A6520E8980B2B0
:20532000421C03F5806404EB460456083FF4A3AEAA1C04EB860612F8015C12F8020C023224
:2053400040EA052024F8040BB442F4D193E6ADB203F204442C4495B22A46000125520889D3
:20536000013203F58065520805EB400548693FF482AE023005EB820210F8016C10F8024C09
:20538000023044EA062425F8044B9542F4D172E60D7803F2044433F8252087B222F4E2427E
:2053A00022F070021204120C42F4004242F0800223F82520B3F85020384696B222460D78DB
:2053C00032442C01A7520A89013003F58064400804EB42044A693FF44EAE023204EB80058A
:2053E00012F8016C12F8020C023240EA062024F8040BAC42F4D13EE6002D40F0D380845A0A
:205400006FEA44446FEA5444A4B284524A78002A38D1B3F85020087894B203F20C4222440F
:205420000001845AC4F309048452845AA4B244F400448452BEE64509C60608BF05F1FF35BE
:20544000A65AAD02ADB2B6B22E4346F40046A6524A78002A7FF45FAEB3F850000A7884B2CE
:2054600003F20C4012012044845AC4F309048452845AA4B2254345F4004585520A7803EB9B
:205480008202BEE5012A7FF495AEB3F85020087894B203F20C42ADB222440001855289E6D4
:2054A000002E40F0E180B3F850C003F204471FFA8CFC2E016744BD5B3E2AC5F30905BD5361
:2054C00040F2ED80D506BD5B4FEA521C08BF0CF1FF3CADB245EA8C256FEA45456FEA55457F
:2054E000ADB2BD53B1F808C096B2013603EB4C0C76084D690CF5806C0DD00CEB860EAE1CB4
:2055000016F8018C16F8027C023647EA08272CF8047BF445F4D184422CBF0024841A15445F
:2055200038BF10464A784D610C62002A40F08F80B3F850200C7892B202F20C4202EB0412AF
:205540009C5A3E28C4F3090403EB02069C5240F2CB80C20632884FEA501408BF04F1FF34BC
:2055600092B242EA84226FEA42426FEA524292B2328080B24C89421C03EB4404500804F569
:2055800080643FF478ADAA1C04EB800512F8016C12F8020C023240EA062024F8040BAC4269
:2055A000F4D168E56E08B446845A15F0010718BF06F1010CA4B244EA8C24A4B284524A7881
:2055C000002A7FF45FAFB3F850200C7892B203F20C4010442401025BC2F30902025307B159
:2055E0000136025B92B242EA862292B20253E1E54608C50748BF0136A55AB602B6B2ADB2CA
:205600003543A5524A78002A7FF485ADB3F85020087894B203F20C4222440001845AC4F36A
:2056200009048452845AA4B2264386520A7803EB8202E6E4012E7FF42DAEB3F8507003F277
:205640000C46BFB23E442D0197B2775322E6012A8FD1B3F850200C7892B202F20C4202EB1F
:20566000041284B29C5284E7012E7FF43BAFB3F8507003F20446BFB23E442D0197B277531B
:2056800030E7012A7FF44AAEB3F850200C7896B203F204423244240186B2A6523EE662BB2F
:2056A00037F806C04D696FEA4C4C6FEA5C4C1FFA8CFC27F806C02EE7002845D1A05A6FEA21
:2056C00040406FEA504080B2A052D4E4002A4ED137F806C04D696FEA4C4C6FEA5C4C1FFA86
:2056E0008CFC27F806C0EDE5E0B932886FEA42426FEA524292B23280BDE4D507BD5B4FEA8A
:20570000520E48BF0EF1010EADB245EA8E25ADB2BD530D8903F5806C561C0CEB450C7608B2
:205720004D69EAE632884408C70748BF013492B242EA842292B232804C89013003EB44048B
:20574000400804F580641EE7C607A65A4FEA500748BF0137B6B246EA8726B6B2A6520A894B
:20576000013003F58064460804EB4204E0E5D507BD5B4FEA520E48BF0EF1010EADB245EAA4
:205780008E25ADB2BD534D8903F5806C561C0CEB450C76084D6987E54B780A788BB130F82A
:2057A000223023F4E04323F040031B041B0C83F0100343F4004343F0800320F82230002081
:2057C000704730F8223023F4804323F070031B041B0C83F4805343F4004343F0800320F860
:2057E00022300020704700BF0B7B43BB4B7843B30A7830F822305B060DD530F8223023F4B4
:20580000E04323F070031B041B0C43F4004343F0C00320F82230CB78012B10D00A7830F8C6
:20582000223023F4E04323F040031B041B0C83F0200343F4004343F0800320F822300020F0
:20584000704710B40C7830F8243000EB84025B0410D530F8243023F4E04323F070031B04BD
:205860001B0C43F4404343F0800320F824300A7800EB82021388002023F4804323F0700319
:205880001B041B0C83F4405343F4004343F0800310BC1380704700BF11B98023A0F84C3032
:2058A000002070470020704700207047B0F8440080B270470020704701335B0800EB4202F1
:2058C00012D002F5806210B4023102EB830411F8010C11F8023C023143EA002322F8043B69
:2058E000A242F4D110BC7047704700BF00EB42005FEA530CF0B400F5806713D03D466446A1
:20590000881C35F8042B013C92B24FEA122600F8022C00F8016C00F10200F2D101EB4C011B
:2059200007EB8C07DB0748BF3B88F0BC48BF0B70704700BF0346222201481A80704700BFAC
:20594000840000200346222201481A80704700BFA80000200346222201481A80704700BF0F
:20596000E40000200023D0F8B82218461373704703460A2201481A80704700BFD8000020FD
:20598000002310B50C7882B014F06004D0F8B822ADF8063016D0202C0ED14B78023B092B3F
:2059A0000AD8DFE803F033390909090909093F2F90F89C32032B5AD000F04AFC02242046CB
:2059C00002B010BD4B780B2BF6D80FF2080C5CF823F000BF595A0008B9590008B959000857
:2059E000B9590008B9590008B95900082F5A0008B9590008B9590008B9590008B159000868
:205A00004B5A00088B7800241360D8E7111D012200F050FC0024D2E71146012200F04AFC66
:205A20000024CCE74B8800241B0A5360C7E74B881B0A222B1FD0212BBED1CA881149092A24
:205A400028BF092200F036FCB9E790F89C32032BB2D18B789360B2E790F89C22032AABD1ED
:205A600002220DF106011C4600F024FCA7E702F108010122E6E7CA8803493F2A28BF3F22C2
:205A8000E0E700BFCC0000200C00002038B504460025812100F0A6FDD4F8B802E56218B141
:205AA00000F00CFEC4F8B852002038BD10B5042303228121044600F085FD01231020E36209
:205AC00000F0F8FDC4F8B80218B100230373184610BD022010BD00BF38B590F89C32032BBF
:205AE00001D0002038BDD0F8B842237B002BF8D10125134625730A46812100F0BFFD002097
:205B000038BD00BF88B108B5D0F8B43213B10023C0F8B43209B1C0F8B0120123027080F866
:205B20009C3200F00FFD002008BD0220704700BF19B1C0F8B412002070470220704700BF67
:205B400008B500F031FD002008BD00BF08B5D0F8B4321BB11B68984700B908BD022008BDC8
:205B600008B5D0F8B4325B689847002008BD00BF38B5044600F52A75284600F055FB0120DA
:205B800094F8A812B4F8AE2201F01F038342C4E9A50209D0022B13D063B1204601F0800142
:205BA00000F02EFD002038BD2946204600F070FA002038BD2946204600F0F4F8002038BDAB
:205BC0002946204600F098FA002038BD38B5054669B91346D0F89422032A15D0052A0C4695
:205BE0000ED1C5F8941200F00BFD204638BDD0F8B4329B6933B190F89C22032A02D1984755
:205C0000002038BD022038BDD0E9581291420CD9891A8A4288BF8AB2C0F8601198BF92B2C7
:205C2000194600F05FFB002038BDD0F8B4321B691BB190F89C22032A04D0284600F05CFBAC
:205C4000002038BD9847F8E770B5044681B91346D0F89422022A1BD032F0040302D180213D
:205C600000F0CEFC94F8A0320020012B0DD070BDD0F8B4325B6933B190F89C22032A02D11A
:205C80009847002070BD022070BD84F8A00270BDD0E90826B24226D8C369B3FBF6F506FB9F
:205CA00015355DB99E4209D8D0F89822934205D22A4600F00DFBC4F898521BE0D4F8B432DA
:205CC000DB681BB194F89C22032A1AD08021204600F096FC204600F01BFB94F8A0320020E1
:205CE000012BC4D1D1E7921B0D460262194692B200F0EEFA2B462A462946204600F0CCFCDE
:205D0000B0E720469847E1E770B500224026044601251146334600F055FC33468021204631
:205D20000022C4F85851C4F8646100F04BFC0021D4F8B832A561666284F89C52C4F89412B3
:205D40006160C4F8A41223B1D4F8B43220465B689847002070BD00BF0346002019747047C9
:205D60000346042290F89C12002083F89D1283F89C22704790F89C32042B04BF90F89D32A5
:205D800080F89C320020704790F89C22032A01D00020704708B5D0F8B432DB6903B1984789
:205DA000002008BD30B50B780D4603F06003202B044683B00DD0402B0BD09BB180212046AF
:205DC00000F01EFC2046002100F01AFC002003B030BDD4F8B432294620469B6898470020E3
:205DE00003B030BD4B78092BE8D801A252F823F04B5E0008735E0008BD5D00088F5E0008AB
:205E0000BD5D0008A15E0008D95E0008BD5D00080D5F0008195E000889789C4D0129297058
:205E2000CCD890F89C32022B00F00B81032B00F0F780802100F0E4FB0021204600F0E0FB68
:205E400020462978FFF78CFEC0E790F89C32013B022BB3D8CA88022AB0D1D0F8A4320146E6
:205E6000002B14BF1346002341F80C3F00F022FAACE790F89C32013B022B9FD84B88012B50
:205E8000A4D10023C0F8A43200F036FA9EE74B88012B9BD1C0F8A432204600F02DFA95E745
:205EA0008B88002B8AD1CB88002B87D14D887F2D84D890F89C32032B80D0E9B280F89E12FF
:205EC00000F0CEFB204600F017FA002D00F0DA80022384F89C3279E700234A88ADF806308C
:205EE000130A013B062B3FF669AF01A151F823F0B15F0008995F0008875F0008BD5D0008A5
:205F0000BD5D0008715F0008315F0008CA88012A7FF454AF90F89C32022B7AD8002B3FF4C9
:205F20004DAF0023014641F8083F00F0C3F94DE7037C002B7FF442AFD0F8B4320DF10600DB
:205F40001B6B984707234370BDF806205AB1EB88002BA1D09A4228BF1A4601462046ADF895
:205F6000062000F0A7F9EB88002B7FF42FAF93E7037C002B7FF422AFD0F8B4320DF1060062
:205F80005B6B9847E0E7D2B2052A3FF617AFDFE802F03A342E282217037C002B5FD1D0F88F
:205FA000B4320DF106009B6A984702234370CBE7D0F8B0320DF106011B68007C9847C3E752
:205FC000D0F8B0329B69002B3FF4F8AE207C0DF106019847B8E7D0F8B0325B69002BF5D191
:205FE000ECE6D0F8B0321B69002BEFD1E6E6D0F8B032DB68002BE9D1E0E6D0F8B0329B68A5
:020000040800F2
:20600000002BE3D1DAE6D0F8B0325B68002BDDD1D4E6032B7FF4D2AE011D00F04BF9D5E6B3
:2060200031B3416801293FF437AFC9B2FFF798FD297820466160FFF789FD02287FF42CAFCE
:20604000BCE600293FF428AF01210323416080F89C32FFF77BFD02287FF41EAFAEE6D0F808
:20606000B4320DF10600DB6A9847022343706BE70223416080F89C32FFF772FD204600F021
:206080003BF9A3E6012384F89C329FE6F40F002038B50B780D4603F06002402A04460AD087
:2060A0005B0608D5802100F0ABFA2046002100F0A7FA002038BD94F89C32013B022B11D893
:2060C0002B79012B0ED8D4F8B43229469B6820469847EB88002BECD10028EAD1204600F00D
:2060E0000BF9E6E78021204600F08AFA2046002100F086FA002038BD70B50B78044603F063
:206100006003202B0CD0402B0AD083B18021204600F076FA2046002100F072FA002070BDE5
:20612000D4F8B43220469B689847002070BD4B788A88012BD5B23DD0032B2AD0002BE5D17A
:2061400090F89C32022B4ED0032BDFD105F00F0303EB8303120600EB830353D4D3F8583141
:20616000002BD3D005F07F0303EB830600EB860606F5AA7633B12946204600F05DFA0028A9
:206180004BD00123336031462046022200F092F8C4E790F89C32022B1BD0032BB6D14B8811
:2061A00023B96A0602D0CB88002B38D0204600F0A3F8B3E790F89C32022B0AD0032BA5D1AF
:2061C0004B88002BAAD16E06F0D0294600F026FAECE76B069AD0294600F012FA2046802173
:2061E00000F00EFA9AE7680690D1002311064CBF04F1140104F5AA71204602220B6000F00F
:2062000059F88BE79B69002B80D005F07F035E1C06EB860600EB8606ACE73060B3E729462B
:2062200000F0EEF9C2E700BF0B7803704B784370CA788B7803EB022343804A790B7903EB63
:2062400002238380CA798B7903EB0223C380704710B50446802100F0D3F92046BDE81040FB
:20626000002100F0CDB900BF08B3037870B4FBB10446C0F10106A31914F8015FDBB2002DDE
:20628000F9D101335B00032413800B704C7004785CB1022300255A1CD2B2CC548D5410F8DE
:2062A000014F0233DBB2002CF5D170BC704770470223E8E738B5134602250A46C0E90733AC
:2062C0000021C0F8945200F0D9F9002038BD00BF10B50C4613460021224600F0CFF9002098
:2062E00010BD00BF10B50C4613460021224600F0D3F9002010BD00BF08B504220023C0F8F3
:20630000942219461A4600F0B9F9002008BD00BF08B505220023C0F8942219461A4600F09E
:20632000BBF9002008BD00BF08B5002210491148FFF7E8FB48B910490E48FFF7F9FB60B9E8
:206340000C48FFF7FDFB78B908BDFAF73BFB0A490848FFF7EDFB0028F2D0FAF733FB054807
:20636000FFF7EEFB0028EFD0BDE80840FAF72ABB08010020C81100204C0000201223014888
:206380000B80704724010020042301480B807047380100200023F0B41F4652004E1CB0F1E2
:2063A000204F4FEA107404F130052ABF3734CD54CC54F75402339A424FEA0010EFD1F0BCE1
:2063C000704700BF1A220B480B4B00681B680A80C01801D10948704710B5094B08221C6874
:2063E0000849FFF7D7FF204604220749FFF7D2FF024810BDE8F7FF1FF0F7FF1F3C01002067
:20640000ECF7FF1F3E0100204E01002010B5044C0A4604482146FFF727FF204610BD00BF87
:206420008C1400208473000810B5044C0A4604482146FFF719FF204610BD00BF8C140020C5
:206440009873000810B5044C0A4604482146FFF70BFF204610BD00BF8C140020B073000834
:2064600010B5044C0A4604482146FFF7FDFE204610BD00BF8C140020BC7300080E4B026867
:206480009A4200D0704703F5DA33D86900B540F40000D861DB6983B003F40003019300220A
:2064A00002211420019BFBF7DBFE142003B05DF804EBFBF70DBF00BF005C004000F526714E
:2064C000D0F8D402FFF754BB01EB810300EBC303D3F86421D0F8D402FFF778BB01EB810371
:2064E00000EBC3035A6AD0F8D402FFF7ADBB00BFD0F8D402FFF748BC10B583790446022B9C
:2065000001D0FAF75FFAD4F8D4020121FFF724FCD4F8D402BDE81040FFF7F6BB10B5044639
:20652000D0F8D402FFF71CFCA37A23B1024A136943F00603136110BD00ED00E0D0F8D4020E
:20654000FFF718BC38B504460023082102221448144DC0F8D4424381C4F8C0020560017126
:2065600082710373FCF796FAB8B9002218231146D4F8C002FDF7C2F9582300228021D4F8C3
:20658000C002FDF7BBF94FF4807300228121D4F8C002FDF7B3F9002038BDFAF713FAE4E78B
:2065A0008C160020005C004008B5D0F8C002FCF7D5FA032896BF024B0220185C08BD00BF8D
:2065C000CC73000810B51446D0F8C0021A462346FDF784F8032896BF014B0220185C10BD63
:2065E000CC73000808B5D0F8C002FDF7ABF8032896BF024B0220185C08BD00BFCC73000848
:2066000008B5D0F8C002FDF7FFF8032896BF024B0220185C08BD00BFCC73000808B5D0F895
:20662000C002FDF72FF9032896BF024B0220185C08BD00BFCC7300080A06D0F8C03206D4AA
:2066400001EB810103EBC10191F85201704701F07F0101EB810103EBC101887C704700BF80
:2066600008B5D0F8C002FDF725F8032896BF024B0220185C08BD00BFCC73000808B5D0F80F
:20668000C002FDF7A9F8032896BF024B0220185C08BD00BFCC73000808B5D0F8C002FDF73A
:2066A00083F8032896BF024B0220185C08BD00BFCC73000800487047F80F0020704700BF95
:2066C000704700BF014B1868704700BF5801002070B500260C4D0D4C641BA410A64209D197
:2066E00000F08EFC00260A4D0A4C641BA410A64205D170BD55F8043B98470136EEE755F86B
:20670000043B98470136F2E7047400080474000804740008087400080A44914200F1FF3303
:2067200000D1704710B511F8014B914203F8014FF9D110BD03460244934200D1704703F81B
:20674000011BF9E70CB430B5174B0C1E1D689DB008DA8B234FF0FF302B601DB0BDE83040CF
:2067600002B070474FF40273ADF814300CBF234604F1FF33049307934FF6FF7302900690A4
:20678000ADF81630284621AB209A02A9019300F087F8431CBCBF8B232B60002CDDD000225E
:2067A000029B1A70D9E700BF580100200346C9B2184613F8012B12B18A42F9D17047002928
:2067C00018BF0020704710B56AB10139841810F8013B11F8012F934203D1A04201D0002B51
:2067E000F5D1981A10BD1046FCE72DE9F0478E6882469E420C4690461F4638D88A8912F47A
:20680000906F32D0256809690133A5EB010965694B4405EB450505EBD5756D109D4238BF86
:206820001D46530531D5294600F044FB064650B90C234FF0FF30CAF80030A38943F0400373
:20684000A381BDE8F0874A462169FFF765FFA38923F4906343F08003A38126614E442660D5
:206860003E466561A5EB0905A560BE4200D93E4632464146206800F0B7FAA36822689B1B5B
:2068800032440020A3602260DBE72A4600F06CFB06460028E1D15046216900F0BFFAC7E7B7
:2068A0002DE9F04F98468B8907461B060D4614469DB00ED50B6963B9402100F0FBFA2860E8
:2068C000286120B90C233B604FF0FF30D1E040236B610023099320238DF8293030234FF0CC
:2068E0000109CDF80C80DFF8A4818DF82A3023469A4613F8012B0AB1252AF9D1BAEB040B5A
:206900000BD05B46224629463846FFF76EFF013000F0AA80099A5A4409929AF80030002B2F
