:020000040800F2
:10000000005000206D2F0008F1240008F52400089E
:10001000F9240008FD240008012500080000000064
:10002000000000000000000000000000052500089E
:1000300009250008000000000D2500081125000812
:10004000B52F0008B52F0008B52F0008B52F000800
:10005000B52F0008B52F0008B52F0008B52F0008F0
:10006000B52F0008B52F0008B52F0008152500088A
:10007000B52F000821250008B52F0008B52F00086E
:10008000B52F0008B52F0008B52F0008B52F0008C0
:100090002D250008B52F0008B52F0008B52F000842
:1000A000B52F0008B52F0008B52F0008B52F0008A0
:1000B000B52F0008B52F0008B52F0008B52F000890
:1000C000B52F0008B52F0008B52F0008B52F000880
:1000D000B52F0008B52F0008B52F000839250008F6
:1000E000B52F0008B52F0008B52F0008000000004C
:1000F0000000000000000000000000000000000000
:0C01000000000000000000005FF808F1A3
:10010C0010B5054C237833B9044B13B10448AFF345
:10011C0000800123237010BDB004002000000000FB
:10012C00A485000808B5034B1BB103490348AFF382
:10013C00008008BD00000000B4040020A485000865
:10014C0010F8012B11F8013B012A28BF9A42F7D075
:10015C00D01A7047034613F8012B002AFBD1181A4A
:10016C000138704780F0004002E000BF81F0004190
:10017C0042001FBF5FEA410392EA030F7FEA226C41
:10018C007FEA236C6AD04FEA1262D2EB1363C1BFD1
:10019C00D218414048404140B8BF5B42192B88BF40
:1001AC00704710F0004F40F4000020F07F4018BF63
:1001BC00404211F0004F41F4000121F07F4118BF83
:1001CC00494292EA030F3FD0A2F1010241FA03FC2B
:1001DC0010EB0C00C3F1200301FA03F100F0004313
:1001EC0002D5494260EB4000B0F5000F13D3B0F1DB
:1001FC00807F06D340084FEA310102F10102FE2A4A
:10020C0051D2B1F1004F40EBC25008BF20F00100B9
:10021C0040EA03007047490040EB0000013A28BF58
:10022C00B0F5000FEDD2B0FA80FCACF1080CB2EBDB
:10023C000C0200FA0CF0AABF00EBC2505242184359
:10024C00BCBFD0401843704792F0000F81F40001FE
:10025C0006BF80F400000132013BB5E74FEA4103D1
:10026C007FEA226C18BF7FEA236C21D092EA030F3D
:10027C0004D092F0000F08BF0846704790EA010FB7
:10028C001CBF0020704712F07F4F04D1400028BFE4
:10029C0040F00040704712F100723CBF00F50000C6
:1002AC00704700F0004343F0FE4040F400007047FC
:1002BC007FEA226216BF08467FEA236301464202A8
:1002CC0006BF5FEA412390EA010F40F480007047BB
:1002DC004FF0000304E000BF10F0004348BF404261
:1002EC005FEA000C08BF704743F0964301464FF09D
:1002FC0000001CE050EA010208BF70474FF00003F9
:10030C000AE000BF50EA010208BF704711F0004339
:10031C0002D5404261EB41015FEA010C02BF844609
:10032C000146002043F0B64308BFA3F18053A3F568
:10033C000003BCFA8CF2083AA3EBC25310DB01FAAF
:10034C0002FC634400FA02FCC2F12002BCF1004F33
:10035C0020FA02F243EB020008BF20F001007047C4
:10036C0002F1200201FA02FCC2F1200250EA4C0018
:10037C0021FA02F243EB020008BF20EADC7070475E
:10038C004FF0FF0C1CEAD0521EBF1CEAD15392EA6C
:10039C000C0F93EA0C0F6FD01A4480EA010C400248
:1003AC0018BF5FEA41211ED04FF0006343EA5010A2
:1003BC0043EA5111A0FB01310CF00040B1F5000FE4
:1003CC003EBF490041EAD3715B0040EA010062F193
:1003DC007F02FD2A1DD8B3F1004F40EBC25008BF7D
:1003EC0020F00100704790F0000F0CF0004C08BF9B
:1003FC0049024CEA502040EA51207F3AC2BFD2F168
:10040C00FF0340EAC250704740F400004FF0000375
:10041C00013A5DDC12F1190FDCBF00F000407047AF
:10042C00C2F10002410021FA02F1C2F1200200FAED
:10043C0002FC5FEA310040F1000053EA4C0308BFB4
:10044C0020EADC70704792F0000F00F0004C02BF05
:10045C00400010F4000F013AF9D040EA0C0093F080
:10046C00000F01F0004C02BF490011F4000F013BDA
:10047C00F9D041EA0C018FE70CEAD15392EA0C0F48
:10048C0018BF93EA0C0F0AD030F0004C18BF31F0B3
:10049C00004CD8D180EA010000F00040704790F089
:1004AC00000F17BF90F0004F084691F0000F91F02D
:1004BC00004F14D092EA0C0F01D142020FD193EAF3
:1004CC000C0F03D14B0218BF084608D180EA01007B
:1004DC0000F0004040F0FE4040F40000704740F057
:1004EC00FE4040F4400070474FF0FF0C1CEAD05225
:1004FC001EBF1CEAD15392EA0C0F93EA0C0F69D081
:10050C00A2EB030280EA010C49024FEA402037D0EB
:10051C004FF0805343EA111143EA10130CF00040E2
:10052C008B4238BF5B0042F17D024FF4000C8B42D2
:10053C0024BF5B1A40EA0C00B3EB510F24BFA3EBB2
:10054C00510340EA5C00B3EB910F24BFA3EB910382
:10055C0040EA9C00B3EBD10F24BFA3EBD10340EADC
:10056C00DC001B0118BF5FEA1C1CE0D1FD2A3FF622
:10057C0050AF8B4240EBC25008BF20F001007047D7
:10058C000CF0004C4CEA50207F32C2BFD2F1FF037A
:10059C0040EAC250704740F400004FF00003013AAB
:1005AC0037E792F0000F00F0004C02BF400010F44F
:1005BC00000F013AF9D040EA0C0093F0000F01F063
:1005CC00004C02BF490011F4000F013BF9D041EA85
:1005DC000C0195E70CEAD15392EA0C0F08D14202B8
:1005EC007FF47DAF93EA0C0F7FF470AF084676E78B
:1005FC0093EA0C0F04D14B023FF44CAF08466EE764
:10060C0030F0004C18BF31F0004CCAD130F0004231
:10061C007FF45CAF31F000437FF43CAF5FE700BF89
:10062C004FF0FF3C06E000BF4FF0010C02E000BFB2
:10063C004FF0010C4DF804CD4FEA40024FEA410354
:10064C007FEA226C18BF7FEA236C11D001B052EA0A
:10065C00530C18BF90EA010F58BFB2EB030088BFD0
:10066C00C81738BF6FEAE17018BF40F0010070473F
:10067C007FEA226C02D15FEA402C05D17FEA236C21
:10068C00E4D15FEA412CE1D05DF8040B704700BF68
:10069C00844608466146FFE70FB5FFF7C9FF0028FF
:1006AC0048BF10F1000F0FBD4DF808EDFFF7F4FF38
:1006BC000CBF012000205DF808FB00BF4DF808EDD1
:1006CC00FFF7EAFF34BF012000205DF808FB00BFF4
:1006DC004DF808EDFFF7E0FF94BF012000205DF816
:1006EC0008FB00BF4DF808EDFFF7D2FF94BF0120C7
:1006FC0000205DF808FB00BF4DF808EDFFF7C8FFC0
:10070C0034BF012000205DF808FB00BF4FEA400217
:10071C00B2F1FE4F0FD34FF09E03B3EB12620DD923
:10072C004FEA002343F0004310F0004F23FA02F08D
:10073C0018BF404270474FF00000704712F1610F34
:10074C0001D1420205D110F0004008BF6FF000400B
:10075C0070474FF00000704742000ED2B2F1FE4FCE
:10076C000BD34FF09E03B3EB126209D44FEA002374
:10077C0043F0004323FA02F070474FF0000070473B
:10078C0012F1610F01D1420202D14FF0FF307047DC
:10079C004FF00000704700BF38B5044601F0A4FDCF
:1007AC0090B11B4D2B682A79E31A12B1C72B25D8AF
:1007BC0038BDB3F5487FFBD32021164803F0DEFA91
:1007CC0001232C602B7138BD134B1B78012B0ED1E0
:1007DC000F4D2B68E31A632BEAD92A79202182F07A
:1007EC0001020C482A7103F0C9FA2C6038BD02468C
:1007FC00BDE838402021074803F0C0BA012220216F
:10080C00044803F0BBFA00232C602B7138BD00BFE9
:10081C008C080020000C0140A91B002070B500239F
:10082C0001244FF480324FF4003602254FF480112E
:10083C0094B00AA8CDE90F33CDE90633CDE90833DE
:10084C00CDE902330D930593019304930A940E940E
:10085C000B9212920C961195139104F0EDF908B1CC
:10086C0072B6FEE703460F264FF48062214605A8B8
:10087C00CDE9065309930596089204F00BFC08B1D8
:10088C0072B6FEE712214FF480424FF4800301A8A8
:10089C00CDE90323019104F0BDFC08B172B6FEE76B
:1008AC0014B070BD2DE9F04100248AB002F0A2FB17
:1008BC00FFF7B4FF0A2002F0C1FBCDE90644CDE9F5
:1008CC000844A34D2246AB694FF2200143F02003AC
:1008DC00AB61AB699F4803F020030193019BAB69AB
:1008EC00012643F00403AB61AB69022703F0040358
:1008FC000293029BAB694FF0050843F00803AB6110
:10090C00AB6903F008030393039B03F037FA4FF230
:10091C002003904806A9CDE906360894099703F000
:10092C0017F94FF400438C4806A90693CDE9074606
:10093C0003F00EF9182387480DEB03010693CDE95C
:10094C00074603F005F96B69224633436B616B690B
:10095C00214633400B200093009B02F0F3FD0B204B
:10096C0002F028FE224621460D2002F0EBFD0D2060
:10097C0002F020FE4FF480724FF40023774D78493B
:10098C002846CDE90644C5E9001408942C732C754F
:10099C00AA60EB61C5F8108002F024FD08B172B6B4
:1009AC00FEE7034606A92846CDE90636089302F071
:1009BC0095FB08B172B6FEE7284606A9CDE9066795
:1009CC0002F08CFB08B172B6FEE70326284606A996
:1009DC00CDE9067602F082FB08B172B6FEE704247C
:1009EC00284606A9CDE9066402F078FB08B172B678
:1009FC00FEE7284606A9CDE9064802F06FFB034640
:100A0C0008B172B6FEE70C224FF4E1345548564952
:100A1C00C0E90143C0E90333C0E906330160426118
:100A2C0004F0A2FE034608B172B6FEE72F2540F291
:100A3C00F31180224D4C4E48CDE906332060204600
:100A4C00CDE90833C4E90153C4E904330493E160EC
:100A5C00A261059304F07EFD08B172B6FEE74FF477
:100A6C008053204606A9069304F080FC034608B187
:100A7C0072B6FEE7204604A9CDE9043304F098FDD4
:100A8C0008B172B6FEE70023632009218022394C9D
:100A9C00CDE90633CDE90833CDE90433A3602361F6
:100AAC00354BE160C4E900302046A26104F052FDF0
:100ABC0008B172B6FEE74FF48053204606A90693A0
:100ACC0004F054FC034608B172B6FEE7202220461F
:100ADC0004A9CDE9042304F06BFD08B172B6FEE75E
:100AEC004FF400411C4803F043F90821054619480E
:100AFC0003F03EF910210446164803F039F92DB3E2
:100B0C0024B3B0FA80F35B091C4A1D4C137006F039
:100B1C0091FD4FF4F0721B49104802F0AFFB1548E1
:100B2C0004F0F8FB00F0B0F800F060FD00F072FE8D
:100B3C0000222021074803F021F9206801F078FDFC
:100B4C0001F052FE2068FFF727FEF6E70123DBE7F2
:100B5C0000100240000C014000080140C820002099
:100B6C000024014038200020004800403C21002097
:100B7C00002C01408020002000040040A91B002014
:100B8C00EC110020CC0400200F4B02689A4200D0DC
:100B9C00704710B50D4C00210D4800F021F900F004
:100BAC001FFA00F0C5F900F0B5FC00F0F9FC206864
:100BBC0000F0FEFC206800F025FD00F057FCBDE8BD
:100BCC00104000F0E9BB00BF00240140EC110020F4
:100BDC00CC0400200F4B02689A4200D0704710B52D
:100BEC000D4CF0210D4800F0FBF800F0F9F900F085
:100BFC009FF900F08FFC00F0D3FC206800F0D8FCCB
:100C0C00206800F0FFFC00F031FCBDE8104000F063
:100C1C00C3BB00BF00240140EC110020CC04002019
:100C2C0072B6FEE730B44FF414750121084C094A32
:100C3C00094B05FB00401B8A14681268C0F83C4243
:100C4C001344C0F8403280F8381230BC704700BFF3
:100C5C00AC080020EC110020FC1100204FF41473A0
:100C6C0010B5074C002203FB0044B4F82012D4F852
:100C7C00240203F083F8034B1B68C4F8283210BD20
:100C8C00AC080020EC1100202DE9F84F00264FF0A5
:100C9C007E5935464D4CDFF84081DFF840A1A71E48
:100CAC004FF400720021204604F8025CC4F806528E
:100CBC0007F00CF8B8F81A00A4F80052A4F8025285
:100CCC00A4F80452C4F80E52A4F81252C4F81652E6
:100CDC00C4F84692FFF7FCFA4FF0000BC4F82A5206
:100CEC00C4F84A02C4F82E529EB3012E52D0022EE2
:100CFC005ED0072140224FF4004387F80C19A7F867
:100D0C000E29C7F814A9A7F810390122B4F81E123D
:100D1C00D4F8220203F032F8032EC4F8265284F8D9
:100D2C003652C4F83A52C4F83E52A4F842522DD16D
:100D3C00274B98F8101098F81100264AC3E9005573
:100D4C0041EA002182F800B015819D605181BDE817
:100D5C00F88F0E2180224FF48053C7F824A287F815
:100D6C001C12A7F81E22A7F820320122B4F81E127A
:100D7C00D4F8220203F002F8C4F8265284F8365252
:100D8C00C4F83A52C4F83E52A4F84252013604F563
:100D9C00147485E70D214FF400624FF40053C7F82B
:100DAC0074A487F86C14A7F86E24A7F87034DCE7E9
:100DBC0009214FF480624FF48043C7F8C4A687F82A
:100DCC00BC16A7F8BE26A7F8C036CEE7AE080020A2
:100DDC00F0110020FC1100201C120020000C01401E
:100DEC002DE9F04F00260B46DFF83CC10246B04619
:100DFC0060464FF4947A85B00533DFF8309100915A
:100E0C00019300270099B3B25918019C89B232F8AA
:100E1C00111023443D46CDE9028889B29BB212E001
:100E2C00039CA14271D80135302D19D02F2D32F8E9
:100E3C00131008BF32F8134003F1050389B208BF41
:100E4C00A0F844429BB2B942EAD90024039704AFFC
:100E5C0007EB8404013544F8081C302D029FE5D1C2
:100E6C003049039B01EB4601CD883B44C3F34F0350
:100E7C0005FB03F54FF6FF73AD099D4228BF1D46D8
:100E8C00042EADB24AD0B0F802320AFB06310CEB9C
:100E9C0041014D8001339BB2B0F806E2FF2B94BFA9
:100EAC00A0F80232A0F80282BEF1FF0F2FD9B0F8E1
:100EBC00043201339BB2FF2BA0F8043201D9A0F805
:100ECC0004820024B0F804320AFB06FB03EB0E0785
:100EDC00BFB2D9B259440CEB4101013349889BB2E2
:100EEC009F420C44F5D104EB84035B00B3FBFEF38F
:100EFC0039F81610C0F808328BB29D4201D929F886
:100F0C001650013600F514707BE701249FE70EF1B3
:100F1C00010E1FFA8EFEA0F806E2D2E705B0BDE87E
:100F2C00F08F00BF1C120020AC0800209408002099
:100F3C002DE9F04F0025264E2F4634464FF4947978
:100F4C004FF07E5B234A244BB2F80EA0598BDFF88E
:100F5C008C8083B02378012B07D00135042D04F548
:100F6C001474F7D103B0BDE8F08FB4F806325BB15E
:100F7C00B4F8023243BBFF2309FB053306EB4303F2
:100F8C005B8803EB83035B00D4F808229A4218D9E0
:100F9C00D4F830221AB9D8F80020C4F83022D8F886
:100FAC0000309B1A9A45D8D808462770C4F848B226
:100FBC000191FFF78DF90199C4F83072C4F84C0215
:100FCC00CBE7C4F83072C8E7013B9BB2D4E700BF53
:100FDC00AC080020FC1100201C120020EC11002099
:100FEC002DE9F04FBE4F83B03C78012C07D0022C7A
:100FFC0000F0D380002C7DD003B0BDE8F08FB94D4C
:10100C0095F804E0BEF1000F00F058812046AC4684
:10101C002C464FF414714FF49479B34E05EB0E0833
:10102C0014F8013B01FB0362B2F814A29346BAF127
:10103C00000F05D1B2F80CA2A2F81402C2F810A24B
:10104C00BBF80622002A00F01C81BBF802A20AF1B0
:10105C00FF32BAF1000F00F0168192B209FB0322A5
:10106C0006EB4202B2F802A001FB0363D3F8102294
:10107C00B3F814B252440BF1010B4445C3F81022DF
:10108C00A3F814B2CCD1994B79681B68BA895B1A56
:10109C009A42B1D84FF000094FF414784846A96829
:1010AC0095F805A01CF8013B08FB0363B3F814B2D8
:1010BC00BBF1000F10D0D3F81022D3F8344204FB4C
:1010CC0002F2B2FBFBF28A42C3F8182204D9114691
:1010DC004FF001095FFA80FA01307045E2DBB9F19B
:1010EC00000F02D0A96085F805A002233B7003B065
:1010FC00BDE8F08FDFF8F0812146464642464FF4BA
:10110C009475B2F806326BB1B2F80202431E002895
:10111C0041D09BB205FB013306EB43035B889C4239
:10112C0038BF1C460131042902F51472E9D14FF085
:10113C0000094FF4947BC4EBC40A4FEAEA036A4DEE
:10114C0001932B78EBB9B5F80632002B52D0B5F8D9
:10115C000222531E002A57D09BB20BFB093306EB1D
:10116C004303B3F802A05046A5F80CA2FFF7B4F85D
:10117C00D5F84C12FFF7C0FA18B1019B9A4500F351
:10118C00C88009F10109B9F1040F05F51475D8D11E
:10119C0003B0BDE8F08FFF23BCE70023514D7B72F9
:1011AC006B7915F80380B8F1000F2FD12A79012A39
:1011BC0045D92B462A4401E0934240D013F8014B09
:1011CC00032CF9D1484EAB68D6F8082903EB43033E
:1011DC00B2EB930F34D301237B724046FFF722FD11
:1011EC002046FFF71FFD4046FFF738FD2046FFF76E
:1011FC0035FD2BE009F10109B9F1040FA5F80C320A
:10120C0005F514759DD1C3E7FF23A6E7B8F1030FCD
:10121C003BD12A79012A12D92B462A4401E09A4261
:10122C000DD013F8014B002CF9D12F4EAB68D6F82A
:10123C00182203EB4303B2EB930F01D3CBE72A4EF7
:10124C004046FFF7EFFC4046FFF708FD0125002163
:10125C00254B264C03F5146022681D70C3E98B21C5
:10126C0003F514738342F7D10A233970C6F834326C
:10127C00C6F88434C6F8D436C6F8243903B0BDE8B1
:10128C00F08F9246F0E6FF22E8E6B8F1010F1ED18E
:10129C002A79012AD3D92B462A4401E09A42CED08E
:1012AC0013F8014B022CF9D10F4EAB68D6F8B826C7
:1012BC0003EB4303B2EB930FC2D38CE70B4B796870
:1012CC001B68BA895B1A9A427FF60FAF94E6B8F1A5
:1012DC00020F50D12A79012AB1D92B462A4409E0B0
:1012EC00FC110020F0110020AC080020EC110020B3
:1012FC009A42A4D013F8014B012CF9D1214EAB68C2
:10130C00D6F8682403EB4303B2EB930F98D37C72AB
:10131C0063E74FF414721C4B1C49D3F8220002FBF8
:10132C000966FFF72DF8FFF717FA4FF000090122B5
:10133C00174B184D1B683A707B60C6F8340285F861
:10134C0005902046C5F80890FEF7C2FF7969FFF7B3
:10135C0017F84B4629464A4601F8013B0133042B4A
:10136C00C8F81022A8F81422C8F84C0208F5147812
:10137C00F2D12B7140E6B8F1030F024E3FF666AF87
:10138C005EE700BFAC0800201C12002000002041CA
:10139C00EC110020F0110020F8B52E4B1B78012B1E
:1013AC001CD119462C4B2D4C2D4D03F5146093F884
:1013BC0038224AB12E88B3F81E22324204D12E882C
:1013CC00B6B232432A80217003F514739842EED1E1
:1013DC00237803F0FF0673BB3046F8BD00264FF0B0
:1013EC00010C1D4A1D4C1F4802F5146792F8383247
:1013FC007BB902F514729742F8D12378002BEBD00D
:10140C0008221849184805F0DFFC002330462370E9
:10141C00F8BD022392F81C52C15C0133A942E8D0FA
:10142C00082BF9D10223C15C71B10133082BFAD11D
:10143C00052EDED9E1E70026082209490A4801F009
:10144C0079FD30462670F8BD0136C554F6B284F8E5
:10145C0000C0EDE7A91B0020AC080020AA1B00204F
:10146C0000000020A4080020A82700202DE9F0434C
:10147C0000204FF0010E214A214B1678214CDFF849
:10148C008CC0DFF88C80204F03F5146193F8382260
:10149C0062B1D3F840224AB12568AA4206D8C3E902
:1014AC008F0083F838023EB1012E13D003F514736C
:1014BC008B42EBD1BDE8F083022293F81C92BD5C09
:1014CC004D4517D00132082AF9D103F514738B421C
:1014DC00DCD1EFE7BCF80020B3F81E521542E5D082
:1014EC00BCF8002092B222EA0502ACF8002088F881
:1014FC000060DBE7B85488F800E0D7E7A91B0020B0
:10150C00AC080020EC110020A408002000000020F2
:10151C00AA1B00202DE9F04F1E4B83B05B8B4FF0C4
:10152C00000818460193FEF7D7FE4FF07E5A064688
:10153C00194B1A4CD3F8189004F51467D4F84CB224
:10154C0031465846FEF712FE41460546FFF7D4F8E1
:10155C0090B149465046FEF709FE2946FEF710FFAA
:10156C0001465846FEF702FE054630462946FFF76F
:10157C00C3F840B9C4F84C5204F51474BC42DDD124
:10158C0003B0BDE8F08F0198FEF7A2FEC4F84C0240
:10159C00F2E700BF1C120020FC110020AC08002058
:1015AC00024A136801331360704700BFEC1100202E
:1015BC00F8B5002705460C4C04F51466D4F828320F
:1015CC00EA1A0BB1132A04D804F51474B442F5D1F9
:1015DC00F8BD0122B4F82012D4F8240202F0CEFB9C
:1015EC00C4F82872F0E700BFAC0800200022044BBE
:1015FC001A805A809A80DA801A81DA60704700BFAC
:10160C0094080020704700BF2DE9F8438946037801
:10161C000246202B00F10100F9D0092BF7D0002B4A
:10162C004AD00024214627462046A0460DE0A7B309
:10163C00012904DC00EB800005EB4000013112F8BD
:10164C00013F013473B10A2C0CD0A3F13005EEB27A
:10165C00092EECD92E2B25D127BB12F8013F0127DF
:10166C00002BF0D1B8F1630F1CDCF1B1012904BFE0
:10167C0000EB80004000FEF72FFE1049FEF734FF10
:10168C0004464046FEF728FE01462046FEF770FD54
:10169C00C9F800000120BDE8F88308EB880805EBC9
:1016AC004808CCE70020BDE8F8834046FEF714FE5E
:1016BC000021FEF75DFDEBE70020E9E70000C842E2
:1016CC0010B403780446202B00F10100F9D0092B4B
:1016DC00F7D0A3B1002205E0B2F5803F0BD214F88D
:1016EC00013F5BB102EB820203EB4202303B092B60
:1016FC00A2F13002F0D9002010BC704793B2012047
:10170C0010BC0B80704700BF20492DE9F0418C883C
:10171C00631E012B1ED80A4600234D8D1C4812F85F
:10172C00011B0B4482429BB2F9D19D4212D1012C78
:10173C00184E12D03446154D0FCD0FC40FCD0FC41B
:10174C0095E8070084E80700328A134B01205A8180
:10175C00BDE8F0810020BDE8F08135464FF0C808A7
:10176C004FF0320E43F6787C084F0FCF0FC597E839
:10177C00070003C5094B0A492A80B480C6E9071E35
:10178C00A6F81A807362A6F828C0DDE700FC0108F1
:10179C002AFC01081C120020FC1100200040EC5116
:1017AC0004000F004FF0320C2DE9F0414FF0C81639
:1017BC004FF078184FF0501E43F67877104C1148C4
:1017CC002546206010482246606010484621C4E936
:1017DC00070C0F4800236062C4E90466C4F8088053
:1017EC00C4F80CE0278504F12900A66101E012F889
:1017FC00011F0B4482429BB2F9D16B85BDE8F0818D
:10180C001C120020464E4F430200500004000F00F3
:10181C000040EC51134A144B126870B59A4202D135
:10182C00FFF772FFC8B90122104B1A70FFF7BAFF0D
:10183C000F4A104BD2F82250D2F82640168AD169A2
:10184C00108C5E81D96018825D619C610122BDE8BB
:10185C0070400949094804F015B80022034B1A706E
:10186C00E6E700BF00FC0108464E4F43181200206B
:10187C001C120020FC1100204C12002038200020EB
:10188C0000232DE9F041224A86B0551C02F12A00B2
:10189C0012F8011F0B4482429BB2F9D16B85EFF316
:1018AC00108672B602F058F8044628B186F31088F8
:1018BC00002006B0BDE8F081342001221549164BFA
:1018CC00C86001A902A8CDE901440592049302F075
:1018DC00DDF8D0B9DFF84880104FA8F12C047F1B3D
:1018EC0054F8042B00230220391902F07FF860B958
:1018FC004445F5D102F044F862B686F31088B0FA8C
:10190C0080F0400906B0BDE8F08102F039F8CDE76F
:10191C001B1200200020024000FC0108FCFB010807
:10192C0048120020084B02689A4200D0704710B54C
:10193C00064C207800F040FE2146BDE81040012204
:10194C00034803F09FBF00BF004800404C1200202A
:10195C0038200020704700BF70B505468AB0084695
:10196C000C46FEF7D3FE0646FEF7B6FC01462046B3
:10197C00FEF7FCFB20490446FEF7A0FEF0B91F4918
:10198C002046FEF7FDFC4FF07C51FEF7F1FBFEF715
:10199C00BDFE632810DC09281EDD02AC2B46CDE908
:1019AC000060174A2046202106F098F981B22046A3
:1019BC0000F0EEFD0AB070BD6320EEE702AC2B46E2
:1019CC00104A20462021009606F088F981B2204664
:1019DC0000F0DEFD0AB070BD02AC2B46CDE9006014
:1019EC00094A2046202106F079F981B2204600F000
:1019FC00CFFD0AB070BD00BF0AD7A33B0000C842A0
:101A0C00E0850008C4850008D085000800B58BB0BF
:101A1C000346074A009102A8202106F05FF901460F
:101A2C0002A889B200F0B4FD0BB05DF804FB00BF56
:101A3C00F08500082DE9F041A94B0D461A780146B6
:101A4C00A6B00AB901221A703F2D2C4628BF3F249C
:101A5C0006A8224606F02CF9002126AB234403F8F5
:101A6C00801C6DB1013C26AB234413F8802CA4B22E
:101A7C000D2A01D00A2A06D103F8801C002CF1D1C2
:101A8C0026B0BDE8F081974A069B93423ED0BDF844
:101A9C0018203F2A4CD094498B4245D0682A47D015
:101AAC003D2106A806F04EF90446002800F07E8180
:101ABC00002306A804F8013BFEF74CFB052800F0B8
:101ACC00A782032840F0DE819DF81830742B40F07B
:101ADC00D9819DF81930682B40F0D4819DF81A50AB
:101AEC00A5F13006042E00F2CD81204602A9FFF7A5
:101AFC00E7FD002800F0C681BDF808307B4A283D80
:101B0C0022F815305EB97A4A538108E09DF81C2002
:101B1C00002ABCD1FFF7B4FE002800F0F8810421A4
:101B2C00744800F035FDABE79DF81C30002BB5D1A7
:101B3C002C21714800F02CFD2721704800F028FD65
:101B4C002C216F4800F024FD11216E4800F020FD7F
:101B5C002F216D4800F01CFD2B216C4800F018FD66
:101B6C0028216B4800F014FD2E216A4800F010FD6E
:101B7C002021694800F00CFD4521684800F008FD63
:101B8C004221674800F004FD0221664800F000FD88
:101B9C001A21654800F0FCFC4621644800F0F8FC72
:101BAC000221604800F0F4FC1F21614800F0F0FCB9
:101BBC003621604800F0ECFC38215F4800F0E8FC6E
:101BCC0036215E4800F0E4FC0221564800F0E0FCAF
:101BDC0015215B4800F0DCFC42215A4800F0D8FC8F
:101BEC004121594800F0D4FC02214E4800F0D0FCB1
:101BFC002B21564800F0CCFC3221554800F0C8FC93
:101C0C002C21544800F0C4FC2B21534800F0C0FC9C
:101C1C002921524800F0BCFC2321514800F0B8FCAB
:101C2C002721504800F0B4FC02213E4800F0B0FCE3
:101C3C002A214D4800F0ACFC0D214C4800F0A8FCCA
:101C4C0035214B4800F0A4FC32214A4800F0A0FC9E
:101C5C002E21494800F09CFC3021484800F098FCAB
:101C6C003421474800F094FC02212E4800F090FCEF
:101C7C000C21444800F08CFC2C21434800F088FCDB
:101C8C002821424800F084FC2F21414800F080FCC0
:101C9C000221244800F07CFC0C213E4800F078FC2A
:101CAC0027213D4800F074FC2D213C4800F070FCCD
:101CBC0023213B4800F06CFC23213A4800F068FCDF
:101CCC000221184800F064FC2221374800F060FC27
:101CDC002C210B4800F05CFC26B0BDE8F08100BF65
:101CEC00481200207361766568656C701C120020C8
:101CFC00FC110020BC8500082086000850860008D6
:101D0C0078860008A8860008BC860008EC860008C7
:101D1C001887000844870008748700089887000813
:101D2C00E0870008508A00082488000840880008D2
:101D3C0088880008A8880008E08800081C8900082A
:101D4C00548900086C890008B0890008F4890008DF
:101D5C00208A0008548A0008848A0008B08A000887
:101D6C00DC8A0008008B0008288B0008548B0008C4
:101D7C00648B00089C8B0008D08B0008008C00083A
:101D8C00348C00086C8C00087C8C0008AC8C00082F
:101D9C00D88C0008088D0008188D0008408D0008AC
:101DAC00708D0008948D0008B88D00083F2106A89E
:101DBC0005F0C8FF002800F0DE810470069AB94BCC
:101DCC009A4200F0D780BDF81830682B00F0D7800D
:101DDC0006A8FEF7BFF9052800F0E78103280ED10D
:101DEC009DF81830742B0AD19DF81930682B06D148
:101DFC009DF81A20A2F13003042B40F24282AA492A
:101E0C0006A8FEF79DF9002800F00482A74906A851
:101E1C00FEF796F9002800F00382A54906A8FEF704
:101E2C008FF9002800F00882A24906A8FEF788F96D
:101E3C00002800F0FB81A04906A8FEF781F90028D4
:101E4C0000F017829D4906A8FEF77AF9002859D1AF
:101E5C009B4B9A48D3F82610FFF77EFD10E630B165
:101E6C00012800F0178202280CBF28466320642545
:101E7C0005FB0705B8F1000F00D06D42B5F5C82F72
:101E8C0040F2E581884906A8FEF75AF9002800F0CF
:101E9C004981864906A8FEF753F9002800F05981BC
:101EAC00834906A8FEF74CF9002800F069818149A6
:101EBC0006A8FEF745F978B37F4906A8FEF740F966
:101ECC0000283AD07D4906A8FEF73AF9D0B9204649
:101EDC0016A9FFF799FBA8B1169C00212046FEF726
:101EEC000BFC78B14FF07E512046FEF7E7FB48B172
:101EFC00734A744B04217448C2F826409C6100F06C
:101F0C0047FBBDE51921714800F042FBB8E51421EF
:101F1C006F4800F03DFBB3E5204602A9FFF7D0FB6C
:101F2C000028C9D0BDF80830654C664A04216648C3
:101F3C002384138200F02CFBA2E5204616A9FFF7A0
:101F4C0063FB0028BED0169D00212846FEF7D4FB6B
:101F5C000028B7D028465F49FEF7BAFB0028B1D05D
:101F6C00574A584B04215848C2F822505D6100F082
:101F7C000FFB85E59DF81C30002B7FF424AF30213E
:101F8C00554800F005FB3C21544800F001FB46216C
:101F9C00534800F0FDFA4321524800F0F9FA402171
:101FAC00514800F0F5FA4421504800F0F1FA432171
:101FBC004F4800F0EDFA45214E4800F0E9FA432174
:101FCC004D4800F0E5FA45214C4800F0E1FA462175
:101FDC004B4800F0DDFA02214A4800F0D9FA3821CA
:101FEC00494800F0D5FA3221484800F0D1FA3521A1
:101FFC00474800F0CDFA3321464800F0C9FA3321A6
:10200C00454800F0C5FA3121444800F0C1FA37E5E3
:10201C000422434906A805F0A2FE054600287FF4D9
:10202C0031AF9DF81CE0AEF1300EBEF1040F3FF65F
:10203C0029AF21460A4611F8013B202BFAD0092B77
:10204C00F8D02D2B00F00D812B2B00F0FB80002BFA
:10205C0000F0FD804FF0000800273846BC4611E028
:10206C0007EB8703BCF1000F00F09C80012805EB07
:10207C00850302DC01EB4305013012F8013F002B14
:10208C003FF4EDAEA3F13001CEB2092EE8D92E2BE0
:10209C007FF4F8AEBCF1000F7FF4F4AE4FF0010CFE
:1020AC00EBE700BF68656C70E48D0008EC8D0008F0
:1020BC00F88D0008048E00080C8E0008188E00089D
:1020CC001C120020FC110020BC850008248E000886
:1020DC00F885000800002041408E0008748E00082E
:1020EC00B48E0008FC8E0008408F0008848F000816
:1020FC00CC8F000810900008589000089C900008A5
:10210C00E4900008508A00082C910008689100089F
:10211C009C910008D4910008089200083C92000899
:10212C00DC8D0008204602A9FFF7CAFA00283FF40C
:10213C00B0AEBDF808305C4A5C4C04215C4863814D
:10214C005383138253829382D382138300F020FA39
:10215C0096E4204602A9FFF7B3FA00283FF4A0AE9C
:10216C00BDF80830504C514A04215148A383938147
:10217C0000F00EFA84E418214E4800F009FA7FE4CE
:10218C00204602A9FFF79CFA00283FF490AEBDF858
:10219C000830454C454A04214548E383D38100F07F
:1021AC00F7F96DE401EB430767E70422424906A8FF
:1021BC0005F0D5FD00287FF422AE9DF81C50303D73
:1021CC00042D3FF61CAE6420374A3C4B02EB450213
:1021DC00D18802ACA3FB01235A0900FB121292B264
:1021EC005B09002A5AD0092A009220464FF01001B0
:1021FC0094BF334A334A05F071FD2B464021324AD5
:10220C00009416A805F06AFD014616A889B200F0E4
:10221C00BFF935E4244B2D48598BFFF7F7FB2FE41E
:10222C00214B2B48998BFFF7F1FB29E41E4B2948D6
:10223C00198CFFF7EBFB23E41B4B2748D98BFFF7DB
:10224C00E5FB1DE453780132002B7FF403AF164BF2
:10225C00042103EB4E0E1648AEF8065000F098F928
:10226C000EE453784FF001080A46002B7FF4F4AECD
:10227C0003E60D4B1948D3F82210FFF76DFBFFF75F
:10228C00FFBB0949283A31F8122016A800922021E8
:10229C00134AB7E70A2000FB05F0E8E520461021B9
:1022AC00104A05F01BFDA8E71C120020FC110020B1
:1022BC00BC85000898920008DC8D00081F85EB5146
:1022CC00709200087892000880920008E48D000853
:1022DC00EC8D0008048E0008F88D00080C8E0008A8
:1022EC008C92000874920008014B1878704700BF5C
:1022FC00181200200E4B82B09A690E4942F001026E
:10230C009A619A6902F001020092009ADA6942F02D
:10231C008052DA61DB6903F080530193019B4B68B7
:10232C0023F0E06343F000734B6002B0704700BFD2
:10233C000010024000000140F0B500240268224B5E
:10234C0087B09A42CDE90244CDE9044401D007B0EC
:10235C00F0BD05461F20032603F56C439A6902A9BC
:10236C0042F400729A619A694FF4807702F4007219
:10237C000092009A9A6942F004029A619B69029059
:10238C0003F0040311480193019B039601F0E0FB59
:10239C0080204FF4806120224FF400530C4EF060EB
:1023AC000C48C6E9014430603046C6E90512376175
:1023BC00F36101F025F918B92E62756207B0F0BD12
:1023CC00FEF72EFCF8E700BF002401400008014096
:1023DC00F820002008000240104A036882B09342A3
:1023EC0010D00F4A934201D002B070470D4BDA69FE
:1023FC0042F00202DA61DB6903F002030193019BF4
:10240C0002B07047074B9A6942F400629A619B696B
:10241C0003F400630093009B02B07047002C014052
:10242C00000400400010024070B500240268294BE3
:10243C0086B09A42CDE90244CDE9044401D006B0FD
:10244C0070BD4FF4806105460220032603F5E4338A
:10245C00DA6942F48022DA61DA6902F480220092AD
:10246C00009A9A6942F008029A619B69029103F002
:10247C000803019302A903901748019B059601F0EC
:10248C0067FB4FF40063144802A90293CDE903449F
:10249C0001F05EFB80214FF48053104E104A304601
:1024AC00C6E90144C6E90444F160B4613260F361E9
:1024BC0001F0A6F858B9002204212720EE637562BA
:1024CC0001F040F8272001F075F806B070BDFEF75A
:1024DC00A7FBF0E700480040000C0140F41F00206F
:1024EC0030000240FEE700BFFEE700BFFEE700BF82
:1024FC00FEE700BFFEE700BF704700BF704700BF9C
:10250C00704700BF00F088BD014801F065B900BFFD
:10251C00F8200020014801F05FB900BFF41F002033
:10252C00014801F0ADBC00BF742A0020014803F043
:10253C0041BA00BF382000200D49034610B50D4AA2
:10254C000D4C0868121B20B10344934207D80B6052
:10255C0010BD0A4C2046034493420C60F7D905F099
:10256C007DFB0C2203464FF0FF301A6010BD00BFFC
:10257C00501200200050002000040000602D0020AC
:10258C00704700BF014B93F84A007047541200206B
:10259C0010B4074A92F89C42032C06D00A466423D6
:1025AC00014610BC034803F011B910BC00F0E6B8AA
:1025BC00A82700203820002030B51B4C054694F885
:1025CC00483083B013B9012384F8483000F030FD53
:1025DC0000230A2D606484F849300BD00D2D09D0EE
:1025EC00B4F840303E2B03D85A1CE554A4F84020D4
:1025FC0003B030BD0023B4F84010635479B9002205
:10260C000A4B02211B6801A81D0CADF804308DF893
:10261C000650A4F84020FFF7BBFF03B030BD0248C2
:10262C00FFF708FAEBE700BF54120020508A0008AD
:10263C0038B50B4CB4F8401031B194F849501DB971
:10264C00636CC31A312B00D838BD01232046655466
:10265C0084F84930FFF7EEF9A4F8405038BD00BFBC
:10266C005412002008B500F0E3FCBDE80840FFF769
:10267C00DFBF00BF00207047F8B506460C46FFF7D9
:10268C0081FF012825D12068D0B1751E134A28443A
:10269C00B2F80031B2F80241013303F0FF03A4B2E7
:1026AC00A34215F8017F09D0B2F80011B2F800313D
:1026BC0089B20133DBB25754A2F800318542E7D11D
:1026CC003146074805F04CF9054805F06BF9002038
:1026DC00F8BDFFF757FF0028D5D0F1E7A012002076
:1026EC00A827002010B50C4C002220460B4905F001
:1026FC002FF920460A4905F033F90020094A0A4B04
:10270C000A49A2F80008A2F80208A3F80001A3F8ED
:10271C000201087010BD00BFA827002084230020F0
:10272C0084210020A4130020A0120020A81B00204C
:10273C00202830B413D021280ED10F4A13681479F5
:10274C001D0A507992790B704D701D0C1B0E8D70FB
:10275C00CB700C7148718A71002030BC7047064BED
:10276C000C7948798A790D6858711C719A7100201E
:10277C001D6030BC704700BF0C00002070B4EFF33C
:10278C00108472B6174AB2F80058B2F80238ADB2DB
:10279C009BB29D422CBF03F2FF7303F1FF335B1B13
:1027AC009BB2994218D891B1013989B201440138D0
:1027BC00B2F80058B2F8003810F8016F0133ADB21E
:1027CC00C3F30A0388425655A2F80038F0D184F3BB
:1027DC00108870BC0120704784F31088002070BCF6
:1027EC00704700BFA4130020F0B5334C334EB4F83F
:1027FC000021B4F8023192B29BB29A42D6F8C4527C
:10280C0091B01CD0B4F80221B4F8023192B2013369
:10281C00DBB2A05CA4F80231FFF7CEFEB4F80021C5
:10282C00B4F8023192B29BB29A42EBD12DB1D5F8E9
:10283C00143213B9224D2B7823B111B0F0BDFFF730
:10284C0011FFF3E71F49B1F80038B1F802289BB229
:10285C0090B2834223D31B1A9AB2002AEDD0402A9D
:10286C0028BF40226C460DEB0207B1F80208B1F804
:10287C00023880B2085C013304F8010BC3F30A037D
:10288C00BC42A1F80238F0D10121D6F8C43229702B
:10289C0013B1D3F814323BB100232B70CDE703F501
:1028AC000062121A92B2D8E76946044805F050F853
:1028BC00024805F05BF8EFE7A0120020A8270020E3
:1028CC00A81B0020A4130020122301480B80704782
:1028DC00AC000020042301480B807047C00000208E
:1028EC000023F0B41F4652004E1CB0F1204F4FEAAB
:1028FC00107404F130052ABF3734CD54CC54F7543E
:10290C0002339A424FEA0010EFD1F0BC704700BF7F
:10291C001A220B480B4B00681B680A80C01801D1A7
:10292C000948704710B5094B08221C680849FFF785
:10293C00D7FF204604220749FFF7D2FF024810BDFB
:10294C00E8F7FF1FF0F7FF1FC4000020ECF7FF1F94
:10295C00C6000020D600002010B5044C0A460448DE
:10296C00214604F0F9FD204610BD00BF842500204F
:10297C00D492000810B5044C0A460448214604F0D1
:10298C00EBFD204610BD00BF84250020E09200081E
:10299C0010B5044C0A460448214604F0DDFD2046DF
:1029AC0010BD00BF84250020F09200080A4608B52F
:1029BC0028B90C4B93F8AC323BB1012B0BD00A4924
:1029CC000A4804F0C9FD084808BD0749084804F046
:1029DC00C3FD054808BD0449064804F0BDFD024886
:1029EC0008BD00BFA82700208425002014930008F0
:1029FC00FC9200080893000838B50B4B04461B7872
:102A0C00D0F8B85263B9094BDB6803B19847084A50
:102A1C0005F50973D268C4F8B8320AB1204690475C
:102A2C000020C4F8B85238BDA91B00203C0300207C
:102A3C0080020020F8B50D4B04461D78D0F8B86222
:102A4C007DB90B4B0B4FC0F8BC323B6998470A4A17
:102A5C0006F509731269C4E9AE3512B120463B691B
:102A6C0098470020C4F8B862F8BD00BFA91B00202D
:102A7C00140000203C030020800200208A1E012A42
:102A8C0038B50446D0F8B85213D9012903D0002028
:102A9C00C4F8B85238BD0A4B1B78002BF7D1094A41
:102AAC0005F509735269C0F8B8329047C4F8B852AA
:102ABC0038BD054B5B699847C4F8B85238BD00BFA8
:102ACC00A91B0020800200203C030020012938B5FE
:102ADC000446D0F8B85203D00020C4F8B85238BD20
:102AEC00024B9B699847C4F8B85238BD3C03002090
:102AFC0038B50A4B04461B78D0F8B85253B9084A7B
:102B0C0005F50973D269C0F8B8321AB19047C4F808
:102B1C00B85238BD0020C4F8B85238BDA91B0020EB
:102B2C008002002003466C2201481A80704700BFC7
:102B3C004000002003460A2200201A80704700BF84
:102B4C0038B50B7904465A1E012AD0F8B8520FD961
:102B5C00CBB9104A12783AB90F4A05F50973C0F887
:102B6C00B8329268904703461846C4F8B85238BD3C
:102B7C000A4A0B4BC0F8BC229B6898470346C4F822
:102B8C00B852184638BD04F0DBFC0223C4F8B85226
:102B9C00184638BDA91B002080020020140000201C
:102BAC003C030020F8B5D0F8B862AEB10B4B1F78DF
:102BBC0097B904460D460A4B5B689847094B06F5D6
:102BCC00097229465B68C4F8B822204698473046FB
:102BDC0005F040F8C4F8B8720020F8BDA91B00201D
:102BEC003C03002080020020F8B504464FF40E7020
:102BFC000E4605F02BF8054618B3144B1B78E3B9B9
:102C0C00134900F5097280F835320F68C4E9AE2318
:102C1C003146C4F8C8222046B84701220D480E4B55
:102C2C00C4F8BC02C4F8B852C4F8C45231462046A9
:102C3C001B6885F83422984710B90020C4F8B852A4
:102C4C00F8BDC4F8B8020220F8BD00BFA91B0020D3
:102C5C0080020020140000203C03002003466C225C
:102C6C0001481A80704700BF400000201223014821
:102C7C000B80704708020020042301480B8070472A
:102C8C001C0200200023F0B41F4652004E1CB0F171
:102C9C00204F4FEA107404F130052ABF3734CD545D
:102CAC00CC54F75402339A424FEA0010EFD1F0BCE7
:102CBC00704700BF1A220B480B4B00681B680A8038
:102CCC00C01801D10948704710B5094B08221C687F
:102CDC000849FFF7D7FF204604220749FFF7D2FF28
:102CEC00024810BDE8F7FF1FF0F7FF1F200200207D
:102CFC00ECF7FF1F2202002032020020034629229B
:102D0C0001481A80704700BFDC0100200023D0F876
:102D1C00C8221846137370470020704703460A22D6
:102D2C0001481A80704700BFC401002010B5044C44
:102D3C000A460448214604F00FFC204610BD00BF93
:102D4C00AC1B00202493000810B5044C0A46044820
:102D5C00214604F001FC204610BD00BFAC1B002036
:102D6C002C930008002310B50C7882B014F060048A
:102D7C00D0F8C822ADF8063016D0202C0ED14B78E6
:102D8C00023B092B0AD8DFE803F03339090909099A
:102D9C0009093F2F90F89C32032B5AD004F0D0FB3A
:102DAC000224204602B010BD4B780B2BF6D80FF244
:102DBC00080C5CF823F000BF492E0008A92D000870
:102DCC00A92D0008A92D0008A92D0008A92D00087F
:102DDC001F2E0008A92D0008A92D0008A92D0008F8
:102DEC00A12D00083B2E00088B7800241360D8E737
:102DFC00111D012204F0D6FB0024D2E7114601225A
:102E0C0004F0D0FB0024CCE74B8800241B0A536051
:102E1C00C7E74B881B0A222B1FD0212BBED1CA8897
:102E2C001149092A28BF092204F0BCFBB9E790F824
:102E3C009C32032BB2D18B789360B2E790F89C2232
:102E4C00032AABD102220DF106011C4604F0AAFBA9
:102E5C00A7E702F108010122E6E7CA880349562ACE
:102E6C0028BF5622E0E700BFD0010020340100202B
:102E7C0070B5044600250E46812104F07BFE054BFF
:102E8C00314620465B68E56298472846C4F8B8523C
:102E9C0070BD00BF8C01002038B504464FF40E7095
:102EAC0004F0D4FEA8B1002500F50970C4F8B802EE
:102EBC00C4F8C8024023032281212046C4F8BC5226
:102ECC0004F048FE0122D4F8C832A2611D732846D2
:102EDC0038BDC4F8B802022038BD00BF10B5044C90
:102EEC000A460448214604F037FB204610BD00BFBB
:102EFC00AC1B00203493000810B5044C0A4604485F
:102F0C00214604F029FB204610BD00BFAC1B00205D
:102F1C00449300080346292201481A80704700BFD9
:102F2C00DC0100200346292201481A80704700BFAB
:102F3C00DC01002038B590F89C32032B01D0002026
:102F4C0038BDD0F8C842237B002BF8D1012513469D
:102F5C0025730A46812104F059FE002038BD00BFBC
:102F6C00FFF70EFB0B480C490C4A002302E0D45827
:102F7C00C4500433C4188C42F9D3094A094C0023B9
:102F8C0001E013600432A242FBD304F06DFEFDF7A6
:102F9C0089FC704700000020B0040020AC930008AE
:102FAC00B00400205C2D0020FEE7000038B54FF483
:102FBC007A730D4A054611780C4AB3FBF1F312688B
:102FCC00B2FBF3F000F004FB08B90F2D01D901207E
:102FDC0038BD0446024629464FF0FF3000F0B2FAE5
:102FEC00034B20461D6038BD3A020020080000202B
:102FFC003C020020074A08B51368032043F0100375
:10300C00136000F08DFA0F20FFF7D0FFFFF772F975
:10301C00002008BD00200240034A044B11681B78B5
:10302C000B441360704700BF842700203A02002035
:10303C00014B1868704700BF8427002038B5044640
:10304C00FFF7F6FF631C054602D0044B1B781C44AB
:10305C00FFF7EEFF401BA042FAD338BD3A02002026
:10306C00436A9A6A12F0500F0FD19A6A196842F4A7
:10307C00007210B59A628A6802F46022B2F5602F71
:10308C0006D01846FDF7A6FD10BD1B6A1B6B184732
:10309C001A7B002AF5D19A6A22F480729A629A6A93
:1030AC00D204EED49A6A42F001029A62E9E700BFB8
:1030BC0008B5406AFDF768FD08BD00BF704700BF4A
:1030CC00406A08B5836A43F040038362C36A43F0E5
:1030DC000403C362FFF7F2FF08BD00BF02460020E5
:1030EC0070B492F8243083B0012B01905BD0012393
:1030FC0082F824304B681F26062B14682DD90C2B14
:10310C0003EB830344D8256B0868233B9E4025EAD8
:10311C00060500FA03F32B43236309282BD9072652
:10312C0000EB40038D681E3BE1689E409D4021EA08
:10313C000603A0F110012B430129E36026D82A4B8A
:10314C009C4234D00120936A43F020039362002305
:10315C0082F8243003B070BC704703EB830308681B
:10316C00656B053B9E4025EA060500FA03F32B43ED
:10317C0009286363D3D8072500EB400089682369CD
:10318C008540814023EA0500084320610020DEE7EA
:10319C00E56A0868413B9E4025EA060500FA03F300
:1031AC002B43E362B9E7022003B070BC7047A368FD
:1031BC001B02EBD4A368102843F40003A360E5D1F1
:1031CC000A4B0B491B68A1FB03139B0C03EB8303FA
:1031DC005B000193019B002BD8D0019B013B019319
:1031EC00019B002BF9D1D1E70024014008000020FD
:1031FC0083DE1B43002330B5026883B001939368D0
:10320C00D90727D41B4B04461B681B489168A0FBAD
:10321C00030341F001019B0C91600193019B2BB1C5
:10322C00019B013B0193019B002BF9D1FFF700FFA0
:10323C00236805469B68DA070CD4FFF7F9FE431B9D
:10324C00022B236803D99A6812F0010205D09B68FF
:10325C00DB07F2D5002003B030BD0120A36A84F84F
:10326C00242043F01003A362E36A0343E36203B038
:10327C0030BD00BF0800002083DE1B43F8B50446B8
:10328C00404D00680F46A84216465CD03E4B984213
:10329C0059D094F82430012B62D00123204684F8B5
:1032AC002430FFF7A7FF0546002854D1A06A2168F7
:1032BC00354B20F4706020F0010040F4807099428E
:1032CC00A06250D0A36A23F48013A3624B685A0502
:1032DC0005D5A36A23F4405343F48053A362A36A35
:1032EC006FF0020213F4805318BFE36A206A18BF10
:1032FC0023F00603E3620023DFF894C084F8243043
:10330C00224B4C31C0E90AC3DFF888C03346C0F801
:10331C0030C041F84C2C51F8446C3A4646F4807657
:10332C0041F8446C00F0A4F9236828469A6802F42A
:10333C006022B2F5602F9A680CBF42F4A00242F4EE
:10334C0080129A60F8BD0F4B5B6813F4702FA0D0FD
:10335C0001252846F8BD002384F824302846F8BD02
:10336C0002252846F8BDA3F580635A6812F4702F25
:10337C00A8D0A26A42F48012A2625B685B05AED54B
:10338C00A7E700BF0024014000280140BD30000821
:10339C006D300008CD30000838B503689A68D40742
:1033AC0001D4002038BD9A68044622F001029A60CC
:1033BC00FFF73EFE054623689B68D907F1D5FFF75A
:1033CC0037FE431B022B2368F6D99A68D207F3D534
:1033DC000120A36A43F01003A362E36A0343E36290
:1033EC0038BD00BF002869D0F8B5836A0446002BAD
:1033FC004CD02046FFF7D0FFA36A13F010033FD147
:10340C0000283DD1A26AE569616822F488522943FB
:10341C00A568267B22F0020242F00202B5F5807FFD
:10342C00A26241EA4601227D36D0012D0CBF4FF439
:10343C00807C4FF0000C012A4CD02268364E576825
:10344C0027F4694747EA0C07576097683E400E43DC
:10345C009660012D2ED0D56A304E25F470052B4385
:10346C00D36293681E40B1422AD00120A36A23F094
:10347C00120343F01003A362E36A0343E362F8BD53
:10348C00A36A012043F01003A362F8BDC36280F865
:10349C002430FEF751FFACE7012A1AD022681E4BEC
:1034AC00556825F4694545F48075556095682B4041
:1034BC000B4393602369013B1B05CCE7012070474C
:1034CC000023E362A36A23F0030343F00103A36226
:1034DC00F8BDAC46CEB1A26A42F02002A262E26A0A
:1034EC0042F00102E26222680B4E5768B5F5807F0C
:1034FC0027F4694747EA0C075760976806EA0706FE
:10350C0046EA01069660A4D1D4E7A269571E4CEA9C
:10351C00473747F4006CE6E7FDF7E1FFFE0E1FFFAF
:10352C004FF6FF01064A0302D06803F4E06308403B
:10353C00034343F0BF6343F40033D360704700BFD1
:10354C0000ED00E0194B30B4DB68C3F30223C3F188
:10355C000705042D03F1040428BF0425062C19D9F2
:10356C004FF0FF34033B9C4022EA04024FF0FF343F
:10357C00AC4021EA04019940002841EA02010CDB2D
:10358C00090100F16040C9B200F5614080F80013F8
:10359C0030BC704700221346E8E7054B00F00F00E3
:1035AC000901C9B20344197630BC704700ED00E044
:1035BC00FCEC00E0002807DB012300F01F01034AAC
:1035CC008B40400942F82030704700BF00E100E01A
:1035DC000138B0F1807F0DD230B4F02500220721E4
:1035EC00054B064C586084F82350104630BC9A604A
:1035FC00196070470120704710E000E000ED00E01A
:10360C0068B303460221F0B4D0E901260024012559
:10361C003243DE68006832431E6983F82110114979
:10362C003243114E01445F69A6FB01619E693A4326
:10363C0032430668DF690909890026F47F563A434C
:10364C0026F03006196409493243D96302609C6341
:10365C0083F8204083F821502046F0BC70470120AD
:10366C00704700BFF8FFFDBFCDCCCCCC00000240B2
:10367C00F0B4044690F82000012839D0012594F8C4
:10368C00210084F82050A842C6B205D0002384F84B
:10369C0020300220F0BC704702270020256884F8F7
:1036AC002170A063276C2868BE4020F00100E76BF6
:1036BC00286060687E606B60E36A10280BBFAA60AC
:1036CC00A960E960EA6053B12B6843F00E032B60EC
:1036DC002B68002043F001032B60F0BC70472B6873
:1036EC0023F004032B602B6843F00A032B60EFE7F5
:1036FC000220F0BC704700BF90F821200346022A3C
:10370C0006D004210022816380F82020012070471C
:10371C0070B4012600251A682846116821F00E01A4
:10372C0011601468196C24F001041460DA6B06FA49
:10373C0001F1516083F8216083F8205070BC704710
:10374C0038B590F821200346022A03D00422012028
:10375C009A6338BD02681D481168824221F00E013F
:10376C001160116821F00101116022D018498A42C0
:10377C001DD014318A4220D014318A4220D0143109
:10378C008A4220D014318A420CBF4FF480124FF081
:10379C008072012000240F4D596B6A6083F8210060
:1037AC0083F8204039B118468847204638BD10228E
:1037BC00EFE70122EDE7084638BD4FF48072E8E7E9
:1037CC004FF48052E5E74FF48032E2E70800024004
:1037DC001C00024000000240042270B4D0E90F61CA
:1037EC00346803688A4022421D681FD06A071DD5C1
:1037FC001A68910603D41A6822F004021A603F4A30
:10380C0093425CD01432934261D01432934268D00C
:10381C00143293426BD0143293425DD014329342E3
:10382C000CBF4FF480034FF0806349E002228A40C2
:10383C00224222D0AA0720D51A68910606D401216B
:10384C001A6822F00A021A6080F821102B4A93425F
:10385C002BD01432934242D01432934244D01432BF
:10386C00934236D01432934244D0143293420CBF5C
:10387C004FF400134FF0007318E008228A402242E4
:10388C001BD02A0719D5012200251C6802FA01F168
:10389C0024F00E041C60036B7160826380F820506E
:1038AC0080F821204BB170BC184702230021144C26
:1038BC00826A636080F820103AB970BC70470423A8
:1038CC000F49C26A4B60002AF7D070BC10474023E6
:1038DC00F6E74FF40053E9E74FF48023F0E7202399
:1038EC00E4E74FF48063EBE74FF40073DEE74FF44B
:1038FC008043E5E74FF40033D8E700BF08000240EF
:10390C0000000240124BDB6813F0100305D01023AB
:10391C001049CA6942F00202CA610D4AD2685007C6
:10392C0006D50C4943F00403CA6942F00102CA618E
:10393C00074AD169C90708D50648C16941F0040195
:10394C00C161D16921F00101D161014AD360704795
:10395C000020024088270020064B186910F08000D8
:10396C0006D00549054A59605A601869C0F3C01061
:10397C00704700BF0020024023016745AB89EFCDA3
:10398C00034A0020136943F080031361704700BFA2
:10399C000020024070B50446FFF74AFB124D064664
:1039AC0001E0621C17D1EB68DB07FAD4EB689806D0
:1039BC0044BF2023EB600C4BDA68D10607D4DA69DC
:1039CC00D20704D4D86810F0040000D170BDFFF702
:1039DC0099FF012070BD24B1FFF72AFB801BA04288
:1039EC00E1D9032070BD00BF002002402DE9F84F43
:1039FC00244F3C7E012C42D01D46012306464CF23E
:103A0C0050308B4690463B76FFF7C4FF98BB012E97
:103A1C0003D0022E0CBF022604264FF0000ADFF85A
:103A2C0068900BEB46060023CAF12002FB6105FAF5
:103A3C0002F228FA0AF0AAF12001104325FA01F14A
:103A4C00D9F81020084342F0010284B2C9F81020C2
:103A5C004CF25030ABF80040FFF79CFFD9F8102027
:103A6C000BF1020B22F001020AF1100AC9F8102026
:103A7C0008B9B345D7D100233B76BDE8F88F0220B7
:103A8C00BDE8F88F88270020002002402DE9F8437C
:103A9C002D4E337E012B54D001233376036881469F
:103AAC00022B31D04CF250308846FFF773FF80BBAD
:103ABC004FF0FF33C8F80030D9E9025305EB8323EC
:103ACC009D4226D20746214C07E005F58065D9E9D1
:103ADC00023203EB8223AB421CD9F76123694CF20F
:103AEC00503043F0020323616561236943F04003C6
:103AFC002361FFF74FFF236923F0020323610028A2
:103B0C00E3D0C8F8005005E04CF25030FFF742FF0C
:103B1C0020B1012000233376BDE8F8830B4CF06113
:103B2C0023694CF2503043F004032361236943F0C2
:103B3C0040032361FFF72EFF236923F00403236165
:103B4C00E8E70220BDE8F883882700200020024027
:103B5C002DE9F04F0C6885B0002C00F0A1800026F8
:103B6C00DFF8FCC13346794FDFF8F881DFF8F8E174
:103B7C00009004E0013334FA03F200F0918001224A
:103B8C009A4032EA040002EA0405F3D14C68122C84
:103B9C0000F28980122C0CD8DFE804F08EC3C00A26
:103BAC000B0B0B0B0B0B0B0B0B0B0B0B0BBDBA0003
:103BBC000026FF2D00F28780DDF800904FEA830A83
:103BCC000F24D9F8002004FA0AFB22EA0B0206FAA9
:103BDC000AFA42EA0A02C9F80020D1F8049019F056
:103BEC00805F00F09380DCF818A023F003024AF009
:103BFC00010ACCF818A0DCF818A002F180420AF0F7
:103C0C00010ACDF80CA002F5803203F0030ADDF8AE
:103C1C000CB04FEA8A0AD2F808B004FA0AF42BEA7C
:103C2C0004000190009C4A48844216D000F5806044
:103C3C00844200F081804748009C844273D04648FF
:103C4C00009C84420CBF4FF0030B4FF0040B019807
:103C5C000BFA0AFA40EA0A000190019819F4801F45
:103C6C009060BA6814BF2A43AA43BA60FA6819F480
:103C7C00001F14BF2A43AA43FA607A6819F4003F64
:103C8C0014BF2A43AA437A6019F4803F3A683AD0A9
:103C9C0015433D600C68013334FA03F27FF46FAFC7
:103CAC0005B0BDE8F08F444506D014D9744503D057
:103CBC002A4884427FF47DAF8C68E4B9FF2D4FF025
:103CCC0004067FF679AF009A4FEA830AAAF1200A1C
:103CDC0002F1040974E7DFF894904C45ECD009F537
:103CEC0070294C45E8D0A9F580194C457FF461AF9B
:103CFC008C68002CE2D00098012C4FF008060CBF09
:103D0C000261426155E722EA05053D600C6831E726
:103D1C00CE680C364DE7CE6804364AE7CE680836D6
:103D2C0047E7CE6845E74FF0020B01980BFA0AFA09
:103D3C0040EA0A00019090E74FF0010B01980BFA52
:103D4C000AFA40EA0A00019087E700BF000401402C
:103D5C000008014000100140001401400000321026
:103D6C000010024000002210000031100000121060
:103D7C008368194214BF01200020704702B909045E
:103D8C0001617047F8B500285DD090F89132044677
:103D9C0003F0FF02002B51D003220023254684F8A8
:103DAC0091226371206801F07BFF55F8040B95E8B4
:103DBC000E0001F063FF28B10223012584F8913233
:103DCC002846F8BD0146206801F074FF0146002822
:103DDC00F2D126790EB3234622464FF0010C117412
:103DEC000131CFB2BE42C2E9080082F811C0D074D2
:103DFC0042F8280FF3D800210A4683F850110131FC
:103E0C00C8B28642C3E9582283F8512183F8532162
:103E1C00C3F8682103F12803EFD895E80E00206859
:103E2C0001F04AFF05460028C6D1012360732068C3
:103E3C0084F8913202F0BAFE2846F8BD80F8902240
:103E4C0003F0CCFDA8E701252846F8BD38B590F85D
:103E5C009032012B11D004460125006884F8905251
:103E6C0001F014FF2946204603F0F6FE206802F00C
:103E7C009BFE002084F8900238BD022038BD00BFA4
:103E8C002DE9F04F044685B0006802F091FE10F465
:103E9C00004527D1460500F1C581410416D48204A2
:103EAC0000F13D82C30400F1D48207057FD4820562
:103EBC0000F17A83C30512D52268B2F8443023F49A
:103ECC0080731B041B0CA2F8443008E02268B2F883
:103EDC00443023F480431B041B0CA2F8443005B07F
:103EEC00BDE8F08F2068B0F844301904F7D5DFF83E
:103EFC00A89ADFF8A8BADFF8A8AA10E011F0100110
:103F0C0000F0EA80018811F400658BB240F00A8160
:103F1C001A0400F1A581B0F844301F04DFD5B0F8C5
:103F2C004450A9B215F00F05E8D030F825304FEA0F
:103F3C00850819049EB200F183803206EBD530F867
:103F4C00253008EB05019BB203EA090343F4004357
:103F5C0004EBC10220F82530D37CC900012B00F002
:103F6C00038116F48077B0F8503040F0E681167C6F
:103F7C009BB2023303EBC60300EB4303B3F80064BC
:103F8C00936AC6F30906B34240F2D5819B1B936238
:103F9C00002B00F00A81556AD36A10313344354442
:103FAC0021445562D36202F03DF92068B3E72168E1
:103FBC00ADF102030D460E461A460DF10E0036F811
:103FCC00047B22F8027F9042F9D1B1F8402092B2E2
:103FDC0042F00102A1F84020B1F8402022F0010289
:103FEC001204120CA1F84020B1F844205605FBD560
:103FFC00B1F8442022F480621204120CA1F844207F
:10400C0033F8022F984225F8042BF9D1B1F840303F
:10401C0020469BB243F00803A1F84030B1F844307D
:10402C0023F400631B041B0CA1F84430B1F840309E
:10403C009BB243F00403A1F8403003F01FFD4EE7A0
:10404C0040F68F7330F8252008EB0501134043F040
:10405C00800320F8253004EBC10191F85C31002B72
:10406C0040F0AC80B0F8503091F850219BB2063340
:10407C0003EBC20300EB4303B3F80034C3F30903AF
:10408C0013BB1F4608EB050104EBC103D3F86C010D
:10409C00D3F864213844C3F86C01D3F868013A446E
:1040AC00C900C3F8642120B1D3F86031BB4240F29F
:1040BC00B48108EB050304EBC303204693F85011BD
:1040CC0003F0B2FC206838E7B1F85621D1F864113E
:1040DC001F4602F08DFDD5E703889BB203EA090366
:1040EC0043F400430380B0F85030227C9BB203EBC6
:1040FC00C20300EB4300B0F80434626AC3F3090353
:10410C001A44E3622046626203F098FC637B4BB373
:10411C00A36A3BBB627B206842F08002A0F84C2073
:10412C006373F8E6B0F8503094F850219BB203EB6F
:10413C00C20300EB4303B3F80C34B4F85621C3F3B9
:10414C000903C4F86C3104F5267102F051FD40F6F8
:10415C008F732268204611880B4043F08003138034
:10416C0003F05CFC2068D6E600216B1C03EB830398
:10417C0044F83310137FC3B116F04006537C40F063
:10418C00C581002B40F0F182B0F85010137C00F286
:10419C000C408AB21B0110441A5AC2F309021A527B
:1041AC001A5A92B242F400421A52454404EBC50525
:1041BC002046297C03F042FC2068ACE691F8533190
:1041CC00022B00F0AD8191F8502130F8223023F40D
:1041DC00E04323F070031B041B0C43F4004343F037
:1041EC00C00320F8223091F8502130F8223013F41B
:1041FC00804FB0F850309BB200F01781023303EBC4
:10420C00C20300EB4303B3F80034C3F30903002BE0
:10421C003FF437AFB1F85821D1F864111F4602F0C2
:10422C00E7FC2FE722682046B2F8443023F4806381
:10423C001B041B0CA2F8443003F00EFC94F89032D3
:10424C00012B3FF44CAE012329462068657384F89A
:10425C00903202F0A3FC84F8905205B0BDE8F08FC8
:10426C0040F68F730288134043F080030380B0F84C
:10427C00503094F850219BB203EBC20300EB430384
:10428C00B3F80C34C3F30903C4F86C3193B1D4F80C
:10429C00641179B1B4F8562102F0AAFCD4F8643157
:1042AC00D4F86C21204613442946C4F8643103F039
:1042BC00BBFB206803889AB21B053FF52CAE02F4B9
:1042CC004052B2F5405F3FF426AEB0F8503000F2E9
:1042DC000C429BB2D15AD4F86051C1F309013E2D66
:1042EC00D15240F26E81D15A6E09EF0608BF06F129
:1042FC00FF3689B241EA862141EA0B0189B2D152DB
:10430C00038823F4804323F070031B041B0C83F4F9
:10431C00405343F4004343F080030380FBE52268E1
:10432C00B2F8443023F400531B041B0CA2F84430A5
:10433C0005B0BDE8F08F976237E716F04007117CA7
:10434C009BB200F0A480023303EBC10300EB4303E8
:10435C00B3F80034976AC3F309039F4240F23A81E1
:10436C00FF1A9762002F00F0378177040DD530F8D3
:10437C00216026F4E04626F070063604360C46F42E
:10438C00404646F0800620F8216008EB050704EB58
:10439C00C70797F83410012940F0A680796A1944B0
:1043AC007962D66A1E44D6623A6B3E6AB242C0F05B
:1043BC00B782921B3A63B3B208EB050204EBC2025C
:1043CC00577C002F40F09F82B0F850C0177C1FFA2A
:1043DC008CFC00F204423F01624432F807C03E2ECE
:1043EC00CCF3090C22F807C040F2AD824FEA561C00
:1043FC00F606D65B08BF0CF1FF3CB6B246EA8C263B
:10440C0046EA0B06B6B2D65308EB050204EBC20221
:10441C00128B02F0D3FB206866E001F5A8712068CE
:10442C00214401F0FFFE206887E5063303EBC2034D
:10443C0000EB4303B3F80034C3F30903002B3FF440
:10444C0020AEB1F85A21D1F864111F4602F0D0FB0E
:10445C0018E622682046B2F8403023F004031B040F
:10446C001B0CA2F84030B2F8403023F008031B04B8
:10447C001B0CA2F8403003F011FB2268B2F8443058
:10448C0023F480531B041B0CA2F8443027E506339D
:10449C0003EBC10300EB4303B3F80034D2F828C09C
:1044AC00C3F309039C45C0F02281ACEB0307976270
:1044BC00002F00F01D8177040DD430F8216026F414
:1044CC00E04626F070063604360C46F4404646F0BC
:1044DC00800620F8216008EB050704EBC70797F866
:1044EC003410012900F0C480454404EBC5052A7C36
:1044FC0030F822309BB203EA0A0383F0300343F412
:10450C00004343F0800320F8223004E5002B40F0F8
:10451C003981B0F85010137C00F204408AB239E6AD
:10452C00B0F8503016F4804C91F850219BB200F04A
:10453C003681023303EBC20300EB4303B3F80034C0
:10454C00D1F868C1C3F309039C451F46C0F097819D
:10455C00ACEB030CC1F868C1BCF1000F00F0938107
:10456C00720613D508EB050204EBC20292F8501147
:10457C0030F8212022F4E04222F070021204120CD6
:10458C0042F4004242F0C00220F82120002B3FF4FC
:10459C0078AD08EB050104EBC101B1F85821D1F855
:1045AC00641102F025FB6DE522682046B2F8443018
:1045BC0023F400731B041B0CA2F8443003F048FADC
:1045CC008DE4002D40F02481D15A89B241F4004190
:1045DC00D15295E60023936208EB050304EBC30369
:1045EC005B7C002B40F01F81B0F8503000F204428D
:1045FC009BB209011A44535AC3F309035352535A39
:10460C009BB243F40043535208EB050304EBC30382
:10461C005A7C002A40F06981B0F85020197C92B283
:10462C0000F20C4309011344CA5AC2F30902CA52DC
:10463C00CA5A92B242F40042CA5208EB050704EB84
:10464C00C7072046397C03F0F9F973044DD53A7C41
:10465C00206830F8223023F4E04323F070031B046D
:10466C001B0C43F4404343F0800320F822303BE71B
:10467C00796A19447962D66A1E44D6623A6B3E6AEC
:10468C00B242C0F02C81921B3A63B3B208EB050224
:10469C0004EBC202577C002F40F01481B0F850C0DC
:1046AC00177C1FFA8CFC00F20C423F01624432F87A
:1046BC0007C03E2ECCF3090C22F807C040F235811E
:1046CC004FEA561CF606D65B08BF0CF1FF3CB6B29F
:1046DC0046EA8C2646EA0B06B6B2D65308EB050220
:1046EC0004EBC202528B02F069FA2068FCE6976276
:1046FC0008EB050304EBC3035B7C002B40F0A080AC
:10470C00B0F8503000F204429BB209011A44535ADB
:10471C00C3F309035352535A9BB243F4004353520D
:10472C0008EB050304EBC3035A7C002A40F0BC8061
:10473C00B0F85020197C92B200F20C4309011344DA
:10474C00CA5AC2F30902CA52CA5A92B242F400427D
:10475C00CA5208EB050704EBC7072046397C03F067
:10476C006DF973047FF573AFBFE7012B7FF41DADBB
:10477C00B0F85030127C99B200F20C4312010B4489
:10478C00D65212E5012B7FF410ADB0F85030127CEC
:10479C009EB200F2044312013344D15205E50633B4
:1047AC0003EBC20300EB4303B3F80034D1F868E128
:1047BC00C3F309039E451F464ED3AEEB030EC1F85F
:1047CC0068E1BEF1000F49D0710613D408EB050265
:1047DC0004EBC20292F8501130F8212022F4E0428E
:1047EC0022F070021204120C42F4004242F0C00299
:1047FC0020F82120002B3FF444AC08EB050104EB1E
:10480C00C101B1F85A21D1F8641102F0F1F939E47F
:10481C00D15A6E08ED0748BF013689B241EA8621AC
:10482C0089B2D1526CE5012B7FF407AF0027B0F8A9
:10483C00502000F2044392B2090113445F52E3E6A4
:10484C00012B86D10027B0F8502000F2044392B21D
:10485C00090113445F5263E7C1F868C130F82210B4
:10486C0021F4804121F070010904090C81F40051FC
:10487C0041F4004141F0800120F82210A4E74FF0F0
:10488C00000CC1F868C130F8221021F4804121F0ED
:10489C0070010904090C81F4005141F4004141F00C
:1048AC00800120F822105BE6012A7FF452AF002130
:1048BC00B0F850701A7CBFB200F20C4312013B44AA
:1048CC00D15246E7012F7FF409AFB0F85070167C37
:1048DC00BFB200F20C4236013A44B352FEE6002A53
:1048EC0038D11E4687F83420D0E6012A7FF4A5AED5
:1048FC000021B0F850201B7C97B200F20C421B0137
:10490C003A44D15299E6012F7FF47EADB0F8507045
:10491C00167CBFB200F2044236013A44935373E55D
:10492C0052B91E4687F8342046E5D6B9D65BB6B2E6
:10493C0046F40046D653D1E60023164687F83430A9
:10494C003B6393B238E5CEB9D65BB6B246F40046BB
:10495C00D65359E5002316463B6387F8343093B29F
:10496C0094E64FEA560CF607D65B48BF0CF1010CE7
:10497C00B6B246EA8C26B6B2D653AFE64FEA560C20
:10498C00F607D65B48BF0CF1010CB6B246EA8C2692
:10499C00B6B2D65338E500BF0F8FFFFF0080FFFF84
:1049AC00BF8FFFFF90F89022012A0CD0012210B586
:1049BC000446417380F89022006802F0EFF8002062
:1049CC0084F8900210BD0220704700BF70B50546F8
:1049DC00080621D4002601F0070404EB8400C00073
:1049EC0000F5A8712844294480F85161022BCB7042
:1049FC0008BF00230C7008BF0B710A6195F8903248
:104A0C00012B15D00123286885F8903201F068F944
:104A1C00002085F8900270BD012601F0070404EB1C
:104A2C008400C00000F11001284429444674DDE7DD
:104A3C00022070BD0B0610B504461AD4002001F0FC
:104A4C00070303EB8302D20002F5A8712144224430
:104A5C0082F851010B7094F89032012B19D001237C
:104A6C00206884F8903201F0E7FA002084F8900274
:104A7C0010BD012001F0070303EB8302D20002F109
:104A8C0010012144224450740B7094F89032012B85
:104A9C00E5D1022010BD00BF70B5002601F007055E
:104AAC0005EB850100EBC104C4E95923006884F8C7
:104ABC00505104F5A871C4F86C6184F8516101F08F
:104ACC00B1FB304670BD00BF01F0070101EB810165
:104ADC0000EBC101D1F86C01704700BFF8B501F0D3
:104AEC00070505EB850100EBC104012700262146D3
:104AFC000068C4E9092323632574103184F83470E9
:104B0C006774E66201F08EFB3046F8BD38B5037968
:104B1C0001F00705AB422FD30B0604461AD4002034
:104B2C0001EB8101C900631883F85101012301F5E0
:104B3C00A872A1180D708B7094F890229A4219D01B
:104B4C00206884F8903201F0A9FFBDB1002084F8F0
:104B5C00900238BD012205EB8503DB0003F1100147
:104B6C0003445A74012301440D708B7094F8902205
:104B7C009A42E5D1022038BD012038BD206804F5E9
:104B8C00267102F019F8E1E738B5027901F00F034C
:104B9C009A4233D30B0604461CD40020002501F0A6
:104BAC00070303EB8302D20002F5A87121442244CF
:104BBC0082F851010B708D7094F89032012B1BD040
:104BCC000123206884F8903201F090FF84F8905211
:104BDC00284638BD0120002501F0070303EB8302B2
:104BEC00D20002F110012144224450740B708D70DC
:104BFC0094F89032012BE3D1022038BD012038BD4E
:104C0C0011F0800F0BD001F0070101EB810100EBDB
:104C1C00C10010305AB90273C3800020704701EBF9
:104C2C00810100EBC10000F5A870002AF3D001222D
:104C3C008360027300207047002800F0C3812DE9C7
:104C4C00F04103680446DD0782B035D5A6494A68B1
:104C5C0002F00C02042A00F0EF804A6802F00C0209
:104C6C00082A00F0E5806368B3F5803F10D0002B74
:104C7C0000F00D81B3F5A02F00F08F819A4B1A68CC
:104C8C0022F480321A601A6822F480221A6004E03E
:104C9C00954A136843F480331360FEF7C9F9924EBA
:104CAC00054605E0FEF7C4F9401B642800F2EB80D2
:104CBC0033689A03F6D523689F0728D58A4A51682A
:104CCC0011F00C0F00F08E80516801F00C010829D6
:104CDC0000F084802369002B00F025810122834B96
:104CEC00814E1A60FEF7A4F9054605E0FEF7A0F91F
:104CFC00401B022800F2C78033689807F6D533684A
:104D0C00626923F0F80343EAC203336023681A078D
:104D1C001FD45D0741D5744BDA69D0007DD50025D1
:104D2C00734B1A68D10540F19D80E368012B00F0AC
:104D3C000B81002B00F0C580052B6B4B1A6A00F021
:104D4C00398122F001021A621A6A22F004021A62F4
:104D5C00FFE0A369002B50D00122664B624E1A6013
:104D6C00FEF766F9054605E0FEF762F9401B0228DE
:104D7C0000F28980736A9B07F6D55F4B5F4A1B680C
:104D8C00A2FB03235B0A019300BF019B5A1E0192F5
:104D9C00002BF9D123685D07BDD4E069D0B1524D29
:104DAC006A6802F00C02082A00F0E68002284FF034
:104DBC000001534A00F008811160FEF739F92C46C6
:104DCC00054604E0FEF734F9401B02285BD8236843
:104DDC009B01F7D4002002B0BDE8F0815268D603E5
:104DEC003FF578AF404A126895072FD52269012A02
:104DFC002CD0012002B0BDE8F0813E4A3A4E13603F
:104E0C00FEF716F9054604E0FEF712F9401B0228DE
:104E1C0039D8736A9F07F7D4BCE7DA69012542F0E9
:104E2C008052DA61DB6903F080530093009B77E7D3
:104E3C004A68D0037FF517AF2B4A126891037FF5B0
:104E4C003BAF6268002A7FF437AFD2E7264960692E
:104E5C000A6822F0F80242EAC0020A601A077FF5DB
:104E6C0058AF76E71A681F4642F480721A60FEF754
:104E7C00DFF806463B68DA053FF557AFFEF7D8F882
:104E8C00801B6428F6D9032002B0BDE8F08103F141
:104E9C00804303F504331A681E4622F480321A60EC
:104EAC001A6822F480221A60FEF7C2F8054604E064
:104EBC00FEF7BEF8401B6428E5D833689B03F7D493
:104ECC00F9E603F1804303F504331A6A1F4622F016
:104EDC0001021A621A6A41F2883822F004021A623C
:104EEC00FEF7A6F8064612E000100240000042420F
:104EFC00007000408004424208000020D34D621034
:104F0C0060004242FEF794F8801B4045BBD83B6AD8
:104F1C009807F7D4002D3FF440AF444AD36923F0EF
:104F2C008053D36139E7424A404E1360FEF780F854
:104F3C00054604E0FEF77CF8401B0228A3D8336832
:104F4C009907F7D42368E2E6384A136A43F0010361
:104F5C001362FEF76DF841F288380646334F04E0D1
:104F6C00FEF766F8801B40458DD83B6A9B07F7D54A
:104F7C00002D3FF412AFD0E701283FF42CAF6B6843
:104F8C00226A03F4803191427FF433AF606A03F4F8
:104F9C007013181A18BF01201DE703F18043A3F505
:104FAC003C331A6842F480221A601A6842F4803248
:104FBC001A6072E642F004021A621A6A42F00102A6
:104FCC001A62C6E7012070471160FEF731F80646F9
:104FDC0005E0FEF72DF8801B02283FF654AF2B6836
:104FEC009901F6D4236AB3F5803F05D16A68A168AC
:104FFC0022F400320A436A6001200C4D616A6A682F
:10500C000B4322F474120B4913436B600860FEF7D8
:10501C000FF82C46054605E0FEF70AF8401B02285F
:10502C003FF631AF23689A01F6D5D3E60010024063
:10503C00000042426000424210494A6802F00C03F0
:10504C00042B14D0082B10D10D48C2F38343D20388
:10505C00C35C0ED50B484A6800FB03F00A49C2F347
:10506C004043CB5CB0FBF3F07047084870470548F1
:10507C007047074800FB03F0704700BF0010024068
:10508C00589300080024F4006893000800127A007A
:10509C0000093D00002800F08C80494A2DE9F041C0
:1050AC001368044603F007038B420D460CD21368B9
:1050BC0023F007030B431360136803F007038B42C1
:1050CC0002D00120BDE8F0812368980714D5590758
:1050DC0004D53C494A6842F4E0624A601A0704D598
:1050EC0038494A6842F460524A603649A0684A68B6
:1050FC0022F0F00202434A60DF0720D56268314B90
:10510C00012A1B6857D0022A50D09907D9D52D4EA9
:10511C0041F28838736823F0030313437360FDF77F
:10512C0087FF074604E0FDF783FFC01B404545D8C9
:10513C007368626803F00C03B3EB820FF3D1204A5F
:10514C00136803F00703AB4209D9136823F0070374
:10515C002B431360136803F00703AB42B1D12368F0
:10516C005A0706D51749E0684A6822F4E062024300
:10517C004A601B0707D5134A2169536823F460530F
:10518C0043EAC1035360FFF757FF0E4B0E4A5B68AF
:10519C000E49C3F30313D35C0D4A20FA03F30868DA
:1051AC001360FDF703FF0020BDE8F0819801AED439
:1051BC0087E7012070479E03A9D482E7032081E78B
:1051CC000020024000100240BC9200083C0200206B
:1051DC0008000020044B05495B68054AC3F3022311
:1051EC00CB5C1068D840704700100240CC9200088D
:1051FC0008000020044B05495B68054AC3F3C22331
:10520C00CB5C1068D840704700100240CC9200086C
:10521C00080000202DE9F0410446006882B0C30765
:10522C002AD5394BDA69D7003DD5384B00251A6899
:10523C00D60546D5344E336A13F440730FD06168EB
:10524C0001F440729A420BD001270020336A304A95
:10525C0023F44071176010603162D90745D461683E
:10526C00294A136A23F440730B4313621DB1D369AB
:10527C0023F08053D3612068830706D52249A368A5
:10528C004A6822F440421A434A6010F0100007D0DA
:10529C0000201D4AE168536823F480030B435360DC
:1052AC0002B0BDE8F081DA69012542F08052DA6182
:1052BC00DB6903F080530193019B144B1A68D605EC
:1052CC00B8D41A681F4642F480721A60FDF7B0FE1B
:1052DC0006463B68D805ADD4FDF7AAFE831B642BAC
:1052EC00F7D9032002B0BDE8F081FDF7A1FE41F231
:1052FC008838074604E0FDF79BFEC01B4045F0D8FC
:10530C00336A9A07F7D5AAE70010024000700040F4
:10531C004004424290F83D30012B1FD10222036819
:10532C0080F83D20DA680F4942F001028B42DA60C6
:10533C0009D0B3F1804F06D00B4A934203D002F54B
:10534C008062934204D19A6802F00702062A07D0C1
:10535C001A68002042F001021A6070470120704761
:10536C0000207047002C01400004004090F83C30B5
:10537C00012B75D0024602230120F0B4146882F888
:10538C003C0082F83D30A5680B6825F47F4525F07C
:10539C007705602BA56065D024D8402B7CD04BD9E9
:1053AC00502B17D1256A4868CF6825F00A010143B4
:1053BC000020266A26F001062662A36923F0F0037A
:1053CC0043EA0713A3612162A36823F0700343F03F
:1053DC005703A3600121002382F83D1082F83C3072
:1053EC00F0BC7047B3F5805F38D0B3F5005F10D1D7
:1053FC00D1E90153C868A1682B4343EA002321F487
:10540C007F410B43A360A368002043F48043A36057
:10541C00E0E7702BDED1D1E90153C868A1682B43BA
:10542C0043EA002321F47F410B43A360A3680020CF
:10543C0043F07703A360CDE7202B02D00AD9302BA1
:10544C00C8D1A168002021F070010B4343F0070381
:10545C00A360BFE733F01001BCD1F2E70020B9E73D
:10546C0002207047236A206A4E6820F01000CD6835
:10547C002062A16923F0A00321F4704143EA0613D2
:10548C0041EA0531A1612362A368002023F0700377
:10549C0043F06703A3609DE7256A266A486826F0F7
:1054AC000106CF682662A36925F00A0123F0F003F8
:1054BC00014343EA0713A3612162A368002023F090
:1054CC00700343F04703A36084E700BF204A30B465
:1054DC009042036827D0B0F1804F1BD0A2F59432D4
:1054EC00904217D002F58062904213D04D698C68BF
:1054FC000A6823F080032B430360C4628262012399
:10550C0043610369DB0703D5036923F001030361DE
:10551C0030BC70474A6823F070031343CA6823F405
:10552C0040731343E2E74A6823F070031343CA68DD
:10553C0023F4407313434A6923F08003134303603D
:10554C008B68C3620B6883620B690363D7E700BF88
:10555C00002C014050B310B590F83D30044603F0D8
:10556C00FF02F3B10223214684F83D3051F8040BBD
:10557C00FFF7ACFF012384F8463084F83E3084F802
:10558C003F3084F8403084F8413084F8423084F85D
:10559C00433084F8443084F8453084F83D300020A2
:1055AC0010BD80F83C20FCF717FFDBE701207047AB
:1055BC0090F83C30012B26D00222036830B480F8DE
:1055CC003D205A680C68114D22F070022243AB4208
:1055DC009C685A6009D0B3F1804F06D00C4A9342B4
:1055EC0003D002F58062934204D14A6824F080040F
:1055FC0014439C600023012280F83C3080F83D204D
:10560C0030BC184670470220704700BF002C014088
:10561C0000040040026802F10C0353E8003F23F43D
:10562C00907302F10C0C4CE800310029F3D102F11B
:10563C00140353E8003F23F0010302F1140C4CE86F
:10564C0000310029F3D1036B012B05D0202200235C
:10565C0080F842200363704702F10C0353E8003FCB
:10566C0023F0100302F10C0C4CE800310029F3D1AB
:10567C00ECE700BF38B504460368C0681969A26836
:10568C0021F4405101431961D968D4E9045021F443
:10569C00B0512A4321F00C0102430A43DA605A69E3
:1056AC00A069134922F4407202438B425A611BD009
:1056BC00FFF790FD0346626803EB8303920003EB54
:1056CC008303B3FBF2F364220A482468A0FB035162
:1056DC00490902FB11331B013233A0FB03230901DF
:1056EC0001EB5313A36038BDFFF784FD0346E2E7DB
:1056FC00003801401F85EB512DE9F0411D4607464E
:10570C000E469046036882B001E0681C07D11C6805
:10571C0036EA0402F9D1002002B0BDE8F081FDF7B1
:10572C0087FCA0EB080085421BD3D5B13B68DA6837
:10573C005107ECD5802EEAD0402EE8D01A6812071B
:10574C00E5D5002401941A68384601925B680193F0
:10575C00019BFFF75FFF0823012087F840407B6423
:10576C00DAE70320D8E700BF68B338B590F84130CA
:10577C00044603F0FF020BB32423226884F8413063
:10578C00D368204623F40053D360FFF773FF202522
:10579C00002223681046196921F490411961596956
:1057AC0021F02A015961D96841F40051D960626431
:1057BC0084F8415084F84250626338BD80F8402030
:1057CC00FCF732FED8E70120704700BF2DE9F84303
:1057DC00044690F84100202836D10E4609B11546F2
:1057EC0012B90120BDE8F8831F464FF000082123B1
:1057FC00C4F8448084F84130FDF71AFCA368814654
:10580C00B3F5805FA584E58421D0E38C9BB25BB9B2
:10581C0023E0236816F8012B5A60E58C013DADB2EC
:10582C00E584E18C89B2C1B13B464A4680212046D1
:10583C00FFF762FFE0B9002EEBD138F8023B22688B
:10584C00C3F308035360E8E70220BDE8F88323693B
:10585C00002BDAD1B0461E46D7E73B464A464021DC
:10586C002046FFF749FF202340B984F84130B9E7BF
:10587C00202384F841300320BDE8F883032084F80A
:10588C004130AFE790F84230202B1FD101B10AB95B
:10589C000120704730B40023222504690363816220
:1058AC00C28582854364036880F842501CB1DA6873
:1058BC0042F48072DA605A69002030BC42F0010276
:1058CC005A61DA6842F02002DA60704702207047B1
:1058DC00704700BF08B50023406AC385C384FCF73A
:1058EC0039F808BD704700BF8368B3F5805F45D0B9
:1058FC00826A002B39D003685B6803F07F03137056
:10590C00836A01338362C38D013B9BB2C385002B39
:10591C0032D110B52024026882B0D16821F0200168
:10592C00D160D16821F48071D160516921F00101FD
:10593C00516180F842404363016B012929D1036313
:10594C0002F10C0353E8003F23F0100302F10C04A6
:10595C0044E800310029F3D11368DB0623D4818D90
:10596C00FFF7C0FF002002B010BD0369002BC2D1AD
:10597C0003685B681370C3E70020704703696BB959
:10598C000268836A5268C2F3080223F8022B83620E
:10599C00B9E7FBF7C7FF002002B010BD0368826AAD
:1059AC005B681370ACE70191136801935368019322
:1059BC00019BD4E770B5036804461A681D4612F0C3
:1059CC000F0FD96882B05E696FD1930602D58E062F
:1059DC0000F1B280236B012B0BD0160602D5080602
:1059EC0000F1B480520602D54B0600F1CD8002B016
:1059FC0070BDD606F1D5C806EFD5002301932B68F0
:105A0C0001936B680193019B6B695B0640F1EC8021
:105A1C00E06B03685B689BB2002BE8D0A28D9A42C6
:105A2C00E5D98169E385202936D005F10C0353E8CB
:105A3C00003F23F4807305F10C0141E80032002A89
:105A4C00F3D105F1140353E8003F23F0010305F1F2
:105A5C00140141E80032002AF3D105F1140353E894
:105A6C00003F23F0400305F1140141E80032002A05
:105A7C00F3D1202384F84230226305F10C0353E860
:105A8C00003F23F0100305F10C0141E80032002A1D
:105A9C00F3D1FDF731FEA28D02236363E38D204623
:105AAC00D21A91B2FFF71EFFA1E706F0010601F42E
:105ABC00907030438ED0D00705D5CD0503D5606CE2
:105ACC0040F001006064500731D54EB1606C950711
