:020000040800F2
:1000000000500020D53200087D2700087F27000817
:1000100081270008832700088527000800000000CA
:10002000000000000000000000000000872700081A
:1000300089270008000000008B2700088D27000892
:100040001D3300081D3300081D3300081D33000850
:100050001D3300081D3300081D3300081D33000840
:100060001D3300081D3300081D33000895270008C4
:100070001D330008A52700081D3300081D330008A4
:100080001D3300081D3300081D3300081D33000810
:10009000B52700081D3300081D3300081D33000874
:1000A0001D3300081D3300081D3300081D330008F0
:1000B0001D3300081D3300081D3300081D330008E0
:1000C0001D3300081D3300081D3300081D330008D0
:1000D0001D3300081D3300081D330008C527000824
:1000E0001D3300081D3300081D3300080000000008
:1000F0000000000000000000000000000000000000
:0C01000000000000000000005FF808F1A3
:10010C0010B5054C237833B9044B13B10448AFF345
:10011C0000800123237010BDB804002000000000F3
:10012C00C48C000808B5034B1BB103490348AFF35B
:10013C00008008BD00000000BC040020C48C000836
:10014C0010F8012B11F8013B012A28BF9A42F7D075
:10015C00D01A7047034613F8012B002AFBD1181A4A
:10016C000138704780F0004002E000BF81F0004190
:10017C0042001FBF5FEA410392EA030F7FEA226C41
:10018C007FEA236C6AD04FEA1262D2EB1363C1BFD1
:10019C00D218414048404140B8BF5B42192B88BF40
:1001AC00704710F0004F40F4000020F07F4018BF63
:1001BC00404211F0004F41F4000121F07F4118BF83
:1001CC00494292EA030F3FD0A2F1010241FA03FC2B
:1001DC0010EB0C00C3F1200301FA03F100F0004313
:1001EC0002D5494260EB4000B0F5000F13D3B0F1DB
:1001FC00807F06D340084FEA310102F10102FE2A4A
:10020C0051D2B1F1004F40EBC25008BF20F00100B9
:10021C0040EA03007047490040EB0000013A28BF58
:10022C00B0F5000FEDD2B0FA80FCACF1080CB2EBDB
:10023C000C0200FA0CF0AABF00EBC2505242184359
:10024C00BCBFD0401843704792F0000F81F40001FE
:10025C0006BF80F400000132013BB5E74FEA4103D1
:10026C007FEA226C18BF7FEA236C21D092EA030F3D
:10027C0004D092F0000F08BF0846704790EA010FB7
:10028C001CBF0020704712F07F4F04D1400028BFE4
:10029C0040F00040704712F100723CBF00F50000C6
:1002AC00704700F0004343F0FE4040F400007047FC
:1002BC007FEA226216BF08467FEA236301464202A8
:1002CC0006BF5FEA412390EA010F40F480007047BB
:1002DC004FF0000304E000BF10F0004348BF404261
:1002EC005FEA000C08BF704743F0964301464FF09D
:1002FC0000001CE050EA010208BF70474FF00003F9
:10030C000AE000BF50EA010208BF704711F0004339
:10031C0002D5404261EB41015FEA010C02BF844609
:10032C000146002043F0B64308BFA3F18053A3F568
:10033C000003BCFA8CF2083AA3EBC25310DB01FAAF
:10034C0002FC634400FA02FCC2F12002BCF1004F33
:10035C0020FA02F243EB020008BF20F001007047C4
:10036C0002F1200201FA02FCC2F1200250EA4C0018
:10037C0021FA02F243EB020008BF20EADC7070475E
:10038C004FF0FF0C1CEAD0521EBF1CEAD15392EA6C
:10039C000C0F93EA0C0F6FD01A4480EA010C400248
:1003AC0018BF5FEA41211ED04FF0006343EA5010A2
:1003BC0043EA5111A0FB01310CF00040B1F5000FE4
:1003CC003EBF490041EAD3715B0040EA010062F193
:1003DC007F02FD2A1DD8B3F1004F40EBC25008BF7D
:1003EC0020F00100704790F0000F0CF0004C08BF9B
:1003FC0049024CEA502040EA51207F3AC2BFD2F168
:10040C00FF0340EAC250704740F400004FF0000375
:10041C00013A5DDC12F1190FDCBF00F000407047AF
:10042C00C2F10002410021FA02F1C2F1200200FAED
:10043C0002FC5FEA310040F1000053EA4C0308BFB4
:10044C0020EADC70704792F0000F00F0004C02BF05
:10045C00400010F4000F013AF9D040EA0C0093F080
:10046C00000F01F0004C02BF490011F4000F013BDA
:10047C00F9D041EA0C018FE70CEAD15392EA0C0F48
:10048C0018BF93EA0C0F0AD030F0004C18BF31F0B3
:10049C00004CD8D180EA010000F00040704790F089
:1004AC00000F17BF90F0004F084691F0000F91F02D
:1004BC00004F14D092EA0C0F01D142020FD193EAF3
:1004CC000C0F03D14B0218BF084608D180EA01007B
:1004DC0000F0004040F0FE4040F40000704740F057
:1004EC00FE4040F4400070474FF0FF0C1CEAD05225
:1004FC001EBF1CEAD15392EA0C0F93EA0C0F69D081
:10050C00A2EB030280EA010C49024FEA402037D0EB
:10051C004FF0805343EA111143EA10130CF00040E2
:10052C008B4238BF5B0042F17D024FF4000C8B42D2
:10053C0024BF5B1A40EA0C00B3EB510F24BFA3EBB2
:10054C00510340EA5C00B3EB910F24BFA3EB910382
:10055C0040EA9C00B3EBD10F24BFA3EBD10340EADC
:10056C00DC001B0118BF5FEA1C1CE0D1FD2A3FF622
:10057C0050AF8B4240EBC25008BF20F001007047D7
:10058C000CF0004C4CEA50207F32C2BFD2F1FF037A
:10059C0040EAC250704740F400004FF00003013AAB
:1005AC0037E792F0000F00F0004C02BF400010F44F
:1005BC00000F013AF9D040EA0C0093F0000F01F063
:1005CC00004C02BF490011F4000F013BF9D041EA85
:1005DC000C0195E70CEAD15392EA0C0F08D14202B8
:1005EC007FF47DAF93EA0C0F7FF470AF084676E78B
:1005FC0093EA0C0F04D14B023FF44CAF08466EE764
:10060C0030F0004C18BF31F0004CCAD130F0004231
:10061C007FF45CAF31F000437FF43CAF5FE700BF89
:10062C004FF0FF3C06E000BF4FF0010C02E000BFB2
:10063C004FF0010C4DF804CD4FEA40024FEA410354
:10064C007FEA226C18BF7FEA236C11D001B052EA0A
:10065C00530C18BF90EA010F58BFB2EB030088BFD0
:10066C00C81738BF6FEAE17018BF40F0010070473F
:10067C007FEA226C02D15FEA402C05D17FEA236C21
:10068C00E4D15FEA412CE1D05DF8040B704700BF68
:10069C00844608466146FFE70FB5FFF7C9FF0028FF
:1006AC0048BF10F1000F0FBD4DF808EDFFF7F4FF38
:1006BC000CBF012000205DF808FB00BF4DF808EDD1
:1006CC00FFF7EAFF34BF012000205DF808FB00BFF4
:1006DC004DF808EDFFF7E0FF94BF012000205DF816
:1006EC0008FB00BF4DF808EDFFF7D2FF94BF0120C7
:1006FC0000205DF808FB00BF4DF808EDFFF7C8FFC0
:10070C0034BF012000205DF808FB00BF4FEA400217
:10071C00B2F1FE4F0FD34FF09E03B3EB12620DD923
:10072C004FEA002343F0004310F0004F23FA02F08D
:10073C0018BF404270474FF00000704712F1610F34
:10074C0001D1420205D110F0004008BF6FF000400B
:10075C0070474FF00000704742000ED2B2F1FE4FCE
:10076C000BD34FF09E03B3EB126209D44FEA002374
:10077C0043F0004323FA02F070474FF0000070473B
:10078C0012F1610F01D1420202D14FF0FF307047DC
:10079C004FF00000704700BF70B588B0002404947F
:1007AC00059406940794214B9A6942F020029A61B1
:1007BC009A6902F020020192019A9A6942F00402AD
:1007CC009A619A6902F004020292029A9A6942F0C2
:1007DC0008029A619B6903F008030393039B144D71
:1007EC0022464FF22001284603F0D1FC4FF22003A1
:1007FC0004930126059606940223079304A9284620
:10080C0003F0AEFB4FF4004304930594069604A941
:10081C00084803F0A5FB182304930594069604A935
:10082C00284603F09DFB08B070BD00BF00100240CD
:10083C00000C01400008014000B583B00E4B5A6912
:10084C0042F001025A615B6903F001030193019BC1
:10085C00002211460B2003F031F80B2003F062F854
:10086C00002211460D2003F029F80D2003F05AF850
:10087C0003B05DF804FB00BF0010024038B504461D
:10088C0001F078FEE8B11C4A1368E31A12795AB1E8
:10089C00C72B2FD901222021184803F078FC164BC6
:1008AC0000221A711C6025E0B3F5487F22D3002288
:1008BC002021124803F06BFC0F4B01221A711C60B3
:1008CC0018E00F4B1B78012B0FD10B4B1B68E31A55
:1008DC00632B0FD9084D2A7982F001022A7120214D
:1008EC00064803F054FC2C6004E00022202103484D
:1008FC0003F04DFC38BD00BF94080020000C0140F3
:10090C00B91B0020F8B54FF40041304803F038FC17
:10091C0006462F4C0821204603F032FC05461021D8
:10092C00204603F02DFC04462A4B1F681EB92A4BA7
:10093C001B78012B1DD0284B1E701DB9274B1B7823
:10094C00012B1AD0254B1D701CB9254B1B78012B84
:10095C0017D0E4B9234B1B78CBB9234B1B68FB1A7C
:10096C00B3F5FA7F13D31F4B01221A701E4B1F6075
:10097C000DE0012000F08EFCDDE7002000F08AFC89
:10098C00E0E7184B1B7873B1164B00221A70154B0D
:10099C001B782BB124B9144B1B68FB1AC72B0FD82F
:1009AC000F4B1C70F8BD114D292385F8BC36022065
:1009BC0000F070FC0D2385F8BC360B4B1F60E6E78E
:1009CC00022000F067FC084B1F60E9E700080140BB
:1009DC00000C0140FC110020000000200100002050
:1009EC00020000209C080020A0080020BC08002069
:1009FC0002680F4B9A4200D0704710B500210D4889
:100A0C0000F0F2FE00F044FE00F0E4FB00F054FEB7
:100A1C0000F09EFEFFF776FF074C206800F0A0FE6A
:100A2C00206800F063FF00F0DDFC00F051FC10BD0D
:100A3C0000240140D4040020FC11002002680F4B5C
:100A4C009A4200D0704710B5F0210D4800F0CCFE52
:100A5C0000F01EFE00F0BEFB00F02EFE00F078FE53
:100A6C00FFF750FF074C206800F07AFE206800F07A
:100A7C003DFF00F0B7FC00F02BFC10BD0024014042
:100A8C00D4040020FC11002072B6FEE700B585B03E
:100A9C0000230193029303932748284A02604FF4E2
:100AAC0080728260037303754FF40022C26143604D
:100ABC000523036102F06CFE002831D10023019361
:100ACC0001220292039301A91B4802F0BDFC48BB12
:100ADC00012301930223029301A9174802F0B4FCED
:100AEC0010BB022301930323029301A9124802F0C5
:100AFC00ABFCD8B903230193042302930DEB030140
:100B0C000D4802F0A1FC98B904230193052302932C
:100B1C0001A9094802F098FC60B905B05DF804FB26
:100B2C00FFF7B2FFFFF7B0FFFFF7AEFFFFF7ACFF29
:100B3C00FFF7AAFFFFF7A8FFD820002000240140F0
:100B4C0008B50A480A4B03604FF4E13343600023B5
:100B5C008360C36003610C2242618361C36105F051
:100B6C005AF900B908BDFFF78FFF00BF48200020DD
:100B7C000048004000B587B0002302930393049310
:100B8C000593009301931448144A02602F2242608B
:100B9C00836040F2F312C26003614361802383617E
:100BAC0004F066FF90B94FF48053029302A90A48EF
:100BBC0004F095FF60B90023009301936946064841
:100BCC0005F00CF830B907B05DF804FBFFF75CFFDB
:100BDC00FFF75AFFFFF758FF4C210020002C014073
:100BEC0000B587B0002302930393049305930093FD
:100BFC0001931448144A0260632242608360092204
:100C0C00C26003618023836104F032FF98B94FF412
:100C1C008053029302A90B4804F061FF68B92023AA
:100C2C000093002301936946064804F0D7FF30B9BE
:100C3C0007B05DF804FBFFF727FFFFF725FFFFF771
:100C4C0023FF00BF902000200004004000B595B0A9
:100C5C0000230D930F93109305930693079308931A
:100C6C000993019302930393049301220A924FF484
:100C7C0080330B934FF400310C910E92022211929F
:100C8C0012934FF4801313930AA804F0AFFAE8B947
:100C9C000F23059302230693002307934FF48062DE
:100CAC0008920993012105A804F0D8FC80B91223FD
:100CBC0001934FF4804303934FF48003049301A8F2
:100CCC0004F0A8FD30B915B05DF804FBFFF7DCFEAD
:100CDC00FFF7DAFEFFF7D8FE70B502F041FBFFF725
:100CEC00B5FF0A2002F060FBFFF756FDFFF7A4FDED
:100CFC00FFF7CCFEFFF724FFFFF73CFFFFF770FF79
:100D0C004FF400411B4803F03BFA05461A4E0821EC
:100D1C00304603F035FA04461021304603F030FA21
:100D2C000DB104B110BB154B01221A7007F02AF853
:100D3C004FF4F0721249134802F066FC124804F0AA
:100D4C0021FE00F057F900F031FD00F075FF002294
:100D5C002021094803F01BFA0C4C206801F0C6FD59
:100D6C0001F022FF2068FFF789FDF5E7034B002215
:100D7C001A70DBE700080140000C0140B91B002091
:100D8C00D4040020D820002090200020FC1100204A
:100D9C00B0F8023200EB4302518001339BB2A0F851
:100DAC000232FF2B02D90023A0F80232B0F806322F
:100DBC00FF2B0BD9B0F8043201339BB2A0F80432EC
:100DCC00FF2B06D90023A0F8043270470133A0F89A
:100DDC000632704710B4B0F80642ACB1002211468E
:100DEC0094420AD9B0F804321344DBB200EB43034B
:100DFC005B881944013292B2F2E701EB81014800A1
:100E0C00B0FBF4F010BC70470020FBE70346B0F8D1
:100E1C00060248B1B3F8022212B1013A90B200E0D6
:100E2C00FF2003EB4003588870470000F8B50024FE
:100E3C00264600E00134032C0ADC304B4FF41470CE
:100E4C0000FB0430FFF7E2FF8642F3D20646F1E7DF
:100E5C0000241CE02A4B1A79511C19719C54274B05
:100E6C004FF4147505FB04350023C5F81032A5F8B2
:100E7C0014323046FFF72CFA224B5969FFF780FAEF
:100E8C00C5F84C020134032CE4DDF8BD0134032C0D
:100E9C00FBDC4FF4147303FB04F3184AD35C002BF4
:100EAC00F4D14FF4147505FB04252846FFF7AEFF6B
:100EBC000746A5F80C02FFF70FFAD5F84C12FFF70E
:100ECC001BFC0028E2D0C6EBC603B7EBE30FDDDD5D
:100EDC000D4BD3F822000D49FFF752FAFFF73CFCFB
:100EEC00C5F83402074B01221A70094A12685A607D
:100EFC00034B00241C715C719C60C4E7BC0800208F
:100F0C00001200200C1200202C12002000002041A6
:100F1C00FC11002038B5002512E0324B4FF414724E
:100F2C0002FB04342046FFF771FFD4F8103203445F
:100F3C00C4F81032B4F814320133A4F81432013569
:100F4C00294B1B79AB4216DD274B5C5D254A4FF4D0
:100F5C00147303FB0423B3F81432002BDDD14FF4CC
:100F6C00147303FB0423B3F80C22C3F810220122E0
:100F7C00A3F81422D1E71D4A12681D494868121AB9
:100F8C008989914227D938BD01318B4225DD164A1A
:100F9C00525C144C4FF4147000FB0240B0F8140275
:100FAC000028F1D020464FF4147404FB0202D2F84E
:100FBC001042D2F8340200FB04F0B2F81442B0FB39
:100FCC00F4F0C2F81802084A92689042DCD9064A3A
:100FDC0090605171D8E70021D7E7054B02221A70B7
:100FEC00D1E700BFBC08002000120020FC1100203B
:100FFC000C12002070B500247AE00E2285F81C2219
:10100C0004B3012C3CD0022C44D0032C22D16C4ACA
:10101C004FF4147303FB04234022A3F81E2219E09F
:10102C00674A4FF4147303FB04230D2283F81C222C
:10103C00E6E7634A4FF4147303FB0423092283F895
:10104C001C22DDE75E4A4FF4147303FB0423802259
:10105C00A3F81E2244B3012C00F08B80022C00F06C
:10106C009580032C2CD1564A4FF4147303FB0423A4
:10107C004FF40042A3F82022524AC3F824221FE066
:10108C004F4A4FF4147303FB04234FF40062A3F88C
:10109C001E22DFE74A4A4FF4147303FB04234FF478
:1010AC008062A3F81E22D5E7454A4FF4147303FB64
:1010BC0004234FF48052A3F82022424AC3F824227E
:1010CC003F4B4FF4147505FB04350122B5F8201283
:1010DC00D5F8240203F05BF80023C5F8283285F814
:1010EC003832C5F83C32C5F84032A5F844320134E8
:1010FC00032C58DC324A4FF4147303FB04F3D51859
:10110C000026D654C5F808624FF400723146A81C6C
:10111C0007F06CF9A5F80262A5F80462A5F806625E
:10112C00C5F81062A5F81462C5F818624FF07E532A
:10113C00C5F84832244B588BFFF7CAF8C5F84C0257
:10114C00C5F82C62C5F83062002C3FF456AF012C68
:10115C003FF466AF022C3FF46CAF032C7FF450AF1E
:10116C00174A4FF4147303FB0423072283F81C2241
:10117C0046E7134A4FF4147303FB04234FF4005255
:10118C00A3F820220F4AC3F8242299E70C4A4FF403
:10119C00147303FB04234FF48042A3F82022094A62
:1011AC00C3F824228CE7094A002313700649098AE4
:1011BC00518113725372064A13605360936070BD71
:1011CC00BC080020000C01402C1200200C12002046
:1011DC000012002070B5002408E02A4A4FF4147362
:1011EC0003FB04230022C3F830220134032C48DC17
:1011FC00244A4FF4147303FB04F3D018D35C012B73
:10120C00F3D1FFF703FE00EB80001E4A4FF414737A
:10121C0003FB0423D3F80832B3EB400FDDD94FF4B2
:10122C00147303FB0423D3F8303243B9164B1A68FA
:10123C0014494FF4147303FB0413C3F83022124BFC
:10124C001B6810494FF4147202FB0412D2F83022BE
:10125C009B1A0E4AD2899A42C7D84FF4147303FBD7
:10126C0004F3CD180026CE544FF07E53C5F8483207
:10127C00074B588BFFF72CF8C5F84C02C5F83062B9
:10128C00B3E770BDBC080020FC1100200C1200203C
:10129C002C120020032814D810B40A4A13680A49E7
:1012AC004FF4147404FB0010C0F83C32074B1B8A3B
:1012BC0012681344C0F84032012380F8383210BC55
:1012CC0070477047FC110020BC0800200C12002055
:1012DC0070B53E4B1B78012B22D000231C4634E00A
:1012EC000133032B1EDC3A494FF4147202FB031238
:1012FC0092F83822002AF3D0364A118834484FF439
:10130C00147202FB0302B2F81E220A42E8D13148E1
:10131C00018889B20A4302802F4A01211170DFE74C
:10132C000023DEE72C4B1B7803F0FF040BB920469F
:10133C0070BD08222749294801F0B2FF0024264B32
:10134C001C70F4E70025E5B10133032B31DC204997
:10135C004FF4147202FB031292F83852002DF3D0A2
:10136C000222072AEEDC1E49895CC9B2184E4FF4E2
:10137C00147000FB036090F81C028142E3D0013230
:10138C00EFE70222072A12DC1549895C09B1013208
:10139C00F8E70F484FF4147101FB030191F81C029C
:1013AC000F4988540134E4B20B4A01211170052C09
:1013BC00CAD9094B1B78002BB9D008220849074819
:1013CC0005F0F9FF044B00221A70B0E7B91B00209E
:1013DC00BC08002004000020BA1B0020B827002005
:1013EC00B40800200023032B58DC10B408E02C496F
:1013FC00002088542B4A012111700133032B4BDC44
:10140C0029494FF4147202FB031292F83822002A75
:10141C00F3D04FF4147202FB0312D2F84022002ACC
:10142C00EBD0224909688A42E7D81F494FF414725D
:10143C0002FB0312002182F83812C2F83C12C2F8E7
:10144C0040121B4A1278B2B1012AD6D1194A10881F
:10145C0015494FF4147202FB0312B2F81E1201422A
:10146C00CBD01448028892B222EA010202800D4AC3
:10147C0001211170C1E70222072ABEDC0849895CF0
:10148C00C9B2094C4FF4147000FB034090F81C02D5
:10149C008142ACD00132EFE710BC7047704700BFFF
:1014AC00B4080020BA1B0020BC080020FC1100204E
:1014BC00B91B002004000020032800D9704710B588
:1014CC00084C4FF4147303FB00440022B4F82012B0
:1014DC00D4F8240202F05BFE034B1B68C4F82832DC
:1014EC0010BD00BFBC080020FC11002038B5644BB7
:1014FC005A799D5C634B00225A72E5B9604B19799D
:10150C00012918D90023994213DD5D4AD45C032CC0
:10151C0001D00133F7E75C4BD3F80829584B9B6893
:10152C0003EB4303B2EB930F71D3564B01225A7268
:10153C0008E0FF2406E0032D11D0012D2BD0022D45
:10154C0046D0FF244F4B5B7A0BB1FF2C67D128465A
:10155C00FFF7A0FE2846FFF7AFFF00227CE0484BC8
:10156C0019790129E9D90023994212DD444AD45C46
:10157C000CB10133F8E7444BD3F81822404B9B686D
:10158C0003EB4303B2EB930F43D33E4B01225A724E
:10159C00D8E7FF24D6E73A4B19790129CFD9002394
:1015AC00994213DD364AD45C022C01D00133F7E7A3
:1015BC00354BD3F8B826324B9B6803EB4303B2EBA5
:1015CC00930F28D32F4B01225A72BBE7FF24B9E7A4
:1015DC002B4B1979012908D90023994215DD284A8A
:1015EC00D45C012C03D00133F7E7FF24AAE7264B88
:1015FC00D3F86824224B9B6803EB4303B2EB930FA5
:10160C000BD3204B01225A729CE7FF249AE7FF244C
:10161C0098E7FF2496E7FF2494E7FF2492E72846F7
:10162C00FFF738FE2046FFF735FE2846FFF744FF4C
:10163C002046FFF741FF90E713484FF4147303FB68
:10164C0002F3C1180124C454104B1B68C1F82C328E
:10165C000023C1F830322244032AEDDD002308E0D8
:10166C0009494FF4147202FB03120A21C2F8341216
:10167C000133032BF4DD034B00221A7038BD00BF7D
:10168C00001200200C120020BC080020FC110020CD
:10169C0008B5084B1B78012B06D0022B07D003B1E1
:1016AC0008BDFFF7C3FBFBE7FFF734FCF8E7FFF7D8
:1016BC001DFFF5E70C1200202DE9F041002400E09D
:1016CC000134032C3CDC1F4A4FF4147303FB04233A
:1016DC00D3F84C721C4BB3F81A804046FEF7FCFD55
:1016EC00054601463846FEF741FD06460021FFF748
:1016FC0003F80028E4D0154B99694FF07E50FEF7A3
:10170C0035FD3146FEF73CFE01463846FEF72EFD10
:10171C0001460C4A4FF4147303FB0423C3F84C0228
:10172C002846FEF7E9FF0028CAD0064B4FF4147583
:10173C0005FB04354046FEF7CBFDC5F84C02BFE770
:10174C00BDE8F081BC0800202C1200200C120020F7
:10175C00024A136801331360704700BFFC1100206C
:10176C0070B5054600240EE04FF4147606FB0426F3
:10177C000122B6F82012D6F8240202F008FD00234C
:10178C00C6F828320134032C0CDC074A4FF41473CE
:10179C0003FB0423D3F82832002BF3D0EB1A132BC2
:1017AC00F0D9E1E770BD00BFBC0800200023042B7A
:1017BC0005DC054A002122F813100133F7E7024B30
:1017CC000022DA60704700BFA4080020042808D863
:1017DC00044B33F810309BB28B4202D2014B23F8EE
:1017EC0010107047A40800202DE9F04182B0054686
:1017FC000E4600246CE035F813003A4F4FF4147386
:10180C0003FB0473A3F8440223E0501E0DF1080CF3
:10181C000CEB800C5CF808CC0DF1080E0EEB820280
:10182C0042F808CC02469342EFDB02AA02EB830398
:10183C0043F8087C01312F291ADC33199BB201EBD8
:10184C00810292B213449BB235F8132092B22F2925
:10185C00D1D00023012BEDDC174602A800EB83004E
:10186C0050F8080C824201D80133F3E70122DAE781
:10187C0000231A4606E002A901EB830151F8081C6B
:10188C000A440133012BF6DD174B03EB4403DB88D1
:10189C00C2F34F0203FB02F29709B2F5800F01D39A
:1018AC004FF6FF77BFB2032C11DC0E4B4FF41478BC
:1018BC0008FB043839464046FFF76AFA4046FFF702
:1018CC0089FAC8F808023946E0B2FFF77FFF013405
:1018DC00042C03DC002100910191ACE702B0BDE8BF
:1018EC00F08100BFBC0800202C12002070470000C3
:1018FC00F8B503460E4600E001331A78202AFBD0D7
:10190C00092AF9D000210F4608460C468C4606E001
:10191C000CEB8C0C303A02EB4C0C013101331A7885
:10192C00BAB1092915DCA2F13005EDB2092D0BD89D
:10193C000028EDD0012FF0DC04EB8405A2F130047B
:10194C0004EB45040137E8E72E2A1ED1F8B9012033
:10195C00E4E7BCF1630F1CDC17B1012F11D0274653
:10196C006046FEF7B9FC04463846FEF7B5FC0A495A
:10197C00FEF7BAFD01462046FEF7FAFB3060012067
:10198C00F8BD04EB84046700EAE70020F8E70020C8
:10199C00F6E70020F4E700BF0000C842F0B400E016
:1019AC0001300378202BFBD0092BF9D02D2B08D03C
:1019BC002B2B0AD04FF0000C00273D463A463E46F2
:1019CC0012E001304FF0010CF6E701304FF0000C43
:1019DC00F2E706EB8606303B03EB460603E02E2BC4
:1019EC002FD185BB01250130037883B1A3F13004DD
:1019FC00E4B2092CF3D8002DEBD0012FF3DC02EB71
:101A0C008204A3F1300202EB44020137EBE747B149
:101A1C00012F03D0022F12DC174602E002EB8202E8
:101A2C005700642303FB0673BCF1000F00D05B422C
:101A3C00B3F5C82F09D80B800120F0BC7047632781
:101A4C00EFE70020F9E70020F7E70020F5E700E0DA
:101A5C0001300378202BFBD0092BF9D0002203781E
:101A6C00D3B110B4A3F13004E4B2092C0FD802EBBB
:101A7C00820203EB4203A3F13002B2F5803F09D29C
:101A8C0001300378002BEDD10A80012000E000200A
:101A9C0010BC70470020FBE70A8001207047000053
:101AAC0008B501220249034804F035FC08BD00BF0B
:101ABC005C1200204820002010B582B00E4BA3FB16
:101ACC0001235A091346642404FB121189B241B153
:101ADC0009290BD80091094A102106F08FFC02B09D
:101AEC0010BD074A102106F089FCF8E70091054A61
:101AFC00102106F083FCF2E71F85EB51DC8C00080B
:101B0C00E08C0008E48C000801460023184603E032
:101B1C00CA5C104480B20133292BF9D970470000FC
:101B2C0010B5184B184A1A6002229A800023042B15
:101B3C0008DC164A32F81310124A02EB4302D18029
:101B4C000133F4E70023042B07DC03F108010D4AF1
:101B5C00C82022F811000133F5E70A4CC82363832F
:101B6C000423A3830F23E383322323844FF0804386
:101B7C00C4F82230064BC4F826302046FFF7C4FFC9
:101B8C00608510BD2C120020464E4F43E099000892
:101B9C00EC51783F244B1A6803F16D5303F5552330
:101BAC0003F246239A4239D170B51F4B9C88631EB1
:101BBC009BB2012B34D81C48458DFFF7A5FF8542FD
:101BCC0030D1012C0FD0194C174D0FCD0FC40FCDA8
:101BDC000FC495E8070084E80700144B1A8A144BCD
:101BEC005A8101201DE0114E34460F4D0FCD0FC40C
:101BFC0095E8070003C422800123B380C8237383B4
:101C0C000423B3830F23F383322333844FF08043B5
:101C1C00C6F82230074BC6F82630DEE700207047A6
:101C2C00002070BD0020FCE700FC01082C120020F5
:101C3C000C120020EC51783F08B5FFF7ABFFA8B1B0
:101C4C000D4B00221A700D4A118A0D4B5981918B44
:101C5C009981D18BD981118C1982D2F822105961BA
:101C6C00D2F826209A61FFF71BFF08BD024B012218
:101C7C001A70FFF755FFE6E7281200202C120020FF
:101C8C000C12002030B587B0234C2046FFF73CFFE8
:101C9C006085EFF3108572B602F046F820B185F33B
:101CAC001088002007B030BD1C4B3422DA600023B2
:101CBC00019302931A4B04930123059301A902A8E3
:101CCC0002F0FCF888B900240A2C1AD804F100712F
:101CDC0001F5FE41104B53F824200023890002200B
:101CEC0002F07AF838B90134EEE702F037F885F3F0
:101CFC0010880020D6E702F031F885F31088002018
:101D0C00D0E702F02BF862B685F3108808B90120F1
:101D1C00C8E70020C6E700BF2C12002000200240BC
:101D2C0000FC010808B50268054B9A4200D008BDBA
:101D3C00044B187800F09EFDFFF7B2FEF7E700BFEA
:101D4C00004800405C120020704710B50446FEF7B6
:101D5C0001FA81B2204600F079FD10BD08B50248A9
:101D6C00FFF7F3FF08BD00BFEC8C000870B584B022
:101D7C0004460D46FEF7EEF9052844D02046FEF742
:101D8C00E9F903285AD076492046FEF7D9F90646D8
:101D9C00002872D073492046FEF7D2F9002800F0D3
:101DAC00858071492046FEF7CBF9002800F08F8022
:101DBC006E492046FEF7C4F9002800F099806C4962
:101DCC002046FEF7BDF9002800F0A38069492046A3
:101DDC00FEF7B6F990B902A92846FFF789FD68B15C
:101DEC00029C00212046FEF787FC38B14FF07E5153
:101DFC002046FEF763FC002840F0A9805E48FFF700
:101E0C00A4FF04B070BD04225C49204606F037FBE9
:101E1C000028B3D12679303E042EAFD80DF106013F
:101E2C002846FFF7BBFD0028A8D0554B03EB460610
:101E3C00BDF80630F380FFF791FFE2E7022251492B
:101E4C00204606F01CFB00289DD1A678303E042EBF
:101E5C0099D80DF10E012846FFF7F9FD002892D014
:101E6C00BDF80E3006F10801454A22F811300EB9C2
:101E7C00454A5381FFF772FFC3E70DF10E01284667
:101E8C00FFF7E5FD002885D0BDF80E103C4B5983BB
:101E9C00042E06DC06F10802394B23F81210013629
:101EAC00F6E7394B5981FFF759FFAAE70DF10E01FF
:101EBC002846FFF7CCFD00283FF473AFBDF80E3079
:101ECC002F4A9383304A9381FFF748FF99E70DF12E
:101EDC000E012846FFF7BBFD00283FF469AFBDF8A3
:101EEC000E30274AD383284AD381FFF737FF88E780
:101EFC000DF10E012846FFF7AAFD00283FF45FAF55
:101F0C00BDF80E301E4A13841F4A1382FFF726FFBA
:101F1C0077E702A92846FFF7EBFC00283FF456AF01
:101F2C00029E00213046FEF7E7FB00283FF44EAF3F
:101F3C0016493046FEF7CCFB00283FF447AF104B58
:101F4C00C3F82260104B5E61FFF708FF59E70C4B9A
:101F5C00C3F826400C4B9C61FFF700FF51E700BF14
:101F6C00008D0008088D0008148D0008208D0008D5
:101F7C00288D0008348D0008408D0008F48C000872
:101F8C002C120020FC8C00080C12002000002041B8
:101F9C0070B58AB005460C460846FEF7B7FB0646F8
:101FAC00FEF79AF901462046FEF7E0F80446194977
:101FBC00FEF784FBD8B918492046FEF7E1F94FF03B
:101FCC007C51FEF7D5F8FEF7A1FB632820DC09282D
:101FDC0015DD019000962B46104A202102A806F030
:101FEC000DFA81B202A800F031FC0AB070BD009667
:101FFC002B460B4A202102A806F000FAF1E70190CB
:10200C0000962B46074A202102A806F0F7F9E8E7CC
:10201C006320DEE70AD7A33B0000C842788D000896
:10202C005C8D0008688D000800B58BB003460091EC
:10203C00054A202102A806F0E1F981B202A800F0BD
:10204C0005FC0BB05DF804FB888D000870B59AB0E8
:10205C0004466E49FEF774F800283CD06C492046C3
:10206C00FEF76EF8002836D02046FEF773F80546CA
:10207C00052868D0032D00F0858066492046FEF7C0
:10208C005FF8002800F09B8063492046FEF758F863
:10209C00002800F09A8061492046FEF751F800288C
:1020AC0000F099805E492046FEF74AF8002800F0BF
:1020BC0098805C492046FEF743F8002800F0978092
:1020CC0059492046FEF73CF8002800F09780574805
:1020DC00FFF73BFE35E05648FFF737FE5548FFF754
:1020EC0034FE5548FFF731FE5448FFF72EFE544896
:1020FC00FFF72BFE5348FFF728FE5348FFF725FE4A
:10210C005248FFF722FE5248FFF71FFE5148FFF7D7
:10211C001CFE5148FFF719FE5048FFF716FE5048B9
:10212C00FFF713FE4F48FFF710FE4F48FFF70DFE69
:10213C004E48FFF70AFE4E48FFF707FE4D48FFF7E3
:10214C0004FE1AB070BD04224B49204606F097F9E4
:10215C0000288FD12679303E042E8BD8474B03EBC9
:10216C00460302ACD9882046FFF7A6FC0094334600
:10217C00434A40210AA806F041F981B20AA800F0AE
:10218C0065FBDEE702223F49204606F078F900287D
:10219C007FF473AFA378303B042B3FF66EAF03F1A3
:1021AC000801364A32F811200092374A202102A841
:1021BC0006F024F981B202A800F048FBC1E72F4BCE
:1021CC00598B1448FFF730FFBBE72C4B998B124807
:1021DC00FFF72AFFB5E7294BD98B1048FFF724FFEF
:1021EC00AFE7264B198C0E48FFF71EFFA9E7234BD0
:1021FC00D3F822100B48FFF7CBFEA2E71F4BD3F806
:10220C0026100948FFF7C4FE9BE700BF908D00081D
:10221C00988D0008008D0008088D0008148D0008AA
:10222C00208D0008288D0008348D0008408D000892
:10223C009C8D0008D08D0008108E0008588E000868
:10224C009C8E0008E08E0008288F00086C8F000818
:10225C00B48F0008F88F00084090000838960008EA
:10226C0088900008C4900008F8900008309100088D
:10227C006491000898910008F48C00082C1200203E
:10228C00CC910008FC8C0008D891000830B591B0B6
:10229C000C46844B1B7813B9824B01221A703F2CCD
:1022AC0028BF3F2422460146684606F091F810AB41
:1022BC002344002203F8402C07E0013CA4B29BB25B
:1022CC0010AA1344002203F8402C44B1631E10AA38
:1022DC001A4412F8402C0D2AEFD00A2AEDD0002C0B
:1022EC0000F0D38070496846FDF72AFF10B36F49A0
:1022FC006846FDF725FF38B36D496846FDF720FFAA
:10230C0010B36C496846FDF71BFFE8B13D216846E8
:10231C0006F0A8F804463F21684606F0A3F8002C06
:10232C0000F0B5802146002301F8013B6846FFF719
:10233C001DFDAAE0FFF7A6FC10B1FFF70FFDA4E00E
:10234C005D48FFF702FDA0E05C48FFF7FEFC5C482F
:10235C00FFF7FBFC5B4D2846FFF7F7FC5A48FFF7ED
:10236C00F4FC5A48FFF7F1FC5948FFF7EEFC5948CA
:10237C00FFF7EBFC5848FFF7E8FC5848FFF7E5FC83
:10238C005748FFF7E2FC5748FFF7DFFC564C204656
:10239C00FFF7DBFC5548FFF7D8FC5548FFF7D5FC99
:1023AC002046FFF7D2FC5348FFF7CFFC5248FFF70B
:1023BC00CCFC5248FFF7C9FC5148FFF7C6FC20463D
:1023CC00FFF7C3FC4F48FFF7C0FC4F48FFF7BDFCBD
:1023DC004E48FFF7BAFC2046FFF7B7FC4C48FFF716
:1023EC00B4FC4C48FFF7B1FC4B48FFF7AEFC4B4834
:1023FC00FFF7ABFC4A48FFF7A8FC4A48FFF7A5FCDF
:10240C004948FFF7A2FC2046FFF79FFC4748FFF71F
:10241C009CFC4748FFF799FC4648FFF796FC46485A
:10242C00FFF793FC4548FFF790FC4548FFF78DFC00
:10243C004448FFF78AFC2046FFF787FC4248FFF729
:10244C0084FC4248FFF781FC4148FFF77EFC414881
:10245C00FFF77BFC2046FFF778FC3F48FFF775FC45
:10246C003E48FFF772FC3E48FFF76FFC3D48FFF714
:10247C006CFC3D48FFF769FC2046FFF766FC3B48C7
:10248C00FFF763FC2846FFF760FC11B030BD28B1A4
:10249C00002303706846FFF7D9FDF6E73448FFF7D1
:1024AC0054FCF2E758120020E49100080492000852
:1024BC00908D0008988D0008EC9100080892000897
:1024CC00389200086092000890920008A4920008CC
:1024DC00D4920008009300082C9300085C93000829
:1024EC0080930008C8930008389600080C940008E4
:1024FC00289400087094000890940008C894000870
:10250C00049500083C95000854950008989500081F
:10251C00DC950008089600083C9600086C960008AC
:10252C0098960008C4960008E896000810970008D2
:10253C003C9700084C97000884970008B89700084F
:10254C00E89700081C980008549800086498000844
:10255C0094980008C0980008F098000800990008AA
:10256C0028990008589900087C990008A09900083F
:10257C00C4990008014B1878704700BF281200203E
:10258C0082B00E4B9A6942F001029A619A6902F08C
:10259C0001020092009ADA6942F08052DA61DB693A
:1025AC0003F080530193019B054A536823F0E063C9
:1025BC0043F00073536002B0704700BF001002403C
:1025CC000000014010B586B00023029303930493DE
:1025DC00059302681F4B9A4201D006B010BD044609
:1025EC0003F56C439A6942F400729A619A6902F499
:1025FC0000720092009A9A6942F004029A619B69F7
:10260C0003F004030193019B1F2302930323039301
:10261C0002A9114801F0A4FC1048114B03600023DF
:10262C00436083608023C3604FF4807303614FF475
:10263C0080634361202383614FF40053C36101F035
:10264C00ABF918B9054B23625C62C6E7FEF71CFABE
:10265C00F8E700BF002401400008014008210020D9
:10266C000800024082B003680E4A934204D00E4A1E
:10267C0093420CD002B070470C4B9A6942F4006242
:10268C009A619B6903F400630093009BF2E7074B8C
:10269C00DA6942F00202DA61DB6903F002030193AA
:1026AC00019BE7E7002C01400004004000100240B1
:1026BC0070B586B0002302930393049305930268CC
:1026CC00274B9A4201D006B070BD044603F5E433A3
:1026DC00DA6942F48022DA61DA6902F4802200922B
:1026EC00009A9A6942F008029A619B6903F0080308
:1026FC000193019B4FF48063029302230393032302
:10270C000593184E02A9304601F02AFC4FF40063E1
:10271C00029300250395049502A9304601F020FC94
:10272C001148124B0360456085608023C3600561CE
:10273C00456185614FF48053C36101F02DF958B99F
:10274C00094BE3635C6200220421272001F0B6F8F8
:10275C00272001F0E7F8B6E7FEF796F9F0E700BF9F
:10276C0000480040000C01400420002030000240D2
:10277C00FEE7FEE7FEE7FEE7FEE7704770477047AF
:10278C0008B500F0FFFD08BD08B5024801F0E4F9FA
:10279C0008BD00BF0821002008B5024801F0DCF993
:1027AC0008BD00BF0420002008B5024802F0DBFA87
:1027BC0008BD00BF842A002008B5024803F04CFC79
:1027CC0008BD00BF4820002010B503460C4A0D4937
:1027DC000D48006840B10C4800680344521A9342FB
:1027EC0006D8094A136010BD0748084C0460F2E78C
:1027FC0005F0C4FD0C2303604FF0FF30F3E700BF7E
:10280C00005000200004000060120020702D0020F9
:10281C0070470000034B93F89C02032814BF002060
:10282C0001207047B827002008B5044BB3F84010BE
:10283C0001B908BD1846FFF729FDFAE7641200201C
:10284C00014B93F84A0070476412002038B50446D7
:10285C000D46FFF7DFFF20B12946204600F088F92E
:10286C0038BD64232A462146014803F004FBF7E7F0
:10287C004820002030B583B004461A4B93F84830FA
:10288C001BB9184B012283F8482000F087FD154B2B
:10289C005864002283F849200A2C0DD00D2C0BD043
:1028AC00104BB3F840303E2B04D80E4A591CA2F8FA
:1028BC004010D45403B030BD0A4CB4F8403000255D
:1028CC00E554FFF7B1FFA4F84050074B1B68ADF877
:1028DC0004301B0C8DF80630022101A8FFF7B6FF5F
:1028EC00E8E700BF641200203896000838B50C4B9E
:1028FC00B3F8403043B10A4A92F8492022B9084A49
:10290C00526C801A312800D838BD054C012284F84D
:10291C0049200025E554FFF787FFA4F84050F3E762
:10292C006412002008B500F039FDFFF7DFFF08BD89
:10293C00064A0023A2F80038A2F80238044AA2F88A
:10294C000031A2F80231034A13707047B41300200F
:10295C00B0120020B81B002070B4EFF3108572B6D3
:10296C00184CB4F800389AB2B4F802389BB29A42B8
:10297C001AD39B1A9BB203F2FF739BB2994218D8DD
:10298C0000228A4219D20F4CB4F800389BB2865CF4
:10299C00E654B4F800389BB20133C3F30A03A4F82D
:1029AC000038013292B2ECE79B1A9BB2013B9BB20E
:1029BC00E4E785F31088002002E085F310880120FD
:1029CC0070BC7047B413002010B40446154AB2F81A
:1029DC0000389BB2B2F8020880B2834219D3181A9D
:1029EC0080B2E0B1884228BF08460022824216D24B
:1029FC000C49B1F802389BB2CB5CA354B1F8023845
:102A0C009BB20133C3F30A03A1F80238013292B22C
:102A1C00ECE7181A80B200F5006080B2E1E710BC58
:102A2C00704700BFB41300200F4AB2F800319BB2BC
:102A3C00B2F8022192B201335942DBB2C9B258BF8B
:102A4C004B4293420DD0084AB2F800319BB2D0549D
:102A5C00B2F800319BB20133DBB2A2F80031012095
:102A6C0070470020704700BFB01200200C4BB3F829
:102A7C00002192B2B3F802319BB29A420ED0084AAE
:102A8C00B2F802319BB2D35C0370B2F802319BB244
:102A9C000133DBB2A2F802310120704700207047ED
:102AAC00B012002000207047202803D0212814D019
:102ABC00002070470B784A7843EA02238A7843EA6D
:102ACC000243CA7843EA02630D4A13600B7913710F
:102ADC004B7953718B799371EAE7094A13680B7040
:102AEC00C3F307204870C3F3074088701B0ECB70EC
:102AFC0013790B7153794B7193798B71D8E700BFB4
:102B0C001000002070B505460E46FFF799FE01280F
:102B1C0001D1002407E0FFF793FE38B9F9E7285DEF
:102B2C00FFF782FF01343368A342F8D8044C2946DE
:102B3C00204605F0BEFA204605F0DDFA002070BDF7
:102B4C00B827002010B5074C00220749204605F095
:102B5C00A8FA0649204605F0ACFAFFF7E9FE00207A
:102B6C0010BD00BFB8270020942300209421002022
:102B7C0008B5FFF7F1FE08BD0A4BD3F8C4327BB1A0
:102B8C00D3F814320BB10120704710B5054C0A462E
:102B9C000146204605F085FA204605F090FA10BD56
:102BAC0002207047B827002070B592B0164BD3F8AE
:102BBC00C46200250DF14700FFF758FF044628B109
:102BCC009DF84700FFF756FE2546F3E745B12EB1B9
:102BDC00D6F8143213B90D4B1B7823B112B070BD5B
:102BEC00FFF7A0FEF3E7402101A8FFF7EDFE014639
:102BFC000028F3D0054C0123237001A8FFF7BCFF7C
:102C0C0000232370EAE700BFB8270020B81B002080
:102C1C0012230B8000487047B000002004230B8067
:102C2C0000487047C40000200023934217D230B4F0
:102C3C000BE0373401F8134000015C00013400252F
:102C4C000D550133DBB2934207D2040FB0F1204F84
:102C5C00EFD2303401F81340EEE730BC70477047C8
:102C6C0038B50A4B186804331C6804331B68C01849
:102C7C0000D138BD064D0822A91CFFF7D5FF042250
:102C8C0005F112012046FFF7CFFFF2E7E8F7FF1F2F
:102C9C00C800002008B51A230B80FFF7E1FF01489C
:102CAC0008BD00BFC800002008B50A4628B9054970
:102CBC00054805F008F8034808BD0249024805F02C
:102CCC0002F8F8E794250020049A000810B50A468B
:102CDC00034C2146034804F0F6FF204610BD00BF0C
:102CEC0094250020149A000808B50A4628B905490D
:102CFC00054804F0E8FF034808BD0249024804F007
:102D0C00E2FFF8E794250020209A000808B50A464F
:102D1C00A0B90D4B93F8AC3233B1012B09D00B4950
:102D2C000B4804F0D0FF0DE008490A4804F0CBFF33
:102D3C0008E00649084804F0C6FF03E003490448CC
:102D4C0004F0C1FF014808BDB827002094250020DD
:102D5C00449A00082C9A0008389A000838B50446A2
:102D6C00D0F8B852094B1B7863B9094BDB6803B137
:102D7C00984705F50973C4F8B832064BDB680BB1FC
:102D8C0020469847C4F8B852002038BDB91B002023
:102D9C00400300208402002038B50446D0F8B85215
:102DAC000D4B1B789BB90D4BC0F8BC320C4B1B69FF
:102DBC00984705F50973C4F8B8320023C4F8BC323F
:102DCC00084B1B691BB1064B1B6920469847C4F87E
:102DDC00B852002038BD00BFB91B002018000020DD
:102DEC00400300208402002038B50446D0F8B852C5
:102DFC008B1EDBB2012B03D9012907D0002002E086
:102E0C00094B5B699847C4F8B85238BD074B1B781F
:102E1C003BB905F50973C0F8B832054B5B699847A7
:102E2C00F1E70020EFE700BF40030020B91B0020B2
:102E3C008402002038B50446D0F8B852012903D0DA
:102E4C000020C4F8B85238BD014B9B699847F8E78D
:102E5C004003002038B50446D0F8B852084B187817
:102E6C0048B905F50973C4F8B832064BDB691BB1D8
:102E7C002046984700E00020C4F8B85238BD00BF87
:102E8C00B91B0020840200206C230380004870478B
:102E9C00440000206C23038000487047440000204D
:102EAC000A2303800020704738B50446D0F8B85286
:102EBC000879431EDBB2012B0CD9A8B90D4B1B783A
:102ECC007BB905F50973C4F8B8320B4B9B682046E7
:102EDC00984706E0094BC4F8BC32094B9B68204666
:102EEC009847C4F8B85238BD204604F0FDFB0220C8
:102EFC00F7E700BFB91B0020840200201800002057
:102F0C004003002070B5D0F8B852B5B104460E4657
:102F1C000B4B1B788BB90B4B5B68984705F509730A
:102F2C00C4F8B832084B5B683146204698472846AF
:102F3C0005F022FA0023C4F8B832002070BD00BF9F
:102F4C00B91B0020400300208402002070B5044609
:102F5C000E464FF40E7005F00BFA18B30546164BDF
:102F6C001B7823BB80F8353200F50972C4F8B822FF
:102F7C00C4F8C822C4F8BC32104B1B68314620463A
:102F8C009847C4F8B852C4F8C4520D4BC4F8BC32BC
:102F9C00012385F834320B4B1B6831462046984789
:102FAC0030B107E00023C4F8B832022002E0002060
:102FBC00C4F8B85270BD00BFB91B002084020020B9
:102FCC00180000204003002012230B80004870479B
:102FDC000C02002004230B800048704720020020C4
:102FEC000023934217D230B40BE0373401F813406E
:102FFC0000015C00013400250D550133DBB2934216
:10300C0007D2040FB0F1204FEFD2303401F8134047
:10301C00EEE730BC7047704738B50A4B186804337C
:10302C001C6804331B68C01800D138BD064D08223B
:10303C00A91CFFF7D5FF042205F112012046FFF76A
:10304C00CFFFF2E7E8F7FF1F2402002008B51A2390
:10305C000B80FFF7E1FF014808BD00BF24020020F0
:10306C002923038000487047E001002029230380B6
:10307C0000487047E0010020292303800048704776
:10308C00E0010020D0F8C8320020187370470020EF
:10309C00704700000A23038000487047C8010020D5
:1030AC0010B50A46034C2146034804F00CFE20469A
:1030BC0010BD00BFBC1B0020549A000808B50A467E
:1030CC0028B90549054804F0FEFD034808BD02492E
:1030DC00024804F0F8FDF8E7BC1B00205C9A0008DD
:1030EC0008B50A4628B90549054804F0ECFD034823
:1030FC0008BD0249024804F0E6FDF8E7BC1B0020BD
:10310C006C9A000810B50A46034C2146034804F09B
:10311C00DAFD204610BD00BFBC1B0020809A0008C1
:10312C0070B582B0D0F8C8520023ADF806300C78D8
:10313C0014F0600425D0202C72D14B78023B092B63
:10314C001BD8DFE803F014091A1A1A1A1A1A0F05F9
:10315C008B782B60002466E00122294604F0CFFD19
:10316C00002460E04B881B0A6B6000245BE00122AA
:10317C00291D04F0C4FD002455E004F0B5FA022426
:10318C0051E04E780B2E47D8DFE806F0064646464F
:10319C004646154646462D3B90F89C32032B03D0F1
:1031AC0004F0A2FA02243EE002220DF1060104F022
:1031BC00A6FD344637E04B881B0A222B09D0212B65
:1031CC000DD1CA88092A28BF0922184904F097FD95
:1031DC0029E0CA88562A28BF56221549F6E704F07A
:1031EC0083FA02241FE090F89C32032B03D004F0E6
:1031FC007BFA022417E0012205F1080104F07FFD9F
:10320C0011E090F89C32032B02D18B78AB600AE072
:10321C0004F06AFA022406E004F066FA022402E0E2
:10322C0004F062FA0224204602B070BDD4010020E2
:10323C003801002070B504460E46812105F04BF88C
:10324C000025E562044B5B68314620469847C4F87C
:10325C00B852284670BD00BF9001002038B5044616
:10326C004FF40E7005F084F8A8B100F50973C4F89A
:10327C00B832C4F8C8320025C4F8BC52402303222B
:10328C008121204605F01CF80123A361D4F8C83233
:10329C001D73284638BD0023C4F8B8320220F9E764
:1032AC0010B5D0F8C84290F89C32032B01D0002006
:1032BC0010BD237B002BFAD10123237313460A463E
:1032CC00812105F03EF8F2E7FFF7A2FA0B480C4912
:1032DC000C4A002302E0D458C4500433C4188C4266
:1032EC00F9D3094A094C002301E013600432A242CD
:1032FC00FBD305F049F8FDF7EFFC70470000002008
:10330C00B4040020D89A0008B80400206C2D0020CA
:10331C00FEE7000010B504460E4B18784FF47A7394
:10332C00B3FBF0F30C4A1068B0FBF3F000F008FBB1
:10333C0068B90F2C01D901200AE0002221464FF078
:10334C00FF3000F0BBFA054B1C60002000E00120B0
:10335C0010BD00BF3E0200200C00002040020020E7
:10336C0008B5074A136843F010031360032000F0FC
:10337C0093FA0F20FFF7CEFFFFF702F9002008BDEC
:10338C0000200240034A1168034B1B780B44136066
:10339C00704700BF942700203E020020014B1868A4
:1033AC00704700BF9427002038B50446FFF7F6FF9E
:1033BC000546B4F1FF3F02D0044B1B781C44FFF7C9
:1033CC00EDFF401BA042FAD338BD00BF3E020020E7
:1033DC0008B5436A9A6A12F0500F1ED19A6A42F4E9
:1033EC0000729A621A68926802F46022B2F5602F39
:1033FC0003D01846FDF722FB08BD1A7B002AF8D132
:10340C009A6A22F480729A629A6A12F4805FF0D1FE
:10341C009A6A42F001029A62EBE71B6A1B6B9847AF
:10342C00EAE708B5406AFDF7E3FA08BD704708B54E
:10343C00406A836A43F040038362C36A43F0040327
:10344C00C362FFF7F3FF08BD30B482B000220192D3
:10345C0090F82420012A00F08B800346012280F88A
:10346C0024204A68062A29D80568686B02EB820278
:10347C00053A1F24944020EA04000C6804FA02F276
:10348C0002436A630A68092A38D91D68E86802EBA6
:10349C0042021E3A0724944020EA04008C6804FA85
:1034AC0002F20243EA600A68103A012A34D9002079
:1034BC00002283F8242002B030BC70470C2A0ED8AE
:1034CC000568286B02EB8202233A1F24944020EA01
:1034DC0004000C6804FA02F202432A63D2E705687E
:1034EC00E86A02EB8202413A1F24944020EA04006D
:1034FC000C6804FA02F20243EA62C3E71D68286909
:10350C0002EB42020724944020EA04008C6804FA7F
:10351C0002F202432A61C6E71A681648824205D0B5
:10352C009A6A42F020029A620120C1E7906810F476
:10353C00000F1BD1906840F4000090600A68102ABC
:10354C0001D00020B4E70C4A12680C49A1FB02120E
:10355C00920C02EB82025200019202E0019A013AB3
:10356C000192019A002AF9D10020A1E700209FE7DF
:10357C000220A0E7002401400C00002083DE1B4346
:10358C0030B583B00023019303689A6812F0010FE1
:10359C0032D104469A6842F001029A60184B1B68BB
:1035AC00184AA2FB03239B0C0193019B1BB1019BAB
:1035BC00013B0193F9E7FFF7F1FE054623689B6891
:1035CC0013F0010F16D1FFF7E9FE431B022BF5D9BF
:1035DC0023689B6813F0010FF0D1A36A43F010032A
:1035EC00A362E36A43F00103E362002384F824300E
:1035FC00012002E0002000E0002003B030BD00BF3D
:10360C000C00002083DE1B43F8B504460D4616461D
:10361C00036844498B4259D0434A934256D094F89C
:10362C002430012B7CD0012384F824302046FFF772
:10363C00A7FF074600286ED1A36A23F4706323F01A
:10364C00010343F48073A3622268374B9A4244D03F
:10365C00A36A23F48013A362536813F4806F05D01C
:10366C00A36A23F4405343F48053A362A36A13F474
:10367C00805F48D0E36A23F00603E362002384F8FA
:10368C002430236A294A9A62236A294ADA62236A15
:10369C00284A1A6323686FF002021A602268936842
:1036AC0043F480739360216833462A464C31206A78
:1036BC0000F0A8F923689A6802F46022B2F5602F32
:1036CC0024D09A6842F480129A6027E0154B5B680C
:1036DC0013F4702FA3D0012720E0A3F580635B685F
:1036EC0013F4702FB4D0A36A43F48013A3620D4B70
:1036FC005B6813F4806FB9D0A36A23F4405343F48E
:10370C008053A362B2E70023E362B7E79A6842F4FE
:10371C00A0029A6002E0002384F824303846F8BDF9
:10372C000227FBE70024014000280140DD3300089C
:10373C002F3400083B34000838B503689A6812F03F
:10374C00010F01D1002038BD04469A6822F0010215
:10375C009A60FFF723FE054623689B6813F0010F60
:10376C0013D0FFF71BFE431B022BF5D923689B6874
:10377C0013F0010FF0D0A36A43F01003A362E36AC5
:10378C0043F00103E3620120DDE70020DBE70000EA
:10379C0000287BD070B50446836A002B4DD02046A0
:1037AC00FFF7CAFFA36A13F0100369D1002867D191
:1037BC00A26A22F4885222F0020242F00202A262B1
:1037CC006268E1690A43217B42EA4102A568B5F5CA
:1037DC00807F02D0012D36D01D46267D012E35D09E
:1037EC002668716821F46941294371602568AE68C7
:1037FC00274931401143A960A168B1F5807F01D000
:10380C00012902D12369013B1B052568E96A21F4D2
:10381C0070010B43EB62236899681E4B0B409A4274
:10382C0025D0A36A23F0120343F01003A362E36ACA
:10383C0043F00103E362012027E0C36280F82430E7
:10384C00FEF7C0FEABE74FF48075C6E731B9A1694E
:10385C00013945EA413141F40065C1E7A16A41F003
:10386C002001A162E16A41F00101E162B8E70023A5
:10387C00E362A36A23F0030343F00103A36204E0B1
:10388C00A36A43F01003A362012070BD01207047AE
:10389C00FDF7E1FFFE0E1FFF074AD36823F4E06338
:1038AC001B041B0C000200F4E060034343F0BF63F5
:1038BC0043F40033D360704700ED00E030B4174B95
:1038CC00DB68C3F30223C3F10704042C28BF0424D0
:1038DC001D1D062D18D9033B4FF0FF3505FA04F4D6
:1038EC0021EA0401994005FA03F322EA0303194380
:1038FC0000280BDB0901C9B200F1604000F5614002
:10390C0080F8001330BC70470023E5E700F00F008F
:10391C000901C9B2024B1954F4E700BF00ED00E0F5
:10392C0014ED00E0002807DB00F01F024009012322
:10393C009340024A42F82030704700BF00E100E09B
:10394C000138B0F1807F0AD2064B5860064AF0214C
:10395C0082F823100020986007221A60704701201B
:10396C00704700BF10E000E000ED00E070B4066CA2
:10397C00C56B0124B4406C60046863604368102B11
:10398C0005D0036899600368DA6070BC70470368FF
:10399C009A600368D960F8E760B310B40246016816
:1039AC00154B0B441548A0FB03031B099B00136428
:1039BC00134BD363022382F82130086820F47F5024
:1039CC0020F03000536894682343D468234314696F
:1039DC0023435469234394692343D4692343034306
:1039EC000B6000209063012382F8213082F82000C4
:1039FC0010BC704701207047F8FFFDBFCDCCCCCC7C
:103A0C000000024038B5044690F82000012832D05E
:103A1C00012084F8200094F82100C0B2012804D0C1
:103A2C00002384F82030022038BD022084F82100C5
:103A3C000020A0632568286820F00100286020463B
:103A4C00FFF794FFE36A5BB12268136843F00E033F
:103A5C0013602268136843F0010313600020E3E74E
:103A6C002268136823F0040313602268136843F080
:103A7C000A031360EDE70220D6E790F82130DBB2A1
:103A8C00022B06D004238363002380F8203001200E
:103A9C0070470268136823F00E0313600268136802
:103AAC0023F001031360036CC16B012202FA03F3D0
:103ABC004B6080F82120002380F820301846704796
:103ACC0008B590F82130DBB2022B03D004238363BA
:103ADC00012008BD0268136823F00E03136002680E
:103AEC00136823F0010313600368194A934214D03E
:103AFC00143293421FD0143293421ED0143293428C
:103B0C001ED0143293421ED01432934202D04FF086
:103B1C00807203E04FF4801200E001220D4B5A60DA
:103B2C00012380F82130002380F82030436B6BB1E7
:103B3C0098470020CDE71022F0E74FF48072EDE7B4
:103B4C004FF48052EAE74FF48032E7E70020C0E7F9
:103B5C00080002400000024038B5C36B1A680468C4
:103B6C002568016C04238B40134235D015F0040FEB
:103B7C0032D0236813F0200F03D1236823F0040301
:103B8C0023600368434A934214D01432934218D0F2
:103B9C001432934217D01432934217D014329342FA
:103BAC0017D01432934202D04FF0806203E04FF4EE
:103BBC00800200E00422384B5A60C36A03B1984774
:103BCC0038BD4022F7E74FF48062F4E74FF48042AF
:103BDC00F1E74FF48022EEE702238B4013423CD0F6
:103BEC0015F0020F39D0236813F0200F06D123688B
:103BFC0023F00A032360012380F821300368254A4F
:103C0C00934214D0143293421CD0143293421BD0E2
:103C1C00143293421BD0143293421BD01432934271
:103C2C0002D04FF0007203E04FF4001200E00222C9
:103C3C00194B5A60002380F82030836A002BBFD0C8
:103C4C009847BDE72022F3E74FF40072F0E74FF4FA
:103C5C000052EDE74FF40032EAE7082303FA01F1D2
:103C6C001142ADD015F0080FAAD0236823F00E0333
:103C7C002360026CC16B012303FA02F24A60836376
:103C8C0080F82130002380F82030036B002B97D074
:103C9C00984795E70800024000000240044B0022C0
:103CAC00DA61044A136943F0010313610180704720
:103CBC009827002000200240194BDB6813F01003FA
:103CCC0005D0184AD36943F00203D3611023144A78
:103CDC00D26812F0040F06D01249CA6942F00102F0
:103CEC00CA6143F004030E4AD26912F0010F09D0E5
:103CFC000C49CA6942F00402CA610949CA6922F036
:103D0C000102CA6140F20112934202D0044AD3600C
:103D1C007047034AD36923F00103D361704700BF96
:103D2C0000200240982700200A4B1B6913F0800FDB
:103D3C000BD0084B084A5A6002F188325A601B6952
:103D4C0013F0800F03D10020704700207047012032
:103D5C00704700BF0020024023016745034A1369E6
:103D6C0043F0800313610020704700BF0020024025
:103D7C0038B50446FFF712FB0546164BDB6813F00B
:103D8C00010F0AD0B4F1FF3FF7D024B1FFF706FBC7
:103D9C00401BA042F1D903201BE00E4BDB6813F053
:103DAC00200F02D00B4B2022DA600A4BDB6813F099
:103DBC00100F0BD1074BDB6913F0010F06D1054B2C
:103DCC00DB6813F0040F01D1002002E0FFF774FF51
:103DDC00012038BD002002402DE9F8431E46234B3C
:103DEC001B7E012B40D004460F4690461F4B0122F0
:103DFC001A764CF25030FFF7BBFF034670BB012C18
:103E0C0029D0022C24D04FF004091C464C4525D255
:103E1C002101C1F12002A1F1200328FA01F106FAD7
:103E2C0002F2114326FA03F3194389B207EB44005B
:103E3C00FFF734FF4CF25030FFF79AFF0C4B1D6923
:103E4C0025F001051D61034640B90134E4B2DDE7FC
:103E5C004FF00209D9E74FF00109D6E7034A0021D8
:103E6C0011761846BDE8F8830223FAE7982700205C
:103E7C0000200240064B0022DA61064B1A6942F020
:103E8C0004021A611A6942F040021A61704700BFBD
:103E9C009827002000200240064B0022DA61064BD6
:103EAC001A6942F002021A6158611A6942F0400222
:103EBC001A6170479827002000200240264B1B7E79
:103ECC00012B46D070B505460E46234B01221A76BF
:103EDC000368022B20D04CF25030FFF749FF90BB07
:103EEC004FF0FF333360AC680121EA68AB6803EB39
:103EFC008223A34228D92046FFF7CEFF4CF2503044
:103F0C00FFF736FF154A136923F0020313610146CC
:103F1C00B8B904F58064E8E74CF25030FFF728FF9D
:103F2C0008B1012110E00120FFF7A4FF4CF2503042
:103F3C00FFF71EFF0146094A136923F004031361BE
:103F4C0002E0346000E00121034B00221A7608469F
:103F5C0070BD0221084670479827002000200240BF
:103F6C00F0B482B000252C46A3E07F4FBB4210D0AA
:103F7C0007D97E4FBB420CD007F58037BB4208D027
:103F8C0013E0A7F58017BB4203D007F57027BB429F
:103F9C0007D18B68002B58D0012B51D042610825DA
:103FAC0003E0A7F58017BB42F3D0FF2E4FD8844611
:103FBC00FF2E4FD8A200DCF800300F27974023EAE1
:103FCC00070305FA02F21343CCF800304B6813F0E8
:103FDC00805F6DD0664B9A6942F001029A619B69D1
:103FEC0003F001030193019BA208971C614B53F84A
:103FFC00273004F00307BF004FF00F0C0CFA07FC3E
:10400C0023EA0C0C5C4B98422AD003F5806398424F
:10401C0000F08A8003F58063984200F0878003F5F6
:10402C00806398421AD004231BE0CD68BDE7CD68AD
:10403C000435BAE7CD680835B7E7CD680C35B4E779
:10404C0002610825B1E70025AFE70425ADE700F1D3
:10405C00040CADE7A4F108029200ACE7032300E0E6
:10406C000023BB4043EA0C030232424F47F8223094
:10407C004B6813F4801F5BD0404A936833439360C2
:10408C004B6813F4001F59D03C4AD3683343D360B8
:10409C004B6813F4003F57D0384A5368334353608E
:1040AC004B6813F4803F55D0344A13681E43166096
:1040BC0001340B6833FA04F252D00122A24003EA15
:1040CC00020632EA0303F3D14B68122B3FF64DAFD5
:1040DC00122B3FF66AAF01A757F823F09F3F000859
:1040EC00374000084140000853400008B73F000823
:1040FC00B73F0008B73F0008B73F0008B73F0008BC
:10410C00B73F0008B73F0008B73F0008B73F0008AB
:10411C00B73F0008B73F0008B73F0008B73F00089B
:10412C003B4000084740000801239AE7022398E728
:10413C00124A936823EA06039360A1E70F4AD368F7
:10414C0023EA0603D360A3E70C4A536823EA060369
:10415C005360A5E7094A136823EA06061660A7E729
:10416C0002B0F0BC704700BF0000221000003110FC
:10417C000010024000000140000801400004014012
:10418C008368194201D001207047002070470AB1A2
:10419C000161704709040161704770B512F4804FDA
:1041AC0043D00468B4F850309BB20D7803EBC503D0
:1041BC00023304EB4303B3F80044C4F309048B69E2
:1041CC00A34228D31B1B8B618B697BB9066836F81D
:1041DC0025309BB223F4804323F0700383F4005307
:1041EC0043F4004343F0800326F8253012F0400FCF
:1041FC000ED002680D7832F825309BB223F4E043E0
:10420C0023F0700343F4004343F0C00322F825303D
:10421C0024B9204670BD00238B61D5E723460A895B
:10422C004969006802F0EAFFF3E70468B4F850301B
:10423C009BB20D7803EBC503063304EB4303B3F8D1
:10424C000044C4F309048B69A3422ED31B1B8B615E
:10425C008B697BB9066836F825309BB223F4804312
:10426C0023F0700383F4005343F4004343F08003C2
:10427C0026F8253012F0400F0ED102680D7832F876
:10428C0025309BB223F4E04323F0700343F4004346
:10429C0043F0C00322F82530002CBAD023464A89BB
:1042AC004969006802F0AAFFB3E700238B61CFE7EE
:1042BC0038B500286DD0044690F89132A3B1032391
:1042CC0084F8913200236371206802F047F823468A
:1042DC0053F8040B0ECB02F031F850B1022384F8E2
:1042EC0091320125284638BD80F8903203F028FF22
:1042FC00E5E70021206802F03BF80346A8B9024626
:10430C00207990422DD902EB820104EBC1010120EE
:10431C0048740A740020C87408624862013202EBC7
:10432C008201C9006050D2B2EAE7022384F89132CC
:10433C000125D7E703EB830204EBC202002182F8CC
:10434C00511182F8503182F85311C2F86011C2F841
:10435C00641103EB830204EBC202C2F8681101334F
:10436C00DBB29842E6D8234653F8040B0ECB02F08E
:10437C0001F8054620B1022384F891320125B1E7FA
:10438C0000236373012384F89132206802F034FB1C
:10439C00A8E70125A6E738B590F89032012B11D08B
:1043AC000446012580F89052006801F0CEFF2946A2
:1043BC00204603F0E2FF206802F01CFB002084F88A
:1043CC00900238BD0220FCE770B505460C46164637
:1043DC0012F0400F00F00E810268B2F850309BB220
:1043EC00097803EBC103023302EB4303B3F8002457
:1043FC00C2F30902A36993424ED99B1AA361A36924
:10440C00002B66D16378002B49D12B68B3F8502070
:10441C0092B2134403EB0111B1F80434C3F3090352
:10442C00A1F80434B1F804346FEA43436FEA534300
:10443C009BB2A1F804342B686278002A3CD1B3F803
:10444C00502092B21344227803EB0213B3F80C24DD
:10445C00C2F30902A3F80C24B3F80C246FEA42420D
:10446C006FEA524292B2A3F80C242178284603F04A
:10447C009BFE16F4804F41D02A68217832F8213007
:10448C009BB223F4E04323F0700343F4404343F026
:10449C00800322F8213031E00023A361AFE7012B28
:1044AC00C9D12B68B3F8502092B2134403EB01111D
:1044BC000023A1F80434BEE7012AD6D1B3F850206A
:1044CC0092B21344227803EB02130022A3F80C24BB
:1044DC00CBE716F4804F0DD0286830F821309BB212
:1044EC0023F4E04323F0700343F4404343F0800390
:1044FC0020F8213094F82430012B12D02A6821782E
:10450C0032F821309BB223F4E04323F0400383F0D4
:10451C00300343F4004343F0800322F821300020A1
:10452C0070BD636913446361E3691344E361216AF9
:10453C002369994224D3C91A21626278002A44D192
:10454C002A68B2F8501089B20A44217802EB0112A1
:10455C00B2F80414C1F30901A2F804143E2B1BD9C0
:10456C00580913F01F0F00D10138B2F8041489B2A6
:10457C00800280B2014341F40041A2F8041426E009
:10458C0021B9002384F824301346D6E7002384F89D
:10459C00243023620B46D0E74BB9B2F804146FEA0F
:1045AC0041416FEA514189B2A2F804140FE0590855
:1045BC0013F0010F00D00131B2F8040480B289026B
:1045CC0089B20143A2F8041401E0012A06D09BB27F
:1045DC0022896169286802F017FA8FE72A68B2F815
:1045EC00501089B20A44217802EB011299B2A2F858
:1045FC000414ECE70268B2F850309BB2097803EB74
:10460C00C103063302EB4303B3F80024C2F30902DF
:10461C00A36993424FD39B1AA361A369002B67D163
:10462C006378002B4AD12B68B3F8502092B2134414
:10463C0003EB0111B1F80434C3F30903A1F80434FA
:10464C00B1F804346FEA43436FEA53439BB2A1F8C9
:10465C0004342B686278002A3DD1B3F8502092B212
:10466C001344227803EB0213B3F80C24C2F30902AF
:10467C00A3F80C24B3F80C246FEA42426FEA5242BE
:10468C0092B2A3F80C242178284603F08DFD16F481
:10469C00804F7FF433AF2A68217832F821309BB2F7
:1046AC0023F4E04323F0700343F4404343F08003CE
:1046BC0022F8213022E70023A361AEE7012BC8D1F9
:1046CC002B68B3F8502092B2134403EB0111002372
:1046DC00A1F80434BDE7012AD5D1B3F8502092B229
:1046EC001344227803EB02130022A3F80C24CAE72C
:1046FC0016F4804F0DD1286830F821309BB223F48A
:10470C00E04323F0700343F4404343F0800320F86C
:10471C00213094F82430012B7FF4F0AE63691344FC
:10472C006361E3691344E361216A2369994224D3E9
:10473C00C91A21622A686178002943D1B2F8501055
:10474C0089B20A44217802EB0112B2F80C14C1F3BD
:10475C000901A2F80C143E2B1BD9580913F01F0F9A
:10476C0000D10138B2F80C1489B2800280B2014336
:10477C0041F40041A2F80C1426E021B9002384F87E
:10478C0024301346D6E70023236284F824300B46EA
:10479C00D0E74BB9B2F80C146FEA41416FEA5141C2
:1047AC0089B2A2F80C140FE0590813F0010F00D0D5
:1047BC000131B2F80C0480B2890289B20143A2F82B
:1047CC000C1401E0012906D09BB26289616928684A
:1047DC0002F01AF992E6B2F8501089B20A44217824
:1047EC0002EB011299B2A2F80C14EDE72DE9F0419D
:1047FC0005462868B0F8443013F4004F00F09D8251
:10480C00B0F84440A3B214F00F0440F0DE8013F073
:10481C00100F6BD003889AB213F4006F40F099809C
:10482C0012F4004FE5D0038823F070031B051B0D19
:10483C0043F0800303802868B0F850309BB295F8A1
:10484C00502103EBC203063300EB4303B3F80034EF
:10485C00C3F30903C5F86C318BB1D5F8641171B190
:10486C00B5F8562102F0CAFCD5F86C21D5F86431A4
:10487C001344C5F864310021284603F089FC2A68EA
:10488C00138899B213F4006FB3D101F44051B1F510
:10489C00405FAED0B2F850309BB21A44B2F80C3430
:1048AC00C3F30903A2F80C34D5F860313E2B73D94D
:1048BC00590913F01F0F00D10139B2F80C349BB217
:1048CC00890289B20B4343F40043A2F80C342A68E2
:1048DC0013889BB223F4804323F0700383F440537A
:1048EC0043F4004343F08003138082E703889BB2B8
:1048FC0023F4E14323F070036FEA43436FEA53431D
:10490C009BB203802A68B2F850309BB2297C03EB2F
:10491C00C103023302EB4303B3F80034C3F30903BE
:10492C00EB626A6A13446B620021284603F03CFC7C
:10493C006B7B002B3FF45DAFAB6A002B7FF459AF60
:10494C006B7B2A6843F08003A2F84C3000236B7316
:10495C004FE7B0F850309BB295F8502103EBC203EF
:10496C00063300EB4303B3F80034C3F30903C5F873
:10497C006C31B5F8562105F5267102F03FFC2A681A
:10498C00138823F070031B051B0D43F08003138069
:10499C00284603F0F5FB2CE74BB9B2F80C346FEA60
:1049AC0043436FEA53439BB2A2F80C348FE7590888
:1049BC0013F0010F00D00131B2F80C3498B28B0215
:1049CC009BB20343A2F80C3481E730F824309EB23A
:1049DC0013F4004F54D116F0800F3FF40AAF04EBE0
:1049EC008401C900103129442A6832F824309BB262
:1049FC0023F4E14323F070036FEA43436FEA53431C
:104A0C009BB222F8243004EB840305EBC303DB7C5C
:104A1C00012B00F0F68016F4807F40F08981286825
:104A2C00B0F850309BB204EB840205EBC202127C4E
:104A3C0003EBC203023300EB4303B3F80034C3F3BC
:104A4C000903621C02EB820255F832209A4240F2B2
:104A5C005681661C06EB8606D21A45F83620621C77
:104A6C0002EB820255F83220002A40F04F8104EB11
:104A7C00840405EBC404217C284603F095FBB8E6BE
:104A8C0030F8243023F070031B051B0D43F080031A
:104A9C0020F8243004EB8401C90001F5A87105EB62
:104AAC00010804EB840305EBC30393F85C31002B82
:104ABC0042D12868B0F850309BB204EB840205EB6D
:104ACC00C20292F8502103EBC203063300EB4303FE
:104ADC00B3F80074C7F3090717BB04EB840305EBA9
:104AEC00C303D3F86C213A44C3F86C21D3F8642186
:104AFC003A44C3F86421D3F868313BB104EB840326
:104B0C0005EBC303D3F860319F4275D204EB8403E9
:104B1C0005EBC30393F85011284603F039FB5AE711
:104B2C0004EB840105EBC1013B46B1F85621D1F8E9
:104B3C00641102F063FBD0E704EB840305EBC303C1
:104B4C0093F85331022B35D0296804EB840205EB22
:104B5C00C20292F8500131F820309BB223F4E043AA
:104B6C0023F0700343F4004343F0C00321F82030DA
:104B7C00286892F8502130F8223013F4804F20D05E
:104B8C00B0F850309BB203EBC203023300EB43038B
:104B9C00B3F80074C7F30907002F9ED004EB84010F
:104BAC0005EBC1013B46B1F85821D1F8641102F074
:104BBC0025FB92E7324641462846FFF7EEFA0746B8
:104BCC008BE7B0F850309BB203EBC203063300EB1B
:104BDC004303B3F80074C7F30907002F3FF47DAF0C
:104BEC0004EB840105EBC1013B46B1F85A21D1F825
:104BFC00641102F003FB70E74146286801F017FFCF
:104C0C00E9E6631C03EB8303DB000022EA5004EBB0
:104C1C00840305EBC3031B7F1BB316F0400F3BD083
:104C2C0004EB840305EBC3035B7C1BBB2B68B3F861
:104C3C00502092B2134404EB840205EBC202127CA6
:104C4C0003EB0213B3F80424C2F30902A3F80424FF
:104C5C00B3F804246FEA42426FEA524292B2A3F8CC
:104C6C00042404EB840405EBC404217C284603F0E3
:104C7C009BFABEE5012BF4D12B68B3F8502092B20D
:104C8C00134404EB840205EBC202127C03EB021307
:104C9C000022A3F80424E4E72B6804EB840205EB60
:104CAC00C202527CD2B9B3F8502092B2134404EB36
:104CBC00840205EBC202127C03EB0213B3F80C2442
:104CCC00C2F30902A3F80C24B3F80C246FEA424295
:104CDC006FEA524292B2A3F80C24C2E7012AC0D167
:104CEC00B3F8502092B2134404EB840205EBC202D9
:104CFC00127C03EB02130022A3F80C24B1E7621C14
:104D0C0002EB8202D2000026AE50A8E604EB84022D
:104D1C0005EBC202566A1E445662013404EB84024F
:104D2C0005EBC20254682344536001F080FE60E539
:104D3C0032462846FFF748FB5BE50020BDE8F081D2
:104D4C0090F89032012B0CD010B50446012380F85A
:104D5C0090324173006801F047FE002084F8900205
:104D6C0010BD0220704710B584B00446006801F0F5
:104D7C0045FE10F4004F20D110F4806F21D110F4B7
:104D8C00804F2FD110F4005F37D110F4805F3ED1EB
:104D9C0010F4006F40F0878010F4007F40F0AE807C
:104DAC0010F4807F27D02268B2F844309BB223F4F1
:104DBC0080739BB2A2F844301DE02046FFF716FD2D
:104DCC0019E02268B2F844309BB223F480639BB2A2
:104DDC00A2F84430204603F0F8F900212046FFF7F2
:104DEC00AFFF08E02268B2F844309BB223F4804352
:104DFC009BB2A2F8443004B010BD2268B2F8443023
:104E0C009BB223F400539BB2A2F84430F3E7226820
:104E1C00B2F840309BB223F004039BB2A2F84030AE
:104E2C002268B2F840309BB223F008039BB2A2F880
:104E3C004030204603F0ECF92268B2F844309BB2C3
:104E4C0023F480539BB2A2F84430D4E7226832F8A2
:104E5C00231004AA02EB430222F8101C0133DBB22C
:104E6C00072BF3D92268B2F840309BB243F0010310
:104E7C00A2F840302268B2F840309BB223F0010314
:104E8C009BB2A2F840302368B3F8442012F4806F30
:104E9C00F9D0B3F8442092B222F4806292B2A3F813
:104EAC00442000230BE00023DAE7226804A901EB7D
:104EBC00430131F8101C22F823100133DBB2072B0D
:104ECC00F3D92268B2F840309BB243F00803A2F841
:104EDC0040302268B2F844309BB223F400639BB29A
:104EEC00A2F844302268B2F840309BB243F004037D
:104EFC00A2F84030204603F07BF97CE72268B2F838
:104F0C0044309BB223F400739BB2A2F84430204689
:104F1C0003F055F96FE770B50446084611F0800FA1
:104F2C0023D101F0070505EB8506F60006F5A876FA
:104F3C00A11905EB850504EBC505002685F8516123
:104F4C0000F0070008700A61CB70022B1BD094F89C
:104F5C009032012B1AD0012384F89032206801F092
:104F6C001CFA002084F8900270BD01F0070505EBD7
:104F7C008501C9001031214405EB850504EBC505FD
:104F8C0001266E74DCE700230B71E0E70220EBE7EF
:104F9C0010B504460A4611F0800F1FD101F007002E
:104FAC0000EB8003DB0003F5A873E11800EB800035
:104FBC0004EBC000002380F8513102F007020A70A4
:104FCC0094F89032012B17D0012384F8903220688A
:104FDC0001F0AAFB002084F8900210BD01F007003C
:104FEC0000EB8003DB001033E11800EB800004EBD6
:104FFC00C00001234374E0E70220EEE770B501F036
:10500C00070404EB8401C90001F5A87104EB8405C5
:10501C0000EBC505C5F86421C5F868310026C5F854
:10502C006C6185F8516185F850410144006801F0CC
:10503C00FEFC304670BD01F0070101EB810100EB75
:10504C00C101D1F86C017047F8B501F0070404EB0D
:10505C008401C900103104EB840500EBC5056A62BC
:10506C00621C02EB820640F83630012785F834705A
:10507C002B6300EBC602002656606F742C7401443F
:10508C00006801F0D4FC3046F8BD38B501F00705D6
:10509C000279AA4235D304460B4611F0800F1ED17B
:1050AC0001EB8101C90001F5A871014403EB8303F5
:1050BC0000EBC303002283F8512101238B700D7088
:1050CC0094F89032012B1ED0012384F89032206882
:1050DC0001F014FC7DB1002084F8900238BD05EB82
:1050EC008501C9001031014405EB850300EBC303B6
:1050FC0001225A74E1E704F52671206801F082FC64
:10510C00E9E70120EAE70220E8E70B46017903F022
:10511C000F02914234D310B5044613F0800F21D105
:10512C0003F0070202EB8201C90001F5A8710144EA
:10513C0002EB820200EBC202002082F85101002235
:10514C008A7003F007030B7094F89032012B19D07E
:10515C00012384F89032206801F0F5FB002084F8DC
:10516C00900210BD03F0070202EB8201C90010315E
:10517C00014402EB820200EBC20201205074DEE714
:10518C00012070470220ECE711F0800F0BD001F0EA
:10519C00070101EB8101C9001031014452B90A73B6
:1051AC00CB800020704701EB8101C90001F5A8718B
:1051BC000144F3E701220A730B811B0C4B81F0E7CE
:1051CC0082B0084B1B68084AA2FB03235B0A00FB56
:1051DC0003F3019300BF019B5A1E0192002BF9D1DE
:1051EC0002B070470C000020D34D6210002800F074
:1051FC00F18170B582B00446036813F0010F2CD016
:10520C00AA4B5B6803F00C03042B1DD0A74B5B6807
:10521C0003F00C03082B12D06368B3F5803F41D028
:10522C00002B55D103F1804303F504331A6822F4A3
:10523C0080321A601A6822F480221A6037E09B4B85
:10524C005B6813F4803FE7D0984B1B6813F4003F66
:10525C0003D06368002B00F0BF81236813F0020FAA
:10526C0075D0924B5B6813F00C0F5FD08F4B5B6863
:10527C0003F00C03082B54D02369002B00F0898019
:10528C008B4B01221A60FEF789F80546874B1B6889
:10529C0013F0020F74D1FEF781F8401B0228F5D9E8
:1052AC0003209EE1814A136843F4803313606368E2
:1052BC0043B3FEF773F805467C4B1B6813F4003FB1
:1052CC00CBD1FEF76BF8401B6428F5D9032088E19D
:1052DC00B3F5A02F09D0754B1A6822F480321A60EE
:1052EC001A6822F480221A60E1E703F18043A3F5E7
:1052FC003C331A6842F480221A601A6842F48032F5
:10530C001A60D4E7FEF74AF80546684B1B6813F49D
:10531C00003FA2D0FEF742F8401B6428F5D90320C9
:10532C005FE1624B5B6813F4803FA5D15F4B1B6858
:10533C0013F0020F03D02369012B40F04F815B4A1D
:10534C00136823F0F803616943EAC103136023680F
:10535C0013F0080F32D0A369002B45D0554B012216
:10536C001A60FEF71BF80546504B5B6A13F0020FF0
:10537C0021D1FEF713F8401B0228F5D9032030E1A8
:10538C004A4A136823F0F803616943EAC1031360C6
:10539C00DDE7474B00221A60FEF700F80546434B49
:1053AC001B6813F0020FD2D0FDF7F8FF401B022848
:1053BC00F5D9032015E10120FFF702FF236813F054
:1053CC00040F00F09780394BDB6913F0805F1DD11F
:1053DC00364BDA6942F08052DA61DB6903F08053B4
:1053EC000193019B012512E0324B00221A60FDF75C
:1053FC00D5FF05462D4B5B6A13F0020FDED0FDF78F
:10540C00CDFF401B0228F5D90320EAE000252A4BEA
:10541C001B6813F4807F11D0E368012B22D0002B82
:10542C0038D103F1804303F504331A6A22F00102E8
:10543C001A621A6A22F004021A6218E01E4A1368F1
:10544C0043F480731360FDF7A9FF06461A4B1B68E3
:10545C0013F4807FE0D1FDF7A1FF801B6428F5D900
:10546C000320BEE0114A136A43F001031362E368A0
:10547C0073B3FDF793FF06460C4B1B6A13F0020F38
:10548C0037D1FDF78BFF801B41F288339842F3D95B
:10549C000320A6E0052B11D0044B1A6A22F001025E
:1054AC001A621A6A22F004021A62E0E70010024043
:1054BC000000424280044242007000404D4B1A6A88
:1054CC0042F004021A621A6A42F001021A62CEE732
:1054DC00FDF764FF0646474B1B6A13F0020F08D01A
:1054EC00FDF75CFF801B41F288339842F3D903200F
:1054FC0077E0E5B9E369002B72D03E4A526802F0BE
:10550C000C02082A56D0022B17D03B4B00221A60F3
:10551C00FDF744FF0446374B1B6813F0007F47D060
:10552C00FDF73CFF001B0228F5D9032059E0314A56
:10553C00D36923F08053D361DCE72F4B00221A6030
:10554C00FDF72CFF05462B4B1B6813F0007F06D094
:10555C00FDF724FF401B0228F5D9032041E0236A04
:10556C00B3F5803F1AD023494B6823F47413226A95
:10557C00606A024313434B601F4B01221A60FDF714
:10558C000DFF04461B4B1B6813F0007F0ED1FDF77B
:10559C0005FF001B0228F5D9032022E0154A5368A9
:1055AC0023F40033A1680B435360DCE7002018E0C0
:1055BC00002016E0012B16D00E4B5B6803F48031F3
:1055CC00226A914211D103F47013626A93420ED194
:1055DC00002006E001207047012002E0012000E0DD
:1055EC00002002B070BD0120FBE70120F9E701208B
:1055FC00F7E700BF0010024060004242114B5A68AE
:10560C0002F00C03042B18D0082B18D1C2F38343DF
:10561C000D49CB5C12F4803F0BD00A4A5268C2F39E
:10562C0040420A498A5C0A4800FB03F0B0FBF2F0E6
:10563C007047084800FB03F0704705487047064860
:10564C00704700BF00100240889A0008989A000822
:10565C000024F40000093D0000127A00002800F03C
:10566C00A08070B50D460446524B1B6803F007032F
:10567C008B420BD24F4A136823F007030B43136082
:10568C00136803F007038B4240F08D80236813F0FE
:10569C00020F17D013F0040F04D0474A536843F499
:1056AC00E0635360236813F0080F04D0424A536838
:1056BC0043F460535360404A536823F0F003A168ED
:1056CC000B435360236813F0010F31D06368012B37
:1056DC0020D0022B25D0384A126812F0020F64D069
:1056EC0035494A6822F0030213434B60FDF756FE1E
:1056FC000646314B5B6803F00C036268B3EB820F18
:10570C0016D0FDF74BFE801B41F288339842F0D93E
:10571C00032045E0284A126812F4003FE0D1012032
:10572C003EE0254A126812F0007FD9D1012037E003
:10573C00204B1B6803F00703AB420AD91D4A1368C0
:10574C0023F007032B431360136803F00703AB42EA
:10575C002DD1236813F0040F06D0174A536823F495
:10576C00E063E1680B435360236813F0080F07D024
:10577C00114A536823F46053216943EAC10353600F
:10578C00FFF73CFF0C4B5B68C3F303130B4AD35C72
:10579C00D8400B4B18600B4B1868FDF7BBFD002075
:1057AC0070BD012070470120FAE70120F8E70120C5
:1057BC00F6E700BF0020024000100240EC99000800
:1057CC000C00002040020020014B1868704700BFFD
:1057DC000C00002008B5FFF7F7FF044B5B68C3F320
:1057EC000223034AD35CD84008BD00BF001002401E
:1057FC00FC99000808B5FFF7E7FF044B5B68C3F39F
:10580C00C223034AD35CD84008BD00BF001002403D
:10581C00FC99000870B582B00446036813F0010FC0
:10582C0034D03E4BDB6913F0805F47D13B4BDA69D8
:10583C0042F08052DA61DB6903F080530193019BE3
:10584C000125374B1B6813F4807F39D0334B1B6A0F
:10585C0013F4407311D0626802F440729A420CD077
:10586C002E4A136A23F440702E4901260E6000263E
:10587C000E60106213F0010F36D1284A136A23F41C
:10588C00407361680B431362002D3ED1236813F003
:10589C00020F06D0214A536823F44043A1680B43FE
:1058AC005360236813F0100F34D01C4A536823F450
:1058BC008003E1680B43536000202CE00025C0E717
:1058CC00174A136843F480731360FDF767FD0646AF
:1058DC00134B1B6813F4807FB8D1FDF75FFD801B61
:1058EC006428F5D9032016E0FDF758FD06460B4B4E
:1058FC001B6A13F0020FC0D1FDF750FD801B41F263
:10590C0088339842F3D9032005E0D36923F0805300
:10591C00D361BBE7002002B070BD00BF0010024095
:10592C00007000404004424230B4036A056A25F01E
:10593C0001050562846924F0F00444EA021423F0A2
:10594C000A030B438461036230BC704730B4036AB2
:10595C00056A25F010050562846924F4704444EA54
:10596C00023423F0A00343EA01138461036230BCC8
:10597C007047836823F070030B4343F00703836085
:10598C007047000090F83D30DBB2012B27D1022389
:10599C0080F83D300268D36843F00103D36003689C
:1059AC00114A934210D0B3F1804F0DD0A2F594322E
:1059BC00934209D002F58062934205D01A6842F0F6
:1059CC0001021A60002070479A6802F00702062A4A
:1059DC0007D01A6842F001021A60002070470120BB
:1059EC0070470020704700BF002C014003681F4A1D
:1059FC0090420AD0B0F1804F07D0A2F59432904279
:105A0C0003D002F58062904203D123F070034A6800
:105A1C001343164A90420AD0B0F1804F07D0A2F53A
:105A2C009432904203D002F58062904203D123F469
:105A3C004073CA68134323F080034A69134303601D
:105A4C008B68C3620B688362084B98420AD00123AF
:105A5C004361036913F0010F03D0036923F00103C1
:105A6C00036170470B690363F1E700BF002C014031
:105A7C0040B310B5044690F83D30F3B1022384F8DE
:105A8C003D30214651F8040BFFF7B0FF012384F899
:105A9C00463084F83E3084F83F3084F8403084F847
:105AAC00413084F8423084F8433084F8443084F830
:105ABC00453084F83D30002010BD80F83C30FCF7B8
:105ACC00D1FDDBE70120704710B4846824F47F44D7
