:020000040800F2
:1000000000500020792C0008992400089B24000847
:100010009D2400089F240008A1240008000000007F
:10002000000000000000000000000000A324000801
:10003000A524000800000000A7240008A924000847
:10004000C12C0008C12C0008C12C0008C12C0008DC
:10005000C12C0008C12C0008C12C0008C12C0008CC
:10006000C12C0008C12C0008C12C0008B1240008D4
:10007000C12C0008C1240008C12C0008C12C0008B4
:10008000C12C0008C12C0008C12C0008C12C00089C
:10009000D1240008C12C0008C12C0008C12C000884
:1000A000C12C0008C12C0008C12C0008C12C00087C
:1000B000C12C0008C12C0008C12C0008C12C00086C
:1000C000C12C0008C12C0008C12C0008C12C00085C
:1000D000C12C0008C12C0008C12C0008E124000834
:1000E000C12C0008C12C0008C12C00080000000031
:1000F0000000000000000000000000000000000000
:0C01000000000000000000005FF808F1A3
:10010C0010B5054C237833B9044B13B10448AFF345
:10011C0000800123237010BD880300200000000024
:10012C002086000808B5034B1BB103490348AFF305
:10013C00008008BD000000008C0300202086000811
:10014C0010F8012B11F8013B012A28BF9A42F7D075
:10015C00D01A7047034613F8012B002AFBD1181A4A
:10016C000138704780F0004002E000BF81F0004190
:10017C0042001FBF5FEA410392EA030F7FEA226C41
:10018C007FEA236C6AD04FEA1262D2EB1363C1BFD1
:10019C00D218414048404140B8BF5B42192B88BF40
:1001AC00704710F0004F40F4000020F07F4018BF63
:1001BC00404211F0004F41F4000121F07F4118BF83
:1001CC00494292EA030F3FD0A2F1010241FA03FC2B
:1001DC0010EB0C00C3F1200301FA03F100F0004313
:1001EC0002D5494260EB4000B0F5000F13D3B0F1DB
:1001FC00807F06D340084FEA310102F10102FE2A4A
:10020C0051D2B1F1004F40EBC25008BF20F00100B9
:10021C0040EA03007047490040EB0000013A28BF58
:10022C00B0F5000FEDD2B0FA80FCACF1080CB2EBDB
:10023C000C0200FA0CF0AABF00EBC2505242184359
:10024C00BCBFD0401843704792F0000F81F40001FE
:10025C0006BF80F400000132013BB5E74FEA4103D1
:10026C007FEA226C18BF7FEA236C21D092EA030F3D
:10027C0004D092F0000F08BF0846704790EA010FB7
:10028C001CBF0020704712F07F4F04D1400028BFE4
:10029C0040F00040704712F100723CBF00F50000C6
:1002AC00704700F0004343F0FE4040F400007047FC
:1002BC007FEA226216BF08467FEA236301464202A8
:1002CC0006BF5FEA412390EA010F40F480007047BB
:1002DC004FF0000304E000BF10F0004348BF404261
:1002EC005FEA000C08BF704743F0964301464FF09D
:1002FC0000001CE050EA010208BF70474FF00003F9
:10030C000AE000BF50EA010208BF704711F0004339
:10031C0002D5404261EB41015FEA010C02BF844609
:10032C000146002043F0B64308BFA3F18053A3F568
:10033C000003BCFA8CF2083AA3EBC25310DB01FAAF
:10034C0002FC634400FA02FCC2F12002BCF1004F33
:10035C0020FA02F243EB020008BF20F001007047C4
:10036C0002F1200201FA02FCC2F1200250EA4C0018
:10037C0021FA02F243EB020008BF20EADC7070475E
:10038C004FF0FF0C1CEAD0521EBF1CEAD15392EA6C
:10039C000C0F93EA0C0F6FD01A4480EA010C400248
:1003AC0018BF5FEA41211ED04FF0006343EA5010A2
:1003BC0043EA5111A0FB01310CF00040B1F5000FE4
:1003CC003EBF490041EAD3715B0040EA010062F193
:1003DC007F02FD2A1DD8B3F1004F40EBC25008BF7D
:1003EC0020F00100704790F0000F0CF0004C08BF9B
:1003FC0049024CEA502040EA51207F3AC2BFD2F168
:10040C00FF0340EAC250704740F400004FF0000375
:10041C00013A5DDC12F1190FDCBF00F000407047AF
:10042C00C2F10002410021FA02F1C2F1200200FAED
:10043C0002FC5FEA310040F1000053EA4C0308BFB4
:10044C0020EADC70704792F0000F00F0004C02BF05
:10045C00400010F4000F013AF9D040EA0C0093F080
:10046C00000F01F0004C02BF490011F4000F013BDA
:10047C00F9D041EA0C018FE70CEAD15392EA0C0F48
:10048C0018BF93EA0C0F0AD030F0004C18BF31F0B3
:10049C00004CD8D180EA010000F00040704790F089
:1004AC00000F17BF90F0004F084691F0000F91F02D
:1004BC00004F14D092EA0C0F01D142020FD193EAF3
:1004CC000C0F03D14B0218BF084608D180EA01007B
:1004DC0000F0004040F0FE4040F40000704740F057
:1004EC00FE4040F4400070474FF0FF0C1CEAD05225
:1004FC001EBF1CEAD15392EA0C0F93EA0C0F69D081
:10050C00A2EB030280EA010C49024FEA402037D0EB
:10051C004FF0805343EA111143EA10130CF00040E2
:10052C008B4238BF5B0042F17D024FF4000C8B42D2
:10053C0024BF5B1A40EA0C00B3EB510F24BFA3EBB2
:10054C00510340EA5C00B3EB910F24BFA3EB910382
:10055C0040EA9C00B3EBD10F24BFA3EBD10340EADC
:10056C00DC001B0118BF5FEA1C1CE0D1FD2A3FF622
:10057C0050AF8B4240EBC25008BF20F001007047D7
:10058C000CF0004C4CEA50207F32C2BFD2F1FF037A
:10059C0040EAC250704740F400004FF00003013AAB
:1005AC0037E792F0000F00F0004C02BF400010F44F
:1005BC00000F013AF9D040EA0C0093F0000F01F063
:1005CC00004C02BF490011F4000F013BF9D041EA85
:1005DC000C0195E70CEAD15392EA0C0F08D14202B8
:1005EC007FF47DAF93EA0C0F7FF470AF084676E78B
:1005FC0093EA0C0F04D14B023FF44CAF08466EE764
:10060C0030F0004C18BF31F0004CCAD130F0004231
:10061C007FF45CAF31F000437FF43CAF5FE700BF89
:10062C004FF0FF3C06E000BF4FF0010C02E000BFB2
:10063C004FF0010C4DF804CD4FEA40024FEA410354
:10064C007FEA226C18BF7FEA236C11D001B052EA0A
:10065C00530C18BF90EA010F58BFB2EB030088BFD0
:10066C00C81738BF6FEAE17018BF40F0010070473F
:10067C007FEA226C02D15FEA402C05D17FEA236C21
:10068C00E4D15FEA412CE1D05DF8040B704700BF68
:10069C00844608466146FFE70FB5FFF7C9FF0028FF
:1006AC0048BF10F1000F0FBD4DF808EDFFF7F4FF38
:1006BC000CBF012000205DF808FB00BF4DF808EDD1
:1006CC00FFF7EAFF34BF012000205DF808FB00BFF4
:1006DC004DF808EDFFF7E0FF94BF012000205DF816
:1006EC0008FB00BF4DF808EDFFF7D2FF94BF0120C7
:1006FC0000205DF808FB00BF4DF808EDFFF7C8FFC0
:10070C0034BF012000205DF808FB00BF4FEA400217
:10071C00B2F1FE4F0FD34FF09E03B3EB12620DD923
:10072C004FEA002343F0004310F0004F23FA02F08D
:10073C0018BF404270474FF00000704712F1610F34
:10074C0001D1420205D110F0004008BF6FF000400B
:10075C0070474FF00000704770B588B000240494C7
:10076C00059406940794214B9A6942F020029A61F1
:10077C009A6902F020020192019A9A6942F00402ED
:10078C009A619A6902F004020292029A9A6942F002
:10079C0008029A619B6903F008030393039B144DB1
:1007AC0022464FF22001284603F0BCF94FF22003F9
:1007BC0004930126059606940223079304A9284660
:1007CC0003F0A0F84FF4004304930594069604A993
:1007DC00084803F097F8182304930594069604A987
:1007EC00284603F08FF808B070BD00BF001002401F
:1007FC00000C01400008014000B583B00E4B5A6953
:10080C0042F001025A615B6903F001030193019B01
:10081C00002211460B2002F023FD0B2002F054FDA8
:10082C00002211460D2002F01BFD0D2002F04CFDA4
:10083C0003B05DF804FB00BF0010024010B5044685
:10084C0001F026FD30B10F4A1368E31A127962B138
:10085C00C72B00D810BD012220210B4803F062F9F0
:10086C00084B00221A711C60F4E7B3F5487FF1D3F2
:10087C0000222021044803F055F9024B01221A7181
:10088C001C60E7E764070020000C014038B50268E3
:10089C00134B9A4200D038BD124C01222021204625
:1008AC0003F040F90021104800F030FE00F088FD04
:1008BC0000F09EFB00F098FD00F0E2FD0B4D286867
:1008CC0000F0E6FD286800F09FFE00F047FC00F009
:1008DC000FFC00222021204603F024F9DBE700BFA7
:1008EC0000240140000C0140A4030020B41000209F
:1008FC0038B50268134B9A4200D038BD124C012215
:10090C002021204603F00EF9F021104800F0FEFDE6
:10091C0000F056FD00F06CFB00F066FD00F0B0FD41
:10092C000B4D286800F0B4FD286800F06DFE00F057
:10093C0015FC00F0DDFB00222021204603F0F2F82C
:10094C00DBE700BF00240140000C0140A4030020A1
:10095C00B410002072B6FEE700B585B000230193F9
:10096C00029303932748284A02604FF480728260F6
:10097C00037303754FF40022C261436005230361C6
:10098C0002F0D8FB002831D10023019301220292FE
:10099C00039301A91B4802F029FA48BB01230193D8
:1009AC000223029301A9174802F020FA10BB02237C
:1009BC0001930323029301A9124802F017FAD8B944
:1009CC0003230193042302930DEB03010D4802F062
:1009DC000DFA98B9042301930523029301A9094840
:1009EC0002F004FA60B905B05DF804FBFFF7B2FF42
:1009FC00FFF7B0FFFFF7AEFFFFF7ACFFFFF7AAFF63
:100A0C00FFF7A8FF8C1D00200024014008B50A4800
:100A1C000A4B03604FF4E133436000238360C360EF
:100A2C0003610C2242618361C36104F0C0FE00B912
:100A3C0008BDFFF78FFF00BFFC1C002000480040E2
:100A4C0000B587B00023029303930493059300939E
:100A5C0001931448144A02602F224260836040F2D2
:100A6C00F312C260036143618023836104F0CCFC08
:100A7C0090B94FF48053029302A90A4804F0FBFC8E
:100A8C0060B90023009301936946064804F072FD97
:100A9C0030B907B05DF804FBFFF75CFFFFF75AFFB6
:100AAC00FFF758FF001E0020002C014000B587B056
:100ABC00002302930393049305930093019314482A
:100ACC00144A02606322426083600922C26003619F
:100ADC008023836104F098FC98B94FF480530293FF
:100AEC0002A90B4804F0C7FC68B92023009300232B
:100AFC0001936946064804F03DFD30B907B05DF836
:100B0C0004FBFFF727FFFFF725FFFFF723FF00BFCD
:100B1C00441D00200004004000B595B000230D9347
:100B2C000F931093059306930793089309930193DE
:100B3C0002930393049301220A924FF480330B9394
:100B4C004FF400310C910E920222119212934FF439
:100B5C00801313930AA804F015F8E8B90F23059332
:100B6C0002230693002307934FF4806208920993A3
:100B7C00012105A804F03EFA80B9122301934FF429
:100B8C00804303934FF48003049301A804F00EFBFD
:100B9C0030B915B05DF804FBFFF7DCFEFFF7DAFEA9
:100BAC00FFF7D8FE08B502F0ADF8FFF7B5FF0A2045
:100BBC0002F0CCF8FFF7D0FDFFF71EFEFFF7CCFEDE
:100BCC00FFF724FF06F0AAFDFFF73AFFFFF76EFFD1
:100BDC004FF4F0720D490E4802F0E8F90D4804F09C
:100BEC009DFB00F045F900F079FC00F0B3FE00220B
:100BFC002021094802F096FF084C206801F004FD02
:100C0C0001F060FE2068FFF719FEF5E7A403002051
:100C1C008C1D0020441D0020000C0140B41000204D
:100C2C00B0F8023200EB4302518001339BB2A0F8C2
:100C3C000232FF2B02D90023A0F80232B0F80632A0
:100C4C00FF2B0BD9B0F8043201339BB2A0F804325D
:100C5C00FF2B06D90023A0F8043270470133A0F80B
:100C6C000632704710B4B0F80642ACB100221146FF
:100C7C0094420AD9B0F804321344DBB200EB4303BC
:100C8C005B881944013292B2F2E701EB8101480012
:100C9C00B0FBF4F010BC70470020FBE70346B0F843
:100CAC00060248B1B3F8022212B1013A90B200E048
:100CBC00FF2003EB4003588870470000F8B5002470
:100CCC00264600E00134032C0ADC2D4B4FF4137044
:100CDC0000FB0430FFF7E2FF8642F3D20646F1E751
:100CEC0000241CE0274B1A79511C19719C54244B7D
:100CFC004FF4137505FB04350023C5F81032A5F825
:100D0C0014323046FFF7E4FA1F4B5969FFF738FBF2
:100D1C00C5F848020134032CE4DDF8BD0134032C82
:100D2C00FBDC4FF4137303FB04F3154AD35C002B69
:100D3C00F4D14FF4137505FB04252846FFF7AEFFDD
:100D4C000746A5F80C02FFF7C7FAD5F84812FFF7CB
:100D5C00D3FC0028E2D0C6EBC603B7EBE30FDDDD16
:100D6C001423C5F83032084B01221A70074A126856
:100D7C005A60044B00241C715C719C60CBE700BF73
:100D8C0084070020B8100020C4100020B4100020EC
:100D9C0038B5002512E0324B4FF4137202FB0434C9
:100DAC002046FFF77BFFD4F810320344C4F810320E
:100DBC00B4F814320133A4F814320135294B1B79E1
:100DCC00AB4216DD274B5C5D254A4FF4137303FBD6
:100DDC000423B3F81432002BDDD14FF4137303FB4F
:100DEC000423B3F80C22C3F810220122A3F8142216
:100DFC00D1E71D4A12681D494868121A8989914227
:100E0C0027D938BD01318B4225DD164A525C144C72
:100E1C004FF4137000FB0240B0F814020028F1D01C
:100E2C0020464FF4137404FB0202D2F81042D2F89D
:100E3C00300200FB04F0B2F81442B0FBF4F0C2F83C
:100E4C001802084A92689042DCD9064A90605171A7
:100E5C00D8E70021D7E7054B02221A70D1E700BF73
:100E6C0084070020B8100020B4100020C41000200B
:100E7C0070B500264EE00E2284F81C2236B3012EEB
:100E8C0000F08280022E00F08C80032E2AD1524A70
:100E9C004FF4137303FB06234FF40042A3F81E22F6
:100EAC004E4AC3F820221DE04B4A4FF4137303FB48
:100EBC0006230D2283F81C22E0E7474A4FF41373F4
:100ECC0003FB0623092283F81C22D7E7424A4FF47E
:100EDC00137303FB06234FF48052A3F81E223F4AE0
:100EEC00C3F820223C4B4FF4137404FB063401224C
:100EFC00B4F81E12D4F8200202F014FE0023C4F839
:100F0C00243284F83432C4F83832C4F83C32A4F8B1
:100F1C0040320136032E51DC2F4A4FF4137303FB7E
:100F2C0006F3D4180025D554C4F808524FF40072B7
:100F3C002946A01C06F008FFA4F80252A4F804529B
:100F4C00A4F80652C4F81052A4F81452C4F818525B
:100F5C004FF07E53C4F84432214BC4F84832C4F8E5
:100F6C002852C4F82C52002E85D0012E9CD0022E73
:100F7C00A3D0032E82D1184A4FF4137303FB06231C
:100F8C00072283F81C2279E7134A4FF4137303FBEF
:100F9C0006234FF40052A3F81E22104AC3F8202255
:100FAC00A0E70D4A4FF4137303FB06234FF4804262
:100FBC00A3F81E22094AC3F8202293E7094A00230A
:100FCC0013700949098A518113725372074A1360CD
:100FDC005360936070BD00BF84070020000C01407B
:100FEC0000001643C4100020E4100020B8100020AC
:100FFC0010B5002408E0294A4FF4137303FB0423B3
:10100C000022C3F82C220134032C45DC234A4FF474
:10101C00137303FB04F3D018D35C012BF3D1FFF74C
:10102C003DFE00EB80001D4A4FF4137303FB0423B9
:10103C00D3F80832B3EB400FDDD94FF4137303FB35
:10104C000423D3F82C323BB94FF4137303FB042362
:10105C00134A1268C3F82C22114B1B680F494FF42A
:10106C00137202FB0412D2F82C229B1A0D4AD2895D
:10107C009A42C8D808464FF4137303FB04F3CA18FA
:10108C000021C1544FF07E53C2F84432064BC2F8D3
:10109C004832C2F82C12B6E710BD00BF84070020FE
:1010AC00B4100020C410002000001643024B002294
:1010BC001A605A60704700BF7C070020032810D8C4
:1010CC00084B1B68084A4FF4137101FB0020C0F851
:1010DC003832064A128A1344C0F83C32012380F895
:1010EC0034327047B410002084070020C410002054
:1010FC0010B5FFF7DBFF002214460DE014484FF447
:10110C00137101FB020191F81C021249C8540134FD
:10111C00E4B2052C14D80132032A11DC0C494FF42B
:10112C00137303FB021393F83432002BF3D0022316
:10113C00072BEEDC0749C95C0029DFD00133F7E748
:10114C0008220449044805F002FE204610BD00BFE9
:10115C00840700207C070020702400200023032B30
:10116C003ADC10B405E01D49002088540133032BF0
:10117C0030DC1B494FF4137202FB031292F8342239
:10118C00002AF3D04FF4137202FB0312D2F83C2264
:10119C00002AEBD0134909688A42E7D810494FF46A
:1011AC00137202FB0312002182F83412C2F83812B7
:1011BC00C2F83C120222072AD8DC0849885C084C89
:1011CC004FF4137101FB034191F81C128842CAD0F1
:1011DC000132F0E710BC7047704700BF7C0700205D
:1011EC0084070020B4100020032800D9704710B5E4
:1011FC00084C4FF4137303FB00440022B4F81E1286
:10120C00D4F8200202F08EFC034B1B68C4F8243285
:10121C0010BD00BF84070020B410002038B5644B0B
:10122C005A799D5C634B00225A72E5B9604B19796F
:10123C00012918D90023994213DD5D4AD45C032C93
:10124C0001D00133F7E75C4BD3F8FC28584B9B6873
:10125C0003EB4303B2EB930F71D3564B01225A723B
:10126C0008E0FF2406E0032D11D0012D2BD0022D18
:10127C0046D0FF244F4B5B7A0BB1FF2C67D128462D
:10128C00FFF71CFF2846FFF7AFFF00227CE0484B1E
:10129C0019790129E9D90023994212DD444AD45C19
:1012AC000CB10133F8E7444BD3F81822404B9B6840
:1012BC0003EB4303B2EB930F43D33E4B01225A7221
:1012CC00D8E7FF24D6E73A4B19790129CFD9002367
:1012DC00994213DD364AD45C022C01D00133F7E776
:1012EC00354BD3F8B026324B9B6803EB4303B2EB80
:1012FC00930F28D32F4B01225A72BBE7FF24B9E777
:10130C002B4B1979012908D90023994215DD284A5C
:10131C00D45C012C03D00133F7E7FF24AAE7264B5A
:10132C00D3F86424224B9B6803EB4303B2EB930F7B
:10133C000BD3204B01225A729CE7FF249AE7FF241F
:10134C0098E7FF2496E7FF2494E7FF2492E72846CA
:10135C00FFF7B4FE2046FFF7B1FE2846FFF744FF27
:10136C002046FFF741FF90E713484FF4137303FB3C
:10137C0002F3C1180124C454104B1B68C1F8283265
:10138C000023C1F82C322244032AEDDD002308E0AF
:10139C0009494FF4137202FB03120A21C2F83012EE
:1013AC000133032BF4DD034B00221A7038BD00BF50
:1013BC00B8100020C410002084070020B4100020B6
:1013CC0008B5084B1B78012B06D0022B07D003B1B4
:1013DC0008BDFFF773FCFBE7FFF7DAFCF8E7FFF754
:1013EC001DFFF5E7C41000202DE9F041002400E0BA
:1013FC000134032C3CDC1F4A4FF4137303FB04230E
:10140C00D3F848721C4BB3F81A804046FEF764FFC1
:10141C00054601463846FEF7A9FE06460021FFF7B1
:10142C006BF90028E4D0154B99694FF07E50FEF70C
:10143C009DFE3146FEF7A4FF01463846FEF796FEA8
:10144C0001460C4A4FF4137303FB0423C3F8480200
:10145C002846FFF751F90028CAD0064B4FF41375F4
:10146C0005FB04354046FEF733FFC5F84802BFE7DD
:10147C00BDE8F08184070020E4100020C410002097
:10148C00024A136801331360704700BFB410002088
:10149C0070B5054600240EE04FF4137606FB0426C7
:1014AC000122B6F81E12D6F8200202F03BFB0023F4
:1014BC00C6F824320134032C0CDC074A4FF41373A6
:1014CC0003FB0423D3F82432002BF3D0EB1A132B99
:1014DC00F0D9E1E770BD00BF84070020034B002268
:1014EC001A605A609A60DA60704700BF6C0700207F
:1014FC00042807D8044B33F810308B4202D2024B2D
:10150C0023F81010704700BF6C0700202DE9F04144
:10151C0082B006460D46002469E039484FF4137337
:10152C0003FB0403A3F8401222E0481E0DF1080C43
:10153C000CEB800C5CF808CC0DF1080E0EEB810165
:10154C0041F808CC01468B42EFDB02A901EB830387
:10155C0043F8087C01322F2A19DC2B199BB202EBC1
:10156C00820189B20B449BB236F813102F2AD4D0C7
:10157C000023012BEEDC0F4602A800EB830050F891
:10158C00080C814201D80133F3E70121DBE700238A
:10159C001A4606E002A901EB830151F8081C0A4423
:1015AC000133012BF6DD174B03EB4403DB88C2F34D
:1015BC004F0203FB02F29709B2F5800F01D34FF6ED
:1015CC00FF77BFB2032C11DC0D4B4FF4137808FBE3
:1015DC00043839464046FFF723FB4046FFF742FBF1
:1015EC00C8F808023946E0B2FFF782FF0134042C38
:1015FC0003DC002200920192ADE702B0BDE8F0815D
:10160C0084070020E410002070470000F8B5034662
:10161C000E4600E001331A78202AFBD0092AF9D0B3
:10162C0000210F4608460C468C4606E00CEB8C0C51
:10163C00303A02EB4C0C013101331A78BAB109295A
:10164C0015DCA2F13005EDB2092D0BD80028EDD038
:10165C00012FF0DC04EB8405A2F1300404EB45040B
:10166C000137E8E72E2A1ED1F8B90120E4E7BCF1D6
:10167C00630F1CDC17B1012F11D027466046FEF713
:10168C002BFE04463846FEF727FE0A49FEF72CFFD0
:10169C0001462046FEF76CFD30600120F8BD04EBDE
:1016AC0084046700EAE70020F8E70020F6E7002052
:1016BC00F4E700BF0000C842F0B400E0013003784A
:1016CC00202BFBD0092BF9D02D2B08D02B2B0AD09B
:1016DC004FF0000C00273D463A463E4612E00130E2
:1016EC004FF0010CF6E701304FF0000CF2E706EB7F
:1016FC008606303B03EB460603E02E2B2FD185BB31
:10170C0001250130037883B1A3F13004E4B2092C34
:10171C00F3D8002DEBD0012FF3DC02EB8204A3F104
:10172C00300202EB44020137EBE747B1012F03D043
:10173C00022F12DC174602E002EB820257006423F0
:10174C0003FB0673BCF1000F00D05B42B3F5C82F4E
:10175C0009D80B800120F0BC70476327EFE700200D
:10176C00F9E70020F7E70020F5E700E00130037807
:10177C00202BFBD0092BF9D000220378D3B110B465
:10178C00A3F13004E4B2092C0FD802EB820203EB74
:10179C004203A3F13002B2F5803F09D20130037845
:1017AC00002BEDD10A80012000E0002010BC704716
:1017BC000020FBE70A8001207047000008B50122D9
:1017CC000249034804F073FA08BD00BF141100204D
:1017DC00FC1C002010B582B00E4BA3FB01235A0950
:1017EC001346642404FB121189B241B109290BD8A8
:1017FC000091094A102106F0AFFA02B010BD074A59
:10180C00102106F0A9FAF8E70091054A102106F01C
:10181C00A3FAF2E71F85EB51388600083C860008D6
:10182C004086000801460023184603E0CA5C1044B9
:10183C0080B20133292BF9D97047000010B5184B31
:10184C00184A1A6002229A800023042B08DC164ADC
:10185C0032F81310124A02EB4302D1800133F4E741
:10186C000023042B07DC03F108010D4A962022F813
:10187C0011000133F5E70A4C962363830423A383F9
:10188C000F23E383142323844FF07F53C4F82230B7
:10189C00064BC4F826302046FFF7C4FF608510BD08
:1018AC00E4100020464E4F433C930008EC51783F27
:1018BC00244B1A6803F16D5303F5552303F24623A9
:1018CC009A4239D170B51F4B9C88631E9BB2012B79
:1018DC0034D81C48458DFFF7A5FF854230D1012C2B
:1018EC000FD0194C174D0FCD0FC40FCD0FC495E869
:1018FC00070084E80700144B1A8A144B5A81012004
:10190C001DE0114E34460F4D0FCD0FC495E8070066
:10191C0003C422800123B380962373830423B383EF
:10192C000F23F383142333844FF07F53C6F82230F4
:10193C00074BC6F82630DEE700207047002070BD4C
:10194C000020FCE700FC0108E4100020C41000207B
:10195C00EC51783F08B5FFF7ABFFA8B10D4B002257
:10196C001A700D4A118A0D4B5981918B9981D18B2B
:10197C00D981118C1982D2F822105961D2F8262003
:10198C009A61FFF71BFF08BD024B01221A70FFF78B
:10199C0055FFE6E7E0100020E4100020C410002002
:1019AC0030B587B0234C2046FFF73CFF6085EFF342
:1019BC00108572B601F08AFE20B185F310880020E4
:1019CC0007B030BD1C4B3422DA6000230193029324
:1019DC001A4B04930123059301A902A801F040FFBF
:1019EC0088B900240A2C1AD804F1007101F5FE41C3
:1019FC00104B53F8242000238900022001F0BEFE76
:101A0C0038B90134EEE701F07BFE85F31088002035
:101A1C00D6E701F075FE85F310880020D0E701F0C1
:101A2C006FFE62B685F3108808B90120C8E7002064
:101A3C00C6E700BFE41000200020024000FC0108B3
:101A4C0008B50268054B9A4200D008BD044B1878C3
:101A5C0000F09EFDFFF7B2FEF7E700BF0048004024
:101A6C0014110020704710B50446FEF773FB81B2C9
:101A7C00204600F079FD10BD08B50248FFF7F3FFD2
:101A8C0008BD00BF4886000870B584B004460D46FA
:101A9C00FEF760FB052844D02046FEF75BFB0328CD
:101AAC005AD076492046FEF74BFB0646002872D0EA
:101ABC0073492046FEF744FB002800F085807149ED
:101ACC002046FEF73DFB002800F08F806E49204633
:101ADC00FEF736FB002800F099806C492046FEF793
:101AEC002FFB002800F0A38069492046FEF728FB55
:101AFC0090B902A92846FFF789FD68B1029C002124
:101B0C002046FEF7F9FD38B14FF07E512046FEF726
:101B1C00D5FD002840F0A9805E48FFF7A4FF04B073
:101B2C0070BD04225C49204606F057F90028B3D159
:101B3C002679303E042EAFD80DF106012846FFF76A
:101B4C00BBFD0028A8D0554B03EB4606BDF806306C
:101B5C00F380FFF791FFE2E702225149204606F09D
:101B6C003CF900289DD1A678303E042E99D80DF171
:101B7C000E012846FFF7F9FD002892D0BDF80E3073
:101B8C0006F10801454A22F811300EB9454A538135
:101B9C00FFF772FFC3E70DF10E012846FFF7E5FDD5
:101BAC00002885D0BDF80E103C4B5983042E06DC62
:101BBC0006F10802394B23F812100136F6E7394BBF
:101BCC005981FFF759FFAAE70DF10E012846FFF7DF
:101BDC00CCFD00283FF473AFBDF80E302F4A938331
:101BEC00304A9381FFF748FF99E70DF10E01284623
:101BFC00FFF7BBFD00283FF469AFBDF80E30274A54
:101C0C00D383284AD381FFF737FF88E70DF10E0104
:101C1C002846FFF7AAFD00283FF45FAFBDF80E3051
:101C2C001E4A13841F4A1382FFF726FF77E702A987
:101C3C002846FFF7EBFC00283FF456AF029E00212C
:101C4C003046FEF759FD00283FF44EAF164930469A
:101C5C00FEF73EFD00283FF447AF104BC3F822605F
:101C6C00104B5E61FFF708FF59E70C4BC3F8264099
:101C7C000C4B9C61FFF700FF51E700BF5C8600082E
:101C8C0064860008708600087C860008848600083C
:101C9C00908600089C86000850860008E4100020FE
:101CAC0058860008C41000200000204170B58AB08E
:101CBC0005460C460846FEF729FD0646FEF70CFBCA
:101CCC0001462046FEF752FA04461949FEF7F6FC87
:101CDC00D8B918492046FEF753FB4FF07C51FEF75C
:101CEC0047FAFEF713FD632820DC092815DD019067
:101CFC0000962B46104A202102A806F02DF881B23E
:101D0C0002A800F031FC0AB070BD00962B460B4ABD
:101D1C00202102A806F020F8F1E7019000962B464E
:101D2C00074A202102A806F017F8E8E76320DEE74F
:101D3C000AD7A33B0000C842D4860008B886000826
:101D4C00C486000800B58BB003460091054A2021DB
:101D5C0002A806F001F881B202A800F005FC0BB055
:101D6C005DF804FBE486000870B59AB004466E4931
:101D7C00FEF7E6F900283CD06C492046FEF7E0F966
:101D8C00002836D02046FEF7E5F90546052868D030
:101D9C00032D00F0858066492046FEF7D1F9002816
:101DAC0000F09B8063492046FEF7CAF9002800F03A
:101DBC009A8061492046FEF7C3F9002800F099800B
:101DCC005E492046FEF7BCF9002800F098805C497B
:101DDC002046FEF7B5F9002800F0978059492046B7
:101DEC00FEF7AEF9002800F097805748FFF73BFE4E
:101DFC0035E05648FFF737FE5548FFF734FE554897
:101E0C00FFF731FE5448FFF72EFE5448FFF72BFE28
:101E1C005348FFF728FE5348FFF725FE5248FFF7BB
:101E2C0022FE5248FFF71FFE5148FFF71CFE514897
:101E3C00FFF719FE5048FFF716FE5048FFF713FE48
:101E4C004F48FFF710FE4F48FFF70DFE4E48FFF7C7
:101E5C000AFE4E48FFF707FE4D48FFF704FE1AB086
:101E6C0070BD04224B49204605F0B7FF00288FD1E6
:101E7C002679303E042E8BD8474B03EB460302AC3D
:101E8C00D9882046FFF7A6FC00943346434A4021EC
:101E9C000AA805F061FF81B20AA800F065FBDEE735
:101EAC0002223F49204605F098FF00287FF473AFCB
:101EBC00A378303B042B3FF66EAF03F10801364A92
:101ECC0032F811200092374A202102A805F044FF75
:101EDC0081B202A800F048FBC1E72F4B598B144884
:101EEC00FFF730FFBBE72C4B998B1248FFF72AFF0B
:101EFC00B5E7294BD98B1048FFF724FFAFE7264BEA
:101F0C00198C0E48FFF71EFFA9E7234BD3F82210BC
:101F1C000B48FFF7CBFEA2E71F4BD3F8261009485E
:101F2C00FFF7C4FE9BE700BFEC860008F4860008B0
:101F3C005C86000864860008708600087C860008B1
:101F4C0084860008908600089C860008F8860008A5
:101F5C002C8700086C870008B4870008F8870008F5
:101F6C003C88000884880008C8880008108900088C
:101F7C00548900089C890008948F0008E4890008A3
:101F8C00208A0008548A00088C8A0008C08A00083D
:101F9C00F48A000850860008E4100020288B000802
:101FAC0058860008348B000830B591B00C46844B31
:101FBC001B7813B9824B01221A703F2C28BF3F2487
:101FCC0022460146684605F0B1FE10AB23440022C0
:101FDC0003F8402C07E0013CA4B29BB210AA1344B6
:101FEC00002203F8402C44B1631E10AA1A4412F8C4
:101FFC00402C0D2AEFD00A2AEDD0002C00F0D38013
:10200C0070496846FEF79CF810B36F496846FEF7B6
:10201C0097F838B36D496846FEF792F810B36C49DF
:10202C006846FEF78DF8E8B13D21684605F0C8FE1C
:10203C0004463F21684605F0C3FE002C00F0B58035
:10204C002146002301F8013B6846FFF71DFDAAE07D
:10205C00FFF7A6FC10B1FFF70FFDA4E05D48FFF7FA
:10206C0002FDA0E05C48FFF7FEFC5C48FFF7FBFCC0
:10207C005B4D2846FFF7F7FC5A48FFF7F4FC5A482B
:10208C00FFF7F1FC5948FFF7EEFC5948FFF7EBFC62
:10209C005848FFF7E8FC5848FFF7E5FC5748FFF7AE
:1020AC00E2FC5748FFF7DFFC564C2046FFF7DBFC01
:1020BC005548FFF7D8FC5548FFF7D5FC2046FFF7ED
:1020CC00D2FC5348FFF7CFFC5248FFF7CCFC5248E8
:1020DC00FFF7C9FC5148FFF7C6FC2046FFF7C3FCCD
:1020EC004F48FFF7C0FC4F48FFF7BDFC4E48FFF7C9
:1020FC00BAFC2046FFF7B7FC4C48FFF7B4FC4C4841
:10210C00FFF7B1FC4B48FFF7AEFC4B48FFF7ABFCBD
:10211C004A48FFF7A8FC4A48FFF7A5FC4948FFF7D7
:10212C00A2FC2046FFF79FFC4748FFF79CFC474862
:10213C00FFF799FC4648FFF796FC4648FFF793FCDF
:10214C004548FFF790FC4548FFF78DFC4448FFF7E6
:10215C008AFC2046FFF787FC4248FFF784FC424884
:10216C00FFF781FC4148FFF77EFC4148FFF77BFC01
:10217C002046FFF778FC3F48FFF775FC3E48FFF719
:10218C0072FC3E48FFF76FFC3D48FFF76CFC3D4886
:10219C00FFF769FC2046FFF766FC3B48FFF763FC42
:1021AC002846FFF760FC11B030BD28B10023037046
:1021BC006846FFF7D9FDF6E73448FFF754FCF2E721
:1021CC0010110020408B0008608B0008EC86000882
:1021DC00F4860008488B0008648B0008948B000878
:1021EC00BC8B0008EC8B0008008C0008308C0008BD
:1021FC005C8C0008888C0008B88C0008DC8C00080B
:10220C00248D0008948F0008688D0008848D0008C8
:10221C00CC8D0008EC8D0008248E0008608E000820
:10222C00988E0008B08E0008F48E0008388F0008D5
:10223C00648F0008988F0008C88F0008F48F00087E
:10224C0020900008449000086C90000898900008BA
:10225C00A8900008E0900008149100084491000830
:10226C0078910008B0910008C0910008F091000826
:10227C001C9200084C9200085C92000884920008A2
:10228C00B4920008D8920008FC9200082093000831
:10229C00014B1878704700BFE010002082B00E4B45
:1022AC009A6942F001029A619A6902F00102009265
:1022BC00009ADA6942F08052DA61DB6903F08053EC
:1022CC000193019B054A536823F0E06343F00073CC
:1022DC00536002B0704700BF001002400000014084
:1022EC0010B586B000230293039304930593026800
:1022FC001F4B9A4201D006B010BD044603F56C4347
:10230C009A6942F400729A619A6902F4007200921E
:10231C00009A9A6942F004029A619B6903F00403E3
:10232C000193019B1F2302930323039302A91148DA
:10233C0001F0E8FA1048114B0360002343608360FE
:10234C008023C3604FF4807303614FF48063436157
:10235C00202383614FF40053C36100F0EFFF18B9E1
:10236C00054B23625C62C6E7FEF7F4FAF8E700BFA0
:10237C000024014000080140BC1D00200800024060
:10238C0082B003680E4A934204D00E4A93420CD09A
:10239C0002B070470C4B9A6942F400629A619B69D7
:1023AC0003F400630093009BF2E7074BDA6942F0F9
:1023BC000202DA61DB6903F002030193019BE7E798
:1023CC00002C0140000400400010024070B586B0A3
:1023DC00002302930393049305930268274B9A42BC
:1023EC0001D006B070BD044603F5E433DA6942F45B
:1023FC008022DA61DA6902F480220092009A9A69EA
:10240C0042F008029A619B6903F008030193019B57
:10241C004FF4806302930223039303230593184E16
:10242C0002A9304601F06EFA4FF4006302930025C6
:10243C000395049502A9304601F064FA1148124B39
:10244C000360456085608023C360056145618561DB
:10245C004FF48053C36100F071FF58B9094BE3632B
:10246C005C6200220421272000F0FAFE272000F0F5
:10247C002BFFB6E7FEF76EFAF0E700BF004800400E
:10248C00000C0140B81C002030000240FEE7FEE7C3
:10249C00FEE7FEE7FEE770477047704708B500F0AF
:1024AC0043FC08BD08B5024801F028F808BD00BF80
:1024BC00BC1D002008B5024801F020F808BD00BF83
:1024CC00B81C002008B5024802F018F908BD00BF7E
:1024DC003C27002008B5024803F08AFA08BD00BF6B
:1024EC00FC1C002010B503460C4A0D490D48006831
:1024FC0040B10C4800680344521A934206D8094A6A
:10250C00136010BD0748084C0460F2E705F0E4FBCB
:10251C000C2303604FF0FF30F3E700BF00500020A6
:10252C000004000018110020282A00207047000029
:10253C00034B93F89C02032814BF00200120704722
:10254C007024002008B5044BB3F8401001B908BD45
:10255C001846FFF729FDFAE71C110020014B93F8F0
:10256C004A0070471C11002038B504460D46FFF791
:10257C00DFFF20B12946204600F088F938BD6423DE
:10258C002A462146014803F042F9F7E7FC1C0020DB
:10259C0030B583B004461A4B93F848301BB9184B2E
:1025AC00012283F8482000F0CBFB154B5864002225
:1025BC0083F849200A2C0DD00D2C0BD0104BB3F8FE
:1025CC0040303E2B04D80E4A591CA2F84010D4546B
:1025DC0003B030BD0A4CB4F840300025E554FFF789
:1025EC00B1FFA4F84050074B1B68ADF804301B0C2E
:1025FC008DF80630022101A8FFF7B6FFE8E700BF0F
:10260C001C110020948F000838B50C4BB3F84030E7
:10261C0043B10A4A92F8492022B9084A526C801AEE
:10262C00312800D838BD054C012284F849200025FA
:10263C00E554FFF787FFA4F84050F3E71C11002086
:10264C0008B500F07DFBFFF7DFFF08BD064A00234D
:10265C00A2F80038A2F80238044AA2F80031A2F815
:10266C000231034A137070476C120020681100206D
:10267C00701A002070B4EFF3108572B6184CB4F8D1
:10268C0000389AB2B4F802389BB29A421AD39B1A09
:10269C009BB203F2FF739BB2994218D800228A4274
:1026AC0019D20F4CB4F800389BB2865CE654B4F8DF
:1026BC0000389BB20133C3F30A03A4F8003801328B
:1026CC0092B2ECE79B1A9BB2013B9BB2E4E785F319
:1026DC001088002002E085F31088012070BC704740
:1026EC006C12002010B40446154AB2F800389BB2A4
:1026FC00B2F8020880B2834219D3181A80B2E0B142
:10270C00884228BF08460022824216D20C49B1F8F2
:10271C0002389BB2CB5CA354B1F802389BB20133A4
:10272C00C3F30A03A1F80238013292B2ECE7181A8B
:10273C0080B200F5006080B2E1E710BC704700BFCA
:10274C006C1200200F4AB2F800319BB2B2F8022191
:10275C0092B201335942DBB2C9B258BF4B429342D9
:10276C000DD0084AB2F800319BB2D054B2F8003107
:10277C009BB20133DBB2A2F800310120704700207C
:10278C00704700BF681100200C4BB3F8002192B2C7
:10279C00B3F802319BB29A420ED0084AB2F8023119
:1027AC009BB2D35C0370B2F802319BB20133DBB243
:1027BC00A2F80231012070470020704768110020F8
:1027CC0000207047202803D0212814D00020704707
:1027DC000B784A7843EA02238A7843EA0243CA78A0
:1027EC0043EA02630D4A13600B7913714B795371F1
:1027FC008B799371EAE7094A13680B70C3F30720CE
:10280C004870C3F3074088701B0ECB7013790B71A3
:10281C0053794B7193798B71D8E700BF040000207A
:10282C0070B505460E46FFF799FE012801D100242C
:10283C0007E0FFF793FE38B9F9E7285DFFF782FF51
:10284C0001343368A342F8D8044C2946204605F0DD
:10285C00DEF8204605F0FDF8002070BD7024002045
:10286C0010B5074C00220749204605F0C8F8064968
:10287C00204605F0CCF8FFF7E9FE002010BD00BFA4
:10288C007024002048200020481E002008B5FFF7C7
:10289C00F1FE08BD0A4BD3F8C4327BB1D3F8143225
:1028AC000BB10120704710B5054C0A460146204675
:1028BC0005F0A5F8204605F0B0F810BD02207047D1
:1028CC007024002070B592B0164BD3F8C46200256A
:1028DC000DF14700FFF758FF044628B19DF847005B
:1028EC00FFF756FE2546F3E745B12EB1D6F8143264
:1028FC0013B90D4B1B7823B112B070BDFFF7A0FEBE
:10290C00F3E7402101A8FFF7EDFE01460028F3D0C4
:10291C00054C0123237001A8FFF7BCFF0023237093
:10292C00EAE700BF70240020701A002012230B80ED
:10293C00004870473800002004230B800048704783
:10294C00B80000200023934217D230B40BE0373488
:10295C0001F8134000015C00013400250D550133D2
:10296C00DBB2934207D2040FB0F1204FEFD23034D8
:10297C0001F81340EEE730BC7047704738B50A4B8E
:10298C00186804331C6804331B68C01800D138BDA8
:10299C00064D0822A91CFFF7D5FF042205F11201F0
:1029AC002046FFF7CFFFF2E7E8F7FF1FBC0000203F
:1029BC0008B51A230B80FFF7E1FF014808BD00BFE3
:1029CC00BC00002008B50A4628B90549054804F0A2
:1029DC0046FE034808BD0249024804F040FEF8E7F1
:1029EC00482200206093000810B50A46034C21468B
:1029FC00034804F034FE204610BD00BF48220020DE
:102A0C007093000808B50A4628B90549054804F032
:102A1C0026FE034808BD0249024804F020FEF8E7F0
:102A2C00482200207C93000808B50A46A0B90D4B3B
:102A3C0093F8AC3233B1012B09D00B490B4804F09D
:102A4C000EFE0DE008490A4804F009FE08E00649AC
:102A5C00084804F004FE03E00349044804F0FFFDB9
:102A6C00014808BD7024002048220020A0930008D3
:102A7C00889300089493000838B50446D0F8B852EF
:102A8C00084BDB6803B1984705F50973C4F8B832F5
:102A9C00054BDB680BB120469847C4F8B8520020B0
:102AAC0038BD00BF140200205801002038B5044680
:102ABC00D0F8B852044BC0F8BC32044B1B69984791
:102ACC00C4F8B852002038BD0C00002014020020BD
:102ADC0038B50446D0F8B8528B1EDBB2012B03D9A3
:102AEC00012907D0002002E0064B5B699847C4F827
:102AFC00B85238BD05F50973C0F8B832024B5B69A2
:102B0C009847F4E7140200205801002038B5044619
:102B1C00D0F8B852012903D00020C4F8B85238BDFF
:102B2C00014B9B699847F8E71402002038B504461E
:102B3C00D0F8B85205F50973C0F8B832044BDB690C
:102B4C001BB19847C4F8B85238BD0020FAE700BF53
:102B5C00580100206C230380004870474C00002073
:102B6C0008B5024B9B6A984708BD00BF14020020B1
:102B7C000A2303800020704738B50446D0F8B852B9
:102B8C000B79012B09D9022B10D105F50973C0F86B
:102B9C00B832084B9B68984705E0074BC0F8BC322D
:102BAC00064B9B689847C4F8B85238BD04F068FAD5
:102BBC000220F8E7580100200C000020140200202D
:102BCC0070B5D0F8B8629EB104460D46094B5B68EF
:102BDC00984706F50973C4F8B832074B5B68294669
:102BEC0020469847304605F075F80023C4F8B832F3
:102BFC00002070BD140200205801002070B504465E
:102C0C000E464FF40E7005F061F820B30546C4F87B
:102C1C00B802C4F8C402124BC4F8BC32002380F8CA
:102C2C003432104B1B6831462046984790B901232B
:102C3C0085F8353205F50973C4F8B832C4F8C832D2
:102C4C000023C4F8BC32084B1B6831462046984719
:102C5C00C4F8B85270BD0023C4F8B8320220F9E7AA
:102C6C000C0000201402002058010020FFF75EFC2D
:102C7C000B480C490C4A002302E0D458C4500433CE
:102C8C00C4188C42F9D3094A094C002301E01360A3
:102C9C000432A242FBD305F025F8FDF783FF704701
:102CAC000000002088030020009400088803002006
:102CBC00242A0020FEE7000010B504460E4B1878BD
:102CCC004FF47A73B3FBF0F30C4A1068B0FBF3F0DB
:102CDC0000F008FB68B90F2C01D901200AE0002292
:102CEC0021464FF0FF3000F0BBFA054B1C60002072
:102CFC0000E0012010BD00BF1001002000000020EA
:102D0C001401002008B5074A136843F01003136040
:102D1C00032000F093FA0F20FFF7CEFFFFF7BEFA67
:102D2C00002008BD00200240034A1168034B1B78A9
:102D3C000B441360704700BF482400201001002092
:102D4C00014B1868704700BF4824002038B5044672
:102D5C00FFF7F6FF0546B4F1FF3F02D0044B1B789A
:102D6C001C44FFF7EDFF401BA042FAD338BD00BF57
:102D7C001001002008B5436A9A6A12F0500F1ED158
:102D8C009A6A42F400729A621A68926802F460229B
:102D9C00B2F5602F03D01846FDF7AAFD08BD1A7BCB
:102DAC00002AF8D19A6A22F480729A629A6A12F412
:102DBC00805FF0D19A6A42F001029A62EBE71B6ADB
:102DCC001B6B9847EAE708B5406AFDF75FFD08BD45
:102DDC00704708B5406A836A43F040038362C36A54
:102DEC0043F00403C362FFF7F3FF08BD30B482B0B5
:102DFC000022019290F82420012A00F08B800346D7
:102E0C00012280F824204A68062A29D80568686BB4
:102E1C0002EB8202053A1F24944020EA04000C685D
:102E2C0004FA02F202436A630A68092A38D91D6857
:102E3C00E86802EB42021E3A0724944020EA0400A0
:102E4C008C6804FA02F20243EA600A68103A012A1A
:102E5C0034D90020002283F8242002B030BC704703
:102E6C000C2A0ED80568286B02EB8202233A1F2429
:102E7C00944020EA04000C6804FA02F202432A632C
:102E8C00D2E70568E86A02EB8202413A1F249440BB
:102E9C0020EA04000C6804FA02F20243EA62C3E777
:102EAC001D68286902EB42020724944020EA0400C2
:102EBC008C6804FA02F202432A61C6E71A681648C3
:102ECC00824205D09A6A42F020029A620120C1E740
:102EDC00906810F4000F1BD1906840F400009060D3
:102EEC000A68102A01D00020B4E70C4A12680C4979
:102EFC00A1FB0212920C02EB82025200019202E040
:102F0C00019A013A0192019A002AF9D10020A1E715
:102F1C0000209FE70220A0E70024014000000020D1
:102F2C0083DE1B4330B583B00023019303689A689A
:102F3C0012F0010F32D104469A6842F001029A60F5
:102F4C00184B1B68184AA2FB03239B0C0193019B93
:102F5C001BB1019B013B0193F9E7FFF7F1FE05461D
:102F6C0023689B6813F0010F16D1FFF7E9FE431B92
:102F7C00022BF5D923689B6813F0010FF0D1A36ADB
:102F8C0043F01003A362E36A43F00103E3620023FE
:102F9C0084F82430012002E0002000E0002003B07F
:102FAC0030BD00BF0000002083DE1B43F8B5044693
:102FBC000D461646036844498B4259D0434A934206
:102FCC0056D094F82430012B7CD0012384F8243083
:102FDC002046FFF7A7FF074600286ED1A36A23F40B
:102FEC00706323F0010343F48073A3622268374BB0
:102FFC009A4244D0A36A23F48013A362536813F457
:10300C00806F05D0A36A23F4405343F48053A3622A
:10301C00A36A13F4805F48D0E36A23F00603E362EB
:10302C00002384F82430236A294A9A62236A294AA5
:10303C00DA62236A284A1A6323686FF002021A6064
:10304C002268936843F480739360216833462A4660
:10305C004C31206A00F0A8F923689A6802F46022C7
:10306C00B2F5602F24D09A6842F480129A6027E05F
:10307C00154B5B6813F4702FA3D0012720E0A3F548
:10308C0080635B6813F4702FB4D0A36A43F480138D
:10309C00A3620D4B5B6813F4806FB9D0A36A23F461
:1030AC00405343F48053A362B2E70023E362B7E7D3
:1030BC009A6842F4A0029A6002E0002384F824305B
:1030CC003846F8BD0227FBE70024014000280140E8
:1030DC00812D0008D32D0008DF2D000838B50368BA
:1030EC009A6812F0010F01D1002038BD04469A688D
:1030FC0022F001029A60FFF723FE054623689B68C5
:10310C0013F0010F13D0FFF71BFE431B022BF5D955
:10311C0023689B6813F0010FF0D0A36A43F01003EF
:10312C00A362E36A43F00103E3620120DDE70020C0
:10313C00DBE7000000287BD070B50446836A002BC7
:10314C004DD02046FFF7CAFFA36A13F0100369D1D4
:10315C00002867D1A26A22F4885222F0020242F0BF
:10316C000202A2626268E1690A43217B42EA4102DF
:10317C00A568B5F5807F02D0012D36D01D46267D81
:10318C00012E35D02668716821F46941294371609C
:10319C002568AE68274931401143A960A168B1F593
:1031AC00807F01D0012902D12369013B1B052568D1
:1031BC00E96A21F470010B43EB62236899681E4B9A
:1031CC000B409A4225D0A36A23F0120343F010035C
:1031DC00A362E36A43F00103E362012027E0C362C8
:1031EC0080F82430FFF77CF8ABE74FF48075C6E726
:1031FC0031B9A169013945EA413141F40065C1E7B2
:10320C00A16A41F02001A162E16A41F00101E16291
:10321C00B8E70023E362A36A23F0030343F001033E
:10322C00A36204E0A36A43F01003A362012070BD03
:10323C0001207047FDF7E1FFFE0E1FFF074AD36820
:10324C0023F4E0631B041B0C000200F4E060034356
:10325C0043F0BF6343F40033D360704700ED00E0EC
:10326C0030B4174BDB68C3F30223C3F10704042CFF
:10327C0028BF04241D1D062D18D9033B4FF0FF3524
:10328C0005FA04F421EA0401994005FA03F322EA51
:10329C000303194300280BDB0901C9B200F160409C
:1032AC0000F5614080F8001330BC70470023E5E75F
:1032BC0000F00F000901C9B2024B1954F4E700BF2A
:1032CC0000ED00E014ED00E0002807DB00F01F0229
:1032DC00400901239340024A42F82030704700BF56
:1032EC0000E100E00138B0F1807F0AD2064B586053
:1032FC00064AF02182F823100020986007221A60F9
:10330C0070470120704700BF10E000E000ED00E0C6
:10331C0070B4066CC56B0124B4406C6004686360C7
:10332C004368102B05D0036899600368DA6070BCA1
:10333C00704703689A600368D960F8E760B310B40B
:10334C0002460168154B0B441548A0FB03031B09EF
:10335C009B001364134BD363022382F8213008685B
:10336C0020F47F5020F03000536894682343D468D5
:10337C002343146923435469234394692343D46935
:10338C00234303430B6000209063012382F8213018
:10339C0082F8200010BC704701207047F8FFFDBF79
:1033AC00CDCCCCCC0000024038B5044690F82000BF
:1033BC00012832D0012084F8200094F82100C0B2FA
:1033CC00012804D0002384F82030022038BD0220CC
:1033DC0084F821000020A0632568286820F00100F3
:1033EC0028602046FFF794FFE36A5BB122681368FC
:1033FC0043F00E0313602268136843F0010313605B
:10340C000020E3E72268136823F0040313602268AA
:10341C00136843F00A031360EDE70220D6E790F837
:10342C002130DBB2022B06D004238363002380F807
:10343C002030012070470268136823F00E031360DC
:10344C000268136823F001031360036CC16B012243
:10345C0002FA03F34B6080F82120002380F820301F
:10346C001846704708B590F82130DBB2022B03D018
:10347C0004238363012008BD0268136823F00E0344
:10348C0013600268136823F0010313600368194A80
:10349C00934214D0143293421FD0143293421ED054
:1034AC00143293421ED0143293421ED014329342E3
:1034BC0002D04FF0807203E04FF4801200E0012242
:1034CC000D4B5A60012380F82130002380F8203006
:1034DC00436B6BB198470020CDE71022F0E74FF417
:1034EC008072EDE74FF48052EAE74FF48032E7E761
:1034FC000020C0E7080002400000024038B5C36B52
:10350C001A6804682568016C04238B40134235D07B
:10351C0015F0040F32D0236813F0200F03D1236869
:10352C0023F0040323600368434A934214D01432FB
:10353C00934218D01432934217D01432934217D0BE
:10354C001432934217D01432934202D04FF080625F
:10355C0003E04FF4800200E00422384B5A60C36A47
:10356C0003B1984738BD4022F7E74FF48062F4E787
:10357C004FF48042F1E74FF48022EEE702238B40B8
:10358C0013423CD015F0020F39D0236813F0200FF2
:10359C0006D1236823F00A032360012380F821302D
:1035AC000368254A934214D0143293421CD014322F
:1035BC0093421BD0143293421BD0143293421BD033
:1035CC001432934202D04FF0007203E04FF4001219
:1035DC0000E00222194B5A60002380F82030836AE5
:1035EC00002BBFD09847BDE72022F3E74FF40072C1
:1035FC00F0E74FF40052EDE74FF40032EAE708230E
:10360C0003FA01F11142ADD015F0080FAAD02368CE
:10361C0023F00E032360026CC16B012303FA02F248
:10362C004A60836380F82130002380F82030036BDC
:10363C00002B97D0984795E7080002400000024005
:10364C00044B0022DA61044A136943F0010313614D
:10365C00018070475024002000200240194BDB6889
:10366C0013F0100305D0184AD36943F00203D36159
:10367C001023144AD26812F0040F06D01249CA69FA
:10368C0042F00102CA6143F004030E4AD26912F0FF
:10369C00010F09D00C49CA6942F00402CA610949F8
:1036AC00CA6922F00102CA6140F20112934202D0AF
:1036BC00044AD3607047034AD36923F00103D361F2
:1036CC00704700BF00200240502400200A4B1B69A9
:1036DC0013F0800F0BD0084B084A5A6002F1883265
:1036EC005A601B6913F0800F03D100207047002033
:1036FC0070470120704700BF00200240230167453E
:10370C00034A136943F0800313610020704700BF24
:10371C000020024038B50446FFF712FB0546164B55
:10372C00DB6813F0010F0AD0B4F1FF3FF7D024B1DE
:10373C00FFF706FB401BA042F1D903201BE00E4B08
:10374C00DB6813F0200F02D00B4B2022DA600A4BFF
:10375C00DB6813F0100F0BD1074BDB6913F0010F73
:10376C0006D1054BDB6813F0040F01D1002002E0F9
:10377C00FFF774FF012038BD002002402DE9F8430B
:10378C001E46234B1B7E012B40D004460F46904611
:10379C001F4B01221A764CF25030FFF7BBFF034649
:1037AC0070BB012C29D0022C24D04FF004091C46EC
:1037BC004C4525D22101C1F12002A1F1200328FAA8
:1037CC0001F106FA02F2114326FA03F3194389B206
:1037DC0007EB4400FFF734FF4CF25030FFF79AFF31
:1037EC000C4B1D6925F001051D61034640B90134E0
:1037FC00E4B2DDE74FF00209D9E74FF00109D6E753
:10380C00034A002111761846BDE8F8830223FAE733
:10381C005024002000200240064B0022DA61064BA7
:10382C001A6942F004021A611A6942F040021A61E4
:10383C00704700BF5024002000200240064B00229D
:10384C00DA61064B1A6942F002021A6158611A6970
:10385C0042F040021A6170475024002000200240C0
:10386C00264B1B7E012B46D070B505460E46234BCE
:10387C0001221A760368022B20D04CF25030FFF74D
:10388C0049FF90BB4FF0FF333360AC680121EA680D
:10389C00AB6803EB8223A34228D92046FFF7CEFF67
:1038AC004CF25030FFF736FF154A136923F0020330
:1038BC0013610146B8B904F58064E8E74CF2503066
:1038CC00FFF728FF08B1012110E00120FFF7A4FF4A
:1038DC004CF25030FFF71EFF0146094A136923F0E2
:1038EC000403136102E0346000E00121034B002269
:1038FC001A76084670BD02210846704750240020F5
:10390C0000200240F0B482B000252C46A3E07F4F8B
:10391C00BB4210D007D97E4FBB420CD007F5803785
:10392C00BB4208D013E0A7F58017BB4203D007F5C4
:10393C007027BB4207D18B68002B58D0012B51D07C
:10394C004261082503E0A7F58017BB42F3D0FF2E98
:10395C004FD88446FF2E4FD8A200DCF800300F273A
:10396C00974023EA070305FA02F21343CCF8003020
:10397C004B6813F0805F6DD0664B9A6942F0010280
:10398C009A619B6903F001030193019BA208971CA8
:10399C00614B53F8273004F00307BF004FF00F0CB6
:1039AC000CFA07FC23EA0C0C5C4B98422AD003F56A
:1039BC008063984200F08A8003F58063984200F09F
:1039CC00878003F5806398421AD004231BE0CD68EE
:1039DC00BDE7CD680435BAE7CD680835B7E7CD68E3
:1039EC000C35B4E702610825B1E70025AFE70425E3
:1039FC00ADE700F1040CADE7A4F108029200ACE7CE
:103A0C00032300E00023BB4043EA0C030232424F85
:103A1C0047F822304B6813F4801F5BD0404A936800
:103A2C00334393604B6813F4001F59D03C4AD3685E
:103A3C003343D3604B6813F4003F57D0384A536874
:103A4C00334353604B6813F4803F55D0344A1368AA
:103A5C001E43166001340B6833FA04F252D0012273
:103A6C00A24003EA020632EA0303F3D14B68122B9D
:103A7C003FF64DAF122B3FF66AAF01A757F823F074
:103A8C0043390008DB390008E5390008F73900082C
:103A9C005B3900085B3900085B3900085B390008AA
:103AAC005B3900085B3900085B3900085B3900089A
:103ABC005B3900085B3900085B3900085B3900088A
:103ACC005B390008DF390008EB39000801239AE75D
:103ADC00022398E7124A936823EA06039360A1E74E
:103AEC000F4AD36823EA0603D360A3E70C4A536852
:103AFC0023EA06035360A5E7094A136823EA06067E
:103B0C001660A7E702B0F0BC704700BF000022109F
:103B1C00000031100010024000000140000801407C
:103B2C00000401400AB1016170470904016170474A
:103B3C0070B512F4804F43D00468B4F850309BB287
:103B4C000D7803EBC503023304EB4303B3F80044D5
:103B5C00C4F309048B69A34228D31B1B8B618B69AB
:103B6C007BB9066836F825309BB223F4804323F0EA
:103B7C00700383F4005343F4004343F0800326F8AE
:103B8C00253012F0400F0ED002680D7832F8253037
:103B9C009BB223F4E04323F0700343F4004343F05F
:103BAC00C00322F8253024B9204670BD00238B6158
:103BBC00D5E723460A894969006802F0EBFFF3E771
:103BCC000468B4F850309BB20D7803EBC503063390
:103BDC0004EB4303B3F80044C4F309048B69A34218
:103BEC002ED31B1B8B618B697BB9066836F825308D
:103BFC009BB223F4804323F0700383F4005343F40B
:103C0C00004343F0800326F8253012F0400F0ED10C
:103C1C0002680D7832F825309BB223F4E04323F090
:103C2C00700343F4004343F0C00322F82530002C0A
:103C3C00BAD023464A894969006802F0ABFFB3E762
:103C4C0000238B61CFE738B500286DD0044690F87F
:103C5C009132A3B1032384F891320023637120685D
:103C6C0002F048F8234653F8040B0ECB02F032F85E
:103C7C0050B1022384F891320125284638BD80F8D2
:103C8C00903203F00BFFE5E70021206802F03CF8CE
:103C9C000346A8B90246207990422DD902EB820145
:103CAC0004EBC101012048740A740020C874086236
:103CBC004862013202EB8201C9006050D2B2EAE7DD
:103CCC00022384F891320125D7E703EB830204EB3E
:103CDC00C202002182F8511182F8503182F853113E
:103CEC00C2F86011C2F8641103EB830204EBC20248
:103CFC00C2F868110133DBB29842E6D8234653F878
:103D0C00040B0ECB02F002F8054620B1022384F816
:103D1C0091320125B1E700236373012384F89132BA
:103D2C00206802F035FBA8E70125A6E738B590F826
:103D3C009032012B11D00446012580F89052006876
:103D4C0001F0CFFF2946204603F0C5FF206802F0A2
:103D5C001DFB002084F8900238BD0220FCE770B5F2
:103D6C0005460C46164612F0400F00F00E81026814
:103D7C00B2F850309BB2097803EBC103023302EB6B
:103D8C004303B3F80024C2F30902A36993424ED94A
:103D9C009B1AA361A369002B66D16378002B49D1D0
:103DAC002B68B3F8502092B2134403EB0111B1F815
:103DBC000434C3F30903A1F80434B1F804346FEAF2
:103DCC0043436FEA53439BB2A1F804342B686278E7
:103DDC00002A3CD1B3F8502092B21344227803EB62
:103DEC000213B3F80C24C2F30902A3F80C24B3F8A1
:103DFC000C246FEA42426FEA524292B2A3F80C24AE
:103E0C002178284603F07EFE16F4804F41D02A68B4
:103E1C00217832F821309BB223F4E04323F0700375
:103E2C0043F4404343F0800322F8213031E0002377
:103E3C00A361AFE7012BC9D12B68B3F8502092B224
:103E4C00134403EB01110023A1F80434BEE7012A4B
:103E5C00D6D1B3F8502092B21344227803EB02135C
:103E6C000022A3F80C24CBE716F4804F0DD0286861
:103E7C0030F821309BB223F4E04323F0700343F479
:103E8C00404343F0800320F8213094F82430012B78
:103E9C0012D02A68217832F821309BB223F4E04307
:103EAC0023F0400383F0300343F4004343F08003DA
:103EBC0022F82130002070BD636913446361E3690B
:103ECC001344E361216A2369994224D3C91A2162FC
:103EDC006278002A44D12A68B2F8501089B20A4498
:103EEC00217802EB0112B2F80414C1F30901A2F813
:103EFC0004143E2B1BD9580913F01F0F00D10138A5
:103F0C00B2F8041489B2800280B2014341F400413A
:103F1C00A2F8041426E021B9002384F824301346B7
:103F2C00D6E7002384F8243023620B46D0E74BB944
:103F3C00B2F804146FEA41416FEA514189B2A2F818
:103F4C0004140FE0590813F0010F00D00131B2F83E
:103F5C00040480B2890289B20143A2F8041401E07E
:103F6C00012A06D09BB222896169286802F018FAEE
:103F7C008FE72A68B2F8501089B20A44217802EB14
:103F8C00011299B2A2F80414ECE70268B2F85030AE
:103F9C009BB2097803EBC103063302EB4303B3F87E
:103FAC000024C2F30902A36993424FD39B1AA36165
:103FBC00A369002B67D16378002B4AD12B68B3F827
:103FCC00502092B2134403EB0111B1F80434C3F343
:103FDC000903A1F80434B1F804346FEA43436FEADF
:103FEC0053439BB2A1F804342B686278002A3DD16C
:103FFC00B3F8502092B21344227803EB0213B3F8B7
:10400C000C24C2F30902A3F80C24B3F80C246FEAB5
:10401C0042426FEA524292B2A3F80C24217828460D
:10402C0003F070FD16F4804F7FF433AF2A682178CB
:10403C0032F821309BB223F4E04323F0700343F4B5
:10404C00404343F0800322F8213022E70023A36190
:10405C00AEE7012BC8D12B68B3F8502092B21344B1
:10406C0003EB01110023A1F80434BDE7012AD5D1DB
:10407C00B3F8502092B21344227803EB02130022BF
:10408C00A3F80C24CAE716F4804F0DD1286830F839
:10409C0021309BB223F4E04323F0700343F44043FC
:1040AC0043F0800320F8213094F82430012B7FF466
:1040BC00F0AE636913446361E3691344E361216AFD
:1040CC002369994224D3C91A21622A68617800298C
:1040DC0043D1B2F8501089B20A44217802EB011294
:1040EC00B2F80C14C1F30901A2F80C143E2B1BD925
:1040FC00580913F01F0F00D10138B2F80C1489B213
:10410C00800280B2014341F40041A2F80C1426E075
:10411C0021B9002384F824301346D6E70023236208
:10412C0084F824300B46D0E74BB9B2F80C146FEA84
:10413C0041416FEA514189B2A2F80C140FE05908C1
:10414C0013F0010F00D00131B2F80C0480B28902D7
:10415C0089B20143A2F80C1401E0012906D09BB2EC
:10416C0062896169286802F01BF992E6B2F8501076
:10417C0089B20A44217802EB011299B2A2F80C140C
:10418C00EDE72DE9F04105462868B0F8443013F40A
:10419C00004F00F09D82B0F84440A3B214F00F041D
:1041AC0040F0DE8013F0100F6BD003889AB213F43A
:1041BC00006F40F0998012F4004FE5D0038823F093
:1041CC0070031B051B0D43F0800303802868B0F8B7
:1041DC0050309BB295F8502103EBC203063300EB31
:1041EC004303B3F80034C3F30903C5F86C318BB146
:1041FC00D5F8641171B1B5F8562102F0CBFCD5F8A5
:10420C006C21D5F864311344C5F86431002128467B
:10421C0003F06CFC2A68138899B213F4006FB3D1C5
:10422C0001F44051B1F5405FAED0B2F850309BB2C2
:10423C001A44B2F80C34C3F30903A2F80C34D5F8C1
:10424C0060313E2B73D9590913F01F0F00D101397E
:10425C00B2F80C349BB2890289B20B4343F400438D
:10426C00A2F80C342A6813889BB223F4804323F001
:10427C00700383F4405343F4004343F080031380F2
:10428C0082E703889BB223F4E14323F070036FEAC7
:10429C0043436FEA53439BB203802A68B2F8503011
:1042AC009BB2297C03EBC103023302EB4303B3F84B
:1042BC000034C3F30903EB626A6A13446B62002196
:1042CC00284603F01FFC6B7B002B3FF45DAFAB6A01
:1042DC00002B7FF459AF6B7B2A6843F08003A2F864
:1042EC004C3000236B734FE7B0F850309BB295F80D
:1042FC00502103EBC203063300EB4303B3F8003445
:10430C00C3F30903C5F86C31B5F8562105F52671D0
:10431C0002F040FC2A68138823F070031B051B0D68
:10432C0043F080031380284603F0D8FB2CE74BB9ED
:10433C00B2F80C346FEA43436FEA53439BB2A2F8D2
:10434C000C348FE7590813F0010F00D00131B2F88B
:10435C000C3498B28B029BB20343A2F80C3481E765
:10436C0030F824309EB213F4004F54D116F0800F65
:10437C003FF40AAF04EB8401C900103129442A68C8
:10438C0032F824309BB223F4E14323F070036FEA3C
:10439C0043436FEA53439BB222F8243004EB84036B
:1043AC0005EBC303DB7C012B00F0F68016F4807F59
:1043BC0040F089812868B0F850309BB204EB84023D
:1043CC0005EBC202127C03EBC203023300EB430386
:1043DC00B3F80034C3F30903621C02EB820255F8F4
:1043EC0032209A4240F25681661C06EB8606D21A9F
:1043FC0045F83620621C02EB820255F83220002A66
:10440C0040F04F8104EB840405EBC404217C284666
:10441C0003F078FBB8E630F8243023F070031B056A
:10442C001B0D43F0800320F8243004EB8401C900F9
:10443C0001F5A87105EB010804EB840305EBC3033C
:10444C0093F85C31002B42D12868B0F850309BB205
:10445C0004EB840205EBC20292F8502103EBC20379
:10446C00063300EB4303B3F80074C7F3090717BB1B
:10447C0004EB840305EBC303D3F86C213A44C3F873
:10448C006C21D3F864213A44C3F86421D3F8683121
:10449C003BB104EB840305EBC303D3F860319F42BB
:1044AC0075D204EB840305EBC30393F85011284633
:1044BC0003F01CFB5AE704EB840105EBC1013B46FE
:1044CC00B1F85621D1F8641102F064FBD0E704EB8B
:1044DC00840305EBC30393F85331022B35D02968C1
:1044EC0004EB840205EBC20292F8500131F8203043
:1044FC009BB223F4E04323F0700343F4004343F0F6
:10450C00C00321F82030286892F8502130F822306E
:10451C0013F4804F20D0B0F850309BB203EBC203A1
:10452C00023300EB4303B3F80074C7F30907002F01
:10453C009ED004EB840105EBC1013B46B1F8582138
:10454C00D1F8641102F026FB92E732464146284628
:10455C00FFF7EEFA07468BE7B0F850309BB203EB4F
:10456C00C203063300EB4303B3F80074C7F3090727
:10457C00002F3FF47DAF04EB840105EBC1013B46FA
:10458C00B1F85A21D1F8641102F004FB70E74146EE
:10459C00286801F018FFE9E6631C03EB8303DB00DA
:1045AC000022EA5004EB840305EBC3031B7F1BB30F
:1045BC0016F0400F3BD004EB840305EBC3035B7C8C
:1045CC001BBB2B68B3F8502092B2134404EB84024B
:1045DC0005EBC202127C03EB0213B3F80424C2F302
:1045EC000902A3F80424B3F804246FEA42426FEAE8
:1045FC00524292B2A3F8042404EB840405EBC404E5
:10460C00217C284603F07EFABEE5012BF4D12B6801
:10461C00B3F8502092B2134404EB840205EBC202AF
:10462C00127C03EB02130022A3F80424E4E72B68AA
:10463C0004EB840205EBC202527CD2B9B3F85020D1
:10464C0092B2134404EB840205EBC202127C03EB1E
:10465C000213B3F80C24C2F30902A3F80C24B3F828
:10466C000C246FEA42426FEA524292B2A3F80C2435
:10467C00C2E7012AC0D1B3F8502092B2134404EB24
:10468C00840205EBC202127C03EB02130022A3F896
:10469C000C24B1E7621C02EB8202D2000026AE5061
:1046AC00A8E604EB840205EBC202566A1E4456626D
:1046BC00013404EB840205EBC202546823445360BA
:1046CC0001F081FE60E532462846FFF748FB5BE5CA
:1046DC000020BDE8F08190F89032012B0CD010B581
:1046EC000446012380F890324173006801F048FEC3
:1046FC00002084F8900210BD0220704710B584B0E1
:10470C000446006801F046FE10F4004F20D110F46E
:10471C00806F21D110F4804F2FD110F4005F37D16E
:10472C0010F4805F3ED110F4006F40F0878010F4DD
:10473C00007F40F0AE8010F4807F27D02268B2F862
:10474C0044309BB223F480739BB2A2F844301DE03A
:10475C002046FFF716FD19E02268B2F844309BB2F0
:10476C0023F480639BB2A2F84430204603F0DBF9BB
:10477C0000212046FFF7AFFF08E02268B2F8443072
:10478C009BB223F480439BB2A2F8443004B010BD1A
:10479C002268B2F844309BB223F400539BB2A2F8C7
:1047AC004430F3E72268B2F840309BB223F00403A4
:1047BC009BB2A2F840302268B2F840309BB223F092
:1047CC0008039BB2A2F84030204603F0CFF92268D0
:1047DC00B2F844309BB223F480539BB2A2F844301D
:1047EC00D4E7226832F8231004AA02EB430222F821
:1047FC00101C0133DBB2072BF3D92268B2F840301E
:10480C009BB243F00103A2F840302268B2F840306A
:10481C009BB223F001039BB2A2F840302368B3F89B
:10482C00442012F4806FF9D0B3F8442092B222F4F1
:10483C00806292B2A3F8442000230BE00023DAE755
:10484C00226804A901EB430131F8101C22F8231053
:10485C000133DBB2072BF3D92268B2F840309BB29C
:10486C0043F00803A2F840302268B2F844309BB2FF
:10487C0023F400639BB2A2F844302268B2F84030B3
:10488C009BB243F00403A2F84030204603F05EF9DB
:10489C007CE72268B2F844309BB223F400739BB2DD
:1048AC00A2F84430204603F038F96FE770B504469F
:1048BC00084611F0800F23D101F0070505EB8506A2
:1048CC00F60006F5A876A11905EB850504EBC505E0
:1048DC00002685F8516100F0070008700A61CB7062
:1048EC00022B1BD094F89032012B1AD0012384F8A0
:1048FC009032206801F01DFA002084F8900270BDFF
:10490C0001F0070505EB8501C9001031214405EBC9
:10491C00850504EBC50501266E74DCE700230B71DD
:10492C00E0E70220EBE710B504460A4611F0800FD1
:10493C001FD101F0070000EB8003DB0003F5A87327
:10494C00E11800EB800004EBC000002380F851312B
:10495C0002F007020A7094F89032012B17D0012351
:10496C0084F89032206801F0ABFB002084F89002B0
:10497C0010BD01F0070000EB8003DB001033E118E1
:10498C0000EB800004EBC00001234374E0E702203D
:10499C00EEE770B501F0070404EB8401C90001F5E2
:1049AC00A87104EB840500EBC505C5F86421C5F8B6
:1049BC0068310026C5F86C6185F8516185F8504165
:1049CC000144006801F0FFFC304670BD01F00701A6
:1049DC0001EB810100EBC101D1F86C017047F8B516
:1049EC0001F0070404EB8401C900103104EB8405C9
:1049FC0000EBC5056A62621C02EB820640F8363099
:104A0C00012785F834702B6300EBC6020026566034
:104A1C006F742C740144006801F0D5FC3046F8BD6D
:104A2C0038B501F007050279AA4235D304460B4686
:104A3C0011F0800F1ED101EB8101C90001F5A871A5
:104A4C00014403EB830300EBC303002283F85121E1
:104A5C0001238B700D7094F89032012B1ED0012322
:104A6C0084F89032206801F015FC7DB1002084F8A8
:104A7C00900238BD05EB8501C9001031014405EBEE
:104A8C00850300EBC30301225A74E1E704F5267198
:104A9C00206801F083FCE9E70120EAE70220E8E75F
:104AAC000B46017903F00F02914234D310B5044642
:104ABC0013F0800F21D103F0070202EB8201C90031
:104ACC0001F5A871014402EB820200EBC202002046
:104ADC0082F8510100228A7003F007030B7094F8DE
:104AEC009032012B19D0012384F89032206801F008
:104AFC00F6FB002084F8900210BD03F0070202EBD5
:104B0C008201C9001031014402EB820200EBC202A7
:104B1C0001205074DEE7012070470220ECE711F011
:104B2C00800F0BD001F0070101EB8101C90010319E
:104B3C00014452B90A73CB800020704701EB81010C
:104B4C00C90001F5A8710144F3E701220A730B8136
:104B5C001B0C4B81F0E7000082B0084B1B68084A25
:104B6C00A2FB03235B0A00FB03F3019300BF019B31
:104B7C005A1E0192002BF9D102B0704700000020A0
:104B8C00D34D6210002800F0F18170B582B004465C
:104B9C00036813F0010F2CD0AA4B5B6803F00C03D5
:104BAC00042B1DD0A74B5B6803F00C03082B12D011
:104BBC006368B3F5803F41D0002B55D103F180439E
:104BCC0003F504331A6822F480321A601A6822F44E
:104BDC0080221A6037E09B4B5B6813F4803FE7D070
:104BEC00984B1B6813F4003F03D06368002B00F054
:104BFC00BF81236813F0020F75D0924B5B6813F0E2
:104C0C000C0F5FD08F4B5B6803F00C03082B54D058
:104C1C002369002B00F089808B4B01221A60FEF770
:104C2C008FF80546874B1B6813F0020F74D1FEF703
:104C3C0087F8401B0228F5D903209EE1814A1368AE
:104C4C0043F480331360636843B3FEF779F8054689
:104C5C007C4B1B6813F4003FCBD1FEF771F8401B63
:104C6C006428F5D9032088E1B3F5A02F09D0754B42
:104C7C001A6822F480321A601A6822F480221A60B0
:104C8C00E1E703F18043A3F53C331A6842F4802238
:104C9C001A601A6842F480321A60D4E7FEF750F8B2
:104CAC000546684B1B6813F4003FA2D0FEF748F88A
:104CBC00401B6428F5D903205FE1624B5B6813F459
:104CCC00803FA5D15F4B1B6813F0020F03D0236903
:104CDC00012B40F04F815B4A136823F0F8036169A4
:104CEC0043EAC1031360236813F0080F32D0A369A1
:104CFC00002B45D0554B01221A60FEF721F80546D2
:104D0C00504B5B6A13F0020F21D1FEF719F8401BD0
:104D1C000228F5D9032030E14A4A136823F0F8033E
:104D2C00616943EAC1031360DDE7474B00221A6057
:104D3C00FEF706F80546434B1B6813F0020FD2D062
:104D4C00FDF7FEFF401B0228F5D9032015E10120D9
:104D5C00FFF702FF236813F0040F00F09780394B24
:104D6C00DB6913F0805F1DD1364BDA6942F080525B
:104D7C00DA61DB6903F080530193019B012512E09A
:104D8C00324B00221A60FDF7DBFF05462D4B5B6AA8
:104D9C0013F0020FDED0FDF7D3FF401B0228F5D92C
:104DAC000320EAE000252A4B1B6813F4807F11D006
:104DBC00E368012B22D0002B38D103F1804303F59B
:104DCC0004331A6A22F001021A621A6A22F00402EF
:104DDC001A6218E01E4A136843F480731360FDF7DF
:104DEC00AFFF06461A4B1B6813F4807FE0D1FDF72A
:104DFC00A7FF801B6428F5D90320BEE0114A136A73
:104E0C0043F001031362E36873B3FDF799FF0646A1
:104E1C000C4B1B6A13F0020F37D1FDF791FF801B6F
:104E2C0041F288339842F3D90320A6E0052B11D028
:104E3C00044B1A6A22F001021A621A6A22F0040266
:104E4C001A62E0E700100240000042428004424235
:104E5C00007000404D4B1A6A42F004021A621A6A42
:104E6C0042F001021A62CEE7FDF76AFF0646474B95
:104E7C001B6A13F0020F08D0FDF762FF801B41F292
:104E8C0088339842F3D9032077E0E5B9E369002B26
:104E9C0072D03E4A526802F00C02082A56D0022BFD
:104EAC0017D03B4B00221A60FDF74AFF0446374BE4
:104EBC001B6813F0007F47D0FDF742FF001B022850
:104ECC00F5D9032059E0314AD36923F08053D361DB
:104EDC00DCE72F4B00221A60FDF732FF05462B4B07
:104EEC001B6813F0007F06D0FDF72AFF401B022839
:104EFC00F5D9032041E0236AB3F5803F1AD023494A
:104F0C004B6823F47413226A606A024313434B60A8
:104F1C001F4B01221A60FDF713FF04461B4B1B6845
:104F2C0013F0007F0ED1FDF70BFF001B0228F5D903
:104F3C00032022E0154A536823F40033A1680B4385
:104F4C005360DCE7002018E0002016E0012B16D09F
:104F5C000E4B5B6803F48031226A914211D103F449
:104F6C007013626A93420ED1002006E00120704754
:104F7C00012002E0012000E0002002B070BD012001
:104F8C00FBE70120F9E70120F7E700BF0010024022
:104F9C0060004242114B5A6802F00C03042B18D0EB
:104FAC00082B18D1C2F383430D49CB5C12F4803F1C
:104FBC000BD00A4A5268C2F340420A498A5C0A483A
:104FCC0000FB03F0B0FBF2F07047084800FB03F065
:104FDC007047054870470648704700BF00100240F4
:104FEC00B0930008C09300080024F40000093D00B1
:104FFC0000127A00002800F0A08070B50D4604461F
:10500C00524B1B6803F007038B420BD24F4A1368B9
:10501C0023F007030B431360136803F007038B4261
:10502C0040F08D80236813F0020F17D013F0040F9B
:10503C0004D0474A536843F4E0635360236813F089
:10504C00080F04D0424A536843F460535360404AFB
:10505C00536823F0F003A1680B435360236813F0EB
:10506C00010F31D06368012B20D0022B25D0384A98
:10507C00126812F0020F64D035494A6822F003021C
:10508C0013434B60FDF75CFE0646314B5B6803F047
:10509C000C036268B3EB820F16D0FDF751FE801B38
:1050AC0041F288339842F0D9032045E0284A12682F
:1050BC0012F4003FE0D101203EE0254A126812F0C4
:1050CC00007FD9D1012037E0204B1B6803F0070388
:1050DC00AB420AD91D4A136823F007032B43136014
:1050EC00136803F00703AB422DD1236813F0040FB0
:1050FC0006D0174A536823F4E063E1680B4353600E
:10510C00236813F0080F07D0114A536823F4605337
:10511C00216943EAC1035360FFF73CFF0C4B5B680A
:10512C00C3F303130B4AD35CD8400B4B18600B4BE7
:10513C001868FDF7C1FD002070BD012070470120EB
:10514C00FAE70120F8E70120F6E700BF0020024053
:10515C0000100240489300080000002014010020B9
:10516C00014B1868704700BF0000002008B5FFF71E
:10517C00F7FF044B5B68C3F30223034AD35CD840AC
:10518C0008BD00BF001002405893000808B5FFF797
:10519C00E7FF044B5B68C3F3C223034AD35CD840DC
:1051AC0008BD00BF001002405893000870B582B0D3
:1051BC000446036813F0010F34D03E4BDB6913F047
:1051CC00805F47D13B4BDA6942F08052DA61DB6990
:1051DC0003F080530193019B0125374B1B6813F49B
:1051EC00807F39D0334B1B6A13F4407311D0626843
:1051FC0002F440729A420CD02E4A136A23F4407087
:10520C002E4901260E6000260E60106213F0010F6D
:10521C0036D1284A136A23F4407361680B43136236
:10522C00002D3ED1236813F0020F06D0214A53689B
:10523C0023F44043A1680B435360236813F0100F11
:10524C0034D01C4A536823F48003E1680B43536049
:10525C0000202CE00025C0E7174A136843F4807344
:10526C001360FDF76DFD0646134B1B6813F4807F2E
:10527C00B8D1FDF765FD801B6428F5D9032016E035
:10528C00FDF75EFD06460B4B1B6A13F0020FC0D1F7
:10529C00FDF756FD801B41F288339842F3D9032069
:1052AC0005E0D36923F08053D361BBE7002002B043
:1052BC0070BD00BF0010024000700040400442422C
:1052CC0030B4036A056A25F001050562846924F08F
:1052DC00F00444EA021423F00A030B4384610362D2
:1052EC0030BC704730B4036A056A25F010050562BE
:1052FC00846924F4704444EA023423F0A00343EAA2
:10530C0001138461036230BC7047836823F070031F
:10531C000B4343F0070383607047000090F83D3067
:10532C00DBB2012B27D1022380F83D300268D36811
:10533C0043F00103D3600368114A934210D0B3F1D8
:10534C00804F0DD0A2F59432934209D002F58062C1
:10535C00934205D01A6842F001021A60002070478F
:10536C009A6802F00702062A07D01A6842F0010276
:10537C001A6000207047012070470020704700BF62
:10538C00002C014003681F4A90420AD0B0F1804FB4
:10539C0007D0A2F59432904203D002F5806290427D
:1053AC0003D123F070034A681343164A90420AD083
:1053BC00B0F1804F07D0A2F59432904203D002F5A1
:1053CC008062904203D123F44073CA68134323F0E4
:1053DC0080034A69134303608B68C3620B68836262
:1053EC00084B98420AD001234361036913F0010F63
:1053FC0003D0036923F00103036170470B69036356
:10540C00F1E700BF002C014040B310B5044690F802
:10541C003D30F3B1022384F83D30214651F8040BA2
:10542C00FFF7B0FF012384F8463084F83E3084F84F
:10543C003F3084F8403084F8413084F8423084F8AE
:10544C00433084F8443084F8453084F83D300020F3
:10545C0010BD80F83C30FCF793FFDBE70120704770
:10546C0010B4846824F47F4442EA03220A432243A2
:10547C00826010BC704790F83C30012B78D010B58E
:10548C000446012380F83C30022380F83D3002684A
:10549C00936823F47F4323F0770393600B68602BAE
:1054AC004CD029D8402B54D00CD9502B22D1CA68BF
:1054BC0049680068FFF704FF50212068FFF725FFBB
:1054CC00002005E0202B0DD009D9302B0AD001206B
:1054DC00012384F83D30002384F83C3010BD0BB11F
:1054EC00102B05D119462068FFF70FFF0020EFE7BE
:1054FC000120EDE70120EBE7B3F5805F34D0B3F585
:10550C00005F0CD1CB684A6889680068FFF7A8FF78
:10551C002268936843F4804393600020D8E7702B93
:10552C0024D1CB684A6889680068FFF799FF226824
:10553C00936843F0770393600020C9E7CA68496811
:10554C000068FFF7CFFE60212068FFF7DEFE002029
:10555C00BEE7CA6849680068FFF7B2FE40212068C0
:10556C00FFF7D3FE0020B3E70020B1E70120AFE73F
:10557C000220704790F83C30012B2BD030B4012323
:10558C0080F83C30022380F83D3003685C689D68ED
:10559C0024F070040A6822435A6003680E4A93424E
:1055AC000AD0B3F1804F07D0A2F59432934203D0C6
:1055BC0002F58062934204D125F080054A681543B8
:1055CC009D60012380F83D30002380F83C30184664
:1055DC0030BC704702207047002C0140026802F179
:1055EC000C0353E8003F23F490730C3242E8003173
:1055FC000029F3D1026802F1140353E8003F23F0B1
:10560C000103143242E800310029F3D1036B012B62
:10561C0005D0202380F842300023036370470268D2
:10562C0002F10C0353E8003F23F010030C3242E864
:10563C0000310029F3D1ECE790F84130DBB2212B9B
:10564C0001D0022070478368B3F5805F17D0036ADE
:10565C005A1C02621A7803685A60C38C9BB2013BD5
:10566C009BB2C3844BB90268D36823F08003D36028
:10567C000268D36843F04003D3600020704703698D
:10568C00002BE4D1036A1B880268C3F30803536040
:10569C00036A02330362E0E710B50446026813693B
:1056AC0023F44053C1680B431361836802691343AD
:1056BC0042691A430168CB6823F4B05323F00C03FE
:1056CC001343CB600268536923F4407381690B4325
:1056DC0053610268124B9A421FD0FFF747FD00EB53
:1056EC00800303EB830362689200B3FBF2F20D4874
:1056FC00A0FB02314909642303FB11231B01323344
:10570C00A0FB03235B0903F0F00202EB011203F090
:10571C000F03216813448B6010BDFFF737FDDEE7E4
:10572C00003801401F85EB512DE9F04383B005464D
:10573C000E4617469946DDF828802C68246836EA10
:10574C0004030CBF01240024BC4228D1B8F1FF3F54
:10575C00F3D0FDF7F5FAA0EB0900404523D8B8F1DA
:10576C00000F22D02B68DA6812F0040FE5D0802EDF
:10577C00E3D0402EE1D01A6812F0080FDDD00024DF
:10578C0001941A6801925B680193019B2846FFF70C
:10579C0025FF08236B6485F84040012000E00020C1
:1057AC0003B0BDE8F0830320FAE70320F8E760B309
:1057BC0010B5044690F8413013B3242384F84130DB
:1057CC002268D36823F40053D3602046FFF764FFAC
:1057DC002268136923F4904313612268536923F000
:1057EC002A0353612268D36843F40053D36000202A
:1057FC006064202384F8413084F84230606310BD2B
:10580C0080F84030FCF7E2FDD7E7012070472DE926
:10581C00F04182B01E4690F84130DBB2202B56D1BD
:10582C0004460D469046002955D00AB901204FE098
:10583C0000234364212380F84130FDF781FA0746A9
:10584C00A4F82480A4F82680A368B3F5805F02D066
:10585C004FF0000814E023692BB34FF000080FE061
:10586C00202384F84130032032E038F8023B2268D0
:10587C00C3F308035360E28C92B2013A92B2E28411
:10588C00E38C9BB293B100963B46002280212046CC
:10589C00FFF74AFF0028E3D1002DE6D015F8012BC5
:1058AC0023685A60E7E7A8460025E9E700963B46DF
:1058BC00002240212046FFF737FF18B9202384F837
:1058CC00413005E0202384F84130032000E0022021
:1058DC0002B0BDE8F0810120FAE7704708B5016815
:1058EC00CA6822F04002CA60202280F84120FFF7EB
:1058FC00F4FF002008BD08B5406A0023C385C384AB
:10590C00FCF7B0F808BD704790F84230DBB2222BA0
:10591C0069D18368B3F5805F4FD0826AB3F5805F3D
:10592C0004D0002B56D10369002B53D103685B685C
:10593C001370836A01338362C38D9BB2013B9BB2AC
:10594C00C385002B51D100B583B00268D36823F016
:10595C002003D3600268D36823F48073D360026899
:10596C00536923F001035361202380F84230002354
:10597C004363036B012B33D100230363026802F1F1
:10598C000C0353E8003F23F010030C3242E80031C3
:10599C000029F3D103681A6812F0100F06D0002208
:1059AC0001921A6801925B680193019B818DFFF74C
:1059BC00AAFF002003B05DF804FB0269002AACD1F9
:1059CC00826A03685B68C3F308031380836A02333B
:1059DC008362B1E703685B6803F07F031370A8E789
:1059EC00FCF72EF8E5E70220704700207047000016
:1059FC0030B583B0044602681368D068516913F05F
:105A0C000F0505D113F0200F02D010F0200F19D183
:105A1C002DB111F0010119D110F4907F16D1216B29
:105A2C0001297DD013F0800F03D010F0800F40F0CF
:105A3C00188113F0400F03D010F0400F40F0158187
:105A4C0003B030BD2046FFF75FFFF9E713F0010FFD
:105A5C0006D010F4807F03D0626C42F001026264C5
:105A6C0013F0040F04D019B1626C42F002026264AC
:105A7C0013F0020F04D019B1626C42F0040262649C
:105A8C0013F0080F07D010F0200F00D119B1626C81
:105A9C0042F008026264626C002AD1D013F0200F2D
:105AAC0002D010F0200F29D123685B6903F040036A
:105ABC00626C12F0080F00D163B32046FFF78EFD25
:105ACC0023685B6913F0400F20D0226802F11403A5
