:020000040800F2
:1000000000500020A52B0008C5230008C7230008C6
:10001000C9230008CB230008CD23000800000000FE
:10002000000000000000000000000000CF230008D6
:10003000D123000800000000D3230008D5230008C6
:10004000ED2B0008ED2B0008ED2B0008ED2B000830
:10005000ED2B0008ED2B0008ED2B0008ED2B000820
:10006000ED2B0008ED2B0008ED2B0008DD23000828
:10007000ED2B0008ED230008ED2B0008ED2B000808
:10008000ED2B0008ED2B0008ED2B0008ED2B0008F0
:10009000FD230008ED2B0008ED2B0008ED2B0008D8
:1000A000ED2B0008ED2B0008ED2B0008ED2B0008D0
:1000B000ED2B0008ED2B0008ED2B0008ED2B0008C0
:1000C000ED2B0008ED2B0008ED2B0008ED2B0008B0
:1000D000ED2B0008ED2B0008ED2B00080D24000887
:1000E000ED2B0008ED2B0008ED2B000800000000B0
:1000F0000000000000000000000000000000000000
:0C01000000000000000000005FF808F1A3
:10010C0010B5054C237833B9044B13B10448AFF345
:10011C0000800123237010BD880300200000000024
:10012C004C85000808B5034B1BB103490348AFF3DA
:10013C00008008BD000000008C0300204C850008E6
:10014C0010F8012B11F8013B012A28BF9A42F7D075
:10015C00D01A7047034613F8012B002AFBD1181A4A
:10016C000138704780F0004002E000BF81F0004190
:10017C0042001FBF5FEA410392EA030F7FEA226C41
:10018C007FEA236C6AD04FEA1262D2EB1363C1BFD1
:10019C00D218414048404140B8BF5B42192B88BF40
:1001AC00704710F0004F40F4000020F07F4018BF63
:1001BC00404211F0004F41F4000121F07F4118BF83
:1001CC00494292EA030F3FD0A2F1010241FA03FC2B
:1001DC0010EB0C00C3F1200301FA03F100F0004313
:1001EC0002D5494260EB4000B0F5000F13D3B0F1DB
:1001FC00807F06D340084FEA310102F10102FE2A4A
:10020C0051D2B1F1004F40EBC25008BF20F00100B9
:10021C0040EA03007047490040EB0000013A28BF58
:10022C00B0F5000FEDD2B0FA80FCACF1080CB2EBDB
:10023C000C0200FA0CF0AABF00EBC2505242184359
:10024C00BCBFD0401843704792F0000F81F40001FE
:10025C0006BF80F400000132013BB5E74FEA4103D1
:10026C007FEA226C18BF7FEA236C21D092EA030F3D
:10027C0004D092F0000F08BF0846704790EA010FB7
:10028C001CBF0020704712F07F4F04D1400028BFE4
:10029C0040F00040704712F100723CBF00F50000C6
:1002AC00704700F0004343F0FE4040F400007047FC
:1002BC007FEA226216BF08467FEA236301464202A8
:1002CC0006BF5FEA412390EA010F40F480007047BB
:1002DC004FF0000304E000BF10F0004348BF404261
:1002EC005FEA000C08BF704743F0964301464FF09D
:1002FC0000001CE050EA010208BF70474FF00003F9
:10030C000AE000BF50EA010208BF704711F0004339
:10031C0002D5404261EB41015FEA010C02BF844609
:10032C000146002043F0B64308BFA3F18053A3F568
:10033C000003BCFA8CF2083AA3EBC25310DB01FAAF
:10034C0002FC634400FA02FCC2F12002BCF1004F33
:10035C0020FA02F243EB020008BF20F001007047C4
:10036C0002F1200201FA02FCC2F1200250EA4C0018
:10037C0021FA02F243EB020008BF20EADC7070475E
:10038C004FF0FF0C1CEAD0521EBF1CEAD15392EA6C
:10039C000C0F93EA0C0F6FD01A4480EA010C400248
:1003AC0018BF5FEA41211ED04FF0006343EA5010A2
:1003BC0043EA5111A0FB01310CF00040B1F5000FE4
:1003CC003EBF490041EAD3715B0040EA010062F193
:1003DC007F02FD2A1DD8B3F1004F40EBC25008BF7D
:1003EC0020F00100704790F0000F0CF0004C08BF9B
:1003FC0049024CEA502040EA51207F3AC2BFD2F168
:10040C00FF0340EAC250704740F400004FF0000375
:10041C00013A5DDC12F1190FDCBF00F000407047AF
:10042C00C2F10002410021FA02F1C2F1200200FAED
:10043C0002FC5FEA310040F1000053EA4C0308BFB4
:10044C0020EADC70704792F0000F00F0004C02BF05
:10045C00400010F4000F013AF9D040EA0C0093F080
:10046C00000F01F0004C02BF490011F4000F013BDA
:10047C00F9D041EA0C018FE70CEAD15392EA0C0F48
:10048C0018BF93EA0C0F0AD030F0004C18BF31F0B3
:10049C00004CD8D180EA010000F00040704790F089
:1004AC00000F17BF90F0004F084691F0000F91F02D
:1004BC00004F14D092EA0C0F01D142020FD193EAF3
:1004CC000C0F03D14B0218BF084608D180EA01007B
:1004DC0000F0004040F0FE4040F40000704740F057
:1004EC00FE4040F4400070474FF0FF0C1CEAD05225
:1004FC001EBF1CEAD15392EA0C0F93EA0C0F69D081
:10050C00A2EB030280EA010C49024FEA402037D0EB
:10051C004FF0805343EA111143EA10130CF00040E2
:10052C008B4238BF5B0042F17D024FF4000C8B42D2
:10053C0024BF5B1A40EA0C00B3EB510F24BFA3EBB2
:10054C00510340EA5C00B3EB910F24BFA3EB910382
:10055C0040EA9C00B3EBD10F24BFA3EBD10340EADC
:10056C00DC001B0118BF5FEA1C1CE0D1FD2A3FF622
:10057C0050AF8B4240EBC25008BF20F001007047D7
:10058C000CF0004C4CEA50207F32C2BFD2F1FF037A
:10059C0040EAC250704740F400004FF00003013AAB
:1005AC0037E792F0000F00F0004C02BF400010F44F
:1005BC00000F013AF9D040EA0C0093F0000F01F063
:1005CC00004C02BF490011F4000F013BF9D041EA85
:1005DC000C0195E70CEAD15392EA0C0F08D14202B8
:1005EC007FF47DAF93EA0C0F7FF470AF084676E78B
:1005FC0093EA0C0F04D14B023FF44CAF08466EE764
:10060C0030F0004C18BF31F0004CCAD130F0004231
:10061C007FF45CAF31F000437FF43CAF5FE700BF89
:10062C004FF0FF3C06E000BF4FF0010C02E000BFB2
:10063C004FF0010C4DF804CD4FEA40024FEA410354
:10064C007FEA226C18BF7FEA236C11D001B052EA0A
:10065C00530C18BF90EA010F58BFB2EB030088BFD0
:10066C00C81738BF6FEAE17018BF40F0010070473F
:10067C007FEA226C02D15FEA402C05D17FEA236C21
:10068C00E4D15FEA412CE1D05DF8040B704700BF68
:10069C00844608466146FFE70FB5FFF7C9FF0028FF
:1006AC0048BF10F1000F0FBD4DF808EDFFF7F4FF38
:1006BC000CBF012000205DF808FB00BF4DF808EDD1
:1006CC00FFF7EAFF34BF012000205DF808FB00BFF4
:1006DC004DF808EDFFF7E0FF94BF012000205DF816
:1006EC0008FB00BF4DF808EDFFF7D2FF94BF0120C7
:1006FC0000205DF808FB00BF4DF808EDFFF7C8FFC0
:10070C0034BF012000205DF808FB00BF4FEA400217
:10071C00B2F1FE4F0FD34FF09E03B3EB12620DD923
:10072C004FEA002343F0004310F0004F23FA02F08D
:10073C0018BF404270474FF00000704712F1610F34
:10074C0001D1420205D110F0004008BF6FF000400B
:10075C0070474FF00000704770B588B000240494C7
:10076C00059406940794214B9A6942F020029A61F1
:10077C009A6902F020020192019A9A6942F00402ED
:10078C009A619A6902F004020292029A9A6942F002
:10079C0008029A619B6903F008030393039B144DB1
:1007AC0022464FF22001284603F052F94FF2200363
:1007BC0004930126059606940223079304A9284660
:1007CC0003F036F84FF4004304930594069604A9FD
:1007DC00084803F02DF8182304930594069604A9F1
:1007EC00284603F025F808B070BD00BF0010024089
:1007FC00000C01400008014000B583B00E4B5A6953
:10080C0042F001025A615B6903F001030193019B01
:10081C00002211460B2002F0B9FC0B2002F0EAFC7E
:10082C00002211460D2002F0B1FC0D2002F0E2FC7A
:10083C0003B05DF804FB00BF0010024038B502683D
:10084C00134B9A4200D038BD124C01222021204675
:10085C0003F0FEF80021104800F02EFE00F086FD9B
:10086C0000F09CFB00F096FD00F0E0FD0B4D2868BD
:10087C0000F0E4FD286800F09DFE00F045FC00F05F
:10088C000DFC00222021204603F0E2F8DBE700BF3C
:10089C0000240140000C0140A4030020AC100020F7
:1008AC0038B50268134B9A4200D038BD124C012265
:1008BC002021204603F0CCF8F021104800F0FCFD7C
:1008CC0000F054FD00F06AFB00F064FD00F0AEFD9A
:1008DC000B4D286800F0B2FD286800F06BFE00F0AC
:1008EC0013FC00F0DBFB00222021204603F0B0F8C3
:1008FC00DBE700BF00240140000C0140A4030020F2
:10090C00AC10002072B6FEE700B585B00023019351
:10091C00029303932748284A02604FF48072826046
:10092C00037303754FF40022C26143600523036116
:10093C0002F096FB002831D1002301930122029290
:10094C00039301A91B4802F0E7F948BB012301936B
:10095C000223029301A9174802F0DEF910BB02230F
:10096C0001930323029301A9124802F0D5F9D8B9D7
:10097C0003230193042302930DEB03010D4802F0B2
:10098C00CBF998B9042301930523029301A90948D3
:10099C0002F0C2F960B905B05DF804FBFFF7B2FFD5
:1009AC00FFF7B0FFFFF7AEFFFFF7ACFFFFF7AAFFB3
:1009BC00FFF7A8FF801D00200024014008B50A485D
:1009CC000A4B03604FF4E133436000238360C36040
:1009DC0003610C2242618361C36104F07EFE00B9A5
:1009EC0008BDFFF78FFF00BFF01C0020004800403F
:1009FC0000B587B0002302930393049305930093EF
:100A0C0001931448144A02602F224260836040F222
:100A1C00F312C260036143618023836104F08AFC9A
:100A2C0090B94FF48053029302A90A4804F0B9FC20
:100A3C0060B90023009301936946064804F030FD29
:100A4C0030B907B05DF804FBFFF75CFFFFF75AFF06
:100A5C00FFF758FFF41D0020002C014000B587B0B3
:100A6C00002302930393049305930093019314487A
:100A7C00144A02606322426083600922C2600361EF
:100A8C008023836104F056FC98B94FF48053029391
:100A9C0002A90B4804F085FC68B9202300930023BD
:100AAC0001936946064804F0FBFC30B907B05DF8C9
:100ABC0004FBFFF727FFFFF725FFFFF723FF00BF1E
:100ACC00381D00200004004000B595B000230D93A4
:100ADC000F9310930593069307930893099301932F
:100AEC0002930393049301220A924FF480330B93E5
:100AFC004FF400310C910E920222119212934FF48A
:100B0C00801313930AA803F0D3FFE8B90F230593BE
:100B1C0002230693002307934FF4806208920993F3
:100B2C00012105A804F0FCF980B9122301934FF4BC
:100B3C00804303934FF48003049301A804F0CCFA90
:100B4C0030B915B05DF804FBFFF7DCFEFFF7DAFEF9
:100B5C00FFF7D8FE08B502F06BF8FFF7B5FF0A20D7
:100B6C0002F08AF8FFF7F8FDFFF746FEFFF7CCFE20
:100B7C00FFF724FF06F068FDFFF73AFFFFF76EFF63
:100B8C004FF4F0720C490D4802F0A6F90C4804F031
:100B9C005BFB00F043F900F077FC00F08DFE0022C7
:100BAC002021084802F054FF074B186801F0C2FCE2
:100BBC0001F01EFEF8E700BFA4030020801D0020FA
:100BCC00381D0020000C0140AC100020B0F802329F
:100BDC0000EB4302518001339BB2A0F80232FF2B91
:100BEC0002D90023A0F80232B0F80632FF2B0BD941
:100BFC00B0F8043201339BB2A0F80432FF2B06D9B3
:100C0C000023A0F8043270470133A0F80632704775
:100C1C0010B4B0F80642ACB10022114694420AD985
:100C2C00B0F804321344DBB200EB43035B88194485
:100C3C00013292B2F2E701EB81014800B0FBF4F013
:100C4C0010BC70470020FBE70346B0F8060248B121
:100C5C00B3F8022212B1013A90B200E0FF2003EB8C
:100C6C004003588870470000F8B50024264600E081
:100C7C000134032C0ADC2D4B4FF4137000FB0430B1
:100C8C00FFF7E2FF8642F3D20646F1E700241CE0B0
:100C9C00274B1A79511C19719C54244B4FF4137522
:100CAC0005FB04350023C5F81032A5F81432304684
:100CBC00FFF70EFB1F4B5969FFF762FBC5F84802A3
:100CCC000134032CE4DDF8BD0134032CFBDC4FF4C0
:100CDC00137303FB04F3154AD35C002BF4D14FF4CC
:100CEC00137505FB04252846FFF7AEFF0746A5F84C
:100CFC000C02FFF7F1FAD5F84812FFF7FDFC0028BB
:100D0C00E2D0C6EBC603B7EBE30FDDDD1423C5F869
:100D1C003032084B01221A70074A12685A60044B91
:100D2C0000241C715C719C60CBE700BF7C07002029
:100D3C00B0100020BC100020AC10002038B50025ED
:100D4C0012E0324B4FF4137202FB04342046FFF7CF
:100D5C007BFFD4F810320344C4F81032B4F81432C8
:100D6C000133A4F814320135294B1B79AB4216DD43
:100D7C00274B5C5D254A4FF4137303FB0423B3F834
:100D8C001432002BDDD14FF4137303FB0423B3F89F
:100D9C000C22C3F810220122A3F81422D1E71D4A19
:100DAC0012681D494868121A8989914227D938BDA1
:100DBC0001318B4225DD164A525C144C4FF41370F2
:100DCC0000FB0240B0F814020028F1D020464FF48A
:100DDC00137404FB0202D2F81042D2F8300200FB6A
:100DEC0004F0B2F81442B0FBF4F0C2F81802084A4E
:100DFC0092689042DCD9064A90605171D8E7002184
:100E0C00D7E7054B02221A70D1E700BF7C07002000
:100E1C00B0100020AC100020BC10002070B50026D3
:100E2C004EE00E2284F81C2236B3012E00F0828094
:100E3C00022E00F08C80032E2AD1524A4FF41373E9
:100E4C0003FB06234FF40042A3F81E224E4AC3F8BC
:100E5C0020221DE04B4A4FF4137303FB06230D2293
:100E6C0083F81C22E0E7474A4FF4137303FB062375
:100E7C00092283F81C22D7E7424A4FF4137303FB71
:100E8C0006234FF48052A3F81E223F4AC3F82022B7
:100E9C003C4B4FF4137404FB06340122B4F81E12BD
:100EAC00D4F8200202F0D4FD0023C4F8243284F8D4
:100EBC003432C4F83832C4F83C32A4F8403201362B
:100ECC00032E51DC2F4A4FF4137303FB06F3D41893
:100EDC000025D554C4F808524FF400722946A01CC2
:100EEC0006F0C8FEA4F80252A4F80452A4F8065264
:100EFC00C4F81052A4F81452C4F818524FF07E5390
:100F0C00C4F84432214BC4F84832C4F82852C4F80F
:100F1C002C52002E85D0012E9CD0022EA3D0032E55
:100F2C0082D1184A4FF4137303FB0623072283F86C
:100F3C001C2279E7134A4FF4137303FB06234FF477
:100F4C000052A3F81E22104AC3F82022A0E70D4A33
:100F5C004FF4137303FB06234FF48042A3F81E22B5
:100F6C00094AC3F8202293E7094A00231370094960
:100F7C00098A518113725372074A1360536093604C
:100F8C0070BD00BF7C070020000C01400000164320
:100F9C00BC100020D8100020B010002010B5002488
:100FAC0008E0294A4FF4137303FB04230022C3F80F
:100FBC002C220134032C45DC234A4FF4137303FB1E
:100FCC0004F3D018D35C012BF3D1FFF73DFE00EBFB
:100FDC0080001D4A4FF4137303FB0423D3F808322B
:100FEC00B3EB400FDDD94FF4137303FB0423D3F899
:100FFC002C323BB94FF4137303FB0423134A1268CE
:10100C00C3F82C22114B1B680F494FF4137202FBCF
:10101C000412D2F82C229B1A0D4AD2899A42C8D8B3
:10102C0008464FF4137303FB04F3CA180021C15490
:10103C004FF07E53C2F84432064BC2F84832C2F825
:10104C002C12B6E710BD00BF7C070020AC100020AE
:10105C00BC10002000001643024B00221A605A609C
:10106C00704700BF74070020032810D8084B1B687A
:10107C00084A4FF4137101FB0020C0F83832064ABD
:10108C00128A1344C0F83C32012380F83432704782
:10109C00AC1000207C070020BC10002010B5FFF71E
:1010AC00DBFF002214460DE014484FF4137101FBD2
:1010BC00020191F81C021249C8540134E4B2052C07
:1010CC0014D80132032A11DC0C494FF4137303FBBF
:1010DC00021393F83432002BF3D00223072BEEDCEF
:1010EC000749C95C0029DFD00133F7E7082204491E
:1010FC00044805F0C2FD204610BD00BF7C0700204F
:10110C0074070020602400200023032B3ADC10B469
:10111C0005E01D49002088540133032B30DC1B49AA
:10112C004FF4137202FB031292F83422002AF3D00C
:10113C004FF4137202FB0312D2F83C22002AEBD0BC
:10114C00134909688A42E7D810494FF4137202FB1D
:10115C000312002182F83412C2F83812C2F83C1281
:10116C000222072AD8DC0849885C084C4FF413711A
:10117C0001FB034191F81C128842CAD00132F0E7FE
:10118C0010BC7047704700BF740700207C0700201C
:10119C00AC100020032800D9704710B5084C4FF450
:1011AC00137303FB00440022B4F81E12D4F820027F
:1011BC0002F04EFC034B1B68C4F8243210BD00BF78
:1011CC007C070020AC10002038B5644B5A799D5C2C
:1011DC00634B00225A72E5B9604B1979012918D971
:1011EC000023994213DD5D4AD45C032C01D00133FA
:1011FC00F7E75C4BD3F8FC28584B9B6803EB430395
:10120C00B2EB930F71D3564B01225A7208E0FF24B4
:10121C0006E0032D11D0012D2BD0022D46D0FF243A
:10122C004F4B5B7A0BB1FF2C67D12846FFF71CFFA5
:10123C002846FFF7AFFF00227CE0484B19790129C3
:10124C00E9D90023994212DD444AD45C0CB1013334
:10125C00F8E7444BD3F81822404B9B6803EB43034D
:10126C00B2EB930F43D33E4B01225A72D8E7FF24C3
:10127C00D6E73A4B19790129CFD90023994213DDCE
:10128C00364AD45C022C01D00133F7E7354BD3F846
:10129C00B026324B9B6803EB4303B2EB930F28D37E
:1012AC002F4B01225A72BBE7FF24B9E72B4B19795C
:1012BC00012908D90023994215DD284AD45C012C58
:1012CC0003D00133F7E7FF24AAE7264BD3F86424B5
:1012DC00224B9B6803EB4303B2EB930F0BD3204BD6
:1012EC0001225A729CE7FF249AE7FF2498E7FF2417
:1012FC0096E7FF2494E7FF2492E72846FFF7B4FE15
:10130C002046FFF7B1FE2846FFF744FF2046FFF7C3
:10131C0041FF90E713484FF4137303FB02F3C1181A
:10132C000124C454104B1B68C1F828320023C1F8A7
:10133C002C322244032AEDDD002308E009494FF446
:10134C00137202FB03120A21C2F830120133032B71
:10135C00F4DD034B00221A7038BD00BFB010002022
:10136C00BC1000207C070020AC10002008B5084BF6
:10137C001B78012B06D0022B07D003B108BDFFF759
:10138C0073FCFBE7FFF7DAFCF8E7FFF71DFFF5E767
:10139C00BC1000202DE9F041002400E00134032CA6
:1013AC003CDC1F4A4FF4137303FB0423D3F848723D
:1013BC001C4BB3F81A804046FEF78EFF05460146DB
:1013CC003846FEF7D3FE06460021FFF795F90028B4
:1013DC00E4D0154B99694FF07E50FEF7C7FE3146AD
:1013EC00FEF7CEFF01463846FEF7C0FE01460C4A1A
:1013FC004FF4137303FB0423C3F848022846FFF78A
:10140C007BF90028CAD0064B4FF4137505FB043545
:10141C004046FEF75DFFC5F84802BFE7BDE8F08126
:10142C007C070020D8100020BC100020024A136852
:10143C0001331360704700BFAC10002070B5054637
:10144C0000240EE04FF4137606FB04260122B6F8B6
:10145C001E12D6F8200202F0FBFA0023C6F8243242
:10146C000134032C0CDC074A4FF4137303FB0423E5
:10147C00D3F82432002BF3D0EB1A132BF0D9E1E77D
:10148C0070BD00BF7C070020034B00221A605A601D
:10149C009A60DA60704700BF64070020042807D800
:1014AC00044B33F810308B4202D2024B23F810104D
:1014BC00704700BF640700202DE9F04182B006465A
:1014CC000D46002469E039484FF4137303FB040301
:1014DC00A3F8401222E0481E0DF1080C0CEB800C16
:1014EC005CF808CC0DF1080E0EEB810141F808CC2C
:1014FC0001468B42EFDB02A901EB830343F8087C26
:10150C0001322F2A19DC2B199BB202EB820189B212
:10151C000B449BB236F813102F2AD4D00023012B86
:10152C00EEDC0F4602A800EB830050F8080C814259
:10153C0001D80133F3E70121DBE700231A4606E06B
:10154C0002A901EB830151F8081C0A440133012B59
:10155C00F6DD174B03EB4403DB88C2F34F0203FBAE
:10156C0002F2D708B2F5004F01D340F6FF77BFB2B5
:10157C00032C11DC0D4B4FF4137808FB043839465F
:10158C004046FFF723FB4046FFF742FBC8F8080232
:10159C003946E0B2FFF782FF0134042C03DC002251
:1015AC0000920192ADE702B0BDE8F0817C0700200B
:1015BC00D8100020704700002DE9F0410346884602
:1015CC0000E001331A78202AFBD0092AF9D0002533
:1015DC002E4629462F46284606E000EB8000303A7E
:1015EC0002EB4000013501331A789AB1092D11DC58
:1015FC00A2F13004E4B2092C07D80029EDD0002E5A
:10160C00F0D1A2F130070E46ECE72E2A16D1B9B96B
:10161C000121E8E7632815DCFEF75EFE0446384638
:10162C00FEF75AFE0849FEF75FFF01462046FEF71B
:10163C009FFDC8F800000120BDE8F0810020FBE709
:10164C000020F9E70020F7E700002041F0B400E0AB
:10165C0001300378202BFBD0092BF9D02D2B06D091
:10166C002B2B07D0002700242646254610E00130FE
:10167C000127F8E701300027F5E705EB8505303B3E
:10168C0003EB450503E02E2B23D124BB01240130B1
:10169C00037863B1A3F13002D2B2092AF3D8002C3B
:1016AC00EBD006EB8606303B03EB4606EFE705EB8B
:1016BC0085056B0006EB4505092E01DD03F10905D7
:1016CC0007B16D42B5F5204F07D80D800120F0BC55
:1016DC0070470020FBE70020F9E70020F7E700E067
:1016EC0001300378202BFBD0092BF9D00022037892
:1016FC00D3B110B4A3F13004E4B2092C0FD802EB2F
:10170C00820203EB4203A3F13002B2F5803F09D20F
:10171C0001300378002BEDD10A80012000E000207D
:10172C0010BC70470020FBE70A80012070470000C6
:10173C0008B501220249034804F04FFA08BD00BF66
:10174C0008110020F01C002000B583B00B4BA3FB4C
:10175C000123DA08134602EB8202A1EB420189B2A3
:10176C0031B9074A102106F08DFA03B05DF804FB7D
:10177C000091044A102106F085FAF6E7CDCCCCCCCA
:10178C00648500086885000801460023184603E0BC
:10179C00CA5C104480B20133292BF9D97047000080
:1017AC0010B5184B184A1A6002229A800023042B99
:1017BC0008DC164A32F81310124A02EB4302D180AD
:1017CC000133F4E70023042B07DC03F108010D4A75
:1017DC00962022F811000133F5E70A4C9623638317
:1017EC000423A3830F23E383142323844FF07F5319
:1017FC00C4F82230064BC4F826302046FFF7C4FF4D
:10180C00608510BDD8100020464E4F434092000812
:10181C00EC51783F244B1A6803F16D5303F55523B3
:10182C0003F246239A4239D170B51F4B9C88631E34
:10183C009BB2012B34D81C48458DFFF7A5FF854280
:10184C0030D1012C0FD0194C174D0FCD0FC40FCD2B
:10185C000FC495E8070084E80700144B1A8A144B50
:10186C005A8101201DE0114E34460F4D0FCD0FC48F
:10187C0095E8070003C422800123B3809623738369
:10188C000423B3830F23F383142333844FF07F5348
:10189C00C6F82230074BC6F82630DEE7002070472A
:1018AC00002070BD0020FCE700FC0108D8100020CF
:1018BC00BC100020EC51783F08B5FFF7ABFF90B19E
:1018CC000A4A118A0A4B5981918B9981D18BD98102
:1018DC00118C1982D2F822105961D2F826209A6103
:1018EC00FFF726FF08BDFFF75BFFE9E7D8100020E4
:1018FC00BC10002030B587B0234C2046FFF744FFC6
:10190C006085EFF3108572B601F076FE20B185F399
:10191C001088002007B030BD1C4B3422DA60002345
:10192C00019302931A4B04930123059301A902A876
:10193C0001F02CFF88B900240A2C1AD804F100718C
:10194C0001F5FE41104B53F824200023890002209E
:10195C0001F0AAFE38B90134EEE701F067FE85F319
:10196C0010880020D6E701F061FE85F31088002076
:10197C00D0E701F05BFE62B685F3108808B9012050
:10198C00C8E70020C6E700BFD810002000200240A6
:10199C0000FC010808B50268054B9A4200D008BD4E
:1019AC00044B187800F08AFDFFF7C2FEF7E700BF82
:1019BC000048004008110020704710B50446FEF79F
:1019CC00C9FB81B2204600F065FD10BD08B5024888
:1019DC00FFF7F3FF08BD00BF7085000870B584B039
:1019EC0004460D46FEF7B6FB052844D02046FEF70C
:1019FC00B1FB03285AD076492046FEF7A1FB0646D8
:101A0C00002872D073492046FEF79AFB002800F09C
:101A1C00858071492046FEF793FB002800F08F80EB
:101A2C006E492046FEF78CFB002800F099806C492B
:101A3C002046FEF785FB002800F0A380694920466C
:101A4C00FEF77EFB90B902A92846FFF7B5FD68B1F9
:101A5C00029C00212046FEF74FFE38B14FF07E511C
:101A6C002046FEF72BFE002840F0A9805E48FFF7C9
:101A7C00A4FF04B070BD04225C49204606F043F973
:101A8C000028B3D12679303E042EAFD80DF10601D3
:101A9C002846FFF7DBFD0028A8D0554B03EB460684
:101AAC00BDF80630F380FFF791FFE2E702225149BF
:101ABC00204606F028F900289DD1A678303E042E49
:101ACC0099D80DF10E012846FFF709FE002892D097
:101ADC00BDF80E3006F10801454A22F811300EB956
:101AEC00454A5381FFF772FFC3E70DF10E012846FB
:101AFC00FFF7F5FD002885D0BDF80E103C4B59833F
:101B0C00042E06DC06F10802394B23F812100136BC
:101B1C00F6E7394B5981FFF759FFAAE70DF10E0192
:101B2C002846FFF7DCFD00283FF473AFBDF80E30FC
:101B3C002F4A9383304A9381FFF748FF99E70DF1C1
:101B4C000E012846FFF7CBFD00283FF469AFBDF826
:101B5C000E30274AD383284AD381FFF737FF88E713
:101B6C000DF10E012846FFF7BAFD00283FF45FAFD8
:101B7C00BDF80E301E4A13841F4A1382FFF726FF4E
:101B8C0077E702A92846FFF717FD00283FF456AF68
:101B9C00029E00213046FEF7AFFD00283FF44EAF09
:101BAC0016493046FEF794FD00283FF447AF104B22
:101BBC00C3F82260104B5E61FFF708FF59E70C4B2E
:101BCC00C3F826400C4B9C61FFF700FF51E700BFA8
:101BDC00848500088C85000898850008A485000879
:101BEC00AC850008B8850008C48500087885000815
:101BFC00D810002080850008BC1000200000204177
:101C0C0070B58AB005460C460846FEF77FFD0646C1
:101C1C00FEF762FB01462046FEF7A8FA044613497C
:101C2C00FEF74CFDD0B912492046FEF7A9FB4FF048
:101C3C007C51FEF79DFAFEF769FD092800DD0920AD
:101C4C00019000962B460B4A202102A806F01AF8A8
:101C5C0081B202A800F01EFC0AB070BD00962B46A3
:101C6C00054A202102A806F00DF8F1E70AD7233C1B
:101C7C0000002041EC850008E085000800B58BB021
:101C8C0003460091054A202102A805F0FBFF81B212
:101C9C0002A800F0FFFB0BB05DF804FBFC8500080C
:101CAC0070B59AB004466E49FEF74AFA00283CD04B
:101CBC006C492046FEF744FA002836D02046FEF741
:101CCC0049FA0546052868D0032D00F08580664941
:101CDC002046FEF735FA002800F09B806349204629
:101CEC00FEF72EFA002800F09A8061492046FEF794
:101CFC0027FA002800F099805E492046FEF720FA6A
:101D0C00002800F098805C492046FEF719FA00285C
:101D1C0000F0978059492046FEF712FA002800F08F
:101D2C0097805748FFF749FE35E05648FFF745FEC8
:101D3C005548FFF742FE5548FFF73FFE5448FFF762
:101D4C003CFE5448FFF739FE5348FFF736FE534824
:101D5C00FFF733FE5248FFF730FE5248FFF72DFED7
:101D6C005148FFF72AFE5148FFF727FE5048FFF76E
:101D7C0024FE5048FFF721FE4F48FFF71EFE4F4848
:101D8C00FFF71BFE4E48FFF718FE4E48FFF715FEF7
:101D9C004D48FFF712FE1AB070BD04224B49204685
:101DAC0005F0B1FF00288FD12679303E042E8BD858
:101DBC00474B03EB460302ACD9882046FFF7C4FC23
:101DCC0000943346434A40210AA805F05BFF81B2D8
:101DDC000AA800F05FFBDEE702223F49204605F02F
:101DEC0092FF00287FF473AFA378303B042B3FF6AF
:101DFC006EAF03F10801364A32F811200092374ACF
:101E0C00202102A805F03EFF81B202A800F042FB9F
:101E1C00C1E72F4B598B1448FFF730FFBBE72C4B16
:101E2C00998B1248FFF72AFFB5E7294BD98B10483D
:101E3C00FFF724FFAFE7264B198C0E48FFF71EFF68
:101E4C00A9E7234BD3F822100B48FFF7D9FEA2E7E2
:101E5C001F4BD3F826100948FFF7D2FE9BE700BFB3
:101E6C00048600080C860008848500088C85000810
:101E7C0098850008A4850008AC850008B885000882
:101E8C00C485000810860008448600088486000873
:101E9C00CC86000810870008548700089C8700082F
:101EAC00E0870008288800086C880008B4880008BF
:101EBC009C8E0008FC880008388900086C89000892
:101ECC00A4890008D88900080C8A000878850008C5
:101EDC00D8100020408A0008808500084C8A000831
:101EEC0030B591B00C46844B1B7813B9824B012250
:101EFC001A703F2C28BF3F2422460146684605F045
:101F0C00ABFE10AB2344002203F8402C07E0013C4D
:101F1C00A4B29BB210AA1344002203F8402C44B183
:101F2C00631E10AA1A4412F8402C0D2AEFD00A2A6C
:101F3C00EDD0002C00F0D38070496846FEF700F914
:101F4C0010B36F496846FEF7FBF838B36D49684625
:101F5C00FEF7F6F810B36C496846FEF7F1F8E8B1F5
:101F6C003D21684605F0C2FE04463F21684605F057
:101F7C00BDFE002C00F0B5802146002301F8013B8A
:101F8C006846FFF72BFDAAE0FFF7B4FC10B1FFF792
:101F9C001DFDA4E05D48FFF710FDA0E05C48FFF7D5
:101FAC000CFD5C48FFF709FD5B4D2846FFF705FD6E
:101FBC005A48FFF702FD5A48FFF7FFFC5948FFF754
:101FCC00FCFC5948FFF7F9FC5848FFF7F6FC584859
:101FDC00FFF7F3FC5748FFF7F0FC5748FFF7EDFC11
:101FEC00564C2046FFF7E9FC5548FFF7E6FC5548F0
:101FFC00FFF7E3FC2046FFF7E0FC5348FFF7DDFC5E
:10200C005248FFF7DAFC5248FFF7D7FC5148FFF76C
:10201C00D4FC2046FFF7D1FC4F48FFF7CEFC4F48CD
:10202C00FFF7CBFC4E48FFF7C8FC2046FFF7C5FC7A
:10203C004C48FFF7C2FC4C48FFF7BFFC4B48FFF77E
:10204C00BCFC4B48FFF7B9FC4A48FFF7B6FC4A48C2
:10205C00FFF7B3FC4948FFF7B0FC2046FFF7ADFC97
:10206C004748FFF7AAFC4748FFF7A7FC4648FFF78D
:10207C00A4FC4648FFF7A1FC4548FFF79EFC4548E9
:10208C00FFF79BFC4448FFF798FC2046FFF795FCB4
:10209C004248FFF792FC4248FFF78FFC4148FFF79C
:1020AC008CFC4148FFF789FC2046FFF786FC3F4833
:1020BC00FFF783FC3E48FFF780FC3E48FFF77DFCB2
:1020CC003D48FFF77AFC3D48FFF777FC2046FFF7C9
:1020DC0074FC3B48FFF771FC2846FFF76EFC11B00F
:1020EC0030BD28B1002303706846FFF7D9FDF6E731
:1020FC003448FFF762FCF2E704110020588A00080C
:10210C00788A0008048600080C860008608A00089B
:10211C007C8A0008AC8A0008D48A0008048B00086A
:10212C00188B0008488B0008748B0008A08B0008E3
:10213C00D08B0008F48B0008388C00089C8E0008AB
:10214C00788C0008948C0008DC8C0008FC8C00084F
:10215C00348D0008708D0008A88D0008C08D000813
:10216C00008E0008408E00086C8E0008A08E0008BF
:10217C00D08E0008FC8E0008288F00084C8F0008B9
:10218C00748F0008A08F0008B08F0008E88F00083B
:10219C001C9000084C9000087C900008B49000083B
:1021AC00C4900008F4900008209100085091000899
:1021BC006091000888910008B8910008DC91000833
:1021CC00009200082492000882B00E4B9A6942F0EB
:1021DC0001029A619A6902F001020092009ADA698E
:1021EC0042F08052DA61DB6903F080530193019B6A
:1021FC00054A536823F0E06343F00073536002B068
:10220C00704700BF001002400000014010B586B0BE
:10221C000023029303930493059302681F4B9A4285
:10222C0001D006B010BD044603F56C439A6942F424
:10223C0000729A619A6902F400720092009A9A698B
:10224C0042F004029A619B6903F004030193019B21
:10225C001F2302930323039302A9114801F0E8FA08
:10226C001048114B03600023436083608023C360DC
:10227C004FF4807303614FF48063436120238361C7
:10228C004FF40053C36100F0EFFF18B9054B236204
:10229C005C62C6E7FEF736FBF8E700BF002401409E
:1022AC0000080140B01D00200800024082B0036805
:1022BC000E4A934204D00E4A93420CD002B070479F
:1022CC000C4B9A6942F400629A619B6903F40063B7
:1022DC000093009BF2E7074BDA6942F00202DA61E5
:1022EC00DB6903F002030193019BE7E7002C01403B
:1022FC00000400400010024070B586B00023029329
:10230C000393049305930268274B9A4201D006B0BD
:10231C0070BD044603F5E433DA6942F48022DA61D5
:10232C00DA6902F480220092009A9A6942F008025B
:10233C009A619B6903F008030193019B4FF480633E
:10234C0002930223039303230593184E02A93046EC
:10235C0001F06EFA4FF40063029300250395049587
:10236C0002A9304601F064FA1148124B0360456033
:10237C0085608023C3600561456185614FF480539E
:10238C00C36100F071FF58B9094BE3635C62002232
:10239C000421272000F0FAFE272000F02BFFB6E7DF
:1023AC00FEF7B0FAF0E700BF00480040000C014017
:1023BC00AC1C002030000240FEE7FEE7FEE7FEE723
:1023CC00FEE770477047704708B500F043FC08BD46
:1023DC0008B5024801F028F808BD00BFB01D002068
:1023EC0008B5024801F020F808BD00BFAC1C002065
:1023FC0008B5024802F018F908BD00BF2C270020D0
:10240C0008B5024803F08AFA08BD00BFF01C002092
:10241C0010B503460C4A0D490D48006840B10C48F4
:10242C0000680344521A934206D8094A136010BD3F
:10243C000748084C0460F2E705F0E4FB0C2303604A
:10244C004FF0FF30F3E700BF005000200004000005
:10245C000C110020182A002070470000034B93F841
:10246C009C02032814BF0020012070476024002028
:10247C0008B5044BB3F8401001B908BD1846FFF776
:10248C002FFDFAE710110020014B93F84A0070471A
:10249C001011002038B504460D46FFF7DFFF20B1C0
:1024AC002946204600F088F938BD64232A46214687
:1024BC00014803F042F9F7E7F01C002030B583B077
:1024CC0004461A4B93F848301BB9184B012283F879
:1024DC00482000F0CBFB154B5864002283F84920B0
:1024EC000A2C0DD00D2C0BD0104BB3F840303E2BDA
:1024FC0004D80E4A591CA2F84010D45403B030BD75
:10250C000A4CB4F840300025E554FFF7B1FFA4F8AD
:10251C004050074B1B68ADF804301B0C8DF806308F
:10252C00022101A8FFF7B6FFE8E700BF1011002059
:10253C009C8E000838B50C4BB3F8403043B10A4AB6
:10254C0092F8492022B9084A526C801A312800D8D6
:10255C0038BD054C012284F849200025E554FFF7CD
:10256C0087FFA4F84050F3E71011002008B500F0E5
:10257C007DFBFFF7DFFF08BD064A0023A2F80038F9
:10258C00A2F80238044AA2F80031A2F80231034A38
:10259C0013707047601200205C110020641A002038
:1025AC0070B4EFF3108572B6184CB4F800389AB2C8
:1025BC00B4F802389BB29A421AD39B1A9BB203F21C
:1025CC00FF739BB2994218D800228A4219D20F4C41
:1025DC00B4F800389BB2865CE654B4F800389BB271
:1025EC000133C3F30A03A4F80038013292B2ECE7CA
:1025FC009B1A9BB2013B9BB2E4E785F31088002049
:10260C0002E085F31088012070BC70476012002036
:10261C0010B40446154AB2F800389BB2B2F802085E
:10262C0080B2834219D3181A80B2E0B1884228BF15
:10263C0008460022824216D20C49B1F802389BB2ED
:10264C00CB5CA354B1F802389BB20133C3F30A0339
:10265C00A1F80238013292B2ECE7181A80B200F5F8
:10266C00006080B2E1E710BC704700BF6012002030
:10267C000F4AB2F800319BB2B2F8022192B2013388
:10268C005942DBB2C9B258BF4B4293420DD0084AF3
:10269C00B2F800319BB2D054B2F800319BB2013386
:1026AC00DBB2A2F80031012070470020704700BF58
:1026BC005C1100200C4BB3F8002192B2B3F802313C
:1026CC009BB29A420ED0084AB2F802319BB2D35C4C
:1026DC000370B2F802319BB20133DBB2A2F80231C3
:1026EC0001207047002070475C11002000207047CB
:1026FC00202803D0212814D0002070470B784A786A
:10270C0043EA02238A7843EA0243CA7843EA026323
:10271C000D4A13600B7913714B7953718B7993714B
:10272C00EAE7094A13680B70C3F307204870C3F338
:10273C00074088701B0ECB7013790B7153794B715A
:10274C0093798B71D8E700BF0400002070B5054663
:10275C000E46FFF799FE012801D1002407E0FFF790
:10276C0093FE38B9F9E7285DFFF782FF013433682F
:10277C00A342F8D8044C2946204605F0DEF8204642
:10278C0005F0FDF8002070BD6024002010B5074C4A
:10279C0000220749204605F0C8F80649204605F0F6
:1027AC00CCF8FFF7E9FE002010BD00BF602400202C
:1027BC003C2000203C1E002008B5FFF7F1FE08BDB0
:1027CC000A4BD3F8C4327BB1D3F814320BB10120CD
:1027DC00704710B5054C0A460146204605F0A5F891
:1027EC00204605F0B0F810BD022070476024002090
:1027FC0070B592B0164BD3F8C46200250DF14700AA
:10280C00FFF758FF044628B19DF84700FFF756FE26
:10281C002546F3E745B12EB1D6F8143213B90D4B5A
:10282C001B7823B112B070BDFFF7A0FEF3E7402177
:10283C0001A8FFF7EDFE01460028F3D0054C01235B
:10284C00237001A8FFF7BCFF00232370EAE700BF49
:10285C0060240020641A002012230B80004870476B
:10286C003800002004230B8000487047B80000207B
:10287C000023934217D230B40BE0373401F81340E5
:10288C0000015C00013400250D550133DBB293428D
:10289C0007D2040FB0F1204FEFD2303401F81340BF
:1028AC00EEE730BC7047704738B50A4B18680433F4
:1028BC001C6804331B68C01800D138BD064D0822B3
:1028CC00A91CFFF7D5FF042205F112012046FFF7E2
:1028DC00CFFFF2E7E8F7FF1FBC00002008B51A2372
:1028EC000B80FFF7E1FF014808BD00BFBC000020D2
:1028FC0008B50A4628B90549054804F046FE0348C0
:10290C0008BD0249024804F040FEF8E73C220020D2
:10291C006492000810B50A46034C2146034804F0A3
:10292C0034FE204610BD00BF3C2200207C920008E3
:10293C0008B50A4628B90549054804F026FE03489F
:10294C0008BD0249024804F020FEF8E73C220020B2
:10295C009092000808B50A46A0B90D4B93F8AC321A
:10296C0033B1012B09D00B490B4804F00EFE0DE0DE
:10297C0008490A4804F009FE08E00649084804F032
:10298C0004FE03E00349044804F0FFFD014808BDC0
:10299C00602400203C220020B49200089C92000885
:1029AC00A892000838B50446D0F8B852084BDB683A
:1029BC0003B1984705F50973C4F8B832054BDB68C9
:1029CC000BB120469847C4F8B852002038BD00BF60
:1029DC00140200205801002038B50446D0F8B85233
:1029EC00044BC0F8BC32044B1B699847C4F8B8526E
:1029FC00002038BD0C0000201402002038B504461D
:102A0C00D0F8B8528B1EDBB2012B03D9012907D0A9
:102A1C00002002E0064B5B699847C4F8B85238BDF9
:102A2C0005F50973C0F8B832024B5B699847F4E7B7
:102A3C00140200205801002038B50446D0F8B852D2
:102A4C00012903D00020C4F8B85238BD014B9B6952
:102A5C009847F8E71402002038B50446D0F8B8526D
:102A6C0005F50973C0F8B832044BDB691BB1984704
:102A7C00C4F8B85238BD0020FAE700BF5801002056
:102A8C006C230380004870474C00002008B5024BB3
:102A9C009B6A984708BD00BF140200200A230380DC
:102AAC000020704738B50446D0F8B8520B79012B8A
:102ABC0009D9022B10D105F50973C0F8B832084BAF
:102ACC009B68984705E0074BC0F8BC32064B9B68E7
:102ADC009847C4F8B85238BD04F068FA0220F8E7F9
:102AEC00580100200C0000201402002070B5D0F812
:102AFC00B8629EB104460D46094B5B68984706F5D3
:102B0C000973C4F8B832074B5B68294620469847CE
:102B1C00304605F075F80023C4F8B832002070BDBB
:102B2C00140200205801002070B504460E464FF4E4
:102B3C000E7005F061F820B30546C4F8B802C4F86D
:102B4C00C402124BC4F8BC32002380F83432104B50
:102B5C001B6831462046984790B9012385F83532D9
:102B6C0005F50973C4F8B832C4F8C8320023C4F8A8
:102B7C00BC32084B1B68314620469847C4F8B85203
:102B8C0070BD0023C4F8B8320220F9E70C00002015
:102B9C001402002058010020FFF75EFC0B480C4982
:102BAC000C4A002302E0D458C4500433C4188C429D
:102BBC00F9D3094A094C002301E013600432A24204
:102BCC00FBD305F025F8FDF7C5FF7047000000208A
:102BDC00880300201493000888030020142A002086
:102BEC00FEE7000010B504460E4B18784FF47A73CC
:102BFC00B3FBF0F30C4A1068B0FBF3F000F008FBE9
:102C0C0068B90F2C01D901200AE0002221464FF0AF
:102C1C00FF3000F0BBFA054B1C60002000E00120E7
:102C2C0010BD00BF10010020000000201401002086
:102C3C0008B5074A136843F010031360032000F033
:102C4C0093FA0F20FFF7CEFFFFF7BEFA002008BD66
:102C5C0000200240034A1168034B1B780B4413609D
:102C6C00704700BF3C24002010010020014B186865
:102C7C00704700BF3C24002038B50446FFF7F6FF30
:102C8C000546B4F1FF3F02D0044B1B781C44FFF700
:102C9C00EDFF401BA042FAD338BD00BF100100204D
:102CAC0008B5436A9A6A12F0500F1ED19A6A42F420
:102CBC0000729A621A68926802F46022B2F5602F70
:102CCC0003D01846FDF7ECFD08BD1A7B002AF8D19D
:102CDC009A6A22F480729A629A6A12F4805FF0D136
:102CEC009A6A42F001029A62EBE71B6A1B6B9847E7
:102CFC00EAE708B5406AFDF7A1FD08BD704708B5C5
:102D0C00406A836A43F040038362C36A43F004035E
:102D1C00C362FFF7F3FF08BD30B482B0002201920A
:102D2C0090F82420012A00F08B800346012280F8C1
:102D3C0024204A68062A29D80568686B02EB8202AF
:102D4C00053A1F24944020EA04000C6804FA02F2AD
:102D5C0002436A630A68092A38D91D68E86802EBDD
:102D6C0042021E3A0724944020EA04008C6804FABC
:102D7C0002F20243EA600A68103A012A34D90020B0
:102D8C00002283F8242002B030BC70470C2A0ED8E5
:102D9C000568286B02EB8202233A1F24944020EA38
:102DAC0004000C6804FA02F202432A63D2E70568B5
:102DBC00E86A02EB8202413A1F24944020EA0400A4
:102DCC000C6804FA02F20243EA62C3E71D68286940
:102DDC0002EB42020724944020EA04008C6804FAB7
:102DEC0002F202432A61C6E71A681648824205D0ED
:102DFC009A6A42F020029A620120C1E7906810F4AE
:102E0C00000F1BD1906840F4000090600A68102AF3
:102E1C0001D00020B4E70C4A12680C49A1FB021245
:102E2C00920C02EB82025200019202E0019A013AEA
:102E3C000192019A002AF9D10020A1E700209FE716
:102E4C000220A0E7002401400000002083DE1B4389
:102E5C0030B583B00023019303689A6812F0010F18
:102E6C0032D104469A6842F001029A60184B1B68F2
:102E7C00184AA2FB03239B0C0193019B1BB1019BE2
:102E8C00013B0193F9E7FFF7F1FE054623689B68C8
:102E9C0013F0010F16D1FFF7E9FE431B022BF5D9F6
:102EAC0023689B6813F0010FF0D1A36A43F0100361
:102EBC00A362E36A43F00103E362002384F8243045
:102ECC00012002E0002000E0002003B030BD00BF74
:102EDC000000002083DE1B43F8B504460D46164661
:102EEC00036844498B4259D0434A934256D094F8D4
:102EFC002430012B7CD0012384F824302046FFF7AA
:102F0C00A7FF074600286ED1A36A23F4706323F051
:102F1C00010343F48073A3622268374B9A4244D076
:102F2C00A36A23F48013A362536813F4806F05D053
:102F3C00A36A23F4405343F48053A362A36A13F4AB
:102F4C00805F48D0E36A23F00603E362002384F831
:102F5C002430236A294A9A62236A294ADA62236A4C
:102F6C00284A1A6323686FF002021A602268936879
:102F7C0043F480739360216833462A464C31206AAF
:102F8C0000F0A8F923689A6802F46022B2F5602F69
:102F9C0024D09A6842F480129A6027E0154B5B6843
:102FAC0013F4702FA3D0012720E0A3F580635B6896
:102FBC0013F4702FB4D0A36A43F48013A3620D4BA7
:102FCC005B6813F4806FB9D0A36A23F4405343F4C5
:102FDC008053A362B2E70023E362B7E79A6842F436
:102FEC00A0029A6002E0002384F824303846F8BD31
:102FFC000227FBE70024014000280140AD2C00080B
:10300C00FF2C00080B2D000838B503689A6812F0E5
:10301C00010F01D1002038BD04469A6822F001024C
:10302C009A60FFF723FE054623689B6813F0010F97
:10303C0013D0FFF71BFE431B022BF5D923689B68AB
:10304C0013F0010FF0D0A36A43F01003A362E36AFC
:10305C0043F00103E3620120DDE70020DBE7000021
:10306C0000287BD070B50446836A002B4DD02046D7
:10307C00FFF7CAFFA36A13F0100369D1002867D1C8
:10308C00A26A22F4885222F0020242F00202A262E8
:10309C006268E1690A43217B42EA4102A568B5F501
:1030AC00807F02D0012D36D01D46267D012E35D0D5
:1030BC002668716821F46941294371602568AE68FE
:1030CC00274931401143A960A168B1F5807F01D037
:1030DC00012902D12369013B1B052568E96A21F40A
:1030EC0070010B43EB62236899681E4B0B409A42AC
:1030FC0025D0A36A23F0120343F01003A362E36A02
:10310C0043F00103E362012027E0C36280F824301E
:10311C00FFF77CF8ABE74FF48075C6E731B9A169CE
:10312C00013945EA413141F40065C1E7A16A41F03A
:10313C002001A162E16A41F00101E162B8E70023DC
:10314C00E362A36A23F0030343F00103A36204E0E8
:10315C00A36A43F01003A362012070BD01207047E5
:10316C00FDF7E1FFFE0E1FFF074AD36823F4E0636F
:10317C001B041B0C000200F4E060034343F0BF632C
:10318C0043F40033D360704700ED00E030B4174BCC
:10319C00DB68C3F30223C3F10704042C28BF042407
:1031AC001D1D062D18D9033B4FF0FF3505FA04F40D
:1031BC0021EA0401994005FA03F322EA03031943B7
:1031CC0000280BDB0901C9B200F1604000F5614039
:1031DC0080F8001330BC70470023E5E700F00F00C7
:1031EC000901C9B2024B1954F4E700BF00ED00E02D
:1031FC0014ED00E0002807DB00F01F02400901235A
:10320C009340024A42F82030704700BF00E100E0D2
:10321C000138B0F1807F0AD2064B5860064AF02183
:10322C0082F823100020986007221A607047012052
:10323C00704700BF10E000E000ED00E070B4066CD9
:10324C00C56B0124B4406C60046863604368102B48
:10325C0005D0036899600368DA6070BC7047036836
:10326C009A600368D960F8E760B310B4024601684D
:10327C00154B0B441548A0FB03031B099B0013645F
:10328C00134BD363022382F82130086820F47F505B
:10329C0020F03000536894682343D46823431469A6
:1032AC0023435469234394692343D469234303433D
:1032BC000B6000209063012382F8213082F82000FB
:1032CC0010BC704701207047F8FFFDBFCDCCCCCCB3
:1032DC000000024038B5044690F82000012832D096
:1032EC00012084F8200094F82100C0B2012804D0F9
:1032FC00002384F82030022038BD022084F82100FD
:10330C000020A0632568286820F001002860204672
:10331C00FFF794FFE36A5BB12268136843F00E0376
:10332C0013602268136843F0010313600020E3E785
:10333C002268136823F0040313602268136843F0B7
:10334C000A031360EDE70220D6E790F82130DBB2D8
:10335C00022B06D004238363002380F82030012045
:10336C0070470268136823F00E0313600268136839
:10337C0023F001031360036CC16B012202FA03F307
:10338C004B6080F82120002380F8203018467047CD
:10339C0008B590F82130DBB2022B03D004238363F1
:1033AC00012008BD0268136823F00E031360026845
:1033BC00136823F0010313600368194A934214D075
:1033CC00143293421FD0143293421ED014329342C3
:1033DC001ED0143293421ED01432934202D04FF0BE
:1033EC00807203E04FF4801200E001220D4B5A6012
:1033FC00012380F82130002380F82030436B6BB11F
:10340C0098470020CDE71022F0E74FF48072EDE7EB
:10341C004FF48052EAE74FF48032E7E70020C0E730
:10342C00080002400000024038B5C36B1A680468FB
:10343C002568016C04238B40134235D015F0040F22
:10344C0032D0236813F0200F03D1236823F0040338
:10345C0023600368434A934214D01432934218D029
:10346C001432934217D01432934217D01432934231
:10347C0017D01432934202D04FF0806203E04FF425
:10348C00800200E00422384B5A60C36A03B19847AB
:10349C0038BD4022F7E74FF48062F4E74FF48042E6
:1034AC00F1E74FF48022EEE702238B4013423CD02D
:1034BC0015F0020F39D0236813F0200F06D12368C2
:1034CC0023F00A032360012380F821300368254A86
:1034DC00934214D0143293421CD0143293421BD01A
:1034EC00143293421BD0143293421BD014329342A9
:1034FC0002D04FF0007203E04FF4001200E0022201
:10350C00194B5A60002380F82030836A002BBFD0FF
:10351C009847BDE72022F3E74FF40072F0E74FF431
:10352C000052EDE74FF40032EAE7082303FA01F109
:10353C001142ADD015F0080FAAD0236823F00E036A
:10354C002360026CC16B012303FA02F24A608363AD
:10355C0080F82130002380F82030036B002B97D0AB
:10356C00984795E70800024000000240044B0022F7
:10357C00DA61044A136943F0010313610180704757
:10358C004024002000200240194BDB6813F010038C
:10359C0005D0184AD36943F00203D3611023144AAF
:1035AC00D26812F0040F06D01249CA6942F0010227
:1035BC00CA6143F004030E4AD26912F0010F09D01C
:1035CC000C49CA6942F00402CA610949CA6922F06D
:1035DC000102CA6140F20112934202D0044AD36044
:1035EC007047034AD36923F00103D361704700BFCE
:1035FC0000200240402400200A4B1B6913F0800F6E
:10360C000BD0084B084A5A6002F188325A601B6989
:10361C0013F0800F03D10020704700207047012069
:10362C00704700BF0020024023016745034A13691D
:10363C0043F0800313610020704700BF002002405C
:10364C0038B50446FFF712FB0546164BDB6813F042
:10365C00010F0AD0B4F1FF3FF7D024B1FFF706FBFE
:10366C00401BA042F1D903201BE00E4BDB6813F08A
:10367C00200F02D00B4B2022DA600A4BDB6813F0D0
:10368C00100F0BD1074BDB6913F0010F06D1054B63
:10369C00DB6813F0040F01D1002002E0FFF774FF88
:1036AC00012038BD002002402DE9F8431E46234B73
:1036BC001B7E012B40D004460F4690461F4B012227
:1036CC001A764CF25030FFF7BBFF034670BB012C4F
:1036DC0029D0022C24D04FF004091C464C4525D28D
:1036EC002101C1F12002A1F1200328FA01F106FA0F
:1036FC0002F2114326FA03F3194389B207EB440093
:10370C00FFF734FF4CF25030FFF79AFF0C4B1D695A
:10371C0025F001051D61034640B90134E4B2DDE733
:10372C004FF00209D9E74FF00109D6E7034A00210F
:10373C0011761846BDE8F8830223FAE740240020EE
:10374C0000200240064B0022DA61064B1A6942F057
:10375C0004021A611A6942F040021A61704700BFF4
:10376C004024002000200240064B0022DA61064B68
:10377C001A6942F002021A6158611A6942F0400259
:10378C001A6170474024002000200240264B1B7E0B
:10379C00012B46D070B505460E46234B01221A76F6
:1037AC000368022B20D04CF25030FFF749FF90BB3E
:1037BC004FF0FF333360AC680121EA68AB6803EB70
:1037CC008223A34228D92046FFF7CEFF4CF250307B
:1037DC00FFF736FF154A136923F002031361014604
:1037EC00B8B904F58064E8E74CF25030FFF728FFD5
:1037FC0008B1012110E00120FFF7A4FF4CF250307A
:10380C00FFF71EFF0146094A136923F004031361F5
:10381C0002E0346000E00121034B00221A760846D6
:10382C0070BD022108467047402400200020024051
:10383C00F0B482B000252C46A3E07F4FBB4210D0E1
:10384C0007D97E4FBB420CD007F58037BB4208D05E
:10385C0013E0A7F58017BB4203D007F57027BB42D6
:10386C0007D18B68002B58D0012B51D04261082511
:10387C0003E0A7F58017BB42F3D0FF2E4FD8844648
:10388C00FF2E4FD8A200DCF800300F27974023EA18
:10389C00070305FA02F21343CCF800304B6813F01F
:1038AC00805F6DD0664B9A6942F001029A619B6908
:1038BC0003F001030193019BA208971C614B53F881
:1038CC00273004F00307BF004FF00F0C0CFA07FC75
:1038DC0023EA0C0C5C4B98422AD003F58063984287
:1038EC0000F08A8003F58063984200F0878003F52E
:1038FC00806398421AD004231BE0CD68BDE7CD68E5
:10390C000435BAE7CD680835B7E7CD680C35B4E7B0
:10391C0002610825B1E70025AFE70425ADE700F10A
:10392C00040CADE7A4F108029200ACE7032300E01D
:10393C000023BB4043EA0C030232424F47F82230CB
:10394C004B6813F4801F5BD0404A936833439360F9
:10395C004B6813F4001F59D03C4AD3683343D360EF
:10396C004B6813F4003F57D0384A536833435360C5
:10397C004B6813F4803F55D0344A13681E431660CD
:10398C0001340B6833FA04F252D00122A24003EA4C
:10399C00020632EA0303F3D14B68122B3FF64DAF0C
:1039AC00122B3FF66AAF01A757F823F06F380008C7
:1039BC000739000811390008233900088738000836
:1039CC0087380008873800088738000887380008CF
:1039DC0087380008873800088738000887380008BF
:1039EC0087380008873800088738000887380008AF
:1039FC000B3900081739000801239AE7022398E7CE
:103A0C00124A936823EA06039360A1E70F4AD3682E
:103A1C0023EA0603D360A3E70C4A536823EA0603A0
:103A2C005360A5E7094A136823EA06061660A7E760
:103A3C0002B0F0BC704700BF000022100000311033
:103A4C000010024000000140000801400004014049
:103A5C000AB10161704709040161704770B512F435
:103A6C00804F43D00468B4F850309BB20D7803EB10
:103A7C00C503023304EB4303B3F80044C4F3090455
:103A8C008B69A34228D31B1B8B618B697BB906689E
:103A9C0036F825309BB223F4804323F0700383F473
:103AAC00005343F4004343F0800326F8253012F012
:103ABC00400F0ED002680D7832F825309BB223F4FB
:103ACC00E04323F0700343F4004343F0C00322F8B7
:103ADC00253024B9204670BD00238B61D5E72346E1
:103AEC000A894969006802F0EBFFF3E70468B4F84F
:103AFC0050309BB20D7803EBC503063304EB430344
:103B0C00B3F80044C4F309048B69A3422ED31B1BE6
:103B1C008B618B697BB9066836F825309BB223F430
:103B2C00804323F0700383F4005343F4004343F0C9
:103B3C00800326F8253012F0400F0ED102680D7864
:103B4C0032F825309BB223F4E04323F0700343F4A6
:103B5C00004343F0C00322F82530002CBAD0234692
:103B6C004A894969006802F0ABFFB3E700238B6117
:103B7C00CFE738B500286DD0044690F89132A3B148
:103B8C00032384F8913200236371206802F048F813
:103B9C00234653F8040B0ECB02F032F850B102233B
:103BAC0084F891320125284638BD80F8903203F014
:103BBC000BFFE5E70021206802F03CF80346A8B9AA
:103BCC000246207990422DD902EB820104EBC1010F
:103BDC00012048740A740020C874086248620132DB
:103BEC0002EB8201C9006050D2B2EAE7022384F8EA
:103BFC0091320125D7E703EB830204EBC2020021CB
:103C0C0082F8511182F8503182F85311C2F86011C8
:103C1C00C2F8641103EB830204EBC202C2F8681110
:103C2C000133DBB29842E6D8234653F8040B0ECB93
:103C3C0002F002F8054620B1022384F891320125E6
:103C4C00B1E700236373012384F89132206802F0FA
:103C5C0035FBA8E70125A6E738B590F89032012B83
:103C6C0011D00446012580F89052006801F0CFFF76
:103C7C002946204603F0C5FF206802F01DFB0020FA
:103C8C0084F8900238BD0220FCE770B505460C465E
:103C9C00164612F0400F00F00E810268B2F8503058
:103CAC009BB2097803EBC103023302EB4303B3F875
:103CBC000024C2F30902A36993424ED99B1AA36153
:103CCC00A369002B66D16378002B49D12B68B3F81C
:103CDC00502092B2134403EB0111B1F80434C3F336
:103CEC000903A1F80434B1F804346FEA43436FEAD2
:103CFC0053439BB2A1F804342B686278002A3CD160
:103D0C00B3F8502092B21344227803EB0213B3F8A9
:103D1C000C24C2F30902A3F80C24B3F80C246FEAA8
:103D2C0042426FEA524292B2A3F80C242178284600
:103D3C0003F07EFE16F4804F41D02A68217832F8C9
:103D4C0021309BB223F4E04323F0700343F440434F
:103D5C0043F0800322F8213031E00023A361AFE768
:103D6C00012BC9D12B68B3F8502092B2134403EB4A
:103D7C0001110023A1F80434BEE7012AD6D1B3F80F
:103D8C00502092B21344227803EB02130022A3F8C2
:103D9C000C24CBE716F4804F0DD0286830F8213076
:103DAC009BB223F4E04323F0700343F4404343F00D
:103DBC00800320F8213094F82430012B12D02A688B
:103DCC00217832F821309BB223F4E04323F04003F6
:103DDC0083F0300343F4004343F0800322F8213096
:103DEC00002070BD636913446361E3691344E361AC
:103DFC00216A2369994224D3C91A21626278002A64
:103E0C0044D12A68B2F8501089B20A44217802EBE6
:103E1C000112B2F80414C1F30901A2F804143E2BE8
:103E2C001BD9580913F01F0F00D10138B2F8041434
:103E3C0089B2800280B2014341F40041A2F804141B
:103E4C0026E021B9002384F824301346D6E700235A
:103E5C0084F8243023620B46D0E74BB9B2F8041433
:103E6C006FEA41416FEA514189B2A2F804140FE0A4
:103E7C00590813F0010F00D00131B2F8040480B2DC
:103E8C00890289B20143A2F8041401E0012A06D088
:103E9C009BB222896169286802F018FA8FE72A68B8
:103EAC00B2F8501089B20A44217802EB011299B28F
:103EBC00A2F80414ECE70268B2F850309BB209780F
:103ECC0003EBC103063302EB4303B3F80024C2F344
:103EDC000902A36993424FD39B1AA361A369002BD8
:103EEC0067D16378002B4AD12B68B3F8502092B27B
:103EFC00134403EB0111B1F80434C3F30903A1F823
:103F0C000434B1F804346FEA43436FEA53439BB271
:103F1C00A1F804342B686278002A3DD1B3F8502004
:103F2C0092B21344227803EB0213B3F80C24C2F3BD
:103F3C000902A3F80C24B3F80C246FEA42426FEA8E
:103F4C00524292B2A3F80C242178284603F070FD5B
:103F5C0016F4804F7FF433AF2A68217832F8213081
:103F6C009BB223F4E04323F0700343F4404343F04B
:103F7C00800322F8213022E70023A361AEE7012B56
:103F8C00C8D12B68B3F8502092B2134403EB011143
:103F9C000023A1F80434BDE7012AD5D1B3F8502091
:103FAC0092B21344227803EB02130022A3F80C24E0
:103FBC00CAE716F4804F0DD1286830F821309BB237
:103FCC0023F4E04323F0700343F4404343F08003B5
:103FDC0020F8213094F82430012B7FF4F0AE636983
:103FEC0013446361E3691344E361216A23699942D1
:103FFC0024D3C91A21622A686178002943D1B2F806
:10400C00501089B20A44217802EB0112B2F80C1458
:10401C00C1F30901A2F80C143E2B1BD9580913F05B
:10402C001F0F00D10138B2F80C1489B2800280B293
:10403C00014341F40041A2F80C1426E021B90023FD
:10404C0084F824301346D6E70023236284F8243006
:10405C000B46D0E74BB9B2F80C146FEA41416FEA4A
:10406C00514189B2A2F80C140FE0590813F0010F5A
:10407C0000D00131B2F80C0480B2890289B201433C
:10408C00A2F80C1401E0012906D09BB26289616987
:10409C00286802F01BF992E6B2F8501089B20A4473
:1040AC00217802EB011299B2A2F80C14EDE72DE97C
:1040BC00F04105462868B0F8443013F4004F00F086
:1040CC009D82B0F84440A3B214F00F0440F0DE809F
:1040DC0013F0100F6BD003889AB213F4006F40F0FA
:1040EC00998012F4004FE5D0038823F070031B0570
:1040FC001B0D43F0800303802868B0F850309BB24E
:10410C0095F8502103EBC203063300EB4303B3F8DD
:10411C000034C3F30903C5F86C318BB1D5F86411C5
:10412C0071B1B5F8562102F0CBFCD5F86C21D5F85D
:10413C0064311344C5F864310021284603F06CFC4B
:10414C002A68138899B213F4006FB3D101F440516B
:10415C00B1F5405FAED0B2F850309BB21A44B2F811
:10416C000C34C3F30903A2F80C34D5F860313E2BA0
:10417C0073D9590913F01F0F00D10139B2F80C345F
:10418C009BB2890289B20B4343F40043A2F80C346E
:10419C002A6813889BB223F4804323F0700383F4C2
:1041AC00405343F4004343F08003138082E70388B9
:1041BC009BB223F4E14323F070036FEA43436FEAAD
:1041CC0053439BB203802A68B2F850309BB2297CCF
:1041DC0003EBC103023302EB4303B3F80034C3F324
:1041EC000903EB626A6A13446B620021284603F0F0
:1041FC001FFC6B7B002B3FF45DAFAB6A002B7FF495
:10420C0059AF6B7B2A6843F08003A2F84C30002333
:10421C006B734FE7B0F850309BB295F8502103EB1D
:10422C00C203063300EB4303B3F80034C3F30903B2
:10423C00C5F86C31B5F8562105F5267102F040FC35
:10424C002A68138823F070031B051B0D43F08003B1
:10425C001380284603F0D8FB2CE74BB9B2F80C348A
:10426C006FEA43436FEA53439BB2A2F80C348FE7D7
:10427C00590813F0010F00D00131B2F80C3498B288
:10428C008B029BB20343A2F80C3481E730F8243044
:10429C009EB213F4004F54D116F0800F3FF40AAFC6
:1042AC0004EB8401C900103129442A6832F8243007
:1042BC009BB223F4E14323F070036FEA43436FEAAC
:1042CC0053439BB222F8243004EB840305EBC30365
:1042DC00DB7C012B00F0F68016F4807F40F08981A6
:1042EC002868B0F850309BB204EB840205EBC20294
:1042FC00127C03EBC203023300EB4303B3F800342C
:10430C00C3F30903621C02EB820255F832209A4275
:10431C0040F25681661C06EB8606D21A45F836200A
:10432C00621C02EB820255F83220002A40F04F81C9
:10433C0004EB840405EBC404217C284603F078FBD1
:10434C00B8E630F8243023F070031B051B0D43F046
:10435C00800320F8243004EB8401C90001F5A87116
:10436C0005EB010804EB840305EBC30393F85C3104
:10437C00002B42D12868B0F850309BB204EB840279
:10438C0005EBC20292F8502103EBC203063300EB9B
:10439C004303B3F80074C7F3090717BB04EB84039A
:1043AC0005EBC303D3F86C213A44C3F86C21D3F862
:1043BC0064213A44C3F86421D3F868313BB104EB6F
:1043CC00840305EBC303D3F860319F4275D204EB31
:1043DC00840305EBC30393F85011284603F01CFB30
:1043EC005AE704EB840105EBC1013B46B1F85621B9
:1043FC00D1F8641102F064FBD0E704EB840305EB05
:10440C00C30393F85331022B35D0296804EB840293
:10441C0005EBC20292F8500131F820309BB223F424
:10442C00E04323F0700343F4004343F0C00321F84E
:10443C002030286892F8502130F8223013F4804F45
:10444C0020D0B0F850309BB203EBC203023300EB28
:10445C004303B3F80074C7F30907002F9ED004EB95
:10446C00840105EBC1013B46B1F85821D1F8641128
:10447C0002F026FB92E7324641462846FFF7EEFA59
:10448C0007468BE7B0F850309BB203EBC203063300
:10449C0000EB4303B3F80074C7F30907002F3FF494
:1044AC007DAF04EB840105EBC1013B46B1F85A2109
:1044BC00D1F8641102F004FB70E74146286801F062
:1044CC0018FFE9E6631C03EB8303DB000022EA50D0
:1044DC0004EB840305EBC3031B7F1BB316F0400FE7
:1044EC003BD004EB840305EBC3035B7C1BBB2B6849
:1044FC00B3F8502092B2134404EB840205EBC202D1
:10450C00127C03EB0213B3F80424C2F30902A3F8E0
:10451C000424B3F804246FEA42426FEA524292B286
:10452C00A3F8042404EB840405EBC404217C284682
:10453C0003F07EFABEE5012BF4D12B68B3F85020C2
:10454C0092B2134404EB840205EBC202127C03EB1F
:10455C0002130022A3F80424E4E72B6804EB840282
:10456C0005EBC202527CD2B9B3F8502092B213447C
:10457C0004EB840205EBC202127C03EB0213B3F8CA
:10458C000C24C2F30902A3F80C24B3F80C246FEA30
:10459C0042426FEA524292B2A3F80C24C2E7012ABB
:1045AC00C0D1B3F8502092B2134404EB840205EB53
:1045BC00C202127C03EB02130022A3F80C24B1E715
:1045CC00621C02EB8202D2000026AE50A8E604EB7D
:1045DC00840205EBC202566A1E445662013404EB97
:1045EC00840205EBC20254682344536001F081FE3F
:1045FC0060E532462846FFF748FB5BE50020BDE846
:10460C00F08190F89032012B0CD010B504460123A8
:10461C0080F890324173006801F048FE002084F865
:10462C00900210BD0220704710B584B0044600689B
:10463C0001F046FE10F4004F20D110F4806F21D110
:10464C0010F4804F2FD110F4005F37D110F4805F3D
:10465C003ED110F4006F40F0878010F4007F40F0E2
:10466C00AE8010F4807F27D02268B2F844309BB221
:10467C0023F480739BB2A2F844301DE02046FFF770
:10468C0016FD19E02268B2F844309BB223F4806323
:10469C009BB2A2F84430204603F0DBF900212046FF
:1046AC00FFF7AFFF08E02268B2F844309BB223F466
:1046BC0080439BB2A2F8443004B010BD2268B2F81B
:1046CC0044309BB223F400539BB2A2F84430F3E77E
:1046DC002268B2F840309BB223F004039BB2A2F8DC
:1046EC0040302268B2F840309BB223F008039BB2F2
:1046FC00A2F84030204603F0CFF92268B2F84430DB
:10470C009BB223F480539BB2A2F84430D4E72268C6
:10471C0032F8231004AA02EB430222F8101C0133D6
:10472C00DBB2072BF3D92268B2F840309BB243F0CE
:10473C000103A2F840302268B2F840309BB223F05B
:10474C0001039BB2A2F840302368B3F8442012F462
:10475C00806FF9D0B3F8442092B222F4806292B206
:10476C00A3F8442000230BE00023DAE7226804A915
:10477C0001EB430131F8101C22F823100133DBB29A
:10478C00072BF3D92268B2F840309BB243F00803F0
:10479C00A2F840302268B2F844309BB223F4006394
:1047AC009BB2A2F844302268B2F840309BB243F07E
:1047BC000403A2F84030204603F05EF97CE722683F
:1047CC00B2F844309BB223F400739BB2A2F844308D
:1047DC00204603F038F96FE770B50446084611F02F
:1047EC00800F23D101F0070505EB8506F60006F5D1
:1047FC00A876A11905EB850504EBC505002685F8FF
:10480C00516100F0070008700A61CB70022B1BD0BD
:10481C0094F89032012B1AD0012384F8903220683E
:10482C0001F01DFA002084F8900270BD01F007051C
:10483C0005EB8501C9001031214405EB850504EB1E
:10484C00C50501266E74DCE700230B71E0E702203E
:10485C00EBE710B504460A4611F0800F1FD101F0AA
:10486C00070000EB8003DB0003F5A873E11800EBF5
:10487C00800004EBC000002380F8513102F00702E5
:10488C000A7094F89032012B17D0012384F89032DF
:10489C00206801F0ABFB002084F8900210BD01F001
:1048AC00070000EB8003DB001033E11800EB800005
:1048BC0004EBC00001234374E0E70220EEE770B57F
:1048CC0001F0070404EB8401C90001F5A87104EBA5
:1048DC00840500EBC505C5F86421C5F868310026D0
:1048EC00C5F86C6185F8516185F850410144006848
:1048FC0001F0FFFC304670BD01F0070101EB8101B6
:10490C0000EBC101D1F86C017047F8B501F0070458
:10491C0004EB8401C900103104EB840500EBC505E0
:10492C006A62621C02EB820640F83630012785F879
:10493C0034702B6300EBC602002656606F742C7427
:10494C000144006801F0D5FC3046F8BD38B501F0E3
:10495C0007050279AA4235D304460B4611F0800FA5
:10496C001ED101EB8101C90001F5A871014403EBD3
:10497C00830300EBC303002283F8512101238B70C6
:10498C000D7094F89032012B1ED0012384F89032D4
:10499C00206801F015FC7DB1002084F8900238BD30
:1049AC0005EB8501C9001031014405EB850300EBD3
:1049BC00C30301225A74E1E704F52671206801F063
:1049CC0083FCE9E70120EAE70220E8E70B460179DE
:1049DC0003F00F02914234D310B5044613F0800F4C
:1049EC0021D103F0070202EB8201C90001F5A87185
:1049FC00014402EB820200EBC202002082F851015A
:104A0C0000228A7003F007030B7094F89032012B8C
:104A1C0019D0012384F89032206801F0F6FB0020B5
:104A2C0084F8900210BD03F0070202EB8201C9006A
:104A3C001031014402EB820200EBC20201205074DF
:104A4C00DEE7012070470220ECE711F0800F0BD05D
:104A5C0001F0070101EB8101C9001031014452B989
:104A6C000A73CB800020704701EB8101C90001F56E
:104A7C00A8710144F3E701220A730B811B0C4B81D3
:104A8C00F0E7000082B0084B1B68084AA2FB032326
:104A9C005B0A00FB03F3019300BF019B5A1E0192BA
:104AAC00002BF9D102B0704700000020D34D6210EA
:104ABC00002800F0F18170B582B00446036813F051
:104ACC00010F2CD0AA4B5B6803F00C03042B1DD0F8
:104ADC00A74B5B6803F00C03082B12D06368B3F58B
:104AEC00803F41D0002B55D103F1804303F50433B3
:104AFC001A6822F480321A601A6822F480221A6032
:104B0C0037E09B4B5B6813F4803FE7D0984B1B68F6
:104B1C0013F4003F03D06368002B00F0BF812368BF
:104B2C0013F0020F75D0924B5B6813F00C0F5FD033
:104B3C008F4B5B6803F00C03082B54D02369002BBC
:104B4C0000F089808B4B01221A60FEF78FF8054626
:104B5C00874B1B6813F0020F74D1FEF787F8401BCC
:104B6C000228F5D903209EE1814A136843F480336F
:104B7C001360636843B3FEF779F805467C4B1B68FA
:104B8C0013F4003FCBD1FEF771F8401B6428F5D924
:104B9C00032088E1B3F5A02F09D0754B1A6822F4D5
:104BAC0080321A601A6822F480221A60E1E703F15D
:104BBC008043A3F53C331A6842F480221A601A68C9
:104BCC0042F480321A60D4E7FEF750F80546684B81
:104BDC001B6813F4003FA2D0FEF748F8401B642872
:104BEC00F5D903205FE1624B5B6813F4803FA5D1DC
:104BFC005F4B1B6813F0020F03D02369012B40F0AD
:104C0C004F815B4A136823F0F803616943EAC103DF
:104C1C001360236813F0080F32D0A369002B45D022
:104C2C00554B01221A60FEF721F80546504B5B6A82
:104C3C0013F0020F21D1FEF719F8401B0228F5D909
:104C4C00032030E14A4A136823F0F803616943EA10
:104C5C00C1031360DDE7474B00221A60FEF706F82C
:104C6C000546434B1B6813F0020FD2D0FDF7FEFF35
:104C7C00401B0228F5D9032015E10120FFF702FFA4
:104C8C00236813F0040F00F09780394BDB6913F0A5
:104C9C00805F1DD1364BDA6942F08052DA61DB69F4
:104CAC0003F080530193019B012512E0324B00224B
:104CBC001A60FDF7DBFF05462D4B5B6A13F0020F04
:104CCC00DED0FDF7D3FF401B0228F5D90320EAE024
:104CDC0000252A4B1B6813F4807F11D0E368012B4D
:104CEC0022D0002B38D103F1804303F504331A6A28
:104CFC0022F001021A621A6A22F004021A6218E007
:104D0C001E4A136843F480731360FDF7AFFF064629
:104D1C001A4B1B6813F4807FE0D1FDF7A7FF801BB3
:104D2C006428F5D90320BEE0114A136A43F001034D
:104D3C001362E36873B3FDF799FF06460C4B1B6ACD
:104D4C0013F0020F37D1FDF791FF801B41F288332E
:104D5C009842F3D90320A6E0052B11D0044B1A6A14
:104D6C0022F001021A621A6A22F004021A62E0E7C7
:104D7C000010024000004242800442420070004099
:104D8C004D4B1A6A42F004021A621A6A42F001028E
:104D9C001A62CEE7FDF76AFF0646474B1B6A13F013
:104DAC00020F08D0FDF762FF801B41F28833984256
:104DBC00F3D9032077E0E5B9E369002B72D03E4AC2
:104DCC00526802F00C02082A56D0022B17D03B4B2B
:104DDC0000221A60FDF74AFF0446374B1B6813F09C
:104DEC00007F47D0FDF742FF001B0228F5D90320B6
:104DFC0059E0314AD36923F08053D361DCE72F4B60
:104E0C0000221A60FDF732FF05462B4B1B6813F08E
:104E1C00007F06D0FDF72AFF401B0228F5D903209E
:104E2C0041E0236AB3F5803F1AD023494B6823F441
:104E3C007413226A606A024313434B601F4B0122B6
:104E4C001A60FDF713FF04461B4B1B6813F0007F21
:104E5C000ED1FDF70BFF001B0228F5D9032022E031
:104E6C00154A536823F40033A1680B435360DCE705
:104E7C00002018E0002016E0012B16D00E4B5B68CA
:104E8C0003F48031226A914211D103F47013626AE7
:104E9C0093420ED1002006E001207047012002E071
:104EAC00012000E0002002B070BD0120FBE70120D2
:104EBC00F9E70120F7E700BF001002406000424212
:104ECC00114B5A6802F00C03042B18D0082B18D184
:104EDC00C2F383430D49CB5C12F4803F0BD00A4ADA
:104EEC005268C2F340420A498A5C0A4800FB03F04C
:104EFC00B0FBF2F07047084800FB03F07047054820
:104F0C0070470648704700BF00100240C49200086A
:104F1C00D49200080024F40000093D0000127A002D
:104F2C00002800F0A08070B50D460446524B1B685B
:104F3C0003F007038B420BD24F4A136823F007038D
:104F4C000B431360136803F007038B4240F08D8012
:104F5C00236813F0020F17D013F0040F04D0474A44
:104F6C00536843F4E0635360236813F0080F04D0D4
:104F7C00424A536843F460535360404A536823F0E9
:104F8C00F003A1680B435360236813F0010F31D079
:104F9C006368012B20D0022B25D0384A126812F0FE
:104FAC00020F64D035494A6822F0030213434B6068
:104FBC00FDF75CFE0646314B5B6803F00C03626840
:104FCC00B3EB820F16D0FDF751FE801B41F28833F4
:104FDC009842F0D9032045E0284A126812F4003FA9
:104FEC00E0D101203EE0254A126812F0007FD9D1B1
:104FFC00012037E0204B1B6803F00703AB420AD9B2
:10500C001D4A136823F007032B431360136803F046
:10501C000703AB422DD1236813F0040F06D0174AB7
:10502C00536823F4E063E1680B435360236813F087
:10503C00080F07D0114A536823F46053216943EADF
:10504C00C1035360FFF73CFF0C4B5B68C3F30313C6
:10505C000B4AD35CD8400B4B18600B4B1868FDF710
:10506C00C1FD002070BD012070470120FAE701202E
:10507C00F8E70120F6E700BF0020024000100240D4
:10508C004C9200080000002014010020014B18680D
:10509C00704700BF0000002008B5FFF7F7FF044B76
:1050AC005B68C3F30223034AD35CD84008BD00BF3E
:1050BC00001002405C92000808B5FFF7E7FF044BB4
:1050CC005B68C3F3C223034AD35CD84008BD00BF5E
:1050DC00001002405C92000870B582B00446036870
:1050EC0013F0010F34D03E4BDB6913F0805F47D1D6
:1050FC003B4BDA6942F08052DA61DB6903F0805392
:10510C000193019B0125374B1B6813F4807F39D029
:10511C00334B1B6A13F4407311D0626802F4407273
:10512C009A420CD02E4A136A23F440702E49012661
:10513C000E6000260E60106213F0010F36D1284A63
:10514C00136A23F4407361680B431362002D3ED144
:10515C00236813F0020F06D0214A536823F440430E
:10516C00A1680B435360236813F0100F34D01C4A12
:10517C00536823F48003E1680B43536000202CE058
:10518C000025C0E7174A136843F480731360FDF7DA
:10519C006DFD0646134B1B6813F4807FB8D1FDF7E9
:1051AC0065FD801B6428F5D9032016E0FDF75EFD34
:1051BC0006460B4B1B6A13F0020FC0D1FDF756FDD0
:1051CC00801B41F288339842F3D9032005E0D36960
:1051DC0023F08053D361BBE7002002B070BD00BF49
:1051EC0000100240007000404004424230B4036A98
:1051FC00056A25F001050562846924F0F00444EA8F
:10520C00021423F00A030B438461036230BC704721
:10521C0030B4036A056A25F010050562846924F42C
:10522C00704444EA023423F0A00343EA011384617E
:10523C00036230BC7047836823F070030B4343F068
:10524C00070383607047000090F83D30DBB2012B00
:10525C0027D1022380F83D300268D36843F0010364
:10526C00D3600368114A934210D0B3F1804F0DD034
:10527C00A2F59432934209D002F58062934205D094
:10528C001A6842F001021A60002070479A6802F016
:10529C000702062A07D01A6842F001021A600020A1
:1052AC007047012070470020704700BF002C014060
:1052BC0003681F4A90420AD0B0F1804F07D0A2F584
:1052CC009432904203D002F58062904203D123F0D5
:1052DC0070034A681343164A90420AD0B0F1804FCB
:1052EC0007D0A2F59432904203D002F5806290422E
:1052FC0003D123F44073CA68134323F080034A6933
:10530C00134303608B68C3620B688362084B98423B
:10531C000AD001234361036913F0010F03D0036921
:10532C0023F00103036170470B690363F1E700BFCE
:10533C00002C014040B310B5044690F83D30F3B159
:10534C00022384F83D30214651F8040BFFF7B0FFDF
:10535C00012384F8463084F83E3084F83F3084F8DA
:10536C00403084F8413084F8423084F8433084F87B
:10537C00443084F8453084F83D30002010BD80F86E
:10538C003C30FCF793FFDBE70120704710B48468D6
:10539C0024F47F4442EA03220A432243826010BC75
:1053AC00704790F83C30012B78D010B5044601239F
:1053BC0080F83C30022380F83D300268936823F477
:1053CC007F4323F0770393600B68602B4CD029D874
:1053DC00402B54D00CD9502B22D1CA684968006894
:1053EC00FFF704FF50212068FFF725FF002005E0A0
:1053FC00202B0DD009D9302B0AD00120012384F8A1
:10540C003D30002384F83C3010BD0BB1102B05D17E
:10541C0019462068FFF70FFF0020EFE70120EDE7AA
:10542C000120EBE7B3F5805F34D0B3F5005F0CD10E
:10543C00CB684A6889680068FFF7A8FF2268936800
:10544C0043F4804393600020D8E7702B24D1CB68C1
:10545C004A6889680068FFF799FF2268936843F0EF
:10546C00770393600020C9E7CA6849680068FFF7B2
:10547C00CFFE60212068FFF7DEFE0020BEE7CA6881
:10548C0049680068FFF7B2FE40212068FFF7D3FEA1
:10549C000020B3E70020B1E70120AFE702207047FE
:1054AC0090F83C30012B2BD030B4012380F83C30E9
:1054BC00022380F83D3003685C689D6824F070041A
:1054CC000A6822435A6003680E4A93420AD0B3F129
:1054DC00804F07D0A2F59432934203D002F580623C
:1054EC00934204D125F080054A6815439D60012341
:1054FC0080F83D30002380F83C30184630BC7047B3
:10550C0002207047002C0140026802F10C0353E8A2
:10551C00003F23F490730C3242E800310029F3D1A0
:10552C00026802F1140353E8003F23F00103143224
:10553C0042E800310029F3D1036B012B05D0202365
:10554C0080F84230002303637047026802F10C03B9
:10555C0053E8003F23F010030C3242E800310029DD
:10556C00F3D1ECE790F84130DBB2212B01D00220D3
:10557C0070478368B3F5805F17D0036A5A1C0262C8
:10558C001A7803685A60C38C9BB2013B9BB2C384EC
:10559C004BB90268D36823F08003D3600268D368E8
:1055AC0043F04003D360002070470369002BE4D123
:1055BC00036A1B880268C3F308035360036A02334F
:1055CC000362E0E710B504460268136923F4405304
:1055DC00C1680B43136183680269134342691A4320
:1055EC000168CB6823F4B05323F00C031343CB6056
:1055FC000268536923F4407381690B435361026859
:10560C00124B9A421FD0FFF747FD00EB800303EBD0
:10561C00830362689200B3FBF2F20D48A0FB0231E7
:10562C004909642303FB11231B013233A0FB032321
:10563C005B0903F0F00202EB011203F00F03216887
:10564C0013448B6010BDFFF737FDDEE700380140D7
:10565C001F85EB512DE9F04383B005460E461746E6
:10566C009946DDF828802C68246836EA04030CBFC0
:10567C0001240024BC4228D1B8F1FF3FF3D0FDF740
:10568C00F5FAA0EB0900404523D8B8F1000F22D061
:10569C002B68DA6812F0040FE5D0802EE3D0402E90
:1056AC00E1D01A6812F0080FDDD0002401941A68BA
:1056BC0001925B680193019B2846FFF725FF0823A5
:1056CC006B6485F84040012000E0002003B0BDE889
:1056DC00F0830320FAE70320F8E760B310B5044623
:1056EC0090F8413013B3242384F841302268D368F6
:1056FC0023F40053D3602046FFF764FF226813693C
:10570C0023F4904313612268536923F02A035361F5
:10571C002268D36843F40053D360002060642023D4
:10572C0084F8413084F84230606310BD80F840301A
:10573C00FCF7E2FDD7E7012070472DE9F04182B07C
:10574C001E4690F84130DBB2202B56D104460D4654
:10575C009046002955D00AB901204FE0002343643C
:10576C00212380F84130FDF781FA0746A4F8248004
:10577C00A4F82680A368B3F5805F02D04FF0000830
:10578C0014E023692BB34FF000080FE0202384F8BA
:10579C004130032032E038F8023B2268C3F308039F
:1057AC005360E28C92B2013A92B2E284E38C9BB2E7
:1057BC0093B100963B46002280212046FFF74AFF1A
:1057CC000028E3D1002DE6D015F8012B23685A6090
:1057DC00E7E7A8460025E9E700963B460022402172
:1057EC002046FFF737FF18B9202384F8413005E035
:1057FC00202384F84130032000E0022002B0BDE8F1
:10580C00F0810120FAE7704708B50168CA6822F0F8
:10581C004002CA60202280F84120FFF7F4FF0020EC
:10582C0008BD08B5406A0023C385C384FCF7C4F8DF
:10583C0008BD704790F84230DBB2222B69D18368E7
:10584C00B3F5805F4FD0826AB3F5805F04D0002B34
:10585C0056D10369002B53D103685B681370836ABC
:10586C0001338362C38D9BB2013B9BB2C385002B7A
:10587C0051D100B583B00268D36823F02003D36004
:10588C000268D36823F48073D3600268536923F0F1
:10589C0001035361202380F8423000234363036BE0
:1058AC00012B33D100230363026802F10C0353E88C
:1058BC00003F23F010030C3242E800310029F3D1F1
:1058CC0003681A6812F0100F06D0002201921A68B1
:1058DC0001925B680193019B818DFFF7AAFF002069
:1058EC0003B05DF804FB0269002AACD1826A03683C
:1058FC005B68C3F308031380836A02338362B1E7E6
:10590C0003685B6803F07F031370A8E7FCF742F8A9
:10591C00E5E70220704700207047000030B583B0E7
:10592C00044602681368D068516913F00F0505D15D
:10593C0013F0200F02D010F0200F19D12DB111F05F
:10594C00010119D110F4907F16D1216B01297DD062
:10595C0013F0800F03D010F0800F40F0188113F07B
:10596C00400F03D010F0400F40F0158103B030BD54
:10597C002046FFF75FFFF9E713F0010F06D010F494
:10598C00807F03D0626C42F00102626413F0040F5A
:10599C0004D019B1626C42F00202626413F0020F7F
:1059AC0004D019B1626C42F00402626413F0080F67
:1059BC0007D010F0200F00D119B1626C42F0080230
:1059CC006264626C002AD1D013F0200F02D010F068
:1059DC00200F29D123685B6903F04003626C12F03D
:1059EC00080F00D163B32046FFF78EFD23685B6977
:1059FC0013F0400F20D0226802F1140353E8003F4B
:105A0C0023F04003143242E800310029F3D1E36B58
:105A1C0073B1634A5A63E06BFDF7BAFC0028A5D05A
:105A2C00E06B436B9847A1E72046FFF703FFD1E7F4
:105A3C002046FBF7C1FF99E72046FBF7BDFF95E732
:105A4C002046FBF7B9FF002363648FE713F0100FB8
:105A5C003FF47EAF10F0100F3FF47AAF00230193A8
:105A6C001368019353680193019B536913F0400F22
:105A7C0051D0E26B13685B689BB2002B3FF476AF9E
:105A8C00A18D99427FF672AFE3859369202B37D0B5
:105A9C00226802F10C0353E8003F23F480730C32AC
:105AAC0042E800310029F3D1226802F1140353E8D3
:105ABC00003F23F00103143242E800310029F3D1F6
:105ACC00226802F1140353E8003F23F04003143220
